:10000000000004205D0300004503000047030000DA
:10001000490300004B0300004D03000000000000F6
:100020000000000000000000000000004F0300007E
:1000300051030000000000005303000055030000BE
:100040003526000019040400ADB104005703000078
:100050005703000057030000592900005703000010
:100060005703000057030000570300005703000028
:100070005703000061FB0200570300005703000014
:1000800057030000A91A000057030000570300009F
:1000900057030000570300005703000057030000F8
:1000A00057030000570300005703000057030000E8
:1000B000570300005703000000000000000000008C
:1000C00057030000570300005703000057030000C8
:1000D0002DE90200570300005703000057030000FA
:1000E0005703000057030000570300000000000002
:1000F000000000005703000000000000570300004C
:1001000000000000000000000000000000000000EF
:1001100000000000000000000000000000000000DF
:1001200000000000000000000000000000000000CF
:1001300000000000000000000000000000000000BF
:1001400000000000000000000000000000000000AF
:10015000000000000000000000000000000000009F
:10016000000000000000000000000000000000008F
:10017000000000000000000000000000000000007F
:10018000000000000000000000000000000000006F
:10019000000000000000000000000000000000005F
:1001A000000000000000000000000000000000004F
:1001B000000000000000000000000000000000003F
:1001C000000000000000000000000000000000002F
:1001D000000000000000000000000000000000001F
:1001E000000000000000000000000000000000000F
:1001F00000000000000000000000000000000000FF
:10020000314932480A1A02D0072291438D463049BB
:1002100030480A1A06D00722914381F30988022246
:1002200082F314882C482D492D4A00F03CF82D48C3
:100230002D492E4A00F037F82D482E492E4A00F05D
:1002400032F82E482E492F4A00F02DF82E482F491B
:100250002F4A00F028F82F482F49304A00F023F8A1
:100260002F483049304A00F01EF83048304900220B
:1002700000F024F82F483049002200F01FF82F4AE0
:1002800090471F481F49884205D00268043003B4D4
:10029000904703BCF7E700208646EC46002000218B
:1002A000274A9047FEE7884207D0521A05D00378C4
:1002B00001300B700131013AF9D17047884202D008
:1002C00002700130FAE770470000042000E00320CC
:1002D0000000042000000420188605000000002013
:1002E00050010020B8030000B8030000ACF1040086
:1002F00018860500000000200000002018F204000D
:1003000018F2040018F2040018F2040018F20400B5
:1003100018F2040018F2040018F204001886050010
:100320006887050050010020500100205001002086
:10033000EB400120EC400120F0400120850300004B
:10034000CD310000FEE7FEE7FEE7FEE7FEE7FEE751
:10035000FEE7FEE7FEE7FEE700F002B8FFF7FCBFAE
:100360000F484FF00701884385460E4880470E48E6
:10037000016841F470010160BFF34F8FBFF36F8FCD
:10038000FFF73EBF09480A490A4A884207D0521A75
:1003900005D0037801300B700131013AF9D1704773
:1003A000000004203D0E000088ED00E018F204007B
:0803B000000000200000002005
:1003B80000487047E4400120FEE7704707B5044B4A
:1003C8000093044A402300F032F803B05DF804FBC0
:1003D800E1030000510100202DE9F8438846144646
:1003E800B2B10F4B0F4E0325002743F001092246F7
:1003F80008EB0701002002F0B3FF0744241A48B9AC
:1004080033782BB14FF47A40C847013D02D135709B
:10041800BDE8F88301233370002CE8D1F8E700BF6A
:1004280020F2040050010020704702F0E5BFF0B54B
:1004380095B01D46164608460C4601F07FFF1A9BEC
:100448000D93CDE9086500252B46082205A920460D
:100458000A958DF82C500C9501F08CFF079B0293A0
:10046800069B03939DF814308DF8115003F0030296
:10047800012A1DD1BDF81420059DC3F3C203C2F3A0
:1004880083168DF81030B20008230EA9204601F01B
:1004980071FFC5F3952508AB0093324602AB0EA950
:1004A800284600F051FB204601F04CFF15B0F0BD86
:1004B800022AF8D1BDF81650C3F3C203C5F3891553
:1004C8008DF810300827082D2E4628BF08263B46F1
:1004D80032460EA9204601F04DFFAD1B08AB02AA1B
:1004E80031460EA8374400F093FB002DEBD1DAE734
:1004F80008B5FFF79AFF0448042100F08FFA034B70
:1005080001225A7108BD00BFF4F104000000002068
:10051800037813F0040216D003F00303012B03D071
:10052800022B09D0012070470A6800880232C0F304
:10053800831002440A60F5E70B684288023303EB34
:1005480092130B60EEE71046704700002DE9F04F5C
:10055800DFF824A10F4685B00446861C0020154606
:1005680001F064F9DAF800103960DAE9013213446D
:1005780001335B1A0AF21C470AF583690AF2144828
:10058800B3421BD30020002D72D004F00F039B014F
:1005980043F0050363F30F00DAF80020DAF80830B7
:1005A8001340033332444AF823000020CAF80020DD
:1005B80001F03EF9012005B0BDE8F08F0121384671
:1005C80001F0F3FB484601F008FC404601F005FC49
:1005D800DAF80400DAF808B0009000EA0B000330FB
:1005E8000AEB80006946FFF793FF009B50BB0BEABC
:1005F80003020AEB820203F1020CD2680192013372
:1006080003EA0B0B0AEB8B0B02F00302012ADBF85F
:100618000C10CDF800C023D0022A16D083464046DD
:1006280001F0DEFB10B1009BCAF804305946384689
:1006380001F0BBFBDAE901231344DAF800200133A7
:100648009B1A9DE70BEA0300C9E7BDF80630C3F320
:10065800891303334FEA114B0CEB93030093DEE746
:10066800BDF80430C3F383134FEA114B6344F5E735
:10067800A40544F006008FE7640200200B4B0C48E9
:10068800FF2210B59A600022C3F81824C3E900229B
:10069800C3F8142483F8202401F009FE044610B995
:1006A800044801F071FE204610BD00BF640200201E
:1006B80004F204005CF2040030B50A4C71B10A4A35
:1006C8000A49121BD20800239A4201D1002030BDEA
:1006D80031F82350854202D00133F5E7034654F838
:1006E8003300F4E7ACF10400F4F10400000000204A
:1006F800094B013903EBC000032909D8DFE801F0F1
:100708000A02040604207047007970474079704750
:100718000020704702207047ACF10400034BD3E976
:100728000030C31A58425841704700BF6402002085
:100738002DE9F04385B0FFF7F1FF0646002840F0A9
:10074800FA807E4CC4F81804BFF34F8F6368A5681D
:1007580000932B40033304EB83006946FFF7D8FE70
:10076800009B18B1D4F81824002A62D005EA0302C5
:10077800991C013304EB82022B4004EB8303D268FB
:10078800DB68029302F00303022B0192009163D10C
:10079800BDF806306A48C3F38917502FB84628BFFA
:1007A8004FF0500808F1080168F38F13C1F30901ED
:1007B800ADF8063001F093FD0646002800F0A6804B
:1007C80001F0BCFD0023082201A9304601F0C8FD54
:1007D800009925EA01020132B8EB820F4FEA820341
:1007E80033D95FFA88F863B32940DDB2A8EB05086E
:1007F80003315FFA88F9A846524D04EB81010823BA
:100808004246304601F0ACFD3DB108F10803DBB2C9
:100818004A462946304601F0A3FD009B033703EB07
:1008280097070097D4F81834002B4BD1D4F81054FC
:100838005BE0226893428CD36260304605B0BDE825
:10084800F08340491D469946D9E7294003310823DA
:10085800424604EB8101DDE7012B57D1BDF8043096
:100868003748C3F38311062928BF062161F389138A
:10087800023101F00F018900ADF8043001F02FFDBD
:100888000646002842D001F059FD0023082201A99C
:10089800304601F065FD0027BDF80420C2F383123D
:1008A800BB00974203F10803BCD200994A1C2940B7
:1008B8000331009204EB81010422304601F050FD1F
:1008C8000137E9E7304601F03DFDFFF727FF80F0EB
:1008D8000100C6B2B1E7EB685B7923B12B683146FA
:1008E8001B6828469847EB681D68002DF3D13046F1
:1008F80001F028FD284600F099FFD4F818340BB908
:10090800009B6360002000F093FFDEE7D4F81044FA
:1009180054B90D4B0D480E49C01AC008000440F0E8
:10092800020000F063F8D0E7236820469B689847E8
:10093800E3681C68ECE700267FE700BF640200203C
:1009480004F2040070020020ACF10400BCF10400C1
:1009580044F204002DE9F74F224E04460F46924612
:1009680001A901221846D6F808909B46FFF7EEFD2C
:1009780020B3019D4FF00008AA1CD84508EB0201DE
:1009880026D11948002101F0EDF980F31000000488
:1009980040EA1440E4006B1C04F0380403EA09033D
:1009A80005EA090544F0010406EB8303033544EA2C
:1009B800881444EA8724D86046F8254096F82034FD
:1009C8001BB1FFF7B5FE0028FBD103B0BDE8F08FDF
:1009D80009EA010106EB81015AF82830CB6008F1D9
:1009E8000108CAE7640200208006002000231A4696
:1009F800FFF7B0BF07B50123019201AAFFF7AAFFCD
:100A080003B05DF804FB07B5CDE9002302236A466D
:100A1800FFF7A0FF03B05DF804FB000030B50F4CF2
:100A2800D4F8102403460020114631B9D96808715A
:100A38004AB9C4F810340A6030BDC9680D798542D6
:100A480006D00968F1E7D26814680C601360F3E710
:100A580001300A28E8D14FF0FF30EDE764020020AA
:100A680038B5084B0125D3F8104483F8205404B94D
:100A780038BDE3685D71236820465B689847E36882
:100A88001C68F4E76402002030B5C38885B00446CA
:100A98000D4633B1144A00921449154A284601F00C
:100AA800F9F9217A05291DD0637A4BB1A088FFF79F
:100AB8001FFE104B104953F82020284601F0EAF990
:100AC800227A0E4BA08853F8222003920021FFF7C8
:100AD800F3FD039A0A490346284605B0BDE83040AD
:100AE80001F0D8B905B030BD88F2040070F20400F6
:100AF80068F20400ECF20400C75C050010F304007F
:100B08008DF2040007B503460846197A052911D065
:100B18005B7A2BB1094A0A49019001F0BBF90198A7
:100B28000849019001F0B6F9019803B05DF804EBAB
:100B380001F0A5B9002AF8D0F2E700BF88F2040056
:100B4800C75C0500CA6D05002DE9F04385B01F4656
:100B58000C9D002395F80C902B7306460C46904686
:100B680029463846FFF790FFB8F1060F09D8DFE8A5
:100B780008F00412181F283340003146284601F0B7
:100B880089F9002229463846FFF7BCFF85F80C9002
:100B980005B0BDE8F08322683146284601F07AF9AD
:100BA800EFE7D4E900233146284601F073F9E8E776
:100BB800A36800933146D4E90023284601F06AF976
:100BC800DFE7E3680193A36800933146D4E9002383
:100BD800284601F05FF9D4E723690293E36801939B
:100BE800A36800933146D4E90023284601F052F95E
:100BF800C7E76369039323690293E3680193A368D2
:100C080000933146D4E90023284601F043F9B8E7B8
:100C180008292DE9F74F80460E4617461C463DD851
:100C280000251B7B2573214610460193FFF72CFFF7
:100C3800DFF88CA0DFF88CB0AE4232D918F8052066
:100C48005946204601F026F90135082DF4D11B49F3
:100C5800DFF874A0DFF874B0204601F01BF94FF0FC
:100C680000094E4524D918F809507E2D1ED828466B
:100C780042F00AFF002814BF2A462E225946204671
:100C880001F008F909F10109B9F1080FE9D10122C8
:100C980021463846FFF736FF019B237303B0BDE8B2
:100CA800F08F5146204601F0F5F8CDE72E22E5E712
:100CB8005146204601F0EEF8E4E700BFA1F2040037
:100CC8009DF2040097F204009FF20400A66C050050
:100CD800074B1B5C1F2B8ABF064A4FF0A04203F04C
:100CE8001F03D2F80405D840C04300F00100704744
:100CF80024F3040000030050074B1B5C1F2B86BF26
:100D0800064903F01F034FF0A041012202FA03F342
:100D1800C1F80C35704700BF24F3040000030050ED
:100D2800074B1B5C1F2B86BF064903F01F034FF0C0
:100D3800A041012202FA03F3C1F80835704700BF49
:100D480024F304000003005008B50020FFF7E8FF73
:100D58000120FFF7E5FF0220FFF7E2FFBDE80840AA
:100D68000320FFF7DDBF08B50020FFF7C5FF01200E
:100D7800FFF7C2FF0220FFF7BFFFBDE808400320CE
:100D8800FFF7BABF0A4B185C1F288ABF094B4FF000
:100D9800A04300F01F00D3F804250121814021EA77
:100DA80002000A40C3F80805C3F80C25704700BFC5
:100DB80024F30400000300500B2809D00C2809D0A4
:100DC800182809D019280CBF03204FF0FF307047AE
:100DD800002070470120704702207047C20710B5F5
:100DE80004460CD54FF0A0430322C3F83427C3F8B8
:100DF8003827C3F83C27C3F84027FFF7A5FFA30708
:100E08000AD54FF0A0430C22C3F82C27C3F830278B
:100E1800C3F86027C3F8642710BD4FF08053D3F898
:100E28003021082A03BFD3F83401B0FA80F0400912
:100E38000020704708B54FF080430022C3F80C210A
:100E4800C3F81021C3F838254FF0805203F540430A
:100E5800D2F80414C3F82015D2F80814C3F82415DE
:100E6800D2F80C14C3F82815D2F81014C3F82C15AE
:100E7800D2F81414C3F83015D2F81814C3F834157E
:100E8800D2F81C14C3F84015D2F82014C3F844153E
:100E9800D2F82414C3F84815D2F82814C3F84C150E
:100EA800D2F82C14C3F85015D2F83014C3F85415DE
:100EB800D2F83414C3F86015D2F83814C3F864159E
:100EC800D2F83C14C3F86815D2F84014C3F86C156E
:100ED800D2F84424C3F87025FFF79FFF18B13B4BA5
:100EE8003B4AC3F88C26FFF798FF18B1394BFB2211
:100EF800C3F81825FFF791FF70B14FF080414FF00C
:100F08008053D1F8E42ED3F8583222F00F0203F0C0
:100F18000F031343C1F8E43EFFF77FFF20B12E4BC8
:100F28004FF40072C3F840264FF08043D3F80024F2
:100F3800D20744BF6FF00102C3F80024274AD2F851
:100F4800883043F47003C2F88830BFF34F8FBFF383
:100F58006F8F4FF01023D3F80022002A03DBD3F859
:100F68000432002B2EDA1E4B0122C3F80425D3F8D5
:100F78000024002AFBD04FF010221221C2F80012E0
:100F8800D3F80024002AFBD04FF010231222C3F814
:100F98000422134BD3F80024002AFBD00022C3F804
:100FA8000425D3F80024002AFBD0BFF34F8F0B4948
:100FB8000C4BCA6802F4E0621343CB60BFF34F8F57
:100FC80000BFFDE7084B094A1A6008BD0050004001
:100FD8004881030000F000400090024000ED00E06E
:100FE80000E001400400FA05080000200090D0034A
:100FF800C30710B507D4F023054A4008145C234002
:101008001943115410BD0901C9B20F23F4E700BFF9
:101018005007002030B5094B1C78094B196800238C
:101028009C4202DC0022104630BD11F83350854244
:1010380001EBC302F7D00133F2E700BF200700201D
:101048007007002013B504460191FFF7E3FF38B19C
:1010580043682BB10199204602B0BDE810401847FB
:1010680002B010BD034B044819680022490800F07B
:10107800DEBA00BF240700202807002010B5C0B240
:10108800FFF7C8FF0446007801F054FC63785A1E45
:1010980053425341834208D1044BD3E900231343FD
:1010A80003D1BDE81040FFF7DDBF10BD48070020A1
:1010B80038B5334A43080446D35CC2074CBF1B0902
:1010C80003F00F030D46042B59D8DFE803F0032281
:1010D8002A363900002952D00121FFF789FF002064
:1010E80000F0A4FB0120A4F12003C4F12001254A4B
:1010F80020FA01F100FA03F30B43A040D2E90041C2
:1011080020430B43C2E90003BDE83840002000F04B
:101118008FBB002918BF02212046BDE83840FFF7E1
:1011280067BF41B10321FFF763FF20460121BDE8F6
:101138003840FFF787BF0121EEE701BB0421EBE749
:1011480009B10321E8E7FFF753FF29462046FFF7D7
:1011580079FF284600F06AFB0120A4F12003C4F1BE
:101168002001084A20FA01F100FA03F30B43A040DA
:10117800D2E9004124EA000021EA0303C2E738BDAE
:1011880050070020480700202DE9F041124E134F68
:1011980000243378A34208DC114BD3E9002313431E
:1011A80018D0BDE8F041FFF75DBF3D6805EBC40806
:1011B80015F8340001F0BEFB98F801305A1E53426E
:1011C8005341181A4142414115F83400FFF770FFA6
:1011D8000134DEE7BDE8F081200700207007002019
:1011E80048070020092AF7B505460C4616463ED999
:1011F80001F0C8FAE8B11F4B1F481D601F4B204F74
:101208001C70204B002120221E6042F084FE1E4BE1
:1012180000200021C3E90001013CE4B20326FF2CB1
:101228000DD11A4A1A48002103B0BDE8F04000F079
:10123800F3B901F075FA0028DDD003B0F0BD9DF8D0
:10124800063015F834008DF8046005EBC40223F06D
:1012580007038DF8063001A993788DF805303A46D2
:1012680001F09AFA013CE4B20028D8D0E5E707205B
:10127800E3E700BF70070020500700202007002088
:101288008510000024070020480700209111000065
:1012980034F3040070B5084D084E00242B789C42A6
:1012A80001D3002070BD3368012113F8340001F028
:1012B800F3FA0134F2E700BF20070020700700208E
:1012C8001FB50021039001AA44F20100CDE90111E4
:1012D80000F004F805B05DF804FB000038B572B6FC
:1012E800FFF7BEFBFFF724FA0028FBD1104B114C87
:1012F800114D1249E41AE408240444F00100FFF7F0
:1013080075FBD5F8F030DB0700D500BE0C4944F07A
:101318000200FFF76BFBBFF34F8FEA68094B02F43B
:10132800E0621343EB60BFF34F8F00BFFDE700BFE0
:10133800ACF10400BCF1040000ED00E038F3040057
:1013480044F304000400FA054B1C30B5DB000446E6
:1013580012F003009BB20DD1074D2A601A44074BC7
:101368001A60074B1870074B1870074B1C80074B07
:10137800198030BD0720FCE77C0700207807002093
:1013880074070020840700208007002082070020BF
:101398002DE9F843DFF8AC80B8F800308B420646F8
:1013A8000D46174640D3002000F040FA204B214A52
:1013B8002148197800881478E3B2844238BF013391
:1013C800C9B234BFDBB20023994226D01478117811
:1013D800CBB2884286BF0133DBB2002313700020F2
:1013E80000F026FA4FF6FF739C421FD0134B1B6880
:1013F80043F8347003EBC40996B18DB1104BB8F8BB
:1014080000001B682A46314604FB003042F05AFDB2
:10141800A9F804500020BDE8F8834FF6FF74DEE712
:101428000020A9F80400F6E70920F4E70420F2E711
:101438008407002074070020820700207C07002012
:10144800780700208007002070B5104C104D2278D6
:101458002B789A4200D170BD0E480F4A2378126843
:1014680006880E4802EBC301006852F833208988C9
:1014780003FB060090470A4922780988D3B29142B3
:1014880086BF0133DBB200232370E0E78407002026
:1014980074070020800700207C07002078070020C0
:1014A8008207002010B5D0E90243D1E90202A04228
:1014B80072EB03032CBF0120002010BDD0E90030DF
:1014C8001847000008B50A4800F0D5FA094AD2E9D9
:1014D8000031C018084BD3E9002341F100019042C4
:1014E80071EB030303D210F1807041F1000108BDD4
:1014F8000C000020900700200808002037B505469A
:101508000C460A4801A900F0B8FB60B105704460B8
:1015180001A9064800F0DBFB18B1054800F0B0FA55
:10152800002003B030BD0420FBE700BFF407002013
:101538000C0000201C4B37B51D78044675B380B3EA
:10154800037F03F0FF054BB3FFF7BCFFD4E9022389
:10155800904271EB03031BD3236903B923776369B3
:101568000093124AA369019308216846FFF710FF08
:1015780008B1FFF7A5FE22697AB1237F03F0FF05C2
:1015880063B1D4E902319B1841F10001C4E9023189
:101598000748214600F001FF00E01546284603B041
:1015A80030BD0546FAE700BF98070020C5140000C3
:1015B80060F3040013B5114B114918680190082312
:1015C8001048582200F046FB044698B90E4A0F48C6
:1015D80001A900F03DF9044660B90C48012100F06A
:1015E8002DFA01230A4A0948194600F08FF9094BD8
:1015F80001221A70204602B010BD00BF5CF304003F
:101608009C070020F4070020811600000C00002031
:10161800FFFF7F00980700203AB103685A614A1E0D
:10162800514251411961002070470720704738B571
:10163800037F04460D4683B98261FFF743FF2369A0
:10164800281841F10001C4E9020103B125612146CE
:101658000020BDE83840FFF751BF002038BD002307
:10166800014603770120FFF749BF0000014800F059
:1016780002BA00BF0C0000202DE9F347064600F02F
:10168800E5F940B1584AD2E9003113F1807341F1CC
:101698000001C2E900310021304600F0E6F938B116
:1016A800524C236823B12068FFF744FF00232360CE
:1016B8000121304600F0D9F920B1FFF703FF4C4B68
:1016C800C3E900014B48494D4B4C4C4F01A900F070
:1016D8000EFB002842D1DFF82081444CDFF824912A
:1016E800404600F070FE2368002872D07BB1236862
:1016F800D0E90252D3E902138D4272EB03032AD2D6
:1017080023681B7F1BB12168404600F046FE404617
:1017180000F053FED0E9027A0546FFF7D3FE381AE7
:101728006AEB010A01287AF1000345DBB0F5350FB1
:1017380040D3FFF79BFF324A02444FF4960300213F
:10174800484600F003F900283ED1236813B9304613
:1017580000F0D4F8256002B0BDE8F0870378012BCB
:101768001DD0022B09D14FF00008204600F025FEBD
:10177800002836D080F81C80F7E73BB941680B7F1A
:1017880023B901230B77204600F007FE01A9194869
:1017980000F0D8FA01A9174800F0A9FA99E74168BA
:1017A8002B68994202D100232B60EFE7204600F016
:1017B8000DFEEBE7AA68C0E70021484600F04BF9A8
:1017C8002846FFF7B7FE01E00D28F9D00023236073
:1017D80086E7002BBFD1304602B0BDE8F04700F0E5
:1017E80091B801233B70D1E7900700201008002032
:1017F80008080020F407002060F304009807002080
:10180800FFFFB4000C00002072B6024A13680133CF
:101818001360704714080020034A1368013B1360E3
:1018280003B962B6704700BF14080020FFF7ECBF89
:10183800FFF7F2BF435882B03BB1002343504358EF
:101848000193019B012002B070471846FBE7000096
:10185800F8B5224B4579224E43F82520214A224BE0
:101868009B1A06EBC502DB0812791B04EF0032B1A4
:1018780043F002001D49FFF7B9F80820F8BD0268D7
:101888000C88C2F8084590F9044002798978002C40
:10189800ADBF04F1604CDFF85CC002F00F0E0CF530
:1018A800614C4FEA4111C9B2B4BF0CF80E108CF864
:1018B800001364090121DFF840C002F01F0201FA99
:1018C80002F24CF82420F21946F83500117143F061
:1018D80003000749FFF78AF80020CFE72008002017
:1018E80018080020ACF10400CCF104006CF30400EB
:1018F8008EF3040014ED00E000E100E0036801222B
:101908001A607047036801225A60704773B501F185
:101918005005AD000068ADB24FF480348C4000260D
:10192800C0F80843C0F84843465101F5A871455925
:10193800019522F07F42019D40F82120C0F84443E0
:101948000BB1C0F8044302B070BD00002DE9F74F99
:101958000D4622F07F4402684FF4803705F15006A7
:101968008F408046B60002EB8500C2F84873B6B2D5
:10197800C2F80873D2F8041599464FF0000BD0F856
:101988004035C0F8401542F806B05B1A92590092EB
:1019980023F07F43012B009A4FEA850A0CD1264B8E
:1019A8004FF4806043F001039847D8F8003043F8BB
:1019B80006B09B590193019BD8F80010D1F8046533
:1019C800C1F84473A31B23F07F43012B1CD11A4B8E
:1019D80005F5A875013443F0010341F825404FF49B
:1019E80080609847D8F80030D3F804359E4209D172
:1019F800D8F800300020C3F84473C3F8047303B068
:101A0800BDE8F08F0D20FAE78A44C9F1FF13CAF840
:101A18004045D1F80405221A013A22F07F4203F525
:101A28007F439342EED3002AE2D10134CAF84045FD
:101A3800D1F804359842DAE7A0F3040003680222DB
:101A4800C3F8442309B1C3F80423704700684FF46E
:101A58008271FFF7EFBE4FF4803303FA01F1036898
:101A6800C3F84813C3F80813704750318900006859
:101A780089B2FFF7DFBE0368D3F80405704700009A
:101A880090F9043001215A0903F01F0301FA03F306
:101A98004032024941F82230704700BF00E100E0BF
:101AA800024B034A1B681068184700BF2008002033
:101AB800180800204109064A012300F01F0003FA14
:101AC80000F052F82130184342F82100704700BF57
:101AD8002408002010B5002420460134FFF7EAFF4F
:101AE800592CF9D1024B01221A70002010BD00BFF9
:101AF80030670020314B1B782DE9F041002B50D086
:101B0800002851D000294FD00C68631EB3F5306F00
:101B18004DD22B4B2B4DDFF8B0C000229E4653F818
:101B2800046B55F8047BB44203D85CF82260BE42CB
:101B380005D1592F03D80132072AF0D10022224BB0
:101B4800224C53F8223054F82240214D582B31D8DA
:101B58003F2B06D94F2B1FD9542B34BF0422052203
:101B680000E002225F095EF8226055F8272003F0A2
:101B78001F0C22FA0CF818F0010F0FD0012303FAFA
:101B88000CF322EA0302134B45F827201C44046097
:101B98000E600020BDE8F0810322E3E734440133FE
:101BA800D4E748F20810F5E748F20E10F2E748F2D9
:101BB8000710EFE748F20410ECE700BF3067002099
:101BC800E8F30400B0F3040004F40400CCF30400C8
:101BD800240800203008002013B54843019001A9CB
:101BE800002468460094FFF785FF014630B9DDE917
:101BF800000242F090F9009802B010BD0094FAE794
:101C0800114B1B7830B40246ABB1A0B100230F4D85
:101C18000F4C184659198A420FD03F2810D94F281F
:101C280010D953288CBF0521042154F82110013004
:101C380059280B44EED130BC704730BCFFF73ABF8F
:101C48000221F2E70321F0E7306700203008002086
:101C5800E8F3040010B561B1B2FBF3F403FB1424FC
:101C6800A4B244B9C0E9001484608281C3812046CB
:101C780010BD0E20FCE70920FAE737B550E8013F10
:101C88009DB2C48925448489A54228BF2D1B048997
:101C9800A54202BFBFF32F8F002207E0C5EA030564
:101CA80040E80154002CE9D14FF001028DF80320DF
:101CB8000193019A0A609DF8031001F0FF0321B116
:101CC800006810FA82F003B030BD1846FBE70A88B6
:101CD8004B889A4209D150E8012FC2EA024240E8F3
:101CE8000123002BF7D1012070470020704737B53A
:101CF80050E8023F1FFAA3F5C488A54202BFBFF30C
:101D08002F8F00220DE0C48925448489A54228BF6D
:101D18002D1BC3EA054540E80254002CE8D14FF0DA
:101D280001028DF803200193019A0A609DF80310BF
:101D380001F0FF0321B1006800EB124003B030BD91
:101D48001846FBE70A884B889A4209D150E8022FC7
:101D5800C2EA224240E80223002BF7D10120704753
:101D68000020704710B5034653E8000F0A4643E8C1
:101D7800002494F0000FF7D110BD10B5034653E8C6
:101D8800002F42EA010043E8000494F0000FF6D166
:101D980010BD10B5034653E8000F00EA010243E8FE
:101DA800002494F0000FF6D110BD10B5034653E897
:101DB800002F02EB010043E8000494F0000FF6D175
:101DC80010BD10B5034653E8002FA2EB010043E80D
:101DD800000494F0000FF6D110BD0121FFF7CDBF2C
:101DE8000021FFF7D6BF10B590B1D0E901230168F3
:101DF8009B1ADBB20A60013BDBB2FF2B026802D1FF
:101E08000020107110BD11684C1C14600B70F2E7B3
:101E18000E20F7E738B504460020FFF707FD2268D3
:101E280063681168994213D9481E106011F8013C83
:101E3800E568218A01FB0355A36811791B1ADBB2F7
:101E4800994200D213710020FFF7F2FC284638BDF2
:101E58000025F8E738B5054600200C46FFF7E6FCF4
:101E68002A681368591C1160E968641A298AB4FB46
:101E7800F1F41C70BDE838400020FFF7D9BC826837
:101E880010B504462AB143690168006998470023E0
:101E9800A36010BD0EB403B5039921B104AB01AA28
:101EA800019300F077F802B05DF804EB03B07047D7
:101EB8000A2938B504460D4602D10D21FFF7F8FF6F
:101EC800A3682268591CA160D554D4E901329A420A
:101ED80004D32046BDE83840FFF7D1BF38BD000025
:101EE8002DE9F84F9846DDE90A43154682460F4624
:101EF8000A464FF00109AA420FD2C14538BFC14670
:101F080013F0010B01D16CB900240126B8F1010FBF
:101F18001BD908F1FF386E43F8E709F10109B2FB54
:101F2800F5F2E8E79B070ED5B8F1000F0CBF302695
:101F38002026A145E9D2013C31465046FFF7B8FFBB
:101F4800002CF6D1E0E72026F3E7B7FBF6F39D4235
:101F5800E1D9DFF83C80B7FBF6F3504618F80310D8
:101F680006FB1377FFF7A4FF3346AB42B6FBF5F643
:101F7800F1D2BBF1000F02D00CB1A14501D3BDE8ED
:101F8800F88F20215046013CFFF792FFF4E700BF8D
:101F980020F404002DE9F74F054617468846002926
:101FA80000F03E8118F8011B49B92B7B002B00F08B
:101FB8003781284603B0BDE8F04FFFF760BF2529F9
:101FC80040F0B780002698F800302D2B424608F1E3
:101FD800010823D0302B24D02B2B25D000242A2BEA
:101FE80002F1010123D13B681A1D1B683A601C44A9
:101FF8000A4613782E2B26D101324FF0000A1046DC
:1020080010F8011BA1F1300CBCF1090F1DD80A23EF
:1020180003FB0A13A3F1300A0246F0E746F0010673
:10202800D1E746F00206CEE746F00406CBE711F802
:10203800013CA3F130000928DBD80A2202FB043452
:10204800303C0A46CBE74FF0000A12F8011B01F0BA
:10205800FB0068289046F8D0782909D86F290CD851
:10206800632962D022D8252963D0582900F08880B6
:1020780098F80030002B95D197E770390829F7D8E0
:1020880001A353F821F000BF0322000079200000CB
:1020980079200000992100007920000077210000B4
:1020A800792000007920000089210000642901D0EE
:1020B8006929DDD13A68D2F80090111D89EAE972E0
:1020C8003960A2EBE9724FF0010B092A35DCD345E0
:1020D80038BFD3462CB1B9F1000F01DB720700D528
:1020E800013CB30702D5BAF1000F03D0F00701D4C1
:1020F8004CBB0024B9F1000F2DDAC9F100092D21DC
:102108002846FFF7D5FE06F00302022A04D1BAF1E9
:10211800000F01D11CBB0024CDE9004653460A221A
:1021280049462846FFF7DCFEA2E73B681A1D1978E6
:102138003A602846FFF7BCFE9AE70A230BF1010B29
:10214800B2FBF3F2C1E7A345D4D220212846013CD3
:10215800FFF7AEFECCE77107D5D52B21D0E7A34515
:10216800DAD230212846013CFFF7A2FED2E73968CF
:10217800CDE900460A1D3A6053460A220968D0E7AD
:1021880039680A1D3A60CDE9004653461022F5E742
:102198003B681A1D3A6016F00106D3F8009024D166
:1021A800B9F1000F03D0484641F031FF0646B4426A
:1021B8001DD809F1FF3919F8011F00293FF458AF5C
:1021C8002846FFF775FEF6E728460136FFF770FE4A
:1021D80019F806100029F7D1A642BFF449AF20210B
:1021E8002846013CFFF764FEF6E70026F0E72021C9
:1021F8002846013CFFF75CFED9E73B681A1D3A60A8
:10220800302128461C68FFF753FE78212846FFF73F
:102218004FFE00220823CDE900322146102280E734
:1022280003B0BDE8F08F00BF2DE9F84FB0F806A065
:102238004579D2F800B09DF828900AFB05F5043DD1
:1022480088460BEB0301A94203F1040488BFA5EB00
:10225800030BB4FBFAF607460AFB1644C2F800B0B3
:102268004EB9AAEB04055D4528BF5D46BBF1000FDA
:1022780004D1BDE8F88F3F68013EF1E7043408EB6C
:1022880006003C442A46B9F1000F0DD02146ABEBBD
:10229800050B41F017FEDA452E443F6855464FF0CE
:1022A800000428BF5D46E1E701462046EFE7FFF757
:1022B8009ABDF8B546790146721E05460023934239
:1022C8002D6803D30024A64202D8F8BD0133F6E7EF
:1022D8000F682846FFF7BEFD01343946F3E72DE9BC
:1022E800F843068ACD1C0746FFF794FD043E3544A3
:1022F8000446B5FBF6F5F0B14FF48073EDB2838078
:10230800C680013D076081464FF00008A84512D2FB
:102318003846FFF77FFD064648B16379013363719C
:1023280008F10108C9F8000007608146EEE7204679
:10233800FFF7BFFF34462046BDE8F883012104308B
:10234800FFF733BD10B5012104460430FFF739FD0E
:10235800C0B220B92046BDE81040FFF7AABF10BDA3
:102368001FB503920022009203AAFFF75DFF05B094
:102378005DF804FB1FB503920122009203AAFFF740
:1023880053FF05B05DF804FB836800225A60C3E977
:1023980004229A60DA601A60704770B5446806468D
:1023A8000D46206818B1B3682946984718B92368BC
:1023B8002B60256070BD2468F3E74368186808B18E
:1023C80002681A607047436818687047436818685D
:1023D80000B97047884203D102681A60012070472B
:1023E80003460068F4E7000038B5074C051E04F101
:1023F800080318BF1C4623682BB11A6822605B6863
:1024080028469847F7E738BD3C67002020B9054BB8
:1024180001225A70FFF7E8BF012802D1014A9070E3
:10242800F8E770473467002038B5094C23786BB952
:1024380008486360A3602361E36000F09DF80546E7
:1024480000F0A6F801232370284638BD8525FBE750
:10245800346700201524000038B5134CA3780546CE
:1024680003F0FF0073B115B16B6801209847002095
:10247800FFF7DCF9E3680133E3600020BDE838408A
:10248800FFF7D6B9FFF7D2F925B1226913463BB950
:102498002A602561E368002BECD100F08BF8E9E7AE
:1024A8009D42F7D01B68F2E73467002038B5084C26
:1024B8000020FFF7BBF9E368013BE360E56815B965
:1024C80000F089F8A570BDE838400020FFF7B0B9E2
:1024D800346700204FF08043D3F81804C0F300405D
:1024E8007047000038B5134C6378054603F0FF00C9
:1024F80073B115B16B68002098470020FFF796F973
:102508006368013363600020BDE83840FFF790B985
:10251800FFF78CF925B1A26813463BB92A60A5607C
:102528006368002BECD100F05FF8E9E79D42F7D033
:102538001B68F2E73467002038B5084C0020FFF725
:1025480075F96368013B6360656815B900F05CF86C
:102558006570BDE838400020FFF76AB9346700208D
:102568004FF08043D3F80C0400F00110A0F10113E0
:102578005842584170470000044A137923B9012191
:102588001060918018467047852070474867002082
:10259800074B1A68D2075FBFC02283F800230122C5
:1025A8001A604FF080430122C3F81825704700BF16
:1025B80000E100E04FF080430022C3F8042182B01C
:1025C800D3F804210192019A0222C3F804230122BC
:1025D8009A6002B070474FF080430122DA60D3F866
:1025E8001824D203FBD470474FF080430022C3F86D
:1025F800002182B0D3F800210192019A0122C3F888
:1026080004231A6002B070474FF0804201235360E0
:10261800D2F80C3403F00113B3F1011FF8D0024BC8
:1026280000225A71704700BF486700204FF080436E
:1026380007B5D3F800217AB10022C3F80021D3F8F6
:1026480000210092009A0122C3F808230F4B587901
:1026580010B95A711B6898474FF08043D3F804218A
:1026680082B10022C3F80421D3F804210192019A0F
:102678000222C3F80823054B1B68012003B05DF84C
:1026880004EB184703B05DF804FB00BF486700205F
:1026980000F1804000F5C040002382B00360036869
:1026A8000193019B02B0704703681F2B83BF03F09F
:1026B8001F03036001484FF0A0407047000300501B
:1026C80007B5019001A8FFF7EFFF019B00EB83001E
:1026D800D0F8003723F44033C0F80037D0F800377B
:1026E80043EA0141C0F8001703B05DF804FBC208D3
:1026F800012300F0070003FA00F08B5C18438854AC
:1027080070470000054B4FF0FF32072843F82020A0
:1027180084BFC01880F85820704700BF5067002059
:1027280038B5144D95F86A4014BB3022FF21A8181B
:1027380041F0F1FBE0B20134FFF7E4FF0C2CF9D1D2
:102748000D4B00226A669A800C4BC02183F8061351
:10275800402119604FF4BE70FFF79AFF084B4FF005
:102768000041C3F80413012385F86A30104638BDC8
:102778000820FCE750670020B467002000E100E073
:1027880000600040034B93F86A00003818BF01202E
:10279800704700BF506700202DE9F341DFF8F4804F
:1027A80008EB0003054693F93030002B0F466CDA2E
:1027B8008B78C3F34003002B0BBF082400240C21A3
:1027C80008218C4203D1042002B0BDE8F08158F8FA
:1027D8002400013041D108EB050166B248F82420F5
:1027E80081F830601BB908EB040383F85850BB78B4
:1027F8005A0712D4D90732D501A80195FFF754FF1B
:10280800019B00EB8300D0F8003723F00203C0F8E7
:1028180000371F492846FFF76AFFBB783A7813F05C
:10282800020328D0A40004F1804404F5C0442D021A
:10283800D4F8103523F44F3323F44073C4F810351B
:102848001204D4F8103505F47C5502F440321543CF
:102858001D43C4F810550020B6E70134B1E701A8BC
:102868007A780195FFF720FF019B03F5E07392004A
:1028780040F82320CDE7083E48FA86F898F86050DB
:1028880045EA821288F86020E5E708209CE700BF47
:10289800B46700205067002073B5244D2E180446F5
:1028A80096F93020072A1DDD083A45FA82F595F891
:1028B80060309B09032B10D1019001A8FFF7F4FEAB
:1028C800019BD0F81015D94001F0010102312046D2
:1028D80002B0BDE87040FFF7F3BE012B0CBF022128
:1028E8000321F4E7D3B2072B1DD8930003F18043EB
:1028F80003F5C043D3F8100540F00100C3F81005F4
:1029080002F1400040B2800080B2FFF7C1FE51B131
:1029180096F9303055F823302BB1012303FA02F22F
:10292800034BC3F8042302B070BD00BF50670020FA
:102938000060004007B5019001A8FFF7B5FE019BB4
:10294800D0F81005D84000F0010003B05DF804FB92
:102958002DE9F04F00248BB0CDE90444654D4FF4C8
:102968008072012102F1804303F5C04390B21B68D5
:10297800012B06D1D5F804330B4202D0FFF788FEAD
:102988000C430432B2F5907F4FEA4101EAD1594B2A
:10299800D3F87C31012B0ED14FF4BE70FFF778FECF
:1029A8004FF0A04344F00044D3F810350493524B41
:1029B800D3F810350593E3B2D3B1504F0025012663
:1029C800344210D0AB0003F1804303F5C043D3F881
:1029D8001005D3F8101557F8253023B1C1F301417C
:1029E800C0F3052098470135082D4FEA4606E7D180
:1029F800002C7BDA0023CDE906334FF0FF33CDE915
:102A08000833DFF8F8A03E4B019300263546019BBA
:102A180013F9014B0193631C4FD0C4F3C207012281
:102A2800E3B204F03F0B04F0070402FA04F407F1E0
:102A380028020DEB020717F8081C21423DD00AEBCB
:102A48000B014FEA931991F930105AF82180B8F127
:102A5800000F07D1B9F1030F2FD106A95846FFF788
:102A680046FE02E0B9F1030FF7D003A8CDF80CB089
:102A7800FFF71AFE039901F5E07150F8211017F8D5
:102A8800180C2042C1F3014106D0022915D1B9F131
:102A9800030F0CD1494605E003290ED1B9F1030F04
:102AA80005D102215846FFF70BFE0135EDB2B8F10A
:102AB800000F02D049465846C0470136042EA6D119
:102AC800A5B14FF0A0430499D3F8102503F540733E
:102AD8009142D3F8103502D10599994206D0049253
:102AE8000593069A079B089209938CE70BB0BDE8FB
:102AF800F08F00BF006000400003005050670020C6
:102B0800B067002007B54FF0FF33019300F00300D2
:102B180001AB184441F0D6F9019803B05DF804FB05
:102B2800044AD2F80034DB07FBD50160BFF35F8F9E
:102B3800704700BF00E001404FF08053024618691B
:102B4800B2FBF0F300FB132068B9084B0221C3F86D
:102B58000415C3F80825D3F80024D207FBD50022B2
:102B6800C3F8042570471020704700BF00E00140FB
:102B78002DE9F8431E4B15460122C3F8042510F031
:102B8800030304460E4610D0C3F10407AF4228BF22
:102B98002F463A46A0EB0308FFF7B4FF014640462C
:102BA800FFF7BEFFED1B3C443E4425F00308B0444C
:102BB8003746A4EB0609B84513D115F003020AD02D
:102BC80025F003052C4471192046FFF79BFF0146A9
:102BD8002046FFF7A5FF064B0022C3F80425BDE8F1
:102BE800F88309EB070057F8041BFFF799FFE2E7A2
:102BF80000E001400220FEF7C5B800002DE9F047CB
:102C080080460D46FEF7D8F80328044610D8012D53
:102C180010D0022D30D05DB91A48FEF720FD1A4BAE
:102C280004EB440213449D78184B1B5DAB4219D04A
:102C3800BDE8F087144E00EB4003F218F55C5378BA
:102C4800470053B1DFF84C900E484A464FF4804194
:102C5800FEF7EDFC08B989F8008027443E440B4B89
:102C6800B2781A55002DE3D0094B1B68002BDFD032
:102C78002846BDE8F047184700EB400402480444E2
:102C88006578EFE7E06700202068002039680020B9
:102C980034680020BC67002000780221FFF7AEBF2F
:102CA80008B5094B1B7853B10020FEF739F801200D
:102CB800FEF736F8BDE808400320FEF731B8BDE856
:102CC8000840FEF741B800BFBD670020F8B57A4C50
:102CD800237805461BB100232370FFF7E1FF172D6A
:102CE80000F28780DFE805F00C1717425364757F00
:102CF800878C878C949999999999C3C8D0D8E3E31C
:102D0800FFF7CEFF6D48FEF7AAFC6D4B0022044684
:102D18001A702046F8BD0020FDF7DAFFF0B1002058
:102D2800FDF7FEFF022D0CBF4FF4E1644FF47A6407
:102D3800634B1D7000254FF400464FF47A70294606
:102D48004FF4FA620023E4FB060140F003FD2A4633
:102D58000146BDE8F8405948FEF769BCFDF7CCFFCD
:102D6800022D0CBFC8244FF4C874E1E70020FDF71A
:102D7800AFFF40B10020FDF7D3FF4FF44874504B2C
:102D880003221A70D6E7FDF7B7FFC824F7E700203B
:102D9800FDF79EFF38B10020FDF7C2FF4FF47A64BB
:102DA800474B0422EDE7FDF7A7FF4FF4C874F7E798
:102DB8000020FDF78DFF48B10020FDF7B1FF404B23
:102DC80005221A7040F6CD410022C2E7FDF794FFB4
:102DD800F5E70020FDF7D6FF394B06221A700022CE
:102DE80040F26661B5E70020FDF786FF344B072205
:102DF8001A7000248DE701202070FDF7C3FFEEE76D
:102E080001202070FDF7BEFF00224FF40051A0E71B
:102E1800FDF7A9FF2A4B0C22EAE72A482A4EFEF7BB
:102E28001EFCD5F1110504461CD0D8B9012D13D0CC
:102E3800C820454321464FF400474FF47A704FF4B9
:102E4800FA620023C5FB070140F084FC22460146D4
:102E58001C48FEF7ECFB04460220FDF74DFF01235A
:102E6800337056E70220FDF75BFF0023F8E7FFF712
:102E780017FF134B1222BBE7FFF712FF0020FDF7E5
:102E88003BFF0F4B1322B3E7FFF70AFF0120FDF7C3
:102E980033FF0B4B1422ABE7FFF702FF0020FDF7CF
:102EA8002BFF0120FDF728FF054B1522A0E7FDF7B2
:102EB8005AFF034B1D709CE7306800200068002013
:102EC80038680020C0670020BD670020044B1B68DD
:102ED800DB0703D5034B1878FFF7F8BE704700BF30
:102EE8002C68002038680020044B1B6813F001038D
:102EF80001D0FFF7EBBE1846704700BF2C680020D2
:102F080038B51C4B18601C4B10F0020405461960BC
:102F18001AD01A4B1A480E221A700F22DA70102291
:102F28009A7111225A72042140F23332FEF75AF98B
:102F3800044648B9FEF7AEF9044628B90146114AD5
:102F48001148FEF769FB0446EB0711D50120FDF790
:102F580045FF6CB921460D4A0D48FEF75DFB044656
:102F680030B9BDE838400B4A0B480121FEF754BB85
:102F7800204638BD2C6800203468002020680020D6
:102F880058F40400A12C00007CF40400D52E0000A5
:102F980080F40400FD2B000078F404001D4B70B58C
:102FA8001870032806D8DFE800F00207293001204E
:102FB800FDF7B6FE002070BD0120FDF789FEC0B107
:102FC8000120FDF7ADFE4FF4487400254FF400468C
:102FD8004FF47A7029464FF4FA620023E4FB0601A5
:102FE80040F0B8FB2A460146BDE870400A48FEF7A3
:102FF8001EBB0120FDF780FEC824E6E70120FDF78F
:10300800C1FE002240F26661EEE70120FDF774FE82
:10301800D0E700BF6068002040680020014B1878A6
:10302800FFF7BCBF6068002008B5154A1378013B5C
:10303800DBB21370BBB10120FDF74AFE68B1002076
:10304800FDF76EFE0120FDF76BFEBDE808400D4858
:10305800002240F6CD41FEF7EABAFDF74DFE012009
:10306800FDF74AFEF1E7084B1878FFF797FF28B9F4
:10307800064B1878BDE80840FFF736BF08BD00BF0B
:10308800706800207868002060680020616800206F
:10309800FFF7CABF38B5114B114A00211970114BFF
:1030A8001970114B05461A60C3E901110F4A1048FF
:1030B800FEF7B2FA044628B901460E4A0E48FEF752
:1030C800ABFA04462A460D49284600F0A9F90649F4
:1030D800284600F093F9204638BD00BF61680020FB
:1030E8004931000060680020646800202530000035
:1030F80084F404009930000088F4040015310000BD
:10310800014B1870FFF7F0BE6168002008B543074F
:103118000DD5084600F03CFB28B1831EDBB2022B1C
:1031280094BF07200620BDE80840FFF7E9BF08BDA7
:10313800024B08221A70FFF777BF00BF70680020A3
:103148001B78802B01D1FFF7F3BF7047430770B599
:1031580005460C4607D5084600F01AFB0238022837
:1031680001D940F095F8204600F012FB064C0749BB
:1031780003460748241AE40824042A4644F00300B6
:10318800BDE87040FDF73FBCBCF104008CF40400BE
:10319800ACF104000F2806D011280ED00E280ED14D
:1031A800322040F08FB8064B1A78302A0CBF3120F5
:1031B80030200121187040F009B940F06FB970470C
:1031C800140000201FB54FF480410020FDF756FA87
:1031D80008B1FEF775F8FDF78BF91F4A2021082082
:1031E800FEF7B2F808B1FEF76BF8FEF7E3F908B19D
:1031F800FEF766F8002401A80125CDE901440394EF
:103208008DF8065040F0C0F940F066FA134840F0D7
:1032180099FA01A88DF804408DF805508DF80640FC
:103228003FF0C0FF0E490320FFF76AFE08B1FEF722
:1032380047F840F081FAFFF72DFF08B1FEF740F894
:1032480040F050FAFEF700F9FDF772FA0028F7D1BE
:1032580040F054FAF4E700BF9868002055310000A8
:103268009D3100000369C26893429CBF80681B18A7
:10327800013B981A70472DE9F843D0E902940546B6
:10328800A9EB04084068904520440F46144404D92B
:1032980040F018FEEC60BDE8F8834246A4EB090450
:1032A80040F010FE6868224607EB0801F0E72DE9B8
:1032B800F843C5680646894617464FF00008346942
:1032C800B3687068A54228BFE418013C621B5C1B08
:1032D800BC4228BF3C46944228BF1446494628446D
:1032E800224640F0EFFDB3682544AB4208BF0025F5
:1032F8003F1BA044A144F560E1D14046BDE8F883F6
:1033080010B5114C114AA2610223C4E90433104BD1
:10331800E361A2644FF400730E4A0F492362E2642A
:1033280000231022E01DA3626362E362A365636564
:10333800E365226540F022FE0849204640F01EFE63
:103348002023A37110BD00BFA86A0020BCF40400AC
:10335800306B0020206B0020C5F40400C9F4040081
:1033680070B5164B182400FB04451D4404FB0033BC
:103378001646DC6A012C0ED0022C18D0E4B9284677
:10338800FFF770FF864204D832462846FFF773FFDE
:103398003446204670BD2846FFF764FF864234460F
:1033A80028BF044622462846FFF765FFF1E728466E
:1033B800BDE87040FFF77BBF0024EAE7A86A002059
:1033C80070B50C4C237805460E460BB9FFF798FFED
:1033D8002369AB420BD90020FEF728FA182000FB1E
:1033E80005440020E662FEF723FA002070BD4FF086
:1033F800FF30FBE7A86A0020FFF782BF00F5A04076
:103408007C3001F0BCBC00F5A0407C3001F0C4BCAD
:1034180001F096BE48F64853C05C704701F07EBE86
:10342800103000F027B801F09BBE0000004870473C
:10343800D0F4040010B500240260446002B9FEE72D
:103448000A6A4260086210BD38B504460025C0E922
:1034580000550346064A083000F08CF8C4E90455C4
:10346800C4E90655C4E90855A562204638BD00BF21
:103478000535000030B569B100F11805002344692D
:1034880054B90BB900F114030830A842F7D153B16D
:10349800C3E90012002030BD8C42F5D18469944202
:1034A800F2D11820F7E70320F5E7026843680A43DA
:1034B8000B4302604360083000F074B8436831EA97
:1034C800030301D0FFF7F1BF704770B506680446E3
:1034D8009EB10023056903602DB12B68284631464B
:1034E80098476D68F8E704F11805636913B1A16995
:1034F800304698470834AC42F7D170BD08B501F0A2
:1035080009FEBDE808401030FFF7DFBF48F6485312
:10351800C35C13B10F3013F0AFBA704748F6485385
:10352800C35C13B10F3013F0ADBA704710B448F64E
:103538004854045D24B10F305DF8044B13F0A8BA69
:103548005DF8044B704748F64853C35C13B10F301D
:1035580013F0A4BA70470F3013F0A6BA0F3013F067
:10356800A9BA00000048704700F8FF0708B5FFF740
:10357800F9FF08BD02600022426070470022026025
:1035880070470000036823B901604960044800F0EF
:103598003DB85B684B60036859600160704700BFC5
:1035A800306D002010B54468014624B90348FFF780
:1035B800E9FF204610BD1820FCE700BF306D002051
:1035C80038B500250468056054B1606884421CBFA2
:1035D800436863600368456008BF00249847F3E7C1
:1035E80038BD10B50446FFF715FF20B12046BDE8E9
:1035F8001040FFF7E5BF10BD10B50446FFF70AFFFE
:1036080018B12068003018BF012010BD704745F67A
:10361800F023C058704700F5B34078300BF0C6BAB5
:1036280000F5AD404830704773B545F601230546AF
:10363800C45C0E46DCB900F5AD40383004F042F801
:103648003146684610F01BFA05F5B34069467830F4
:1036580009F024F805F5AA40503000F0B5F905F551
:10366800AB40243000F0B4FE204602B070BD0D20FF
:10367800FBE707B545F62C236946C35C8DF8043093
:1036880001A810F0C3F99DF8000003B05DF804FB31
:1036980013B502AB044603F8041D6846194610F03A
:1036A800CFF904F5B3409DF8001078300BF098FA84
:1036B80002B010BD00F5AC400C30704738B5044678
:1036C80001B9FEE745F60123C35C8BB900F5AC40B0
:1036D8000C3003F0C9FB054604F5AA40503000F051
:1036E80073F904F5AB40243000F072FE284638BD6B
:1036F8000D25FBE700F5B7400430704700F5B640EC
:103708006C30704700F5B6405430704700F5AD4056
:103718005030704738B545F601230446C35C8BB971
:1037280000F5AD40383003F0A5FF054604F5AA4082
:10373800503000F049F904F5AB40243000F048FE61
:10374800284638BD0D25FBE745F21C63C058704775
:1037580000F5AC400C3003F047BC45F27863C05824
:10376800704745F27863C150704700F5B340783030
:1037780009F074B900F5B3400021783008F0E6BDCF
:1037880002B101B9FEE700F5B34078300DF05DBB3A
:1037980045F60123C05C704738B50D4601B9FEE710
:1037A80000F5B3447834204608F032FE38B120469C
:1037B80009F01AFA03C885E80300002038BD102074
:1037C800FCE700F5B340783009F006B970B5064655
:1037D8000C4601B9FEE745F60123C35C022B39D13B
:1037E80000F5B4456B680B60AB684B6045F61C236D
:1037F800C25A0A81C35A9B128B7245F62A23C35CAC
:10380800CB7295F82B30C3F383030B7345F624234F
:10381800C35C4B7395F82B30C3F301038B732AF009
:103828009CFF45F60C23F358C01A4FF47A73B0FB8B
:10383800F3F0237CE07343F001032374AB7F03F0C0
:103848000F03DA1F53425341227C63F3410222746F
:10385800002070BD0D20FCE700F5B34010B57830AE
:103868000C4621B10021BDE810400BF073B80121CE
:1038780008F018FE204610BD0220704700F5B3403E
:1038880078300CF077BA10B586B006AC00F5B340C6
:1038980044F8041D0A990291099901919DF8201094
:1038A80000917830214609F0F1FE06B010BD00F510
:1038B800B6404030704700F5B64012220021403033
:1038C80040F029BB00BA70470822002140F023BB12
:1038D80007B5054B01A91B88ADF8043017F072FC39
:1038E80003B05DF804FB00BF14F5040038B50446C6
:1038F80004301D461AF061FC227F059B6FF300021D
:103908002277224604F1140042F8203F049B2363E7
:10391800C4E90A25FFF7D8FF204638BD037F13F016
:10392800010314BF143018467047037FDB0702D524
:10393800143014F0AFBC01207047000030B5C3B09C
:103948000446017C68461AF067F804F1200014F078
:10395800E7FB237F6FF3000323776946201D1AF0E6
:1039680097FC0546A8B968461AF08EF9024640B198
:103978000068516804F1140303C3237F43F0010373
:103988002377237C0E2B04D10022034968461AF0C2
:103998008EFB284643B030BD306D002010B5C2B054
:1039A800017C044668461AF037F86946201D1AF06B
:1039B8002DFC20B90246034968461AF078FB42B04C
:1039C80010BD00BF306D002010B504461430FFF75D
:1039D8007BFF237F6FF30003201D23771AF0FEFB84
:1039E80004F12000BDE8104014F09ABBFFF7A6BF11
:1039F800F7B50023044608460E468DF807301AF03E
:103A080043F9054680B9271D294638461AF0C1FCF6
:103A18009DF80750F5B1314638461AF071FC134845
:103A280011F058FC002013E00068696804F11403E1
:103A380003C3237F43F001032377237C0E2BE2D1BA
:103A48000DF107020A4930461AF031FB0028DAD096
:103A580003B0F0BD0028DEDCFAD004F120004FF4FA
:103A68007A7114F0A1FB2846F2E700BFE8E30020D2
:103A7800306D002038B5044604301AF077FC05464E
:103A880068B90F4A45F60123D35C042B07D8DFE851
:103A980003F0030608080F002046FFF74FFF2846EB
:103AA80038BD4FF47A7104F1200014F07DFBF6E77D
:103AB8002046FFF743FF034811F00CFCEFE700BF77
:103AC800306D0020E8E3002030B5C3B004460D4651
:103AD800017C684619F0A0FF201D69461AF096FB84
:103AE800044678B93521684619F0C4FF48B107F093
:103AF800B3FD38B1054A45F2C463D358184028606D
:103B080000B91724204643B030BD00BF306D0020F7
:103B1800F0B5D1B0064603AD2C220021284640F06E
:103B2800FAF9317C0EA819F077FF1F48FFF7D0FE8D
:103B38000746A0B3336B0222002118F065FA044649
:103B480048BB384618F00FFA044620BB0EA9301DB2
:103B58001AF05CFBBDF83C210EA9384607F0C4FFFB
:103B68000446C0B9114E96E80F0085E80F004FF4DF
:103B78007C4207A9A6F5C67008F0E0FF4FF2BF0324
:103B88006B842A46009423463946A6F6A81017F0F7
:103B98009FFF044620B1384607F053FE00E0032497
:103BA800204651B0F0BD00BF0CBF0020B4C80020B3
:103BB80070B50446C2B0184808F02AFC48B3217F03
:103BC800251D11F0010118BF04F1140128461AF04F
:103BD800E0FB00281DDA267C0E2E11D13321684621
:103BE80019F01AFF69460D481AF010FB314668466D
:103BF80019F040FF20B1811C28461AF0CAFB40B1D9
:103C08002046FFF785FF4FF47A7104F1200014F085
:103C1800CBFA42B070BD00BF28C70020D8C2002030
:103C280008B501F077FA00F5AA405030BDE8084021
:103C3800FFF7BEBF08B501F06DFA00F5AB402430C0
:103C4800BDE80840FFF7B4BF2DE9F041C4B0044611
:103C58008846017C9DF8286102A817461D4619F080
:103C6800DBFE02A9201D1AF0D1FA2E48FFF730FE1C
:103C78000446002853D0414618F0D7F9002838D117
:103C8800204618F070F9A0BBC6B1013DDFF8988056
:103C98002E44AE4231D015F8011F052903D198F9F9
:103CA8000030002BF5DA02A819F0E4FE0028F0D065
:103CB800214614F03DFB0028EBD01AE0BDF80C615A
:103CC800DFF8648002AB1E441D46B54215D22B783E
:103CD800052B08D198F90030002B04DB284614F096
:103CE80014FB0544F1E72146284614F021FB00287F
:103CF800F4D0204607F0A5FD11E0638BA18B994213
:103D080004D1013989B2204607F09FFD00230093B2
:103D18003A462146034817F0DBFE0028E9D144B0B3
:103D2800BDE8F0810CBF0020E0C300202DE9F0477A
:103D38008D8B94B080460F4691467B8BAB420AD858
:103D48000024009404AB4A4639464046FFF77CFFFE
:103D580014B0BDE8F08703AB02222946384607F0C5
:103D6800E6FD9DF80C309DF80D600D2B27D13F2EF8
:103D780034460DF1100A28BF3F24A91C5346224699
:103D880089B2384607F0D3FD002ED9D00E49D8F8AD
:103D98002C0040F015F90028D3D1524612F8013B07
:103DA800342BCED0A2EB0A03DBB2A342F6D314AA7B
:103DB800631C1444342204F8402CDCB2C1E70236F8
:103DC8003544ADB2B9E700BF25F50400FFF7AEBF33
:103DD800FFF7ACBF2DE9F04F95B009AF04460D468B
:103DE800904600212C223846994640F094F8BE4867
:103DF800FFF76EFD064600284FD0236B02220021F4
:103E080018F002F9044628BB304618F0ACF804460E
:103E180000BBB64B47F6EC229A469A5C022A49D177
:103E280008EB090B44465C4539D2A31C9B45C0F0FE
:103E3800598123780B2B3DD0204614F066FA0444B0
:103E4800F1E71023EA180521304614F09CFB0446DC
:103E580000287ED0304607F0F4FC3FE1082305F146
:103E680031020221304614F08EFB04460028F1D1BD
:103E78008FE0102305F14C020421304614F083FB37
:103E880004460028E6D1E5E04A464146304607F0B8
:103E98002BFE04460028DDD1FBE003241EE147F693
:103EA80004230B213AF80320304614F04AFB044659
:103EB8000028CFD195F86430DB0720D50E238DF884
:103EC80010300DF1120008238DF81130FFF7FCFCBB
:103ED8006B6828685BBAADF81230FFF7F3FCBDF8E1
:103EE800183005905BBA03F001035BBA314604A8A9
:103EF800ADF8183014F01CFA04460028AAD195F839
:103F080064309C0720D533238DF810300DF1120052
:103F180008238DF81130FFF7D7FCEB68A8685BBA67
:103F2800ADF81230FFF7CEFCBDF8183005905BBA3B
:103F380003F001035BBA314604A8ADF8183014F059
:103F4800F7F90446002885D195F8643058073FF5FD
:103F580078AF95F86430190716D503238DF810301B
:103F680005F12001102302A88DF8113005F084F91D
:103F780002A904A807F0CBFA314604A814F0D8F92E
:103F8800044600287FF466AF95F86430DA063FF5FA
:103F980065AF95F864309B060AD5082305F1390208
:103FA8000721304614F0EFFA044600287FF452AF98
:103FB80095F864305C0608D56A6C3421304614F0F4
:103FC800D0FA044600287FF445AF95F86430DB0941
:103FD80009D0B5F848200121304614F0B2FA044659
:103FE80000287FF437AF95F86530D80712D500233D
:103FF8008DF81030B5F84A10032304A88DF8113055
:1040080007F0FBFA314604A814F092F90446002898
:104018007FF420AF95F86530190716D535230622A9
:1040280000210DF112008DF810308DF811203FF0AD
:1040380072FF296E04A807F0F5FA314604A814F0B7
:1040480077F9044600287FF405AF95F865309A079C
:104058003FF50FAF95F865305B0716D50C238DF843
:10406800103003238DF81130B5F85C305BBAADF829
:104078001230314695F85E308DF8143004A814F0EB
:1040880057F9044600287FF4E5AEB9F1000F7FF434
:10409800FBAE738BB18B994204D1013989B230469A
:1040A80007F0D3FB124C94E80F0087E80F004FF499
:1040B8007C420DA9A4F5C67008F040FD4FF2BF037D
:1040C800ADF846300023A4F6A81000933A463146CE
:1040D80017F0FEFC044600287FF4BCAE204615B05D
:1040E800BDE8F08F0724B5E60CBF0020306D002036
:1040F800B4C800202DE9F04F93B00F460DF11C080D
:104108000546924600212C22404699461C9E3FF0C7
:1041180002FF3B7813F001041EBF0E228DF80C201D
:104128000124980706D512A9621C0C44332104F80F
:104138003C1CD4B2590706D512A9621C0C440521AF
:1041480004F83C1CD4B21A0706D512A9621C0C4408
:10415800032104F83C1CD4B2D80606D512A9621C67
:104168000C44022104F83C1CD4B2990606D512A9C5
:10417800621C0C44072104F83C1CD4B25A0606D52C
:1041880012A9621C0C44342104F83C1CD4B2DB098B
:1041980006D012AA631C1444012204F83C2CDCB299
:1041A8007B78D80706D512A9621C0C44002104F8B4
:1041B8003C1CD4B2990706D512A9621C0C440421F0
:1041C80004F83C1CD4B25A0706D512A9621C0C4448
:1041D8000C2104F83C1CD4B21B0706D512AA631C98
:1041E8001444352204F83C2CDCB23348FFF770FB4A
:1041F800074600285ED0EB6A0222002117F004FF70
:10420800054678BB19EB040B07D17EBB4FF47C4203
:104218000BA92A4808F092FC34E0384617F0A3FEB0
:104228000546F8B90D23022202A938468DF8083050
:104238008DF809B007F058FC054698B954B9B9F19A
:10424800000FE2D04A465146384607F04DFC054675
:1042580040B9DAE7224603A9384607F045FC054687
:104268000028ECD0384607F0ECFA1FE033460BACD8
:1042780006F1100518685968224603C20833AB4294
:104288001446F7D10E4C94E80F0088E80F004FF25F
:10429800BF03ADF83E300023009342463946A4F6EA
:1042A800A81017F015FC05460028DBD1284613B0E6
:1042B800BDE8F08F0325F9E70CBF002028C70020D0
:1042C800B4C8002073B50E4E0E4D0F4B01930095E8
:1042D80033460E220446FFF709FB0C4B0C4A666373
:1042E800C4E90E340023C4E91035C4E91224236557
:1042F80004F13401074816F03EFF204602B070BDB5
:1043080016F504001BF50400293C0000D53D00000B
:104318005B4D00000CBF0020437CC3F3400323B176
:10432800037FC3F3000383F0010318467047F0B519
:10433800C3B014461F4605460E46017C684619F070
:104348006BFB21469DF820313A46684619F0A6FCD9
:10435800044638B93146684619F07BFE6946284656
:10436800FFF746FB204643B0F0BD000073B5114E81
:10437800114D124B01930446334600953322FFF743
:10438800B5FA23460E4A43F8342FC4E90F360D4BCD
:104398000D4A0E48C4E911340023C4E91335C4E9B1
:1043A8001524E36504F1400116F0E5FE204602B04D
:1043B80070BD00BF25F5040020F504003D3C000059
:1043C80011450000D93D0000754D00000CBF0020CC
:1043D80010B50446FFF7F8FA04F13400BDE81040C0
:1043E80013F09EBE10B5C2B00446017C684619F0B1
:1043F80013FB04F11400FFF767FA237F6FF3000340
:10440800237769462046FFF7F3FA42B010BD10B58E
:10441800C2B00446017C684619F0FEFA6946201DC0
:10442800343419F0F3FE204613F07AFE342168463E
:1044380019F020FB58B1D0F80200FFF743FA021E2A
:10444800B8BF6FF000424099204613F0A7FE42B073
:1044580010BDF0B5C3B015461F4604460E46017C94
:10446800684619F0D9FA29469DF820313A46684637
:1044780019F014FC054650B93146684619F0E9FDB3
:1044880069462046FFF7B4FA2046FFF7C0FF2846E2
:1044980043B0F0BD38B50546FFF7ECFA044610B94D
:1044A8002846FFF7B4FF204638BD000070B5C2B0FB
:1044B800017C0446684619F0AFFA6946201D19F0D8
:1044C800A5FE3421684619F0D5FA80B1D0F802006B
:1044D800A66B409DFFF7F6F9751B854207D2421B74
:1044E800314604F1340013F059FE42B070BD6846FD
:1044F80019F056FE69460348FFF77AFA2046FFF797
:1045080067FFF2E780C2002008B500F003FE00F55F
:10451800AB402430BDE80840FFF7C8BF30B5C3B092
:1045280004460D46017C684619F076FA6946201D56
:1045380019F06CFE2946684619F0C6FB43B030BD39
:10454800F0B51E46134B14481B8885B00F4603A9C7
:104558001546ADF80C3016F035FE0446C0B13946A4
:1045680017F063FD88B9204617F0FDFC68B932469C
:104578001021204613F0D6FF034630B900902A4692
:104588002146054817F0A4FA10B1204607F059F95A
:1045980005B0F0BD2AF504000CBF0020F7B5304F78
:1045A80045F2C46338460C46FE58FEF7DFFF682222
:1045B8000190002120463FF0AEFC01220023C4E90F
:1045C80000231022A118274812F0B0FA0546002847
:1045D80042D1102204F14C01224812F0A7FA0546F4
:1045E800002839D1082204F131011E4812F09EFA40
:1045F800054688BBFD2384F83930072204F13A01C7
:10460800184812F093FA054630BB45F2B06301A88A
:10461800FB5C84F85E30019B334014BF0193019624
:1046280016F027FB2666A4F84A0004F0CFFD0E4AD0
:10463800A4F848000346112104F120003FF0F4FAE1
:1046480094F8643043F0BD0384F8643094F865301E
:1046580043F00F0384F86530284603B0F0BD00BF6F
:10466800306D002090FA00202CF50400F0B5CDB094
:10467800017C05460AA819F0CFF9994807F0C8FE49
:10468800002800F029816B7CDA0700F127812E1DB4
:104698000AA9304619F0BAFD0E210AA819F0EAF95C
:1046A8000446C8B90E23014608220DF116008DF8FC
:1046B80014308DF815203FF02EFCBDF81C30ADF8F5
:1046C80016405BBA03F001035BBA05A90AA8069471
:1046D800ADF81C3019F05CFB00210AA819F0CAF9E2
:1046E80078B903238DF815307E4A8DF8140045F209
:1046F800C06305A8D15C06F080FF05A90AA819F0D7
:1047080047FB35210AA819F0B5F90146A0B93523A8
:1047180006220DF116008DF814308DF815203FF0A3
:10472800FAFB704A45F2C46305A8D15806F07AFF2F
:1047380005A90AA819F02CFB02210AA819F09AF970
:1047480078B902238DF8143008238DF81530664B9C
:1047580003CBCDF81600CDF81A100AA805A919F050
:1047680017FB07210AA819F085F978B907238DF8EE
:10477800143008238DF815305C4B03CBCDF81600A8
:10478800CDF81A100AA805A919F002FB05210AA8F4
:1047980019F070F9B0B90523554C8DF81430102371
:1047A8008DF815300DF11602E718234603CBBB42EE
:1047B800106051601C4602F10802F6D105A90AA84A
:1047C80019F0E6FA03210AA819F054F988B9032365
:1047D8008DF814304749102301A88DF8153004F0DE
:1047E8004BFD01A905A806F092FE05A90AA819F033
:1047F800CFFA01210AA819F03DF980B901238DF8F3
:10480800143002238DF81530364A45F2BE6305A9E7
:10481800D35A0AA85BBAADF8163019F0B9FA0421D0
:104828000AA819F027F9E0B905AF04233B70102254
:104838002C497A7045F2B163CB5CDB0738D52E4C36
:104848000DF1160204F1100C234603CB63451060EA
:1048580051601C4602F10802F6D139460AA819F03F
:1048680097FA0C210AA819F005F9A8B90C238DF8B4
:10487800143003238DF815301A4A45F2746305A9DC
:10488800D3585BBAADF8163045F2B0630AA8D35CCA
:104898008DF8183019F07CFA0AA9304619F030FD65
:1048A800044610B92846FFF749F820464DB0F0BD38
:1048B80001A9124812F03AF904460028F5D101ABD3
:1048C8000DF116041A4603CABA4220606160134605
:1048D80004F10804F6D1C0E70D24E6E71824E4E75C
:1048E80028C70020306D0020F8C30020B4C800207D
:1048F8003CC3002000C40020BCC3002090FA002064
:1049080010B50446FFF7B2FE04F144010248BDE8C1
:10491800104016F030BC00BF0CBF002000F144016D
:10492800014816F035BC00BF0CBF002010B5044686
:10493800FFF76DFD04F150010248BDE8104016F084
:104948001ABC00BF0CBF002000F15001014816F04E
:104958001FBC00BF0CBF0020F0B5C9B006460F460B
:10496800017C948B06A8154619F056F81F4807F0E5
:104978004FFD002837D06B8BA34218D9214601ABD5
:104988000222284606F0D3FFA11C0DF106039DF86C
:10499800052089B2284606F0CAFF01A906A819F021
:1049A800F7F99DF8053002331C44A4B2E3E7342339
:1049B8008DF804300E4804238DF8053006F06CFCA1
:1049C800FEF780FF01A9CDF8060006A819F0E0F966
:1049D800394606A819F03DFB06A93046FFF708F846
:1049E8003046FFF714FD49B0F0BD00BF28C70020CE
:1049F80080EE00202DE9F04FDBB08D8BC04E0746CE
:104A08000C46017C18A8934619F006F800238DF887
:104A180025308DF831308DF8153045F60123F35CDB
:104A2800042B12D0FF2545F60123F35C042B05D196
:104A38002B465A4621463846FFF782FD012D14BF02
:104A4800022000205BB0BDE8F08F638BAB420DD92C
:104A580003AB02222946204606F069FF9DF80D3077
:104A6800102BDFD802331D44ADB2EEE7A38BED1A4D
:104A7800B5F5807FD6DCA349386B3FF0A1FA09ABC6
:104A880000284FF00A024FF00E01204614BF4FF0E5
:104A9800330A4FF00E0A13F0AEFC0028C2D19DF87D
:104AA8002530072BBED90CAB0A223321204613F040
:104AB800A2FC18B99DF83130072BB3D9BAF10E0F03
:104AC8000CBF0DF126010DF13201381D19F061FC02
:104AD8000028A7DD05AB05220021204613F08BFC3A
:104AE800002840F0C28005A806F057FD002899D09C
:104AF800BDF8178045F2C06398FA98F8F35C1FFA7E
:104B080088F8B8EB030818BF4FF001080DF112023E
:104B18000121204613F0C2FC40B945F2BE63BDF83E
:104B28001220F35A9A4218BF4FF00108082307AA27
:104B38000721204613F0DBFC40B90822724907A878
:104B48003FF01EF8002818BF4FF0010810230FAAE5
:104B58000521204613F0CBFC002840F0E780102206
:104B68006A490FA83FF00CF8002840F0C5800546B8
:104B7800BAF1330F10D1102264490FA83FF000F8A2
:104B880050B96348FEF7CAFE30B10DF1260113F0A3
:104B980081FB00287FF746AF04AA0B21204613F0BB
:104BA8007DFC002864D10B215A4810F047FA0028F0
:104BB8003FF438AF4388BDF810205BBA9BB29A42E5
:104BC8007FF430AFBAF1330F03D0B8F1000F7FF4A0
:104BD80029AF18A9504819F019FB4FF00109BAF18B
:104BE800330F02D0B8F1000F7FD1B4F81C80DFF882
:104BF80034A1638B434554D913AB02224146204666
:104C080006F095FE02287FF40DAF9DF84D20102A7E
:104C18003FF608AF08F102010DF14E0389B22046B4
:104C280006F085FE9DF84D3083427FF4FBAE9DF87B
:104C38004C300B2B2ED0342B25D1DDF84E00FEF74F
:104C480041FE034615B1354A904214D950460193A6
:104C580006F022FB019B984215D9504606F01CFB32
:104C6800FEF730FECDF84E000DE04FF000084DE79E
:104C78004FF00009B3E74FF48063ADF84E304EF2C1
:104C88009303ADF8503013A918A819F081F800283B
:104C98007FF4C8AE9DF84D30023398441FFA88F867
:104CA800A7E718A93846FEF7A3FE00287FF4BAAE96
:104CB800184810F00FFBB9F1000F14D10B2115485B
:104CC80010F0BCF978B14288154852BA02F00702D0
:104CD800A2F5747292B213A907F030FF18B913A99C
:104CE800104806F08FFA01259DE622460DF12601AF
:104CF8000D48FFF731FEDEE74FF00108454637E77C
:104D0800306D00201BF50400B4C800203CC300200F
:104D180080C20020E8E3002084C20020DF93040062
:104D280028C7002080EE0020D4C20020BAF1330F3B
:104D38004FF000057FF430AF23E700BF10B50446FD
:104D4800FFF758FE20B92046BDE81040FEF726BE02
:104D580010BDFFF7F3BF10B50446FFF74BFE20B9AF
:104D68002046BDE81040FFF752BB10BDFFF7F3BF68
:104D78000022026001228280032282717047026849
:104D880013462BB1994201D09B68FAE71820704767
:104D98008A600160184670472DE9F0418EB0804660
:104DA8000E46144600212C2203A81F463FF0B3F8F4
:104DB8000FCC03AD0FC50FCC0FC594E80700002337
:104DC8008DF80530ADF8063080238DF80430B8F83A
:104DD800043085E807005A1C7FBAA8F804205BBA9B
:104DE800082201A93046ADF80870ADF80A3006F07F
:104DF8003FFE48B90146304606F06EFD3A2303AA45
:104E08003146034800F00AFD0EB0BDE8F08100BF4E
:104E180088BD0020F0B58FB01C460F46164600210D
:104E28002C2203A83FF077F80FCC03AD0FC50FCCA9
:104E38000FC594E8070085E80700002211461648C8
:104E480000F0CEF9054618B3302106F0FEFC044602
:104E5800D0B9149B28220821284606F0BAFD21461D
:104E680001AB08222846ADF8064002948DF804707C
:104E78008DF8056006F0ADFD3A2303AA29460648D9
:104E880000F0CCFC044620B1284606F0DAFC00E02D
:104E9800032420460FB0F0BD88BD00208379022B83
:104EA8000AD0032B06D0012B0CD10878FF3818BF85
:104EB80001207047012070470878A0F1FF0358428D
:104EC80058417047002070472DE9F04190B00546E1
:104ED800144688462C22002105A83FF01CF82146DC
:104EE8002846FFF7DBFF98B100228123114633489B
:104EF8008DF80D20ADF80E2004928DF80C3000F0DE
:104F08006FF9064678B90027384610B0BDE8F08139
:104F1800204600F09BFE0028E6D1204600F0A7FEC0
:104F28000028E1D1EFE7B8F81A50B8F81C30ED1AAC
:104F3800ADB2294606F089FC0746002839D101465A
:104F480003AB0422304606F044FDB8F81C10009666
:104F58002B1F04319BB2042289B2404606F0DCFDC7
:104F680004F1100309AD04F1200C1F4618685968B4
:104F78002A4603C2083363451546F7D12378FF2B29
:104F880008D005AA20686168134603C30834BC42E8
:104F98001A46F7D13A2305AA3146084800F03EFCE4
:104FA800074630B903AB0822B18B304606F0BFFC88
:104FB800AAE7304606F045FCA6E700BF88BD0020FA
:104FC800F7B50D46074616466B460822898B2846D4
:104FD80006F0ADFC08282FD1AB8B6C8BE41AA4B279
:104FE8003A232246314606F1100000F016F923460E
:104FF8000146AA8B284606F00BFE4FF6FF7398422F
:105008001AD19DF80030802B0DD00821284606F0D3
:1050180056FC3C6894B1276860686B46324629465E
:10502800B847A468F6E7324629463846FFF74CFFEA
:105038000028EAD003B0F0BD0620FBE72046F9E7D8
:1050480013B50C46ADF806201146638BA28B9B1A4C
:105058009BB2204606F0DCFD4FF6FF73984218BF5E
:10506800C043ADF80600BDF80620A18B02AB52BACA
:10507800023123F8022D89B20222204606F0A9FC4B
:1050880002B010BD38B504460025FEF777FAC4E92A
:10509800015504F10C0004F018F904F10D0011F0A9
:1050A8004DFD214604F11000FEF7CEF9214604F12A
:1050B800400012F04BF9214604F1500006F03EFB87
:1050C80004F5A0402146583000F064F804F5A240E9
:1050D8002146403012F06AFE04F507402146283088
:1050E80016F00AFE04F5074001222146A83017F001
:1050F800ADF804F50D402146183002F0AFF904F57B
:105108000D4021462C301BF079FB48F648532046C9
:10511800E55438BD00487047306D00202AF08CB83F
:1051280010B548F6485301220446C2543C3012F0E8
:105138000FF904F5B3407830BDE8104006F0D2BF4F
:1051480010B548F64853054CE35C2BB92046FFF7E9
:1051580099FF2046FFF7E4FF004810BD306D00209E
:1051680010B504463C3012F0F9F82046BDE810406E
:105178002AF062B8437C5A0701D400F026BEC3F374
:10518800C30070478A1E0123037042700021023059
:105198003EF0C1BE38B5002304460D460370437087
:1051A800C0E901330C3006F0C4FD23460B4A2946FA
:1051B80004F11C00FEF7DEF9294604F12400FFF78C
:1051C800D7FD294604F12C0013F05DFC294604F1B3
:1051D800400000F0F3FF204638BD00BFF15B00003F
:1051E8003031134602488AB2002106F09CBE00BF47
:1051F800806D0020024B00F03800185C704700BF3B
:105208003CF5040020B102280CBF20200020704784
:1052180008207047102206F0E9BC70B51E46054606
:105228000C460020114606F0DAFC314606F0D7FCA1
:105238002946FFF7EFFF2146BDE87040FFF7EABFB8
:1052480030B587B0144692798DF8042000230D46B6
:1052580004F1080202A94030ADF80830ADF810306A
:105268008DF8053000F0D0FF9DF8093004335B0756
:1052780015D19DF809200232D2B202A9284606F0BB
:10528800F7FBD0B9022201A9284606F0F1FBA0B924
:10529800A388A0715BBA08335BBAA3800DE0022132
:1052A80004A8FFF76FFF9DF811200232D2B204A9BB
:1052B800284606F0DDFB0028DBD007B030BD2DE91D
:1052C800F04F0E468FB004AB28220021304606F07E
:1052D8002EFB9DF816700FB1002010E001AB0222E2
:1052E8002821304606F023FB9DF80540738B0134D6
:1052F8004FEAC40808F1280A534503D206200FB024
:10530800BDE8F08F3D46B9462A24BB4602AB0222CF
:1053180021463046ADF808B006F009FB9DF8083084
:10532800012B4FD04BD36D2B51D1B9F1000FE5D1E3
:105338009DF80970042FE1D82A2C03D19DF8053077
:10534800002B3AD004F10803534508BF0125BB1CC4
:105358002344A1469CB25445D8D3CFD1002D49D07F
:1053680008F12008A8F10805ADB202AB08222946C9
:10537800304606F0DCFA414602AB0822304606F019
:1053880028FB072DA846EDD80821304606F0BDFABF
:10539800B9F12A0F22D19DF804308DF81630BDF8E6
:1053A80014305BBA083B5BBAADF81430282204AB62
:1053B8000021304606F00DFB8EE70125C7E70134D2
:1053C800A4B2C8E79DF8093002331C44F8E79DF8F9
:1053D800093002331C44A4B20025BCE79DF805300F
:1053E800013B8DF80530022201AB2821304606F03A
:1053F800F0FAD4E7B9F1000F3FF46EAFB91CC9B2A7
:1054080002A8ADF80850FFF7BDFE9DF8092002324A
:1054180002ABD2B24946304606F0DBFA28466EE7C0
:1054280010B504460C3006F0DBFC04F11C00BDE8A6
:105438001040FEF7B7B82DE9F3410C469846002313
:10544800ADF80430898B074616466B460222204683
:1054580006F06DFA0228014640D19DF801506B1CF8
:10546800A58B05EBC305638BADB2AB4236D32046A3
:1054780006F025FA0836A18B8D4231D901AB0222FC
:10548800204606F054FA022828D19DF8043023B9A2
:105498000121204606F013FAEDE79DF80520A18BBF
:1054A80002320A44AA4219D86D2B0BD198F8003061
:1054B8003246214607F1400001F012F850B102B01F
:1054C800BDE8F08103F0C003802B0BD0C02B09D0BE
:1054D800402B07D09DF805100231DAE70620EEE7E9
:1054E8000020ECE70220EAE737B50D466B46898BCA
:1054F8000822284606F01BFA082801460ED1BDF8F6
:1055080002305BBA9BB2DA080AD113F0010407D162
:10551800284606F0D4F9204603B030BD0620FBE744
:105528000220F9E72DE9FF470D9D9DF83CA09DF865
:10553800407006460C46904699460FB92B7873B9C9
:1055480003AB0222A18B204606F0F1F9022825D1EF
:105558002B782C2B14D004D83BB12B2B0CD000204B
:105568000BE03B2B08D03C2BF9D10EAB0C9A214613
:105578003046FFF760FF0BE0022004B0BDE8F0877B
:10558800CDF800A04B46424621463046FFF7ACFF17
:105598000028F2D19DF80C302B70CEE70620ECE7FE
:1055A800112B03D03A2B04D0002070472C3013F075
:1055B800B5BB2430FFF704BDF7B51C469DF8203075
:1055C80006460F4615460BB1042023E04368002B1E
:1055D800FAD04378002B47D0104600F037FBD8B1FB
:1055E800284600F053FB0028EED0112C1AD03A2C94
:1055F8003AD1294606F12400FFF750FCA0B36B46C8
:105608000822B98B384606F092F99DF80030802BB5
:105618002AD1022003B0F0BD284600F028FB00285C
:10562800DED1E2E76B460822B98B384606F07FF9EF
:10563800BDF8024064BAA4B244F64C539C4209D067
:105648004FF2BF039C421FD0134801F05DF884421B
:105658000AD1B9E7284600F0F0FA0028B4D1284664
:1056680000F0CBFB0028AFD1798B384606F06CFCF4
:10567800044670B101463046FFF721FE2046D6E9C0
:10568800013198470020C5E72946044812F0D6FCA6
:10569800E8E70320BEE700BF18EE002070BE002038
:1056A8002DE9F84F01F11008404600F08EFB324A10
:1056B80045F240130027D45882463D46002C52D06C
:1056C800204600F0D4FAF8B92146404600F0D5FB50
:1056D800267C86424AD82046FFF74CFD814615B302
:1056E8004146204600F0CCFB00283BD12046FFF77E
:1056F80041FD83462846FFF73DFD8345204605D2F8
:10570800FFF738FD48450ED26469D7E7FFF732FD49
:1057180083462846FFF72EFD83450ED92846FFF716
:1057280029FD4845F0D2237CB34203D82046FFF731
:1057380021FD824637462546E6E7637CDA0702D52F
:105748006B7CDB07EFD5B742EDD3DDD1404600F0E7
:105758007DFA8146204600F079FA8145E3D0D3E707
:105768000746E8E725462846BDE8F88F002DF7D01C
:10577800D1460646B4E700BF306D00202DE9F04160
:105788001D46074690460E460FCD96B00BAC0FC48B
:105798000FCD0FC495E8070084E807000FAC20463A
:1057A80000F02CFA40F2FF33ADF83C304FF47C4364
:1057B800ADF84A3060230193B8F804305BBA283357
:1057C8005BBAADF8083094E80F0007AD85E80F0024
:1057D80044F229030BA93846ADF80A30FFF760FFF9
:1057E800C8B1034603AC00F1100518685968224691
:1057F80003C20833AB421446F7D101AA31463846F2
:10580800FFF71EFD20B9282201A9304606F030F91D
:1058180016B0BDE8F0811420FAE700002DE9F04742
:10582800064691F82900B1F81A808AB01F4600F0A0
:1058380003006023154600930C46FFF7E3FC8146FE
:105848001846FEF73FF869F39B50FEF73BF898FAC5
:1058580098F3ADF8043095F8283000908DF806706C
:1058680023B995F82920920758BF402328468DF878
:10587800073000F0C7F900283ED12B78FF2B3BD02A
:105888002B460DF1080C05F1100E18685968624690
:1058980003C2083373459446F7D105F1100906AAE7
:1058A8004B4609F1100E9246186859689446ACE8C0
:1058B8000300083373456246F6D1484600F0A9FA5A
:1058C80070BB28226946204606F0D2F878BB4246CB
:1058D8003B46514602A8FFF7A0FC112F024629D0EB
:1058E8003A2F2DD0484600F0A0FA78BB3046214622
:1058F800FFF796FD00201AE029463046FFF7D0FE54
:1059080000283AD003460DF1080C00F1100E186873
:105918005968624603C2083373459446F7D1BCE719
:105928006A4621463046FFF78BFC0028C9D00AB0EA
:10593800BDE8F087214606F12C0013F034FAD1E7D0
:10594800214606F12400FFF77BFBCBE751460C48C4
:105958000EF040F840B1618B204606F0F5FA01469A
:1059680010B13046FFF75CFD2B466A4621463046AB
:10597800FFF704FF0028B9D0D9E71420D7E700BF04
:1059880028C7002038B5094A45F240130D46D458B7
:1059980044B12946204600F070FA237C834203D99B
:1059A8006469F5E7204638BD0120FCE7306D00202A
:1059B80038B50B78FF2B05460C4601D1012038BDC0
:1059C800084600F03AF90028F8D121462846FFF7A2
:1059D800D9FF03460028F1D1224604F110010348FB
:1059E80012F014FBB0FA80F04009E8E770BE00201E
:1059F8002DE9F04F9FB013AE0C46079300219DF898
:105A0800A03006938146924630462C223EF083FA17
:105A1800214609A800F0B6FB0546002840F0C080E2
:105A28000BAB0FCB17AF87E80F000FAB0FCB86E898
:105A38000F009DF82B308DF87430079B1C939DF850
:105A48003C30FF2B4ED1BAF1000F35D14FF0000892
:105A58000127C3462821204605F03EFF1EAB9DF8CE
:105A68002A2003F8562D069A019309ABCDE9027254
:105A78000093CDF810B03346524621464846FFF70A
:105A880051FD0546002840F08B80BBF1000F5DD02A
:105A98009DF82230292B38D1A18B204605F035FFFF
:105AA800069B00935246079B21464846FFF7A0FFF6
:105AB80028461FB0BDE8F08F0FA950460EF001F838
:105AC800834668B99AF808800FA800F0AEF907462F
