:020000022000DC
:10700000000004205D730200457302004773020014
:10701000497302004B7302004D7302000000000030
:107020000000000000000000000000004F7302009C
:1070300051730200000000005373020055730200F8
:107040002DE702005773020071900400577302008D
:10705000577302005773020051EA0200577302008F
:1070600057730200577302005773020057730200F0
:1070700057730200577302005773020057730200E0
:107080005773020009880200577302005773020009
:10709000577302005773020011F90200FDCC020081
:1070A00057730200577302005773020057730200B0
:1070B0005773020057730200000000000000000038
:1070C0005773020057730200577302005773020090
:1070D0006D2A0500577302005773020057730200B0
:1070E00035EC0200577302005773020000000000E5
:1070F00000000000577302000000000057730200F8
:10710000000000000000000000000000000000007F
:10711000000000000000000000000000000000006F
:10712000000000000000000000000000000000005F
:10713000000000000000000000000000000000004F
:10714000000000000000000000000000000000003F
:10715000000000000000000000000000000000002F
:10716000000000000000000000000000000000001F
:10717000000000000000000000000000000000000F
:1071800000000000000000000000000000000000FF
:1071900000000000000000000000000000000000EF
:1071A00000000000000000000000000000000000DF
:1071B00000000000000000000000000000000000CF
:1071C00000000000000000000000000000000000BF
:1071D00000000000000000000000000000000000AF
:1071E000000000000000000000000000000000009F
:1071F000000000000000000000000000000000008F
:10720000314932480A1A02D0072291438D4630494B
:1072100030480A1A06D00722914381F309880222D6
:1072200082F314882C482D492D4A00F03CF82D4853
:107230002D492E4A00F037F82D482E492E4A00F0ED
:1072400032F82E482E492F4A00F02DF82E482F49AB
:107250002F4A00F028F82F482F49304A00F023F831
:107260002F483049304A00F01EF83048304900229B
:1072700000F024F82F483049002200F01FF82F4A70
:1072800090471F481F49884205D00268043003B464
:10729000904703BCF7E700208646EC46002000211B
:1072A000274A9047FEE7884207D0521A05D0037854
:1072B00001300B700131013AF9D17047884202D098
:1072C00002700130FAE770470000042000E003205C
:1072D000000004200000042018E60600E82A002030
:1072E0003C2C0020B8730200B87302000C5D06004D
:1072F00018E60600E82A0020E82A0020085E0600BA
:10730000085E0600085E0600085E0600085E0600CD
:10731000085E0600085E0600085E060018E6060025
:107320006CE706003C2C00203C2C00203C2C00206C
:107330003E43012040430120444301208573020065
:1073400075F50200FEE7FEE7FEE7FEE7FEE7FEE773
:10735000FEE7FEE7FEE7FEE700F002B8FFF7FCBF3E
:107360000F484FF00701884385460E4880470E4876
:10737000016841F470010160BFF34F8FBFF36F8F5D
:10738000FFF73EBF09480A490A4A884207D0521A05
:1073900005D0037801300B700131013AF9D1704703
:1073A00000000420A592020088ED00E0085E0600BF
:0873B000E82A0020E82A002071
:1073B8000048704738430120FEE7704707B5044B83
:1073C8000093044A402300F032F803B05DF804FB50
:1073D800E17302003D2C00202DE9F843884614464D
:1073E800B2B10F4B0F4E0325002743F00109224687
:1073F80008EB0701002008F079FC0744241A48B973
:1074080033782BB14FF47A40C847013D02D135702B
:10741800BDE8F88301233370002CE8D1F8E700BFFA
:10742800105E06003C2C0020704708F0B1BCF0B597
:1074380095B01D46164608460C4601F05FFE1A9B9D
:107448000D93CDE9086500252B46082205A920469D
:107458000A958DF82C500C9501F06CFE079B029351
:10746800069B03939DF814308DF8115003F0030226
:10747800012A1DD1BDF81420059DC3F3C203C2F330
:1074880083168DF81030B20008230EA9204601F0AB
:1074980051FEC5F3952508AB0093324602AB0EA901
:1074A800284600F05BFB204601F02CFE15B0F0BD2D
:1074B800022AF8D1BDF81650C3F3C203C5F38915E3
:1074C8008DF810300827082D2E4628BF08263B4681
:1074D80032460EA9204601F02DFEAD1B08AB02AACC
:1074E80031460EA8374400F09DFB002DEBD1DAE7BA
:1074F80008B5FFF79AFF0448042100F099FA034BF6
:1075080001225A7108BD00BFF85D0600E82A002074
:10751800037813F0040216D003F00303012B03D001
:10752800022B09D0012070470A6800880232C0F394
:10753800831002440A60F5E70B684288023303EBC4
:1075480092130B60EEE71046704700002DE9F04FEC
:10755800DFF830A187B00F4600230446861C0DF1E2
:10756800070015468DF8073000F0DAFFDAF800104A
:107578003960DAE90132134401335B1A0AF21C4715
:107588000AF583690AF21448B3421CD30020002D7F
:1075980073D004F00F039B0143F0050363F30F005E
:1075A800DAF80020DAF808301340033332444AF896
:1075B80023009DF80700CAF8002000F0D5FF01203D
:1075C80007B0BDE8F08F0121384601F0C6FA4846F9
:1075D80001F0DBFA404601F0D8FADAF80400DAF8EC
:1075E80008B0029000EA0B0003300AEB800002A901
:1075F800FFF78EFF029B50BB0BEA03020AEB8202E5
:1076080003F1020CD2680392013303EA0B0B0AEB75
:107618008B0B02F00302012ADBF80C10CDF808C02E
:1076280023D0022A16D08346404601F0B1FA10B1A1
:10763800029BCAF804305946384601F08EFADAE956
:1076480001231344DAF8002001339B1A9CE70BEA64
:107658000300C9E7BDF80E30C3F3891303334FEABB
:10766800114B0CEB93030293DEE7BDF80C30C3F328
:1076780083134FEA114B6344F5E7A40544F0060071
:107688008EE700BF502D00200B4B0C48FF2210B591
:107698009A600022C3F81824C3E90022C3F814240E
:1076A80083F8202401F0E3FC044610B9044801F0F3
:1076B8004BFD204610BD00BF502D00206C5D06001C
:1076C8004C5E060030B50A4C71B10A4A0A49121BD1
:1076D800D20800239A4201D1002030BD31F823504E
:1076E800854202D00133F5E7034654F83300F4E746
:1076F800805D0600F85D0600E82A0020094B013984
:1077080003EBC000032909D8DFE801F00A020406E8
:10771800042070470079704740797047002070470F
:1077280002207047805D0600034BD3E90030C31A7E
:1077380058425841704700BF502D00202DE9F043B2
:1077480087B0FFF7F1FF0646002840F0FE80804C26
:10775800C4F81804BFF34F8F6368A56802932B40E1
:10776800033304EB830002A9FFF7D2FE029B18B192
:10777800D4F81824002A62D005EA0302991C0133C0
:1077880004EB82022B4004EB8303D268DB6804938A
:1077980002F00303022B0392029163D1BDF80E306D
:1077A8006C48C3F38917502FB84628BF4FF05008CC
:1077B80008F1080168F38F13C1F30901ADF80E3021
:1077C80001F06DFC0646002800F0AA8001F096FC46
:1077D8000023082203A9304601F0A2FC029925EAF9
:1077E80001020132B8EB820F4FEA820333D95FFA04
:1077F80088F863B32940DDB2A8EB050803315FFAC6
:1078080088F9A846544D04EB8101082342463046C6
:1078180001F086FC3DB108F10803DBB24A4629466F
:10782800304601F07DFC029B033703EB9707029774
:10783800D4F81834002B4BD1D4F810545BE02268EC
:1078480093428CD36260304607B0BDE8F08342496A
:107858001D469946D9E7294003310823424604EBDF
:107868008101DDE7012B5BD1BDF80C303948C3F34A
:107878008311062928BF062161F38913023101F01B
:107888000F018900ADF80C3001F009FC064600280C
:1078980046D001F033FC0023082203A9304601F04A
:1078A8003FFC0027BDF80C20C2F38312BB009742AF
:1078B80003F10803BCD202994A1C29400331029201
:1078C80004EB81010422304601F02AFC0137E9E784
:1078D800304601F017FCFFF727FF80F00100C6B221
:1078E800B1E7EB685B7923B12B6831461B68284602
:1078F8009847EB681D68002DF3D1304601F002FC73
:107908000DF107008DF8075000F00AFED4F818347E
:107918000BB9029B63609DF8070000F025FEDAE7CB
:10792800D4F8104454B90D4B0D480E49C01AC0087C
:10793800000440F0020000F063F8CCE7236820461A
:107948009B689847E3681C68ECE700267BE700BF64
:10795800502D00206C5D06005C2D0020805D060027
:10796800985D0600345E06002DE9F74F224E044666
:107978000F46924601A901221846D6F808909B4660
:10798800FFF7E4FD20B3019D4FF00008AA1CD8457D
:1079980008EB020126D11948002101F0AFF880F365
:1079A8001000000440EA1440E4006B1C04F03804A2
:1079B80003EA090305EA090544F0010406EB830319
:1079C800033544EA881444EA8724D86046F82540F9
:1079D80096F820341BB1FFF7B1FE0028FBD103B0A5
:1079E800BDE8F08F09EA010106EB81015AF8283059
:1079F800CB6008F10108CAE7502D00206C31002047
:107A080000231A46FFF7B0BF07B50123019201AA68
:107A1800FFF7AAFF03B05DF804FB07B5CDE9002323
:107A280002236A46FFF7A0FF03B05DF804FB0000DD
:107A380030B50F4CD4F8102403460020114631B954
:107A4800D96808714AB9C4F810340A6030BDC968E9
:107A58000D79854206D00968F1E7D26814680C6090
:107A68001360F3E701300A28E8D14FF0FF30EDE763
:107A7800502D002038B5084B0125D3F8104483F861
:107A8800205404B938BDE3685D71236820465B68FB
:107A98009847E3681C68F4E7502D002030B5C38888
:107AA80085B004460D4633B1144A00921449154A6C
:107AB800284601F0D0F8217A05291DD0637A4BB108
:107AC800A088FFF71BFE104B104953F820202846CA
:107AD80001F0C1F8227A0E4BA08853F822200392B5
:107AE8000021FFF7EFFD039A0A490346284605B02F
:107AF800BDE8304001F0AFB805B030BD785E060093
:107B0800605E0600585E0600DC5E06007F800600A8
:107B1800005F06007D5E060007B503460846197A31
:107B2800052911D05B7A2BB1094A0A49019001F065
:107B380092F801980849019001F08DF8019803B076
:107B48005DF804EB01F07CB8002AF8D0F2E700BF3A
:107B5800785E06007F800600E88406002DE9F04381
:107B680085B01F460C9D002395F80C902B73064694
:107B78000C46904629463846FFF790FFB8F1060FA5
:107B880009D8DFE808F00412181F283340003146EE
:107B9800284601F060F8002229463846FFF7BCFF66
:107BA80085F80C9005B0BDE8F08322683146284678
:107BB80001F051F8EFE7D4E900233146284601F0F7
:107BC8004AF8E8E7A36800933146D4E90023284639
:107BD80001F041F8DFE7E3680193A36800933146B9
:107BE800D4E90023284601F036F8D4E72369029344
:107BF800E3680193A36800933146D4E9002328463B
:107C080001F029F8C7E76369039323690293E368DE
:107C18000193A36800933146D4E90023284601F074
:107C28001AF8B8E708292DE9F74F80460E46174697
:107C38001C463DD800251B7B257321461046019321
:107C4800FFF72CFFDFF88CA0DFF88CB0AE4232D9FA
:107C580018F805205946204600F0FDFF0135082D8B
:107C6800F4D11B49DFF874A0DFF874B0204600F0A7
:107C7800F2FF4FF000094E4524D918F809507E2D1F
:107C88001ED828460AF012F8002814BF2A462E22C9
:107C98005946204600F0DFFF09F10109B9F1080F44
:107CA800E9D1012221463846FFF736FF019B2373AD
:107CB80003B0BDE8F08F5146204600F0CCFFCDE779
:107CC8002E22E5E75146204600F0C5FFE4E700BF55
:107CD800915E06008D5E0600875E06008F5E0600D8
:107CE800168B0600C30710B507D4F023054A4008D1
:107CF800145C23401943115410BD0901C9B20F2364
:107D0800F4E700BF4032002030B5094B1C78094B1E
:107D1800196800239C4202DC0022104630BD11F88D
:107D28003350854201EBC302F7D00133F2E700BFBD
:107D38000C3200206032002013B504460191FFF791
:107D4800E3FF38B143682BB10199204602B0BDE882
:107D58001040184702B010BD034B044819680022B0
:107D6800490800F0F0BA00BF103200201832002095
:107D780010B5C0B2FFF7C8FF0446007806F056FEFB
:107D880063785A1E53425341834208D1044BD3E9C6
:107D98000023134303D1BDE81040FFF7DDBF10BD3A
:107DA8003832002037B54308374AD35CC2074CBF86
:107DB8001B0903F00F0304460D46042B25D8DFE802
:107DC80003F003262F3C4000F9B10121FFF78AFF99
:107DD80000230DF107008DF8073000F0A1FB01200A
:107DE800A4F12003C4F12001284A20FA01F100FA85
:107DF80003F30B43A040D2E9004120430B43C2E9FF
:107E080000039DF8070000F0AFFB03B030BD002968
:107E180018BF0221204603B0BDE83040FFF762BF1B
:107E280049B10321FFF75EFF0121204603B0BDE8F9
:107E38003040FFF781BF0121ECE70029E5D104219B
:107E4800E8E709B10321E5E7FFF74CFF294620469B
:107E5800FFF772FF0DF107008DF8075000F060FB87
:107E68000120A4F12003C4F12001084A20FA01F1FD
:107E780000FA03F30B43A040D2E9004124EA0000D2
:107E880021EA0303BBE700BF40320020383200205C
:107E98002DE9F041124E134F00243378A34208DC39
:107EA800114BD3E90023134318D0BDE8F041FFF785
:107EB80053BF3D6805EBC40815F8340006F0B6FD5D
:107EC80098F801305A1E53425341181A4142414111
:107ED80015F83400FFF766FF0134DEE7BDE8F081EE
:107EE8000C3200206032002038320020092AF7B511
:107EF80005460C4616463ED906F0C0FCE8B11F4BB5
:107F08001F481D601F4B204F1C70204B0021202252
:107F18001E600AF0EEF81E4B00200021C3E90001A4
:107F2800013CE4B20326FF2C0DD11A4A1A4800215D
:107F380003B0BDE8F04000F0FBB906F06DFC002886
:107F4800DDD003B0F0BD9DF8063015F834008DF88B
:107F5800046005EBC40223F007038DF8063001A97D
:107F680093788DF805303A4606F092FC013CE4B26D
:107F78000028D8D0E5E70720E3E700BF60320020FB
:107F8800403200200C320020797D0200103200209F
:107F980038320020997E0200205F060070B5084D37
:107FA800084E00242B789C4201D3002070BD336812
:107FB800012113F8340006F0EBFC0134F2E700BFAE
:107FC8000C320020603200201FB50021039001AA66
:107FD80044F20100CDE9011100F004F805B05DF8A4
:107FE80004FB000038B572B6FFF744FDFFF7A6FBA7
:107FF8000028FBD1104B114C114D1249E41AE4082A
:10800800240444F00100FFF7FBFCD5F8F030DB074F
:1080180000D500BE0C4944F00200FFF7F1FCBFF3A5
:108028004F8FEA68094B02F4E0621343EB60BFF339
:108038004F8F00BFFDE700BF805D0600985D06001A
:1080480000ED00E0245F0600305F06000400FA053A
:108058004B1C30B5DB00044612F003009BB20DD177
:10806800074D2A601A44074B1A60074B1870074BD4
:108078001870074B1C80074B198030BD0720FCE7A0
:108088006C320020683200206432002074320020F4
:1080980070320020723200202DE9F743DFF8BC80EF
:1080A800B8F800308B4206460D46174647D30024E1
:1080B8000DF107008DF8074000F032FA224B234AF1
:1080C80023481B78008892F800C084455FFA8CF139
:1080D80038BF4C1CDBB238BFE4B2A34228D01478B6
:1080E8001178CBB2884286BF0133DBB2002313700C
:1080F8009DF8070000F038FA4FF6FF739C4220D035
:10810800144B1B6843F8347003EBC4099EB195B156
:10811800114BB8F800001B682A46314604FB0030B2
:1081280009F0BEFFA9F80450002003B0BDE8F083B1
:108138004FF6FF74DCE70020A9F80400F5E70920F2
:10814800F3E70420F1E700BF743200206432002016
:10815800723200206C320020683200207032002019
:1081680070B5104C104D22782B789A4200D170BD12
:108178000E480F4A2378126806880E4802EBC3019E
:10818800006852F83320898803FB060090470A49A3
:1081980022780988D3B2914286BF0133DBB200232B
:1081A8002370E0E77432002064320020703200202F
:1081B8006C320020683200207232002010B5D0E9FD
:1081C8000243D1E90202A04272EB03032CBF012053
:1081D800002010BDD0E900301847000008B50A4853
:1081E80000F0F9FA094AD2E90031C018084BD3E97E
:1081F800002341F10001904271EB030303D210F117
:10820800807041F1000108BDF02A00208032002072
:10821800F832002037B505460C460A4801A900F097
:10822800DCFB60B10570446001A9064800F0FFFB63
:1082380018B1054800F0D4FA002003B030BD04207E
:10824800FBE700BFE4320020F02A00201C4B37B5C2
:108258001D78044675B380B3037F03F0FF054BB365
:10826800FFF7BCFFD4E90223904271EB03031BD351
:10827800236903B9237763690093124AA3690193B9
:1082880008216846FFF708FF08B1FFF79DFE22693D
:108298007AB1237F03F0FF0563B1D4E902319B185B
:1082A80041F10001C4E902310748214600F06BFFA3
:1082B80000E01546284603B030BD0546FAE700BF82
:1082C80088320020DD8102004C5F060013B5114B97
:1082D80011491868019008231048582200F06AFBD9
:1082E800044698B90E4A0F4801A900F061F90446FE
:1082F80060B90C48012100F051FA01230A4A0948E3
:10830800194600F0B3F9094B01221A70204602B051
:1083180010BD00BF485F06008C320020E432002008
:1083280099830200F02A0020FFFF7F008832002096
:108338003AB103685A614A1E5142514119610020FD
:1083480070470720704738B5037F04460D4683B948
:108358008261FFF743FF2369281841F10001C4E94E
:10836800020103B1256121460020BDE83840FFF72E
:1083780051BF002038BD0023014603770120FFF7D5
:1083880049BF0000014800F026BA00BFF02A0020CB
:108398002DE9F347064600F009FA40B1584AD2E9F8
:1083A800003113F1807341F10001C2E9003100216D
:1083B800304600F00AFA38B1524C236823B12068DD
:1083C800FFF744FF002323600121304600F0FDF948
:1083D80020B1FFF703FF4C4BC3E900014B48494D5F
:1083E8004B4C4C4F01A900F032FB002842D1DFF87A
:1083F8002081444CDFF82491404600F0DAFE2368DF
:10840800002872D07BB12368D0E90252D3E9021365
:108418008D4272EB03032AD223681B7F1BB12168AC
:10842800404600F0B0FE404600F0BDFED0E9027ABA
:108438000546FFF7D3FE381A6AEB010A01287AF1DC
:10844800000345DBB0F5350F40D3FFF79BFF324AF9
:1084580002444FF496030021484600F027F900280B
:108468003ED1236813B9304600F0F8F8256002B011
:10847800BDE8F0870378012B1DD0022B09D14FF0FE
:108488000008204600F08FFE002836D080F81C80B7
:10849800F7E73BB941680B7F23B901230B772046E7
:1084A80000F071FE01A9194800F0FCFA01A917486B
:1084B80000F0CDFA99E741682B68994202D1002370
:1084C8002B60EFE7204600F077FEEBE7AA68C0E7ED
:1084D8000021484600F06FF92846FFF7B7FE01E093
:1084E8000D28F9D00023236086E7002BBFD1304642
:1084F80002B0BDE8F04700F0B5B801233B70D1E702
:108508008032002000330020F8320020E4320020BE
:108518004C5F060088320020FFFFB400F02A0020DC
:1085280070B5EFF3108672B60C4A946801239CB9B3
:1085380093600B4B0B4DD3F8801029401160C3F8A2
:108548008050D3F8841051604FF0FF32C3F8842074
:10855800047006B962B670BD0370FAE704330020F0
:1085680000E100E0FC06FFBD084B9A6810B55AB15F
:1085780050B9EFF3108172B6054A1C6814605C6844
:108588005460986001B962B610BD00BF0433002082
:1085980000E100E0435882B03BB100234350435808
:1085A8000193019B012002B070471846FBE70000C9
:1085B800F8B5224B4579224E43F82520214A224B13
:1085C8009B1A06EBC502DB0812791B04EF0032B1D7
:1085D80043F002001D49FFF713FA0820F8BD0268AE
:1085E8000C88C2F8084590F9044002798978002C73
:1085F800ADBF04F1604CDFF85CC002F00F0E0CF563
:10860800614C4FEA4111C9B2B4BF0CF80E108CF896
:10861800001364090121DFF840C002F01F0201FACB
:1086280002F24CF82420F21946F83500117143F093
:1086380003000749FFF7E4F90020CFE718330020CB
:1086480010330020805D0600A85D0600585F060014
:108658007A5F060014ED00E000E100E00368012203
:108668001A607047036801225A60704773B501F1B8
:108678005005AD000068ADB24FF480348C40002640
:10868800C0F80843C0F84843465101F5A871455958
:10869800019522F07F42019D40F82120C0F8444313
:1086A8000BB1C0F8044302B070BD00002DE9F74FCC
:1086B8000D4622F07F4402684FF4803705F15006DA
:1086C8008F408046B60002EB8500C2F84873B6B208
:1086D800C2F80873D2F8041599464FF0000BD0F889
:1086E8004035C0F8401542F806B05B1A925900921E
:1086F80023F07F43012B009A4FEA850A0CD1264BC1
:108708004FF4806043F001039847D8F8003043F8ED
:1087180006B09B590193019BD8F80010D1F8046565
:10872800C1F84473A31B23F07F43012B1CD11A4BC0
:1087380005F5A875013443F0010341F825404FF4CD
:1087480080609847D8F80030D3F804359E4209D1A4
:10875800D8F800300020C3F84473C3F8047303B09A
:10876800BDE8F08F0D20FAE78A44C9F1FF13CAF873
:108778004045D1F80405221A013A22F07F4203F558
:108788007F439342EED3002AE2D10134CAF8404530
:10879800D1F804359842DAE7905F060003680222B0
:1087A800C3F8442309B1C3F80423704700684FF4A1
:1087B8008271FFF7EFBE4FF4803303FA01F10368CB
:1087C800C3F84813C3F8081370475031890000688C
:1087D80089B2FFF7DFBE0368D3F8040570470000CD
:1087E80090F9043001215A0903F01F0301FA03F339
:1087F8004032024941F82230704700BF00E100E0F2
:10880800024B034A1B681068184700BF1833002042
:10881800103300204109064A012300F01F0003FA23
:1088280000F052F82130184342F82100704700BF89
:108838001C33002010B5002420460134FFF7EAFF5E
:10884800592CF9D1024B01221A70002010BD00BF2B
:1088580028920020314B1B782DE9F041002B50D095
:10886800002851D000294FD00C68631EB3F5306F33
:108878004DD22B4B2B4DDFF8B0C000229E4653F84B
:10888800046B55F8047BB44203D85CF82260BE42FE
:1088980005D1592F03D80132072AF0D10022224BE3
:1088A800224C53F8223054F82240214D582B31D80D
:1088B8003F2B06D94F2B1FD9542B34BF0422052236
:1088C80000E002225F095EF8226055F8272003F0D5
:1088D8001F0C22FA0CF818F0010F0FD0012303FA2D
:1088E8000CF322EA0302134B45F827201C440460CA
:1088F8000E600020BDE8F0810322E3E73444013331
:10890800D4E748F20810F5E748F20E10F2E748F20B
:108918000710EFE748F20410ECE700BF28920020A8
:10892800D85F0600A05F0600F45F0600BC5F060083
:108938001C3300202833002013B54843019001A9B7
:10894800002468460094FFF785FF014630B9DDE949
:10895800000209F0CEFB009802B010BD0094FAE7BF
:10896800114B1B7830B40246ABB1A0B100230F4DB8
:108978000F4C184659198A420FD03F2810D94F2852
:1089880010D953288CBF0521042154F82110013037
:1089980059280B44EED130BC704730BCFFF73ABFC2
:1089A8000221F2E70321F0E7289200202833002073
:1089B800D85F060010B561B1B2FBF3F403FB1424D1
:1089C800A4B244B9C0E9001484608281C3812046FE
:1089D80010BD0E20FCE70920FAE737B550E8013F43
:1089E8009DB2C48925448489A54228BF2D1B0489CA
:1089F800A54202BFBFF32F8F002207E0C5EA030597
:108A080040E80154002CE9D14FF001028DF8032011
:108A18000193019A0A609DF8031001F0FF0321B148
:108A2800006810FA82F003B030BD1846FBE70A88E8
:108A38004B889A4209D150E8012FC2EA024240E825
:108A48000123002BF7D1012070470020704737B56C
:108A580050E8023F1FFAA3F5C488A54202BFBFF33E
:108A68002F8F00220DE0C48925448489A54228BFA0
:108A78002D1BC3EA054540E80254002CE8D14FF00D
:108A880001028DF803200193019A0A609DF80310F2
:108A980001F0FF0321B1006800EB124003B030BDC4
:108AA8001846FBE70A884B889A4209D150E8022FFA
:108AB800C2EA224240E80223002BF7D10120704786
:108AC8000020704701F01F024B090121914000EB83
:108AD800830000F01EB801F01F0301229A404B09E1
:108AE80000EB8300D14300F02CB84B0901F01F01C3
:108AF80050F82300C84000F00100704710B5034645
:108B080053E8000F0A4643E8002494F0000FF7D119
:108B180010BD10B5034653E8002F42EA010043E8B0
:108B2800000494F0000FF6D110BD10B5034653E8C9
:108B3800000F00EA010243E8002494F0000FF6D188
:108B480010BD10B5034653E8002F02EA010043E8C0
:108B5800000494F0000FF6D110BD10B5034653E899
:108B6800002F02EB010043E8000494F0000FF6D157
:108B780010BD10B5034653E8002FA2EB010043E8EF
:108B8800000494F0000FF6D110BD0121FFF7C1BF1A
:108B98000021FFF7CABF10B590B1D0E901230168E1
:108BA8009B1ADBB20A60013BDBB2FF2B026802D1E1
:108BB8000020107110BD11684C1C14600B70F2E796
:108BC8000E20F7E737B5054600240DF107008DF8AC
:108BD8000740FFF7A5FC2A686B68116899420ED90F
:108BE800481E106011F8013CEC68298A01FB034417
:108BF800AB6811791B1ADBB2994238BF13719DF823
:108C08000700FFF7B1FC204603B030BD37B5054675
:108C180000230DF107000C468DF80730FFF780FCA4
:108C28002A681368591C1160E968641A298AB4FB18
:108C3800F1F41C709DF80700FFF796FC03B030BDF7
:108C4800826810B504462AB14369016800699847EB
:108C58000023A36010BD0EB403B5039921B104AB82
:108C680001AA019300F076F802B05DF804EB03B0B6
:108C780070470A2938B504460D4602D10D21FFF781
:108C8800F8FFA3682268591CA160D554D4E90132C1
:108C98009A4204D32046BDE83840FFF7D1BF38BD1B
:108CA8002DE9F84F9846DDE90A43154682460F46F6
:108CB8000A464FF00109AA420FD2C14538BFC14642
:108CC80013F0010B01D16CB900240126B8F1010F92
:108CD8001BD908F1FF386E43F8E709F10109B2FB27
:108CE800F5F2E8E79B070ED5B8F1000F0CBF302668
:108CF8002026A145E9D2013C31465046FFF7B9FF8D
:108D0800002CF6D1E0E72026F3E7B7FBF6F39D4207
:108D1800E1D9DFF83C80B7FBF6F3504618F80310AA
:108D280006FB1377FFF7A5FF3346AB42B6FBF5F614
:108D3800F1D2BBF1000F02D00CB1A14501D3BDE8BF
:108D4800F88F20215046013CFFF793FFF4E700BF5E
:108D5800106006002DE9F74F05461746884600299A
:108D680000F03E8118F8011B49B92B7B002B00F05D
:108D78003781284603B0BDE8F04FFFF761BF2529CA
:108D880040F0B780002698F800302D2B424608F1B5
:108D9800010823D0302B24D02B2B25D000242A2BBC
:108DA80002F1010123D13B681A1D1B683A601C447B
:108DB8000A4613782E2B26D101324FF0000A1046AE
:108DC80010F8011BA1F1300CBCF1090F1DD80A23C2
:108DD80003FB0A13A3F1300A0246F0E746F0010646
:108DE800D1E746F00206CEE746F00406CBE711F8D5
:108DF800013CA3F130000928DBD80A2202FB043425
:108E0800303C0A46CBE74FF0000A12F8011B01F08C
:108E1800FB0068289046F8D0782909D86F290CD823
:108E2800632962D022D8252963D0582900F0888088
:108E380098F80030002B95D197E770390829F7D8B2
:108E480001A353F821F000BFC38F0200398E02003E
:108E5800398E0200598F0200398E0200378F0200C6
:108E6800398E0200398E0200498F0200642901D030
:108E78006929DDD13A68D2F80090111D89EAE972B2
:108E88003960A2EBE9724FF0010B092A35DCD345B2
:108E980038BFD3462CB1B9F1000F01DB720700D5FA
:108EA800013CB30702D5BAF1000F03D0F00701D493
:108EB8004CBB0024B9F1000F2DDAC9F100092D21AE
:108EC8002846FFF7D6FE06F00302022A04D1BAF1BB
:108ED800000F01D11CBB0024CDE9004653460A22ED
:108EE80049462846FFF7DCFEA2E73B681A1D1978B9
:108EF8003A602846FFF7BDFE9AE70A230BF1010BFB
:108F0800B2FBF3F2C1E7A345D4D220212846013CA5
:108F1800FFF7AFFECCE77107D5D52B21D0E7A345E6
:108F2800DAD230212846013CFFF7A3FED2E73968A0
:108F3800CDE900460A1D3A6053460A220968D0E77F
:108F480039680A1D3A60CDE9004653461022F5E714
:108F58003B681A1D3A6016F00106D3F8009024D138
:108F6800B9F1000F03D0484609F03FF90646B4426C
:108F78001DD809F1FF3919F8011F00293FF458AF2E
:108F88002846FFF776FEF6E728460136FFF771FE1A
:108F980019F806100029F7D1A642BFF449AF2021DD
:108FA8002846013CFFF765FEF6E70026F0E720219A
:108FB8002846013CFFF75DFED9E73B681A1D3A6079
:108FC800302128461C68FFF754FE78212846FFF711
:108FD80050FE00220823CDE900322146102280E706
:108FE80003B0BDE8F08F00BF2DE9F84FB0F806A038
:108FF8004579D2F800B09DF828900AFB05F5043DA4
:1090080088460BEB0301A94203F1040488BFA5EBD2
:10901800030BB4FBFAF607460AFB1644C2F800B085
:109028004EB9AAEB04055D4528BF5D46BBF1000FAC
:1090380004D1BDE8F88F3F68013EF1E7043408EB3E
:1090480006003C442A46B9F1000F0DD02146ABEB8F
:10905800050B09F025F8DA452E443F6855464FF0D0
:10906800000428BF5D46E1E701462046EFE7FFF729
:1090780092BDF8B546790146721E05460023934213
:109088002D6803D30024A64202D8F8BD0133F6E7C1
:109098000F682846FFF7BAFD01343946F3E72DE992
:1090A800F843068ACD1C0746FFF78CFD043E35447D
:1090B8000446B5FBF6F5F0B14FF48073EDB283804A
:1090C800C680013D076081464FF00008A84512D2CE
:1090D8003846FFF777FD064648B163790133637177
:1090E80008F10108C9F8000007608146EEE720464C
:1090F800FFF7BFFF34462046BDE8F883012104305E
:10910800FFF72BBD10B5012104460430FFF731FDF0
:10911800C0B220B92046BDE81040FFF7AABF10BD75
:109128001FB503920022009203AAFFF75DFF05B066
:109138005DF804FB1FB503920122009203AAFFF712
:1091480053FF05B05DF804FB836800225A60C3E949
:1091580004229A60DA601A6070470B684A684360B4
:10916800934208BF0023016008BF4360704743680B
:1091780043B10268916852680B449342436004BF4C
:1091880000234360704770B5446806460D46206862
:1091980018B1B3682946984718B923682B60256029
:1091A80070BD2468F3E74368186808B102681A605C
:1091B80070474368186870474368186800B9704773
:1091C800884203D102681A6001207047034600688C
:1091D800F4E7000010B50D49A1F59472914201D849
:1091E80000200FE08C1AE30F03EBE4035B1002EBA3
:1091F800C30452F83330834205D802D204F108027E
:10920800ECE7606810BD2146E8E700BF1C65060072
:1092180008B5FFF7DFFF024B002808BF184608BD56
:10922800E063060010B586B0044600F041FA022853
:109238001ED10021102202A808F05BFF4FF4C8538A
:109248000C4901930C4BCDE903134FF4FA73ADF8B5
:1092580014303CB1012C09D001A804F0DFFD002036
:1092680006B010BD40F6C4130293F5E7034BFBE7C5
:109278000820F5E7000E270705007E00FF1FA1075D
:109288004FF08053D3F83021082A03BFD3F83401B4
:10929800B0FA80F0400900207047000008B54FF090
:1092A80080430022C3F80C21C3F81021C3F83825E5
:1092B8004FF0805203F54043D2F80414C3F8201548
:1092C800D2F80814C3F82415D2F80C14C3F82815DA
:1092D800D2F81014C3F82C15D2F81414C3F83015AA
:1092E800D2F81814C3F83415D2F81C14C3F8401572
:1092F800D2F82014C3F84415D2F82414C3F848153A
:10930800D2F82814C3F84C15D2F82C14C3F8501509
:10931800D2F83014C3F85415D2F83414C3F86015D1
:10932800D2F83814C3F86415D2F83C14C3F8681599
:10933800D2F84014C3F86C15D2F84424C3F8702549
:10934800FFF79EFF18B13B4B3B4AC3F88C26FFF74B
:1093580097FF18B1394BFB22C3F81825FFF790FF88
:1093680070B14FF080414FF08053D1F8E42ED3F81C
:10937800583222F00F0203F00F031343C1F8E43E02
:10938800FFF77EFF20B12E4B4FF40072C3F8402642
:109398004FF08043D3F80024D20744BF6FF0010296
:1093A800C3F80024274AD2F8883043F47003C2F87F
:1093B8008830BFF34F8FBFF36F8F4FF01023D3F870
:1093C8000022002A03DBD3F80432002B2EDA1E4BCE
:1093D8000122C3F80425D3F80024002AFBD04FF05B
:1093E80010221221C2F80012D3F80024002AFBD060
:1093F8004FF010231222C3F80422134BD3F8002491
:10940800002AFBD00022C3F80425D3F80024002A40
:10941800FBD0BFF34F8F0B490C4BCA6802F4E062D4
:109428001343CB60BFF34F8F00BFFDE7084B094ADA
:109438001A6008BD005000404881030000F0004059
:109448000090024000ED00E000E001400400FA0551
:10945800F82A00200090D003074B1B5C1F2B8ABF03
:10946800064A4FF0A04203F01F03D2F80405D84083
:10947800C04300F00100704720650600000300505B
:10948800074B1B5C1F2B86BF064903F01F034FF0D9
:10949800A041012202FA03F3C1F80C35704700BF5E
:1094A8002065060000030050074B1B5C1F2B86BF7E
:1094B800064903F01F034FF0A041012202FA03F30B
:1094C800C1F80835704700BF20650600000300504A
:1094D80008B50020FFF7E8FF0120FFF7E5FF0220AD
:1094E800FFF7E2FFBDE808400320FFF7DDBF08B53E
:1094F8000020FFF7C5FF0120FFF7C2FF0220FFF79A
:10950800BFFFBDE808400320FFF7BABF0A4B185C4D
:109518001F288ABF094B4FF0A04300F01F00D3F863
:1095280004250121814021EA02000A40C3F8080508
:10953800C3F80C25704700BF2065060000030050E3
:10954800074B1B5C1F2B8ABF064A4FF0A04203F053
:109558001F03D2F81005D840C04300F0010070473F
:109568001C650600000300500B2809D00C2809D000
:10957800182809D019280CBF03204FF0FF30704776
:10958800002070470120704702207047C20710B5BD
:1095980004460CD54FF0A0430322C3F83427C3F880
:1095A8003827C3F83C27C3F84027FFF791FFA307E4
:1095B8000AD54FF0A0430C22C3F82C27C3F8302754
:1095C800C3F86027C3F8642710BD07B501A803F0E6
:1095D800FDFC20B90190019803B05DF804FB019BE4
:1095E800002BF8D101230193F5E738B5044602F0C2
:1095F8006DFD0546204602F06FFDA54203D0BDE88B
:10960800384002F062BF38BD02F060BD02F098BD7C
:1096180008B502F069FD40B208BD02F06DBF02F066
:1096280099BD02F0A3BD02F0ADBD80085E3840B21E
:1096380070474901C031401A704708B500F008F971
:1096480001F018F900F094F902F03AF802F05AFA29
:1096580002F0E3FC29F03EF902F0F2FC02F070FEA1
:1096680029F0D7FE02F08EFE03F0FCF803F066F84E
:1096780003F07AF929F060FF03F042FCBDE80840E6
:1096880003F020BE08B503F02FFE03F05DFC29F0BF
:1096980054FF03F07BF829F0BDFE29F01CF900F017
:1096A80068F9BDE8084001F007B901F021BB0000E6
:1096B80008B501F025F9092896BF024B0120185C6E
:1096C80008BD00BF24650600012002F05DBE01232D
:1096D80000221146184602F070BE13B500240B464E
:1096E8000246CDE900442146204602F08AFE02B037
:1096F80010BD0146002002F0B3BE000008B590F886
:10970800803033B1074B084A4FF4F8710748FDF72A
:1097180053FE02F0C1FE20B9054B034A4FF4FB711A
:10972800F4E708BD496506002E6506006165060078
:109738000068060002F0F7BE07B502A8002300F88B
:10974800013D02F007FF10B97F238DF807309DF91E
:10975800070003B05DF804FB02F098BC02F09EBC61
:1097680002F064B970B504460D461646FFF72DFFA2
:10977800324603462946204629F04EFD70BD704703
:1097880070477047704700002DE9F843894642B199
:10979800012A0ED0294B2A4A2A484FF49C71FDF71A
:1097A8000BFE294A002B43D1D2F84471022401321E
:1097B80031E0264A53BBD2F880730B242BE0ACEB84
:1097C800060506EB6505AF422AD905FB04FE02EB48
:1097D8000E086BB152F80EE0016871450ED305D83A
:1097E800D8F804E04168714508D30AD96E1C15E021
:1097F800B0F8008032F80EE0F045F5E705F1FF3CDF
:109808000CE0C9F800500120BDE8F883D2F8847351
:10981800112402F5B0720025BC462E46B445CEDAB6
:109828006B1CB34208BF3546C9F800500020EBE76F
:10983800D2F8487108244132EDE700BF5B650600A5
:10984800B3650600F1650600B49500202C9200204F
:1098580010B5094C4FF4A6720021204608F049FCC7
:109868004FF462720021054808F043FC012323707D
:10987800034B00221A7010BDB49500202C920020D2
:109888000097002030B5224B1B78012B89B0054684
:109898001AD008D3022B1AD01E4B1F4A1F4840F279
:1098A800C221FDF789FD01A902F052FB1C4B1B7870
:1098B8006BB130B19DF80430002202A9FFF764FFB4
:1098C8000346184609B030BD154B1B780BB9012368
:1098D800F7E702A9447802F051FB0028F7D004F01A
:1098E8000704032C12D19DF81E30EB5C042B0DD11C
:1098F8009DF81D30022BEAD100231A4601A90598CC
:10990800FFF742FF80F00100C3B2DAE70023D8E78F
:10991800009700205B650600C3650600F165060038
:10992800B495002037B503460D46144688B10B465A
:10993800012201A9FFF728FFA8B101980B4B5DB1DF
:1099480000EB00101A1800F5B47092F8702122701C
:109958000344184603B030BD0B2250431A18023096
:10996800927A2270F4E720700346F2E72C920020E6
:1099780070477047014804F01FBE00BFFC2A002052
:1099880004F054BE704708B510B902F061FF08BD75
:109998000128FCD1FFF7F6FFF9E700F1804000F558
:1099A8008050002382B0036003680193019B02B0DA
:1099B80070470000034B186808B190F8800000F069
:1099C800010070471097002008B5FFF7F3FF08B1B2
:1099D800014B186808BD00BF1097002000BF00BFEA
:1099E80000BF00BF00BF00BF70470000134B144A00
:1099F800C3F8482500F1804000F58050C3F84C05B5
:109A080021B102F5FD424832C3F82C290D4AC3F8AA
:109A1800402502F5AF3202F59672C3F8442529B104
:109A2800D3F8002842F08002C3F80028034B8022B4
:109A3800C3F804254022C3F80425704700F001400C
:109A48003C71014010110040034B1B781BB1034BC4
:109A58001022C3F80823704709970020001000401F
:109A680010B5044602F0E0FEC00902280B4A11D9DD
:109A7800811EE3098B4233BF0021A4EBC114C31E2E
:109A8800116028BF1460064AC3F31403C2F8643691
:109A9800012010BD14600020FBE700BF04970020E0
:109AA8000010004013B501A802F074FB9DF80500F2
:109AB8009DF8044002F050FF9DF807309DF80620FD
:109AC8001B0643EA0243234343EA0020024BC3F840
:109AD8006C0602B010BD00BF0010004008B50021A0
:109AE800094803F043FE094B01221A60084AD2F8DC
:109AF800003223F48073C2F80032064B4FF48072B0
:109B0800C3F8082508BD00BF946706001090004000
:109B18000090004000F0014008B503F03BFA002037
:109B2800BDE8084002F0A4BE08B5054BD3F84805C7
:109B380000F07F0002F0FBFE404240B208BD00BFCB
:109B48000010004008B50378184410F8010C02F022
:109B5800F5FE00B28000FF2828BFFF20C0B208BD74
:109B680038B50446FFF7E0FF05462046FFF7EAFF51
:109B7800294602462046BDE8384002F050BA0000A7
:109B880038B5074B1C6805460146204601F06EFDB6
:109B980028B129462046BDE8384002F046BA38BD0B
:109BA8001497002010B5044601F0AAFE204602F0E2
:109BB80038FABDE8104001F08FBD10B5044601F039
:109BC8009FFE2046FFF7CCFFBDE8104001F084BDA2
:109BD80008B5084BD3F8503513F0FF0F07D1FFF73E
:109BE800FDFE054B1868003018BF012008BD012094
:109BF800FCE700BF001000403C7101400B3808B57D
:109C0800C3B20F2B06D9094B094A0A4840F205216D
:109C1800FDF7D2FB00EB800000F6651080B2064B22
:109C2800A0F51660C3F8080508BD00BF1D6706004B
:109C3800676606003C6706000010004008B5002172
:109C48000A4803F059FD80B9094A0A49D2F8003296
:109C580043F48073C2F80032074BC3F85015C3F8B9
:109C680054254FF48072C3F8042508BD9467060094
:109C7800009000403C71014000F0014038B5144CA0
:109C8800144901222260D1F8002222F44072C1F85E
:109C98000022114A1278D2B2042A054608D0052AB1
:109CA80013D00E4B0E4A0F4840F29E31FDF784FB4D
:109CB8000D490E4803F040FD0123236025B10C4BEC
:109CC8004FF48072C3F8082538BD00210948F1E730
:109CD80010900040009000400A9700205B65060045
:109CE800736606003C670600B467060094670600C2
:109CF80000F00140A467060010B5134C4023C4F8D7
:109D080008358023C4F80835FFF7E8FED4F8003892
:109D180023F08003C4F8003800220C4BC4F82C2927
:109D28001B7883B10A4B0A21C3F808130949C3F801
:109D3800002201200860C3F844264FF4AE70BDE845
:109D48001040FFF72ABE10BD00F00140099700201F
:109D58000010004010100040094A1368002BFCD086
:109D6800084AD2F8003223F48073C2F80032064B56
:109D780001221A60054B4FF48072C3F8082570471A
:109D880040910040009000401090004000F00140D9
:109D980038B51C4C1C484023C4F808358023C4F847
:109DA80008354FF48073C4F80835002103F0DEFC51
:109DB800164A174801251560D4F80038002123F009
:109DC8008003C4F80038C4F82C191560D0F80032A4
:109DD80023F48073C0F800320E4B1B7883B10E4B0E
:109DE8004FF45052C3F80823C3F80012082203F0B6
:109DF8004FFD0A4B1D6018B1BDE83840FFF7ACBFF6
:109E080038BD00BF00F00140946706001090004084
:109E180000900040099700200010004010100040FA
:109E280010B5154C4023C4F808358023C4F808350C
:109E38000120FFF723FFD4F8003823F08003C4F88B
:109E4800003800210D4BC4F82C191B789BB10C4B22
:109E58000C4AC3F808230C48C3F80012082203F080
:109E680017FD0A4A0123136042F8203C18B1BDE8E7
:109E78001040FFF771BF10BD00F0014009970020A6
:109E8800001000400200040800900040301000401C
:109E980038B5164C4023C4F808358023C4F8083573
:109EA800FFF71CFED4F8003823F08003C4F800380C
:109EB80000250F4BC4F82C591B78ABB10822294652
:109EC8000C4803F0E5FC0C4B4FF40042C3F80823A0
:109ED8000A4AC3F800520123136042F8183C18B12B
:109EE800BDE83840FFF738BF38BD00BF00F001407B
:109EF8000997002000900040001000402810004002
:109F080038B5164C4023C4F808358023C4F8083502
:109F1800FFF7E4FDD4F8003823F08003C4F80038D4
:109F280000250F4BC4F82C591B78ABB108222946E1
:109F38000C4803F0ADFC0C4B4FF4C022C3F80823C7
:109F48000A4AC3F800520123136042F8203C18B1B2
:109F5800BDE83840FFF700BF38BD00BF00F0014042
:109F68000997002000900040001000403010004089
:109F7800F8B505460F46164601F062FB044680B167
:109F8800624B1B78092B00F2B880DFE803F0050C60
:109F98000F225B5B656A747E022F02D0042002F0F8
:109FA80067FC2046F8BDFFF74FFDFAE7584B1B78D2
:109FB8005B070BD5002D00F0A780FFF7E9FE002E08
:109FC800EFD0062002F02DF83446EAE7FFF7E0FE6E
:109FD800E7E7002D00F098804E4D4F484023C5F824
:109FE80008358023C5F808354FF48073C5F808355F
:109FF800002103F0A1FB494801230360D5F800289C
:10A00800002122F08002C5F80028C5F82C19036049
:10A01800D0F8F02122F48072C0F8F021404A12787A
:10A0280032B1404A4048C2F80803C2F8001213612E
:10A03800002EB6D03D4B1868002380F88030FFF71B
:10A048008FFDC1E7002D5FD0FFF7EAFE002EA8D0F4
:10A058000620FFF795FDA4E7002D55D0FFF74CFE2D
:10A06800F4E7002D50D0FFF713FF002E99D0012000
:10A0780001F0DFFFA8E7002D46D0FFF741FF002ED3
:10A088008FD0012001F0D9FF9EE7224E2248234FAE
:10A098004023C6F808358023C6F80835002103F0A8
:10A0A8004BFB01254FF480733D602846C6F8083500
:10A0B80003F076FB1A4B1B78002B3FF472AF082293
:10A0C80000211B4803F0E4FB1A4B1D6000283FF4F5
:10A0D80068AF194A1368002BFCD0154AD2F8003231
:10A0E80023F48073C2F8003201233B60094B4FF41C
:10A0F8008072C3F80825044653E7104B104A1148EC
:10A1080040F2BC51FDF758F92C464AE70A9700205F
:10A118000897002000F00140A46706001090004056
:10A128000997002000100040020000081097002046
:10A138000090004010100040409100405B65060010
:10A14800846606003C670600044B002282B01A6051
:10A158001B680193019B02B0704700BF3C7101402E
:10A16800F8B5404B1B7807460D4616460BB900203C
:10A17800F8BD047801F059FE630100285CD103F1B1
:10A18800EE000DB1A83080B202F024FB044600288E
:10A19800EDD001F0A9FF344B344AC3F80C05002D6B
:10A1A80008BF4FF4A012C3F804754FF4B670C3F893
:10A1B8000022FFF7F2FB002D41D04FF4A470FFF707
:10A1C800ECFB2B4A4FF48270FFF7E7FB294B197819
:10A1D8006FF3C3011970244B42F00202C3F8042341
:10A1E80085B32549254803F087FA00210746224808
:10A1F80003F062FA00B187B9214A2249D2F8003245
:10A2080043F48073C2F800321F4BC3F85015C3F8EB
:10A2180054254FF48072C3F80425FFF795FF002DED
:10A2280014BF042000200121FFF7E0FBA6B9174B5B
:10A2380001221A6020469BE703F24E40A1E74FF047
:10A248000062BFE72946124803F036FA0028D3D047
:10A25800FFF77AFF2846E6E7FFF7BAFC0028E6D0C2
:10A2680086E700BF0997002000100040003814005E
:10A278000000040808970020B467060094670600E9
:10A28800009000403C71014000F001401010004077
:10A29800A467060010B5154B1B78044603B3AE201F
:10A2A80002F098FAE0B1124A4FF42053C2F8003293
:10A2B8004FF4A470FFF771FB4FF4A270FFF76DFB2A
:10A2C8004FF4C023C2F80433FFF7B8FCFFF73CFF94
:10A2D80001210420FFF78AFB1CB9064B01221A60F2
:10A2E80010BDFFF775FC0028F7D0F9E709970020A3
:10A2F800001000401010004070B54D4B1B7806460A
:10A30800002B00F088804B4A137803F0F8036FF3B2
:10A318000413137001F0E8FE474AC2F80C05FFF772
:10A3280049FB0546002877D0FFF74EFB434BC2F8A0
:10A338000405C2F800321823C2F860354FF49A7049
:10A34800FFF72BFB4FF49470FFF727FB4FF498703F
:10A35800FFF723FB3A4C3B484FF45053C2F8043301
:10A36800D4F8003243F48073C4F80032002103F0BB
:10A37800C3F9002852D1D4F840358133C4F84435A4
:10A38800FFF7E2FE304B3148314AC3F84825C3F89D
:10A398004C0500F5F030C3F82C09C3F85025C3F874
:10A3A8005445D3F8002842F08002C3F80028294A0F
:10A3B800C3F8402502F5AF3202F59672C3F844257A
:10A3C8008022C3F804254FF48072C3F80425A0F551
:10A3D800EF304022C3F80425D43802F0E3FD0EBB69
:10A3E8001D4B01221A60B5B902F0CCFA1B4B18605C
:10A3F800FFF7E0FA78B1FFF7E7FA0F4B0F4AC3F817
:10A408000405C3F80022D3F85035DBB2022B02BF93
:10A41800134B01221A6070BD52238AE70123C4F846
:10A428004035AAE7FFF7D4FB0028D9D0DBE700BF07
:10A4380009970020089700200010004052000800EB
:10A44800009000409467060000F0014004100040AE
:10A458003C7101401011004010100040109700207E
:10A468000810004010B5044601F03EFE144B0021D0
:10A47800C3F80C05134803F01FF980B9124A1349B1
:10A48800D2F8003243F48073C2F80032104BC3F89C
:10A498005015C3F854254FF48072C3F80425FFF70C
:10A4A80053FE00210846FFF7A1FA1CB9094B012207
:10A4B8001A6010BDFFF78CFB0028F7D0F9E700BF42
:10A4C80000100040A4670600009000403C71014065
:10A4D80000F001401010004010B5134B1B780446E3
:10A4E800DBB1124B1868FFF7BBFAB0B1104A4FF452
:10A4F8000041C2F800124FF49E70FFF74EFAC2F8FE
:10A508000413FFF79BFBFFF71FFE01210420FFF751
:10A518006DFA1CB9074B01221A6010BDFFF758FBF2
:10A528000028F7D0F9E700BF09970020049700201A
:10A53800001000401010004008B5064B1B7833B1DE
:10A5480002F072F93B2894BF0020012008BD0120C9
:10A55800FCE700BF0997002010B501F059F904463F
:10A5680028B1FFF7E9FF044608B901F067F920466A
:10A5780010BD00001649402310B5C1F8083518B1C0
:10A58800144B5222C3F80022134B144A01241C60B6
:10A598008023C1F80435137803F0FC036FF38203BA
:10A5A8004FF494701370FFF7F8F90A4B1822C3F8A8
:10A5B8006025FFF7C9FD4023C1F80435084802F0BB
:10A5C800F1FCFFF705FB08B9064B1C6010BD00BF86
:10A5D80000F0014000100040109000400897002053
:10A5E80030110040101000402DE9FF4104460028BA
:10A5F80000F0BB8002F018F93B2840F295808D4DA1
:10A608002B7803F0FF07002B40F08E808A4C012640
:10A618000F23C4F8FC7F0D22C4F8FC6F3946C4F838
:10A628001035684607F065FD08238DF800309DF861
:10A6380002209DF803109DF804008DF806607F2322
:10A648008DF808309DF80130120442EA032242F0E6
:10A65800C06343F008039DF80720002943EA8053AC
:10A6680014BF4FF48011002143EA42730B434FF0AB
:10A6780002088DF80580C4F814359DF80A309DF855
:10A6880009201B0443EA02239DF80B20002A14BF6B
:10A698004FF08072002243F07F0313439DF80C2093
:10A6A800002A14BF4FF0007200221343C4F8183573
:10A6B80040F20223C4F85066C4F834355F4BC4F83E
:10A6C8003835FFF7EFF95E4BC4F84476C4F84836DE
:10A6D80001F0FCFCFFF792FA5A4B83F80173C3F8B8
:10A6E8008081D4F8004234B1574B584A40F22C715B
:10A6F8005748FCF761FE2E7002F03EFC5549204693
:10A7080002F0DAFF5349204602F0F6FF524B1B785D
:10A71800092B25D8DFE803F0082405240B1224159B
:10A72800191D0020FFF7E8FD04B0BDE8F081002204
:10A7380001214A4B1868FFF713FDF5E7002211467F
:10A74800F7E70020FFF7C8FEEEE70020FFF7A2FDBD
:10A75800EAE72B78002BE7D00020FFF783FEE3E73A
:10A768003F4B3A4A40F25371C2E7324B1A78002AFB
:10A778003CD0187002F030F888B1324B0222C3F88E
:10A788008020C3F8802183F80143BFF34F8FBFF3C4
:10A798006F8F294B0122C3F8FC4FC3F8FC2F2D49BA
:10A7A800002002F0C9FF2B49002002F0DFFF032040
:10A7B80002F0F6FF02F0EEFB002202210120FFF773
:10A7C800D7FB20B9274B284A40F2717190E7224BFA
:10A7D8001A78092A29D8DFE802F009050C141E1E88
:10A7E8001E09090900221A70FFF796F901F0F0FF17
:10A7F8009AE71E4B1B785B07F8D50520FFF7D2F9BF
:10A80800F4E702221A701A4B1868002380F8803087
:10A81800FFF7D3F9EAE702221A7001F071F8042071
:10A82800FFF7AEF900F058FFE0E70D4B0E4A4FF482
:10A83800F3615DE709970020001000402110010036
:10A84800000700FF00E100E053680600A06606006C
:10A858003C670600C46706000A970020149700208A
:10A868005B65060000680600B366060008970020CE
:10A87800109700200D4A002313700D4A13700D4BDA
:10A88800D3F8042522F00302C3F80425D3F80825D9
:10A8980042F00302C3F80825D3F8102522F00F026E
:10A8A80042F00402C3F8102503F012BC0A970020F6
:10A8B800099700200090004008B50E4B1B784BB15B
:10A8C8000D4B0022C3F8FC2F0122C3F8FC2F0320F4
:10A8D80002F066FF02F094FF084B0222C3F88020C2
:10A8E800C3F88021002283F80123BFF34F8FBFF301
:10A8F8006F8F08BD099700200010004000E100E0BC
:10A90800014B1878704700BF0A970020F8B5044635
:10A9180000F07EFF064630B1184D2B7823B9344637
:10A9280000F08CFF2046F8BD2B78012BF7D00122D0
:10A9380020461146FFF71CFB04460028F0D00123EF
:10A948002B700F4B1B7803F0FF071BB92F70FFF715
:10A95800E3F8E5E74FF48870FFF71FF8094B10227A
:10A96800C3F80423D3F8501511F0FF01D7D1FFF72E
:10A978006BF83C462970FFF7CFF8D1E70A9700201B
:10A9880009970020001000402DE9F8430746884643
:10A998001546994600F03CFF044600B3124E337842
:10A9A800022B06D03378032B03D0FFF7C5FD40B93F
:10A9B80000240DB12046A84700F040FF2046BDE81E
:10A9C800F8834A4641463846FFF7D2FA044600283B
:10A9D800EED0022301203370FFF78EFCE9E7002D4B
:10A9E800ECD0A847EAE700BF0A9700202DE9F04716
:10A9F800099D9DF8209006468A4690461F46FFF717
:10AA0800ABFD044628B3012251463046FFF7B0FAA1
:10AA1800044640B900240DB12046A84700F00EFFB7
:10AA28002046BDE8F0870D4E022333700C4B0122FF
:10AA380039464046C3F80080FFF792FBB9F1000F92
:10AA480001D00028E6D0002F14BF0423052333705B
:10AA5800E1E7002DE4D0A847E2E700BF0A9700200D
:10AA68001497002070B506460D46FFF775FD04469D
:10AA780098B1012211463046FFF77AFA044650B1E0
:10AA8800074B07221A70074B1D60074B0022012055
:10AA98001A70FFF721FD00F0D1FE204670BD00BFFF
:10AAA8000A970020049700200197002038B5054632
:10AAB800FFF752FD044670B1012211462846FFF700
:10AAC80057FA044628B1054B082201201A70FFF7EF
:10AAD800E1FB00F0B3FE204638BD00BF0A97002016
:10AAE80038B50546FFF738FD044688B101221146FE
:10AAF8002846FFF73DFA044640B1064B09221A7072
:10AB0800054B1B7813B10120FFF7ACFC00F096FE53
:10AB1800204638BD0A9700200997002010B5044642
:10AB2800FFF71AFD012184F8801058B1204B1B78DB
:10AB380033B1204B1B78DBB2022B05D0062B20D07B
:10AB480000F07CFE012010BD1B4AD2F85035DBB264
:10AB5800022BF5D1D2F80032522B06D0174B184AE7
:10AB680040F62E411748FCF727FC174B1C60FEF7F0
:10AB78002BFF164BC2F80405C2F80032144B1960BB
:10AB8800DEE70D4AD2F85035DBB2022BD8D1D2F825
:10AB98000032122B04D00F4B094A40F63D41E1E741
:10ABA800094B1C60FEF710FF0B4BC2F80405E3E7E6
:10ABB800099700200A970020001000400768060047
:10ABC800FA6606003C67060010970020520008004D
:10ABD800081000402B6806001200080038B5FFF77F
:10ABE800BBFC054678B1124C22781AB101F06EFA16
:10ABF800FFF704F80F4B1B78DBB2022B05D0092BAB
:10AC08000ED000F01BFE284638BD01221146002058
:10AC1800FFF7AEF90028F4D00120FFF76DFBF0E74D
:10AC28002378002BEDD0044B01221A60E9E700BF1E
:10AC3800099700200A9700201010004010B5FFF770
:10AC48008BFC044630B1044B1B780BB1FEF72AFF8E
:10AC580000F0F4FD204610BD0997002010B5FFF75D
:10AC68007BFC0446B0B10D4B1B7803F0FF047BB1AD
:10AC78000B4B1B78022B0FD10A4A13784FF48E70B6
:10AC880043F010031370FEF788FE074B01221A6089
:10AC980000F0D4FD204610BD0024F9E709970020F4
:10ACA8000A970020089700201410004038B50D4B73
:10ACB8001B78DB06054611D5FFF74EFC70B10A4B31
:10ACC8001B7803F0FF0433B1084A1368002BFCD04B
:10ACD800FEF72AFF287000F0B1FD00E000242046AE
:10ACE80038BD00BF08970020099700201C110040BC
:10ACF8002DE9F04F8FB000F08FFD924BD3F804335D
:10AD08009D071DD5904B1B68D3B14FF48270FEF799
:10AD180044FE8E4B1B78033B032B39D8DFE803F046
:10AD2800300202358A4B1C68204600F0B3FC10B193
:10AD38002046FEF724FD874A137843F00803137072
:10AD4800DFF80082D8F804335C054CD5824B1B68C9
:10AD5800002B48D04FF49470FEF71FFE7B4B1B78F6
:10AD6800022B40F0D780D8F86055C5F3C705022DEF
:10AD78008DF8205013D8794B794A4FF4FA610BE0DB
:10AD8800784B186828F0DAFADAE700F097FCD7E78A
:10AD9800754B764A40F685217548FCF70DFB754BD7
:10ADA8001B6803BB6B4C237813F001067AD001268D
:10ADB8002378980717D4B6B16F4E3068057801F03C
:10ADC80034F86B01002840F09C8003F1C00001F0CA
:10ADD80001FD002800F098802378306843F00203D2
:10ADE800237000F069FC574BD3F80433990412D54B
:10ADF800604B1B687BB14FF49A70FEF7CEFD534B46
:10AE08001C78E4B2022C40F08A800020FFF7B2FBE5
:10AE18002046FEF7C7FE4B4BD3F80433DA0440F163
:10AE28002D81564B1B68002B00F02881474E4FF4AC
:10AE38009870FEF7B2FD3378022B40F05081454DF3
:10AE48004D4C2A78276842F01002D3072A706BD538
:10AE58002B78D80700F198800120FFF78BFB7B78CF
:10AE680003F00703022B00F028812368002283F8EF
:10AE7800802001F087FD2060FEF79CFD002800F08F
:10AE8800E780FEF7A1FD2F4B3D4AC3F80405C3F840
:10AE98000022D3F85035DBB2022B02BF394B012216
:10AEA8001A60D5E0344F43F0040308A938682370CA
:10AEB80000F080FE814660B99DF820309D4203D0A5
:10AEC800DB00C8F8603572E7237843F0010323708C
:10AED8006DE709280FD1FEF75BFF0120FFF70CFA99
:10AEE8003B685B7803F00703022B3FF461AF4846E9
:10AEF800FEF758FE5CE701F0C9F800287FF457AF69
:10AF0800E9E703F5387062E7FEF742FF052001F034
:10AF180088F868E7144B154A40F69A213CE7124B2B
:10AF2800124A4FF42B6137E701F0B0F800288FD1AF
:10AF3800FEF72EFF0120FFF7DFF90420FEF732FEAF
:10AF48009CE000BF00100040041100400A97002058
:10AF5800149700200897002028110040D4670600A5
:10AF6800C46606000C9700205B650600EE660600C6
:10AF78003C67060034110040109700203011004053
:10AF88005200080008100040206800F04EFF00281A
:10AF98003FF462AF01F08AF800283FF45DAF206803
:10AFA80003F09EF8AB4B186000283FF455AFAA4D4C
:10AFB800DFF80483C5F804054FF4A013C5F8003280
:10AFC8004FF4AA70FEF7E9FCA44BA54AC3F858252C
:10AFD8004FF40072C3F85C55C3F80425D8F84495BB
:10AFE800CDF8208000210523CDE90A1108A88DF8A5
:10AFF800283009F12803099302F05EFB994B0122DE
:10B008001A60D8F84C25D8F84035914503D99945A8
:10B0180022D99A4220D8FEF7E1FCD5F85035DBB2A8
:10B02800092B19D0904B1B68B3B9226882F880307D
:10B038008A4A4FF40071C2F80815C2F85835C2F8A8
:10B048005C35C2F83439FEF7A3FE0120FFF754F946
:10B058003846FEF7B2FD11E07F4A032333704FF400
:10B068005053C2F808334FF4B670FEF796FC4FF40D
:10B078008270FEF792FC7D4BC2F80433764CD4F80C
:10B088000433190140F1A380794B1B68002B00F0B1
:10B098009E80784E784F4FF4B670FEF77EFC33787A
:10B0A800DBB2032BB0461FD002D3052B40F206813A
:10B0B800724B734A40F6DC216EE600F0E7FF002889
:10B0C8007FF4D3AE644B6F4AC3F80022D3F85035EF
:10B0D800DBB2022BD2D16C4B01221A60CEE7674B50
:10B0E800674A40F6C42157E65C4D684E6848D6F872
:10B0F80000904FF0400B0021C5F808B502F01CFB8A
:10B10800644B65484FF0010AC3F800A00021019381
:10B1180002F0F2FA5222C4F800221822C4F860257C
:10B12800524AC4F808234FF49A70FEF736FC4FF4DD
:10B138009470FEF732FC4FF49870FEF72EFC4FF433
:10B148005052C4F80423019BC3F800A04FF40073C5
:10B15800C5F808350023C5F85835C5F85C35C5F875
:10B1680034398023C5F80435FEF7EEFF4B48C5F89F
:10B1780004B501F017FFFEF72BFD10B9484BC3F8D3
:10B1880000A03368002283F8802001F0FBFB3060C8
:10B19800FEF710FC78B1FEF717FC2F4B394AC3F8BD
:10B1A8000405C3F80022D3F85035DBB2022B02BFE6
:10B1B800354B01221A60022388F800303B7803F0EF
:10B1C800FC036FF3820348463B70FEF7F6FC224A05
:10B1D800D2F804331B0740F13581324B1B68002B32
:10B1E80000F03081234D4FF48670FEF7D6FB2B78A4
:10B1F800062B40F085812C4B1B6823B1D2F8003414
:10B20800DF0700F17081294B1868837803F0300359
:10B21800202B40F0F6801D4B1C68A37803F0300308
:10B22800202B40F0EE80637803F00703022B40F0F8
:10B23800E880094BD3F80034DE0740F1E28002A928
:10B2480000F09CFE002840F0C980194B194A4FF4C1
:10B258002061A1E50C9700200010004000F001409B
:10B26800449100404C9000405411004002000008F6
:10B278006C1100400A970020089700205B650600C3
:10B28800EE660600520008000810004010970020E3
:10B29800A467060010900040946706003011004033
:10B2A800101000400C1100405C1100401497002061
:10B2B800FA670600D9660600009000403B781A0736
:10B2C80085D5B94D286800F0B0FD2F468146002885
:10B2D8006ED0FEF76FFBB54AB54B051E08BF1223AB
:10B2E8004FF04001C2F80815C4F8003203D0FEF749
:10B2F8006BFBC4F804054FF48670FEF74EFBAD4BAC
:10B30800C4F808334FF48270FEF747FB0A23C4F8E9
:10B3180004330020FEF7B2FCFEF790FCA349A64BCD
:10B32800C1F84835A3F5B033A3F59C73C1F84C3583
:10B3380003F5F033C1F82C39FEF706FF8023C1F876
:10B3480004354023C1F80435062388F80030FEF799
:10B358003FFC10B9994B01221A60B5B901F012FBF4
:10B36800974B1860FEF726FB78B1FEF72DFB954B3F
:10B378008F4AC3F80405C3F80022D3F85035DBB26E
:10B38800022B02BF904B01221A603A68937803F0AF
:10B398003003202B3FF41BAF4FF4AE70FEF7FDFADD
:10B3A800D378884A1B0643F40073C2F844360EE784
:10B3B800FEF736FD022301203370FEF79DFF2C684F
:10B3C80000F09EFA204600F04FF94B464A4649469F
:10B3D800204600F028FE00F07FF9F8E608A920468C
:10B3E80000F0CCFD68B1059858B1099949B19DF8AC
:10B3F8001D309DF834209A4203D106F0D3FC002872
:10B4080071D000263446FEF777FC022701202F7002
:10B41800FEF772FF002E6DD0FEF786FB064620462B
:10B42800FEF790FB604B1D68074600F069FA284656
:10B4380000F01AF93B4632462146284600F0F3FD53
:10B4480000F04AF95F4BD3F80433D80610D55F4BA8
:10B458001B686BB14FF48870FEF79FFA5C490B7854
:10B46800012B52D1FEF7F0FA00230B70FEF754FBC4
:10B47800544BD3F80433990318D5564B1B68ABB11A
:10B48800534C4FF4A270FEF788FA2378082B41D169
:10B49800FEF736FD022301202370FEF72DFF00F092
:10B4A8002FFA012000F0C7FD00F016F9454BD3F83C
:10B4B80004335A0340D5484B1B68002B3CD0444CFE
:10B4C8004FF4A470FEF769FA2378DBB2042B05D396
:10B4D800052B4FF0020522D9082B55D03F4B404A87
:10B4E80040F62D3158E4364B1C68002384F8803030
:10B4F800012688E700F004FA3846FEF741FB9FE78B
:10B50800364B374A40F6EF2146E4344B344A40F68E
:10B51800023141E4314B324A40F615313CE4FEF742
:10B528007FFC01202570FEF7E7FE00F0E9F9012015
:10B53800FEF726FB00F0D0F8224AD2F804331B04A9
:10B548001DD5284B1B68D3B1214D4FF49E70FEF7D3
:10B5580024FA2B78072B68D1234CD2F86836227846
:10B56800DBB2934238BF13462370204B186800287B
:10B5780040D0FEF775FA98B11D4B01221A6000F011
:10B588005DF90FB0BDE8F08FFEF7BAFC0120257019
:10B59800FEF7B2FE00F0B4F9002000F04CFDC9E758
:10B5A800FEF79CFAEBE700BF1497002000F001407B
:10B5B80012000800020004083C710140101000400D
:10B5C80010970020001000400810004010110040A3
:10B5D8000A97002044110040481100405B650600AE
:10B5E800EE6606003C1100400197002004970020F9
:10B5F8002410004000F06AFDFEF700FBFEF748FC4F
:10B60800022301202B70FEF777FE207801F09DF9C8
:10B6180000B2840000F074F9FF2C28BFFF24E0B2C8
:10B6280000F005FD00F058F8A9E7034B034A4FF472
:10B638003461FFF7B1BB00BF5B650600EE6606002C
:10B64800F8B5084F05460E46002457F8243033B1A4
:10B6580031462846984718B10134042CF5D1012009
:10B66800F8BD00BF7C68060000F01CBEF8B5084FA6
:10B6780005460E46002457F8243033B13146284693
:10B68800984718B10134032CF5D10120F8BD00BF4B
:10B698008C68060070B5074E0546002456F824301D
:10B6A8002BB12846984718B10134032CF6D1012054
:10B6B80070BD00BF9868060000F066BA00F00EBEC4
:10B6C800034B00221A70034BFF221A70704700BF09
:10B6D8001B9700201A97002008B50B4B1A78120602
:10B6E80006D50A4B0A4A4FF480710A48FBF764FEF4
:10B6F800094A127822B9094B054A40F20111F4E7C8
:10B70800FF221A7008BD00BF1A9700206C6A060055
:10B71800286906009C6A06001B970020FF6A06003D
:10B7280008B512494B68C3F30803DBB10F2B06D8E1
:10B738000F4B104A104840F21711FBF73DFE103B23
:10B74800DBB25AB2002ABBBF03F00F03043B02F17D
:10B7580060435B18AABF03F56143187E93F80003A2
:10B76800400908BD4FF0FF30FBE700BF00ED00E0E7
:10B7780098690600516906009C6A060038B50446B7
:10B788001C4D68B92B785BB1FFF7CAFF1A4B1B78C1
:10B79800B0F1FF3F08BF7F205BB240B2834227D1A0
:10B7A800D5E84F3FDBB2FF2B05D1144B144A15489F
:10B7B8007B21FBF701FE0133DBB2C5E8423F002ADB
:10B7C800EED101F079F827F087F80121084601F059
:10B7D80011F818B10C4B0222C3F88020BFF34F8F29
:10B7E800BFF36F8F094A13780133DBB2137001245A
:10B7F800204638BD1B9700201A970020886906004C
:10B80800A46806009C6A060000E100E01997002081
:10B818000020FFF7B3BF000008B50120FFF7AEFF17
:10B8280028B9034B034A0448E521FBF7C5FD08BDC9
:10B83800F7690600D16806009C6A06002DE9F843FE
:10B84800254D2B7803F0FF0473B1DFF8B080234E49
:10B85800C14698F80070012CFFB21AD133784BB169
:10B868001F4B204A9E2102E01F4B1E4A95211F486C
:10B87800FBF7A2FD347001F021F82146204600F0C4
:10B88800B9FF10B11A4B02221A6027F031F80023D1
:10B898003370631EDBB2D5E84F2FD2B2944203D087
:10B8A800144B104AAC21E2E7C5E8423F002AF2D126
:10B8B800012C0FD101F012F818B999F800309F4205
:10B8C80008D00020FFF75AFF0028C2D10A4B054ACA
:10B8D800B921CCE7BDE8F8831B9700201897002012
:10B8E800D2690600BB680600CA6906009C6A0600A1
:10B8F80000E100E0E56906000068060019970020ED
:10B9080010B50D4C2378FF2B05D00C4B0C4AF721B2
:10B918000C48FBF751FD0C4B1B781BB90B4B084A25
:10B92800F821F5E7FFF7FCFEB0F1FF3F08BF7F20E5
:10B9380040B2207010BD00BF1A970020106A0600A0
:10B94800FE6806009C6A06001B970020FF6A060036
:10B9580070B527F060FD0C4B0C4D1B7801249C4002
:10B9680000260B4BAB60013C0440EE6001F0C6FCC6
:10B97800E4B228604FF4A07044436C603146284616
:10B98800BDE8704001F0C6BC1C970020209700203D
:10B99800D9B9020010B50B4A0B4913780133DBB251
:10B9A80013700A78042A9CBF01320A70032B4FF0E7
:10B9B800000403D8FFF7CCFF204610BD034B01203D
:10B9C8001C70FAE71E9700201C9700201D97002086
:10B9D80013B50B4C23788BB10A4B0B4A019300200B
:10B9E800009001231268032100F00BFD30B9237881
:10B9F80023B102B0BDE81040FFF7CCBF02B010BDC4
:10BA08001D97002015BA02003497002040B9054B55
:10BA18001B78022B04D9044B0121186800F005BBE0
:10BA2800704700BF1E9700203497002008B50B4BC5
:10BA38001A782AB10A4B0B4A0B48B821FBF7BCFC11
:10BA48000A4908600A490A700A4A0321117001224A
:10BA58001A70BDE80840FFF77BBF00BF1D970020A4
:10BA6800626B0600266B06007A6B0600349700208E
:10BA78001E9700201C970020012910B507D8074CF5
:10BA880038B10021064801F0ABFC002323700120E7
:10BA980002E0207880F0010010BD00BF1D97002053
:10BAA80020970020054B1B68834204D1044B1B7868
:10BAB8000BB1FFF76FBF0120704700BF349700201C
:10BAC8001D97002008B5094B1B6883420BD1084815
:10BAD80001F090FC28B1074B074A0848F921FBF709
:10BAE8006BFC074B1870012008BD00BF349700207D
:10BAF80020970020E16B06003F6B06007A6B06007A
:10BB08001D9700207047000013B50C4A531CD3E85A
:10BB18004F3FDBB28DF807309DF80730834204D0E1
:10BB2800BFF32F8F002002B010BD541CC4E8431F80
:10BB3800002BEBD1BFF35F8F0120F4E7389700208B
:10BB4800052910B516D00C4C6278D2B2022A11D150
:10BB580088B100211046FFF7D7FF10B10A2000F086
:10BB680060FA637833B1054B054A06484FF4027111
:10BB7800FBF722FC012010BD38970020026D06005B
:10BB88000E6C0600596C060038B5084B5B78022B22
:10BB9800054609D101F0B2FB054C2B7820602846F8
:10BBA800237100F042F9607138BD00BF389700205A
:10BBB8003C97002070B50B784478032B8AB0064672
:10BBC8000D4604F0070456D10378053B7A2B00F2A2
:10BBD800AC80837803F03002072C07D8DFE804F044
:10BBE8000404040406120909302A02D101200AB00B
:10BBF80070BD0120A04010F02F00F8D0102A03D00B
:10BC0800202A1BD0002AF1D103F00C03082B12D0F4
:10BC18000C2B0FD0002BE9D100F050FA08B9002CFA
:10BC28005ED1B37803F0C003802B01D0C02BDDD1E7
:10BC3800062300E00E232B700020D8E7072CD5D868
:10BC480001A353F824F000BF71BC020071BC0200CC
:10BC580071BC020071BC0200F5BB0200F5BB02001A
:10BC680041BC020041BC0200304600F000F9FF2848
:10BC7800BCD02870E0E704A900F080F90028B5D00E
:10BC8800049D75B99DF82450022D2BD0082D3FD066
:10BC9800002D43D100F012FA0028CDD1002CCBD0D2
:10BCA8001EE000F053FA02220146284606F07AF810
:10BCB8000028E7D01E4B02221E88ADF8086002A9B2
:10BCC800284606F06FF80028DCD04CB900F03EFAA0
:10BCD800022201A9ADF8046006F064F80028D1D06A
:10BCE800032084E7059C00F049FA2A4601462046CD
:10BCF80006F058F800289FD00D4B1B88ADF80C3083
:10BD08002A4603A9204606F04DF80028E8D193E713
:10BD1800059C00F027FA2A460146F3E7054B064A38
:10BD280006484FF4D971FBF747FB09205FE700BFCE
:10BD3800406D06005B650600426D0600516D060009
:10BD4800837803F030021F2A05D913F0010F0CBFC6
:10BD580004200320704704207047837803F0C00351
:10BD6800802B06D0C02B06D0002B0CBF0020FF2054
:10BD78007047022070470820704700008378024A05
:10BD880003F00C03D05C7047B76D060082784378E7
:10BD980012F030014FEAA31302F00C0001D0102971
:10BDA80003D1003018BF012070470C2802F0C002F0
:10BDB80005D1C02A0AD1D84300F001007047002AF3
:10BDC800EFD10028F7D103F001007047002AE8D12D
:10BDD800F1E78278437812F030014FEAA31302F0BA
:10BDE800C00001D0102904D150B1D84300F001009F
:10BDF800704702F00C020C2AF6D1C028F4D10020BA
:10BE08007047807800F0C000A0F1C0035842584144
:10BE18007047807800F0C000A0F180035842584174
:10BE28007047807800F0010070474078C0F34010F8
:10BE3800704710B50446FFF7A9FF20B12046BDE8BA
:10BE48001040FFF77DBF10BD10B50446FFF7F1FFA6
:10BE5800A37813F00C0308D020B92046BDE81040A1
:10BE6800FFF76EBF0230C0B210BD1846FCE738B508
:10BE78000146FFF765FF05460846FFF77FFFFF28E5
:10BE8800044607D00846FFF781FF08B10235EDB236
:10BE98002C44E4B2204638BDF8B50646FFF7D4FF77
:10BEA80007463046FFF7C5FF05463046FFF766FFF1
:10BEB80004463046FFF78DFF70B12FB1FF2C01D03B
:10BEC8003C44E4B22046F8BD0DB1AC1CF9E730465D
:10BED800BDE8F840FFF734BF3046FFF757FF0028AA
:10BEE80014BF2C460024EDE72DE9F0410546FFF785
:10BEF800ABFF80462846FFF79CFF07462846FFF71A
:10BF08003DFF04462846FFF7C7FFAB7813F0C00390
:10BF1800064619D02846FFF75CFF30B1FF2E15D032
:10BF2800B41CE4B22046BDE8F081B8F1000F03D09C
:10BF3800FF2CF7D04444F4E70FB1BC1CF1E72846C6
:10BF4800BDE8F041FFF7FCBE1C46EBE73446E9E7E5
:10BF580038B504460D46FFF7C7FF431EDBB2FD2B7D
:10BF680002D90020287038BDA37803F0C003A3F1DC
:10BF7800C002534253412B702044F4E7F8B50D46F4
:10BF88000646FFF7DDFE04463046FFF7FFFE07468C
:10BF98003046FFF71EFF01466FB3331902342B609A
:10BFA800E4B2B37813F00C0329D033196B60304630
:10BFB800FFF7E4FEFF2828751FD00444E4B209B354
:10BFC80033190234AB60E4B2B37813F0C0031FD066
:10BFD8003319EB603046FFF7C0FEFF2868750CD0B8
:10BFE8000444E4B2AC757378C3F3C0039BB1344422
:10BFF8002C61012002E02F60D3E70020F8BD6B60C0
:10C008002B75DCE717B12B68AB60DDE7AF60DBE7CA
:10C01800EB606B75E6E72B61EBE700F03DBD00F0E8
:10C0280057BD00F064BD00F06DBD00F07CBD00F0B0
:10C0380087BD00F090BD00F099BD00F0A2BD0000E2
:10C0480010B5114C637C03F0FE0343F002030B228E
:10C0580003F0FB0362F3C703FF210222601C637431
:10C0680006F047F8FE23E3700822FF230021601D35
:10C07800237106F03EF8002363731423A373E3735C
:10C088000223237410BD00BF44970020024B587C44
:10C0980000F00100704700BF44970020024B5A7C13
:10C0A80060F300025A74704744970020024B587C92
:10C0B800C0F34000704700BF44970020024B587CF3
:10C0C800C0F38000704700BF44970020014B587CA4
:10C0D800C008704744970020024B5A7C60F3C7029F
:10C0E8005A74704744970020F0B5134B587C93F965
:10C0F800001085B0C00802F01FF9104B6A460546CB
:10C1080003F10807164618685968144603C408332B
:10C11800BB422246F7D118689B882060072DA38070
:10C1280007DC0023F05C42B2954203DD01330E2B9D
:10C13800F8D1082005B0F0BD44970020C46D060072
:10C14800014B1870704700BF4497002000487047A3
:10C158004597002001460222014805F0A1BF00BF13
:10C16800459700200048704749970020014608225B
:10C17800014805F095BF00BF499700200048704767
:10C188004797002001460222014805F089BF00BFF9
:10C19800479700200422014905F082BF51970020EB
:10C1A800034B00211970BFF35F8F024801F018B9E3
:10C1B800569700205897002020B1034B0521186896
:10C1C800FFF733BF704700BF6C97002010B5104CC5
:10C1D800237843B100230F4A0421012000F0EDF831
:10C1E80010B10023237010BD0B480C4A436803F5B7
:10C1F800FA739342436005D9094B0A4A0A485E21FB
:10C20800FBF7DAF80121BDE8104001F083B800BF60
:10C2180056970020C1C102005897002040420F00E5
:10C22800A76E0600D26D0600C56E060038B50E4C26
:10C238000E4D0F4BA3600023E360286001F05EF809
:10C248002B6820601A780B4B1B6803EB421303F52D
:10C25800C07301256360084B204629461D7001F014
:10C2680059F8284638BD00BF589700206C97002021
:10C27800D5C10200042B00205697002010B5084BAA
:10C288001B7803F0FF0433B1042902D028B1FFF76B
:10C2980087FF204610BD0124FBE70446F9E700BFED
:10C2A8005697002008B5084B1B68834208D0074BF7
:10C2B8001B782BB1064B074A0748A321FBF77CF8EC
:10C2C800BDE80840FFF76CBF6C9700205697002028
:10C2D800756E0600E66D0600C56E060008B5064BCD
:10C2E8001B782BB9054B064A0648AA21FBF764F8C8
:10C2F800BDE80840FFF754BF569700205F6E060060
:10C308000E6E0600C56E060008B5084B1B68834212
:10C3180008D0074B1B782BB1064B074A0748B221B8
:10C32800FBF74AF8FFF73CFF012008BD6C97002097
:10C3380056970020756E0600396E0600C56E060019
:10C3480000F0AABB00F028BC00F040BC08B5FFF71D
:10C35800E7F905288CBF0020012008BD08B5054B6A
:10C368001B681B0205D4044B044A05483A21FBF715
:10C3780023F808BD00E100E0506F0600386F0600A2
:10C388007D6F060000F088BB13B5002304468DF8C6
:10C398000730FFF7DBFF40B12046FEF7B7FA8DF80C
:10C3A80007009DF8070002B010BDFFF7D7FF0DF199
:10C3B8000701204600F016FCF3E7F0B585B01F46EC
:10C3C800002304460D4616468DF80F30FFF7BEFFD2
:10C3D80058B13B46324629462046FEF7D5FA8DF835
:10C3E8000F009DF80F0005B0F0BDFFF7B7FF0DF186
:10C3F8000F03009332463B462946204600F0FFFBD8
:10C40800EFE72DE9F04387B01F46002304460D46A9
:10C4180016469DF83880DDF83C908DF81730FFF708
:10C4280095FF70B1CDE900893B4632462946204642
:10C43800FEF7DCFA8DF817009DF8170007B0BDE885
:10C44800F083FFF78BFF0DF11703CDE90193CDF8CA
:10C4580000803B4632462946204600F0E5FBEBE7E4
:10C4680037B5002304460D468DF80730FFF76EFFF9
:10C4780048B129462046FEF7F5FA8DF807009DF8E1
:10C48800070003B030BDFFF769FF0DF10702294629
:10C49800204600F0E5FBF2E713B5002304468DF8CB
:10C4A8000730FFF753FF40B12046FEF737FB8DF802
:10C4B80007009DF8070002B010BDFFF74FFF0DF110
:10C4C8000701204600F0DBFBF3E707B500238DF8F2
:10C4D8000730FFF73BFF40B1FEF780FB8DF8070000
:10C4E8009DF8070003B05DF804FBFFF737FF0DF177
:10C4F800070000F0D1FBF3E707B500238DF80730FC
:10C50800FFF724FF40B1FEF799FB8DF807009DF86F
:10C51800070003B05DF804FBFFF720FF0DF10700EB
:10C5280000F0C5FBF3E707B500238DF80730FFF7E8
:10C538000DFF40B1FEF792FB8DF807009DF807004C
:10C5480003B05DF804FBFFF709FF0DF1070000F0E9
:10C55800B9FBF3E713B5002304468DF80730FFF75E
:10C56800F5FE40B12046FEF7A1FB8DF807009DF8C7
:10C57800070002B010BDFFF7F1FE0DF107012046DC
:10C5880000F0ABFBF3E7000008B5084B1B7803B9D4
:10C5980059B9074B1A5C8A4206D129B1054B064A9C
:10C5A8000648B921FAF708FF195408BDB9970020C1
:10C5B8007097002028700600DB6F06006570060083
:10C5C8002DE9F04F344D354E85B00123D5E84F2F76
:10C5D80012F0FF0F09D0BFF32F8F304A13780133C1
:10C5E800DBB2137005B0BDE8F08FC5E84B3FBBF177
:10C5F800000FEBD1BFF35F8F3378294F294C97F8A1
:10C608000080DBB2019300F079FE04F14009824614
:10C618006168A3680391029300F072FE227803997F
:10C628005A4509D9204A029B121A1A44504600F06A
:10C6380069FE08B994F800B02034A145E8D11B4A36
:10C6480014785C4538BF5C46A04514D03C70E4B90A
:10C65800FFF778FE21462046FFF796FF01F0C6FC5B
:10C6680021460120FFF790FF204600F0FFFE2146FB
:10C678000220FFF789FFBFF35F8F074A002313707B
:10C688003378019A9342A0D1ACE7FFF75DFEFDF73E
:10C6980071F901F071FCE7E7B7970020B89700201F
:10C6A800B99700207497002020FEFFFF73970020A1
:10C6B800F8B51E4D1E4E2F460123D5E84F2F12F018
:10C6C800FF0F07D0BFF32F8F194A13780133DBB25E
:10C6D8001370F8BDC5E8423F002AEED1BFF35F8F63
:10C6E800144B34781A78032A98BF18785A788CBF74
:10C6F8000420C0B2904288BF58789A7888BFC0B2E8
:10C70800824238BF98780C4B1A7838BFC0B2824240
:10C71800E4B202D0187000F0ADF8BFF35F8F0023C9
:10C728003B703378A342C7D1D3E700BFB597002049
:10C73800B697002070970020B497002008B501F044
:10C74800A1FB00F091FE0A4A00231370094A1370F6
:10C75800094A1370094A1370094A1370094A137079
:10C7680082F82030084A13705370937008BD00BFD8
:10C77800B5970020B7970020B49700207397002042
:10C78800B9970020749700207097002010B5084CC6
:10C79800002104F10C0000F023FE04F12C0000211C
:10C7A80000F01EFE00F061FEBDE8104001F0BEBBC7
:10C7B8007497002008B5054B1870BFF35F8FFFF71B
:10C7C800FFFEBDE80840FFF773BF00BF7397002066
:10C7D80001F044BC01F04EBC054B1A7832B95A78C6
:10C7E80022B99878003018BF01207047012070479F
:10C7F80070970020022808B506D9074B074A084851
:10C8080040F20E21FAF7D8FD064B185C884234BF77
:10C818000020012008BD00BF13700600F26F06005B
:10C82800657006007097002001F01ABC08B5042155
:10C838000120FFF7A9FEBDE80840FFF739BF08B59A
:10C8480000210120FFF7A0FEBDE80840FFF730BF38
:10C8580008B504210020FFF797FEBDE80840FFF760
:10C8680027BF0000014BFF221A707047BA970020BB
:10C87800FFF7A0BF13B50446FEF7CAFF0D4B50B132
:10C888001A78FF2A07D12046FDF7AEFE02B0BDE8B0
:10C898001040FEF7D3BFD3E84F2FD2B28DF8072050
:10C8A8009DF80720C3E8424F002AF4D10028EDD1B3
:10C8B80002B010BDBA97002070470000064AFF2357
:10C8C800D2E84F0FC2E8413F0029F9D1C0B2FF2892
:10C8D80001D0FDF789BE7047BA970020024B18783F
:10C8E800FF3818BF01207047BA97002008B526F016
:10C8F80025FE10F11D0F0FDB10F1090F0EDB0A28C2
:10C908000EDD1E280EDD32280EDD4728B4BF6FF07D
:10C9180001006FF0020008BD0320FCE70220FAE7DF
:10C928000120F8E70020F6E74FF0FF30F3E710B5F5
:10C938000446FFF7DBFF2044C0B210BD10B5044623
:10C94800FFF7D4FF201AC0B210BD10B50446FFF798
:10C95800CDFF201AC0B210BD10B50446FFF7C6FFC0
:10C96800201AC0B210BD00000548002301211A1882
:10C978008133B3F5016F82F88010F8D1704700BF9A
:10C988002D3B01200649002303EBC310084490F80F
:10C9980080201AB90133102BF6D11046704700BF1A
:10C9A8002D3B012008B572B6BFF34F8FBFF36F8FD1
:10C9B8000A4B1A780A4B1B78511E8B4202D042B997
:10C9C800122B06D1074B084A08484FF4B271FAF700
:10C9D800F3FC074800EB031008BD00BFEC980020EB
:10C9E800ED98002034710600C170060049710600F8
:10C9F800BC970020084A13780133DBB2012B88BFAB
:10CA080000231370054B01221A6062B6BFF34F8FE3
:10CA1800BFF36F8F704700BF219900200870014055
:10CA2800064A13780133DBB2122B88BF0023137038
:10CA3800034B01221A6062B6704700BFED980020D0
:10CA48000070014008B572B6BFF34F8FBFF36F8F08
:10CA58000B4B0C4A1B7810785A1E904202D043B9EF
:10CA6800012806D1084B094A094840F2A711FAF7EC
:10CA7800A3FC084B00EB400003EBC00008BD00BF5F
:10CA880020990020219900209F710600CB70060094
:10CA980049710600F0980020094A00231370094ADA
:10CAA8001370094B0722C3F80423084BA02283F80C
:10CAB80017234FF40002C3F880211A60704700BFA3
:10CAC800EC980020ED9800200070014000E100E0A3
