:020000022000DC
:1070000000000420757302005D7302005F730200CC
:1070100061730200637302006573020000000000E8
:107020000000000000000000000000006773020084
:1070300069730200000000006B7302006D730200B0
:1070400035A502006F7302000DAA02006F730200E3
:107050006F7302006F73020059A802006F73020081
:107060006F7302006F7302006F7302006F73020090
:107070006F7302002DAB02006F7302006F7302008A
:107080006F730200CD8202006F7302006F73020003
:107090006F7302006F730200652803006F730200B4
:1070A0006F7302006F7302006F7302006F73020050
:1070B0006F7302006F730200000000000000000008
:1070C0006F7302006F7302006F7302006F73020030
:1070D0006F7302006F7302006F7302006F73020020
:1070E0006F7302006F730200BD55030000000000C3
:1070F000000000006F730200000000006F730200C8
:10710000000000000000000000000000000000007F
:10711000000000000000000000000000000000006F
:10712000000000000000000000000000000000005F
:10713000000000000000000000000000000000004F
:10714000000000000000000000000000000000003F
:10715000000000000000000000000000000000002F
:10716000000000000000000000000000000000001F
:10717000000000000000000000000000000000000F
:1071800000000000000000000000000000000000FF
:1071900000000000000000000000000000000000EF
:1071A00000000000000000000000000000000000DF
:1071B00000000000000000000000000000000000CF
:1071C00000000000000000000000000000000000BF
:1071D00000000000000000000000000000000000AF
:1071E000000000000000000000000000000000009F
:1071F000000000000000000000000000000000008F
:10720000354936480A1A02D0072291438D4634493F
:1072100034480A1A06D00722914381F309880222D2
:1072200082F3148830483149314A00F044F831483B
:107230003149324A00F03FF831483249324A00F0D1
:107240003AF832483249334A00F035F83248334987
:10725000334A00F030F833483349344A00F02BF811
:1072600033483449344A00F026F83448344900227F
:1072700000F02CF833483449002200F027F8334856
:107280003349091A082902DB002202604160314AB1
:1072900090471F481F49884205D00268043003B454
:1072A000904703BCF7E700208646EC46002000210B
:1072B000294A9047FEE7884207D0521A05D0037842
:1072C00001300B700131013AF9D17047884202D088
:1072D00002700130FAE770470000042000E003204C
:1072E000000004200000042094E90300F42B002097
:1072F0005C2C0020D0730200D0730200C8930300FE
:1073000094E90300F42B0020F42B0020A495030043
:10731000A4950300A4950300A4950300A49503007D
:10732000A4950300A4950300A495030094E9030029
:10733000FCE903005C2C00205C2C00205C2C00206D
:10734000286C0020286C0020286C0020286C00206D
:10735000288C00209D7302008DC80200FEE7FEE726
:10736000FEE7FEE7FEE7FEE7FEE7FEE7FEE7FEE7F5
:1073700000F002B8FFF7FCBF0F484FF00701884349
:1073800085460E4880470E48016841F4700101604F
:10739000BFF34F8FBFF36F8FFFF732BF09480A4922
:1073A0000A4A884207D0521A05D0037801300B7080
:1073B0000131013AF9D170470000042061CC02008C
:1073C00088ED00E090950300E02B0020F42B0020D6
:1073D0001F288ABF094B4FF0A04300F01F0003EBAA
:1073E0008000D0F8003723F44033C0F80037D0F8DD
:1073F000003743EA0141C0F800177047000300500E
:10740000022004F0C9B800002DE9F04780460D467F
:1074100004F0F0F80328044610D8012D10D0022DF6
:1074200030D05DB91A4800F008FD1A4B04EB440255
:1074300013449D78184B1B5DAB4219D0BDE8F08713
:10744000144E00EB4003F218F55C5378470053B13B
:10745000DFF84C900E484A464FF4804100F0D5FCCE
:1074600008B989F8008027443E440B4BB2781A557E
:10747000002DE3D0094B1B68002BDFD02846BDE868
:10748000F047184700EB4004024804446578EFE7F2
:10749000802C0020C02C0020D92C0020D42C0020CF
:1074A0005C2C002000780221FFF7AEBF08B5094B25
:1074B0001B7853B1002004F03DF8012004F03AF8A5
:1074C000BDE80840032004F035B8BDE8084004F0EA
:1074D00045B800BF5D2C0020F8B57A4C23780546EE
:1074E0001BB100232370FFF7E1FF172D00F2878007
:1074F000DFE805F00C1717425364757F878C878C83
:10750000949999999999C3C8D0D8E3E3FFF7CEFF2E
:107510006D4800F092FC6D4B002204461A70204624
:10752000F8BD002003F0DEFFF0B1002004F002F807
:10753000022D0CBF4FF4E1644FF47A64634B1D706D
:1075400000254FF400464FF47A7029464FF4FA6252
:107550000023E4FB06010BF0EBFA2A460146BDE8E6
:10756000F840594800F051BC03F0D0FF022D0CBF89
:10757000C8244FF4C874E1E7002003F0B3FF40B122
:10758000002003F0D7FF4FF44874504B03221A70C9
:10759000D6E703F0BBFFC824F7E7002003F0A2FF03
:1075A00038B1002003F0C6FF4FF47A64474B042241
:1075B000EDE703F0ABFF4FF4C874F7E7002003F0EA
:1075C00091FF48B1002003F0B5FF404B05221A702F
:1075D00040F6CD410022C2E703F098FFF5E7002016
:1075E00003F0DAFF394B06221A70002240F266617E
:1075F000B5E7002003F08AFF344B07221A700024FD
:107600008DE70120207003F0C7FFEEE70120207016
:1076100003F0C2FF00224FF40051A0E703F0ADFFDA
:107620002A4B0C22EAE72A482A4E00F006FCD5F144
:10763000110504461CD0D8B9012D13D0C8204543EC
:1076400021464FF400474FF47A704FF4FA6200235A
:10765000C5FB07010BF06CFA224601461C4800F0FE
:10766000D4FB0446022003F051FF0123337056E798
:10767000022003F05FFF0023F8E7FFF717FF134B2B
:107680001222BBE7FFF712FF002003F03FFF0F4B72
:107690001322B3E7FFF70AFF012003F037FF0B4B7C
:1076A0001422ABE7FFF702FF002003F02FFF0120B9
:1076B00003F02CFF054B1522A0E703F05EFF034B00
:1076C0001D709CE7D02C0020A02C0020D82C00207E
:1076D000602C00205D2C0020044B1B68DB0703D5C9
:1076E000034B1878FFF7F8BE704700BFCC2C002082
:1076F000D82C0020032801D803F068BF0020704771
:10770000044B1B6813F0010301D0FFF7E5BE1846D8
:10771000704700BFCC2C002038B51C4B18601C4BA8
:1077200010F00204054619601AD01A4B1A480E22AE
:107730001A700F22DA7010229A7111225A720421E3
:1077400040F2333200F0F8F9044648B900F04CFA40
:10775000044628B90146114A114800F04BFB044683
:10776000EB0711D5012003F05DFF6CB921460D4AEE
:107770000D4800F03FFB044630B9BDE838400B4AE5
:107780000B48012100F036BB204638BDCC2C002030
:10779000D42C0020C02C0020A4950300A574020066
:1077A000C8950300D9760200CC950300017402004D
:1077B000C4950300032811D8012A0AD101290FD149
:1077C00000F10E02D2B20D4B00EB40001A54002023
:1077D00070470129F7D0022904D049B1072070472A
:1077E0000022F8E7054B00EB400018444270EEE73A
:1077F000024B00EB400018448270E8E7C02C0020E8
:10780000032808B506D803F007FF0321FFF7E0FDC2
:10781000002008BD0620FCE708B501220221002057
:10782000FFF7C8FF08B1072810D107220221012065
:10783000FFF7C0FF08B1072808D100210A22084637
:10784000FFF7B8FF10B1072808BF002008BD0000EF
:107850000388102B10B502D0112B1ED010BD1A4C6E
:107860002168B1B901220846FFF7A4FF08B1072833
:1078700024D1072202210120FFF79CFF08B107282D
:107880001CD1042202210020FFF794FF08B1072831
:1078900014D1236801332360E0E70B4A1368013BEE
:1078A0001360002BDAD1FFF7B7FF0028D6D0074BC3
:1078B0001B68002BD2D0BDE810401847034B1B6853
:1078C000002BE6D09847E4E7E42C0020E02C0020D1
:1078D00008B50020FFF794FF08B1062806D1012063
:1078E000FFF78EFF10B1062808BF002008BD00007A
:1078F0000D4B10B518600C4629B10120FFF7FAFEB8
:1079000040B102232370094B1B6853B9BDE81040F6
:10791000FFF782BFFFF7EEFE08B10B23F2E72070FE
:10792000F1E7002010BD00BFE02C0020E42C002077
:10793000C30710B507D4F023054A4008145C234060
:107940001943115410BD0901C9B20F23F4E700BF58
:10795000182D002030B5094B1C78094B19680023FD
:107960009C4202DC0022104630BD11F833508542A3
:1079700001EBC302F7D00133F2E700BFE82C00208F
:10798000382D002013B504460191FFF7E3FF38B10D
:1079900043682BB10199204602B0BDE8104018475A
:1079A00002B010BD034B044819680022490800F0DA
:1079B0002CBA00BFEC2C0020F02C002010B5C0B277
:1079C000FFF7C8FF0446007802F038FF63785A1EBC
:1079D00053425341834208D1044BD3E9002313435C
:1079E00003D1BDE81040FFF7DDBF10BD102D002012
:1079F00037B54308374AD35CC2074CBF1B0903F0B5
:107A00000F0304460D46042B25D8DFE803F00326B8
:107A10002F3C4000F9B10121FFF78AFF00230DF14F
:107A200007008DF8073000F0E1FA0120A4F12003EF
:107A3000C4F12001284A20FA01F100FA03F30B43B4
:107A4000A040D2E9004120430B43C2E900039DF866
:107A5000070000F0EFFA03B030BD002918BF022183
:107A6000204603B0BDE83040FFF762BF49B10321B3
:107A7000FFF75EFF0121204603B0BDE83040FFF76D
:107A800081BF0121ECE70029E5D10421E8E709B134
:107A90000321E5E7FFF74CFF29462046FFF772FF79
:107AA0000DF107008DF8075000F0A0FA0120A4F1B5
:107AB0002003C4F12001084A20FA01F100FA03F37F
:107AC0000B43A040D2E9004124EA000021EA03036D
:107AD000BBE700BF182D0020102D00202DE9F0413C
:107AE000124E134F00243378A34208DC114BD3E924
:107AF0000023134318D0BDE8F041FFF753BF3D68A2
:107B000005EBC40815F8340002F098FE98F801302F
:107B10005A1E53425341181A4142414115F834004C
:107B2000FFF766FF0134DEE7BDE8F081E82C0020B6
:107B3000382D0020102D0020092AF7B505460C46E7
:107B400016463ED902F0A2FDE8B11F4B1F481D604A
:107B50001F4B204F1C70204B002120221E600BF079
:107B600022F91E4B00200021C3E90001013CE4B2D0
:107B70000326FF2C0DD11A4A1A48002103B0BDE894
:107B8000F04000F037B902F04FFD0028DDD003B01F
:107B9000F0BD9DF8063015F834008DF8046005EB53
:107BA000C40223F007038DF8063001A993788DF8FD
:107BB00005303A4602F074FD013CE4B20028D8D00A
:107BC000E5E70720E3E700BF382D0020182D00204F
:107BD000E82C0020BD790200EC2C0020102D0020A4
:107BE000DD7A0200DC95030070B5084D084E0024D4
:107BF0002B789C4201D3002070BD3368012113F81B
:107C0000340002F0CDFD0134F2E700BFE82C002083
:107C1000382D00201FB50021039001AA44F2010075
:107C2000CDE9011100F004F805B05DF804FB000097
:107C300038B572B604F0DCF803F014FF0028FBD16D
:107C4000104B114C114D1249E41AE408240444F07D
:107C5000010004F069F8D5F8F030DB0700D500BE6C
:107C60000C4944F0020004F05FF8BFF34F8FEA685C
:107C7000094B02F4E0621343EB60BFF34F8F00BF88
:107C8000FDE700BF88940300B894030000ED00E016
:107C9000E0950300EC9503000400FA0510B5D0E967
:107CA0000243D1E90202A04272EB03032CBF012080
:107CB000002010BD08B50A4800F0F3FA094AD2E9DD
:107CC0000031C018084BD3E9002341F10001904274
:107CD00071EB030303D210F1807041F1000108BD84
:107CE000F42B0020402D0020B82D002037B505468C
:107CF0000C460A4801A901F08EFA60B10570446093
:107D000001A9064801F0B1FA18B1054800F0CEFA11
:107D1000002003B030BD0420FBE700BFA42D0020ED
:107D2000F42B002038B5184B1B78044613B90025F6
:107D3000284638BD0028FAD0037F03F0FF05002B4A
:107D4000F5D0FFF7B7FFD4E90223904271EB0303AC
:107D500014D3236903B92377D4E9053098472169FF
:107D60000029E4D0237F03F0FF05002BDFD0D4E906
:107D700002325B1842F10002C4E902320348214694
:107D800002F0E2F9D4E700BF482D00200896030076
:107D900013B5114B11491868019008231048582257
:107DA00001F004FA044698B90E4A0F4801A900F000
:107DB00065F9044660B90C48012100F055FA012329
:107DC0000A4A0948194600F0B7F9094B01221A700E
:107DD000204602B010BD00BF049603004C2D0020C9
:107DE000A42D00205D7E0200F42B0020FFFF7F0009
:107DF000482D00203AB103685A614A1E5142514150
:107E00001961002070470720704738B5037F04468A
:107E10000D4683B98261FFF74DFF2369281841F1B0
:107E20000001C4E9020103B1256121460020BDE83B
:107E30003840FFF75BBF002038BD002301460377C1
:107E40000120FFF753BF401A20F07F407047000029
:107E5000014800F026BA00BFF42B00202DE9F347BB
:107E6000064600F009FA40B1584AD2E9003113F150
:107E7000807341F10001C2E900310021304600F079
:107E80000AFA38B1524C236823B12068FFF74AFF41
:107E9000002323600121304600F0FDF920B1FFF7F7
:107EA00009FF4C4BC3E900014B48494D4B4C4C4F2B
:107EB00001A901F0EAF9002842D1DFF82081444C01
:107EC000DFF82491404602F055F92368002872D06B
:107ED0007BB12368D0E90252D3E902138D4272EBE1
:107EE00003032AD223681B7F1BB12168404602F09E
:107EF0002BF9404602F038F9D0E9027A0546FFF73F
:107F0000D9FE381A6AEB010A01287AF1000345DB31
:107F1000B0F5350F40D3FFF79BFF324A02444FF4D0
:107F200096030021484600F027F900283ED1236837
:107F300013B9304600F0F8F8256002B0BDE8F087CC
:107F40000378012B1DD0022B09D14FF000082046E9
:107F500002F00AF9002836D080F81C80F7E73BB918
:107F600041680B7F23B901230B77204602F0ECF820
:107F700001A9194801F0B4F901A9174801F085F9E0
:107F800099E741682B68994202D100232B60EFE703
:107F9000204602F0F2F8EBE7AA68C0E70021484665
:107FA00000F06FF92846FFF7BDFE01E00D28F9D07B
:107FB0000023236086E7002BBFD1304602B0BDE826
:107FC000F04700F0B5B801233B70D1E7402D002009
:107FD000C02D0020B82D0020A42D002008960300FD
:107FE000482D0020FFFFB400F42B002070B5EFF304
:107FF000108672B60C4A946801239CB993600B4BAF
:108000000B4DD3F8801029401160C3F88050D3F88D
:10801000841051604FF0FF32C3F88420047006B919
:1080200062B670BD0370FAE7C42D002000E100E0E5
:10803000FC06FFBD084B9A6810B55AB150B9EFF372
:10804000108172B6054A1C6814605C6854609860C0
:1080500001B962B610BD00BFC42D002000E100E0F0
:10806000435882B03BB10023435043580193019BD6
:10807000012002B070471846FBE70000F8B5224B1C
:108080004579224E43F82520214A224B9B1A06EBC4
:10809000C502DB0812791B04EF0032B143F0020085
:1080A0001D4903F041FE0820F8BD02680C88C2F8A3
:1080B000084590F9044002798978002CADBF04F19D
:1080C000604CDFF85CC002F00F0E0CF5614C4FEA1B
:1080D0004111C9B2B4BF0CF80E108CF8001364093A
:1080E0000121DFF840C002F01F0201FA02F24CF851
:1080F0002420F21946F83500117143F003000749B6
:1081000003F012FE0020CFE7D82D0020D02D002054
:1081100088940300C8940300149603003696030065
:1081200014ED00E000E100E0036801221A607047EE
:10813000036801225A60704773B501F15005AD0024
:108140000068ADB24FF480348C400026C0F808437C
:10815000C0F84843465101F5A8714559019522F0F0
:108160007F42019D40F82120C0F844430BB1C0F884
:10817000044302B070BD00002DE9F74F0D4622F018
:108180007F4402684FF4803705F150068F408046E7
:10819000B60002EB8500C2F84873B6B2C2F80873A5
:1081A000D2F8041599464FF0000BD0F84035C0F8CE
:1081B000401542F806B05B1A9259009223F07F43B3
:1081C000012B009A4FEA850A0CD1264B4FF48060B0
:1081D00043F001039847D8F8003043F806B09B59A4
:1081E0000193019BD8F80010D1F80465C1F84473DD
:1081F000A31B23F07F43012B1CD11A4B05F5A87557
:10820000013443F0010341F825404FF48060984762
:10821000D8F80030D3F804359E4209D1D8F80030A0
:108220000020C3F84473C3F8047303B0BDE8F08FB3
:108230000D20FAE78A44C9F1FF13CAF84045D1F886
:108240000405221A013A22F07F4203F57F4393424C
:10825000EED3002AE2D10134CAF84045D1F8043502
:108260009842DAE75096030003680222C3F84423D9
:1082700009B1C3F80423704700684FF48271FFF717
:10828000EFBE4FF4803303FA01F10368C3F84813DB
:10829000C3F80813704750318900006889B2FFF7AE
:1082A000DFBE0368D3F804057047000090F904307E
:1082B00001215A0903F01F0301FA03F34032024976
:1082C00041F82230704700BF00E100E0024B034A52
:1082D0001B681068184700BFD82D0020D02D002043
:1082E00070B5064D0646002455F8043B0BB13046E8
:1082F00098470134042CF7D170BD00BFE82D002051
:108300004388033300EB830399420BD382884FF6F3
:10831000FF739A4208D0038833B18068431C5842E7
:10832000584170470220704701207047033080B2E7
:1083300040F2FE33984230B51FD8134B1A783AB941
:108340001C895D892C440444A4B2B4F5806F0AD919
:108350001A7DAAB99A8BDC8B2244024492B2B2F500
:10836000806F0DD801220A801446142202FB0433C8
:108370005A8910445881002030BD48F20860FBE75C
:1083800048F20660F8E700BF1C2E00200B4A0C499B
:108390005388142000FB0311CB6833B904204968CB
:1083A00010700122074801F05FBB074905231370D5
:1083B00002238B80012209680023F3E7002E0020AE
:1083C0001C2E0020E02B0020E42E002007B5002307
:1083D00005490093054A09680548082301F0AAFAEF
:1083E00003B05DF804FB00BFE42E00206496030098
:1083F000E02B002007B5002301460093034A044800
:10840000082301F097FA03B05DF804FB5C960300C3
:10841000E02B002013B500230C4600930146084AC8
:108420000848042301F086FA38B9074B142101FBF0
:10843000043101230B7402B010BD48F20D60FAE75D
:1084400058960300E02B00201C2E002037B50A4868
:108450000A4B42689C8819685388032503330570CA
:108460009BB2002000909B0001EB8401044801F0C6
:1084700061FA03B030BD00BF002E0020E42E0020C2
:10848000E02B002010B50146044800F0C4FE1C2279
:10849000044600210AF087FC204610BDD02E0020A3
:1084A00068B10268084B9A4209D14068074B98426C
:1084B00007D00133984214BF0320012070470320E6
:1084C00070470020704700BFDEC0ADDEFE011EF128
:1084D0002DE9F0410D460223154F2B80164600F57D
:1084E000805100F108044FF001088C420ED223683D
:1084F00001330BD02046FFF703FF48B10EB186F8D9
:108500000080022809D14FF480632B80BDE8F08100
:10851000A3683A68934200D93B602B886288033392
:1085200013442B806388033304EB8304DDE700BF2F
:10853000142E002038B5144B14220D4602FB0030D7
:108540002B68446804F58051A3B15C88033403EBC5
:1085500084048C4215D22368013312D02046FFF7E1
:10856000CFFE012808D002280BD00028F1D12C60C2
:10857000012038BD0834ECE76388033304EB83043F
:10858000E7E70020F5E700BF1C2E0020426873B526
:1085900004460D466AB3234BD9688A4229D31B6926
:1085A0009A4226D812F0030323D11F490089098972
:1085B00088421ED12068916888421AD11B484168C0
:1085C0008A4203D901F580518A420DD381698A42DA
:1085D0000CD901F580518A4208D201222A80B3FACF
:1085E00083F0400902B070BD1A46F7E748F209630C
:1085F000F5E700262E800196288801A9FFF79AFF4B
:1086000030B92B8801339BB2012B2B80F3D9E9E7DA
:10861000019B226899689142EED16360024B1B89ED
:108620002381DFE7E02B0020002E00201C2E0020FD
:108630002DE9F8431C461D4B1B7806460F46154690
:1086400073B382B37CB3DFF86C804FF01409A38856
:10865000012B02D948F2096020E009FB03F318F866
:1086600003302BB9A0882146FFF764FF20B92060B2
:10867000A3880133A380EAE723681EB19988328872
:108680009142EFD11FB119883A889142EAD19A6894
:10869000C5E90023064B1B892B810020BDE8F88328
:1086A00048F20160FAE748F20460F7E7F82D00208D
:1086B000002E00201C2E002008B5074B5888191DDD
:1086C000FFF738FF18B1BDE80840FFF7BFBEBDE8AF
:1086D0000840FFF75BBE00BF002E00202DE9F047E9
:1086E000A24FDFF8AC8288B006463B6823B9A048A9
:1086F000414600F0CAFD38603D6829784B1E052BC5
:1087000007D8DFE813F020007A007A000C010C0192
:10871000630148F20E641422002103A80AF043FB0F
:1087200041F61D539C4208BF00243B6804941A780C
:10873000023A042A00F20082DFE812F0E101ED01C2
:108740000F0217021E022EB18A4B00225A604FF40C
:108750000644E0E72B79032B1CD8DFE803F0140272
:108760002A35854A1378022B1AD0137D022B4FF03D
:10877000010317D114214B43D1180020D05448686D
:10878000FFF738FE03E001232B71FFF71FFE0028DF
:1087900000F0BF80774B00225A6048F20D64BAE7C0
:1087A0000023E7E7734A13700023536041F61D541A
:1087B000B1E772497248002302222B718A8009684E
:1087C000012201F051F9E2E76C4C00262E7120687D
:1087D000FFF710FE6B4BDFF8A0C15B882568142201
:1087E00053430CEB03020CF8036051685560A588F5
:1087F000158102222160A280C9E7B5F814A0AA7DE4
:10880000DFF87491AEB1022AEB8806D9142101FB7E
:108810000A91DA1C088902440A81142202FB0A998F
:10882000C3F57F43B9F80A20FD331344A9F80A3091
:108830008DE7142303FB0A9318895C6804EB80041A
:10884000062A69D8DFE802F0274E36441D5A040094
:1088500041F61D54AA7DEB88022A06D9142101FB9A
:108860000A91DA1C088902440A81142202FB0A993F
:10887000C3F57F43B9F80A20FD331344A9F80A3041
:1088800049E74148414900234360AB690360FFF772
:108890007DFE00285BD00223AB75002300930423E8
:1088A000EA182146364801F045F8002831D048F250
:1088B0000D64CFE72B69002B14BF03230123AB7595
:1088C0000023009305F10C02042304F10801E9E7F9
:1088D0000123AB750022EB8800922A699B0004F10A
:1088E0000C01DFE703290CBF05230623AB7500232A
:1088F0000093042305F10802E118D3E70623AB75C2
:10890000224B1988204B5868FFF784FD0446002845
:10891000A0D108B0BDE8F08748F20E649AE7002EB7
:108920007FF415AF2B79012B34D0022B3FF43EAFEF
:10893000002B7FF4EEAE02232B710DF10A01EB68E0
:10894000039303A8CDE90466FFF720FE10B948F2AF
:108950000964E0E60498BDF80A108388EB80038878
:108960002B81FFF757FD044629E000BF182E002099
:10897000D02E0020F82D00201C2E0020E42E0020F8
:10898000E02B0020002E0020DC2D0020F02E002007
:10899000102E0020DFF8FC9103AA4B463146A81D9B
:1089A000FFF746FE044670B9B9F804100498FFF7C3
:1089B00031FD044648F209639C423FF4F7AE002CB7
:1089C0007FF4A9AEA5E7C9E90066F3E7002E7FF4BE
:1089D000BEAE6B4B1A7BBAB11E731A78013A062AE7
:1089E0003FF697AE01A151F822F000BF938A020032
:1089F000B98A0200D78A0200DD8A020013870200CA
:108A0000E38A0200F58A02001A78072AE5D801A154
:108A100051F822F0358A0200DB890200DB8902006E
:108A20005B8A02006F8A02008F8A02008F8A02002E
:108A3000578A02001A89534901321A8100225A804A
:108A40001A730A78B2FA82F252099A720A7DB2FA5D
:108A500082F25209DA72012207E04B4958688A888B
:108A60004088033202448A8002221A70B5E75C888B
:108A7000444A4549142505FB04220868546850609F
:108A80008888108102228A800C600622EDE7072286
:108A9000EBE79A7A32B9DA7A8AB900221A705A80E8
:108AA0005A6083E6374900229A72CA68002AF2D1D6
:108AB000097C0029EFD05A80FFF7FEFD53E7002222
:108AC000DA72304A116A0029E7D192F82420002A8C
:108AD000E3D00122EFE7FFF7B9FC44E7FFF756FCCC
:108AE00041E75A88274B142101FB02335868FFF7EE
:108AF00081FC38E700225A60FFF768FC33E7012267
:108B00008DF80C201A89ADF818209A88DB68ADF82A
:108B10001A20059310E002228DF80C201A89ADF876
:108B200018209A88ADF81A20DA689B7D05929A1F62
:108B3000534253418DF81C3003A8FFF7D1FB0026A8
:108B4000414612483E6000F0CBFB1148012100F085
:108B500081FC00287FF4C9ADDBE603228DF80C20F0
:108B6000DA88ADF818201A89D0E704228DF80C2095
:108B7000DB88ADF81830DFE705238DF80C30DBE734
:108B8000002E00201C2E0020E42E0020D02E0020DD
:108B9000E02E0020F42E00204068FFF79FBD00006B
:108BA00008B50548012100F03DFC18B9BDE80840B2
:108BB000FFF794BD08BD00BFE02E00202DE9F34172
:108BC0009846374B1B7806460D46002B5CD0002993
:108BD0005DD009884FF6FF7399425BD06B88002BFC
:108BE00058D06B689B0758D14AB92F890DF1020103
:108BF0003846FFF79BFB30B102B0BDE8F081138827
:108C00005788ADF8023001A8FFF73CFC044660B974
:108C1000BDF80220234B142101FB0233588903388D
:108C2000C01B588148F20760E6E780F80080002307
:108C30008375BDF8023083826B68036101211A4895
:108C400000F0FCFB2B882381B8F1030F6B88A38015
:108C500004BF0423A3754FF0000508BF3368E0602C
:108C600008BFA3611148E780658101A900F0FDFA02
:108C700036B1E36833600E4B75601B89B572338182
:108C8000FFF78EFF0020B7E748F20160B4E748F233
:108C90000460B1E748F20360AEE748F20260ABE778
:108CA000F82D00201C2E0020142E0020D02E002095
:108CB000002E002008B5034607480268042A08D0A1
:108CC0000168064A42F82130012100F0B7FB00207C
:108CD00008BD48F20B60FBE7EC2E0020E82D0020D9
:108CE0002DE9F04F89B01422002103A80AF05BF8A7
:108CF0007A4B1B7803F0FF0B3BB103A8FFF7F0FAA8
:108D00000027384609B0BDE8F08F744B181D00F0FD
:108D1000ADFB0028F4D1DBF8F83FDFF8E0A15C1CE4
:108D200008BF4FF010234FF0805208BF5B691169F4
:108D30005269581C08BF02FB01F3CAF81030684999
:108D4000A3F5405300225046CAF80C3000F0C0FD95
:108D500007460028D5D11C2362496348DFF8A0915B
:108D60008C2200F023FA0323B8463D4601933C468B
:108D7000DAF80C6046443046FFF792FB012862D0D7
:108D8000032817D000283DD158494FF0140C0CFB94
:108D900004FC01EB0C0201F80C0056600CF110020F
:108DA0000CF1080C0A4430466144FFF791FB45F092
:108DB000020545E03268531C02D04D4B9A4234D133
:108DC000321D06F58051106801302ED104329142D7
:108DD000F9D1D9F800203AB90222C9F80060A9F8FF
:108DE00004204FF0010B0BE0142262433F4B0220A2
:108DF000991898543F4A4E60548001340881A4B2B7
:108E000045F0010508F58058B8F5405FB0D1019BE9
:108E1000012B98BF0025EDB2022D03D0062D32D0D4
:108E2000002D39D148F20A676BE7019B2F495A1E82
:108E300093B2142262438818019346600320885439
:108E40000134A4B2DEE7BBF1000F0DD0274B142292
:108E50006243991802209854D9F800204A60254AA4
:108E6000088154800134A4B200222349C9F800606B
:108E70003046FFF72DFBB9F80420022A0CBF04226C
:108E800008221543BEE7154A0123137003A80023E7
:108E90005360FFF725FA34E702A8FFF7F3FAC8B1E9
:108EA0000123013D03700A2D09D8DFE805F006080B
:108EB0000608070807080F110F000023037102A915
:108EC000094800F0D2F9FFF76BFE1AE70323F5E734
:108ED0000223F3E748F2076713E700BFF82D0020ED
:108EE00060980300442E0020D02E00201C2E00206D
:108EF000DEC0ADDE002E0020E82E0020E02B00209A
:108F0000E42E002073B50D460446C8B1C1B10DF181
:108F10000601FFF73BFBB0B1BDF806300B486668B1
:108F2000142202FB030001210C3000F087FA636871
:108F30002E600C336B600123A372002002B070BD61
:108F400048F20460FAE748F20960F7E71C2E0020B7
:108F500013B50446A8B10DF10601FFF717FB98B150
:108F6000BDF806200B4B142101FB0233DA6872B105
:108F7000A27A62B1DA680020013ADA60A07202B027
:108F800010BD48F20460FAE748F20960F7E748F2DA
:108F90000560F4E71C2E002002230022FFF70EBE1E
:108FA00018B103230022FFF709BE48F2046070479E
:108FB000114B1B7813B50446ABB14FF6FF739842C3
:108FC00014D001A8FFF75EFA98B1052303700123BE
:108FD0000371C48001A9094800F047F9FFF7E0FDDB
:108FE000002002B010BD48F20160FAE748F20360C9
:108FF000F7E748F20760F4E7F82D0020D02E0020B4
:109000000F4B1B7807B5A3B101A8FFF73BFA98B146
:109010000623037001A90B4800F027F90A4B1A78C0
:109020000AB101221A73FFF7BBFD002003B05DF8FF
:1090300004FB48F20160F9E748F20760F6E700BF79
:10904000F82D0020D02E0020002E002007B5ADF80E
:109050000600ADF804100DF1060001A9FFF7E8FACB
:1090600003B05DF804FB07B51346ADF806000A46E9
:1090700000200DF10601FFF7DBFA03B05DF804FBF9
:1090800007B51346ADF806000A460DF106000021AB
:10909000FFF7CEFA03B05DF804FB20B119B1036805
:1090A0000B600020704748F2046070472DE9F84FCC
:1090B0003C4B1B780446002B6DD000286ED0DFF8A7
:1090C000E8901222002109F06EFE032323804FF066
:1090D000000A4F4614264FF00108D9F80410B9F8D9
:1090E0000AB0B9F808500846FFF7DAF9032808BFB4
:1090F0002388628804BF03F1FF33238006FB0A73D1
:109100005D44DB681344638023899B446389A4F82E
:1091100008B0ADB22B446381C5F58065A389ADB2BB
:10912000AB4238BFA58101F1080501F58051A94284
:1091300029D92B68013326D02846FFF7E1F801280A
:109140000AD0022815D00028F1D1A3880133A380CA
:109150000AE04FF0010AC0E7E3880133E380E389C6
:109160006A8803331344E3816B88033305EB83057B
:10917000DDE7E38884F810804D1BE189013301EBC2
:10918000A501E380E18109F11409BAF1000FE0D0F3
:109190000020BDE8F88F48F20160FAE748F2046069
:1091A000F7E700BFF82D00201C2E002010B561B19C
:1091B000B2FBF3F403FB1424A4B244B9C0E90014D5
:1091C00084608281C381204610BD0E20FCE7092007
:1091D000FAE782B050E8022FC188B2EB324F4FF06D
:1091E000000317BF92B241EA014142EA014104E0A3
:1091F0004268B2EB324F08BF012340E80212002A56
:10920000E8D18DF807309DF80730002B0CBF1120F6
:10921000002002B0704737B550E8013F9DB2C489C5
:1092200025448489A54228BF2D1B0489A54202BF7D
:10923000BFF32F8F002207E0C5EA030540E8015481
:10924000002CE9D14FF001028DF803200193019A1F
:109250000A609DF8031001F0FF0321B1006810FAC5
:1092600082F003B030BD1846FBE70A884B889A426B
:1092700009D150E8012FC2EA024240E80123002B45
:10928000F7D1012070470020704737B550E8023F02
:109290001FFAA3F5C488A54202BFBFF32F8F002297
:1092A0000DE0C48925448489A54228BF2D1BC3EA4B
:1092B000054540E80254002CE8D14FF001028DF83A
:1092C00003200193019A0A609DF8031001F0FF0347
:1092D00021B1006800EB124003B030BD1846FBE737
:1092E0000A884B889A4209D150E8022FC2EA2242EA
:1092F00040E80223002BF7D101207047002070477F
:1093000001F01F024B090121914000EB830000F0A6
:1093100065B84B0910B501F01F040121A14000EB15
:10932000830000F04FF8E04000F0010010BD01F0B4
:109330001F0301229A404B0900EB8300D14300F048
:1093400065B84B0901F01F0150F82300C84000F038
:10935000010070472DE9F0474F1E7F0980460E46F9
:109360000137002558F8254008EB8509E44394FAB5
:10937000A4F4B4FA84F44FEA451A202C06D101353E
:10938000AF42EFD834462046BDE8F0875444A642A9
:10939000F5D921464046FFF7BCFF0028F3D0D9F8A5
:1093A0000040E44394FAA4F4B4FA84F4E5E710B579
:1093B000034653E8000F0A4643E8002494F0000FE8
:1093C000F7D110BD10B5034653E8000F40EA010283
:1093D00043E8002494F0000FF6D110BD10B5034609
:1093E00053E8002F42EA010043E8000494F0000F24
:1093F000F6D110BD10B5034653E8000F00EA010294
:1094000043E8002494F0000FF6D110BD10B50346D8
:1094100053E8002F02EA010043E8000494F0000F33
:10942000F6D110BD10B5034653E8000F00EB010262
:1094300043E8002494F0000FF6D110BD10B50346A8
:1094400053E8002F02EB010043E8000494F0000F02
:10945000F6D110BD10B5034653E8002FA2EB010072
:1094600043E8000494F0000FF6D110BD0121FFF78E
:10947000A9BF0121FFF7B2BF0021FFF7BBBF10B5A5
:1094800090B1D0E9012301689B1ADBB20A60013B6D
:10949000DBB2FF2B026802D10020107110BD1168F1
:1094A0004C1C14600B70F2E70E20F7E737B5054649
:1094B00000240DF107008DF80740FEF797FD2A689C
:1094C0006B68116899420ED9481E106011F8013C72
:1094D000EC68298A01FB0344AB6811791B1ADBB2E3
:1094E000994238BF13719DF80700FEF7A3FD20468F
:1094F00003B030BD37B5054600230DF107000C461B
:109500008DF80730FEF772FD2A681368591C116048
:10951000E968641A298AB4FBF1F41C709DF807000D
:10952000FEF788FD03B030BD826810B504462AB14D
:1095300043690168006998470023A36010BD0EB419
:1095400003B5039921B104AB01AA019300F076F8A9
:1095500002B05DF804EB03B070470A2938B5044641
:109560000D4602D10D21FFF7F8FFA3682268591CB0
:10957000A160D554D4E901329A4204D32046BDE813
:109580003840FFF7D1BF38BD2DE9F84F9846DDE9E7
:109590000A43154682460F460A464FF00109AA4281
:1095A0000FD2C14538BFC14613F0010B01D16CB9D0
:1095B00000240126B8F1010F1BD908F1FF386E43D2
:1095C000F8E709F10109B2FBF5F2E8E79B070ED5D0
:1095D000B8F1000F0CBF30262026A145E9D2013C8E
:1095E00031465046FFF7B9FF002CF6D1E0E72026C0
:1095F000F3E7B7FBF6F39D42E1D9DFF83C80B7FB18
:10960000F6F3504618F8031006FB1377FFF7A5FF93
:109610003346AB42B6FBF5F6F1D2BBF1000F02D0F8
:109620000CB1A14501D3BDE8F88F20215046013C83
:10963000FFF793FFF4E700BF759603002DE9F74F9E
:10964000054617468846002900F03E8118F8011BA0
:1096500049B92B7B002B00F03781284603B0BDE8C9
:10966000F04FFFF761BF252940F0B780002698F83A
:1096700000302D2B424608F1010823D0302B24D096
:109680002B2B25D000242A2B02F1010123D13B688A
:109690001A1D1B683A601C440A4613782E2B26D1EB
:1096A00001324FF0000A104610F8011BA1F1300CF6
:1096B000BCF1090F1DD80A2303FB0A13A3F1300ADA
:1096C0000246F0E746F00106D1E746F00206CEE793
:1096D00046F00406CBE711F8013CA3F1300009285D
:1096E000DBD80A2202FB0434303C0A46CBE74FF0B9
:1096F000000A12F8011B01F0FB0068289046F8D020
:10970000782909D86F290CD8632962D022D8252955
:1097100063D0582900F0888098F80030002B95D14C
:1097200097E770390829F7D801A353F821F000BF53
:10973000A3980200199702001997020039980200B5
:109740001997020017980200199702001997020052
:1097500029980200642901D06929DDD13A68D2F83C
:109760000090111D89EAE9723960A2EBE9724FF0AD
:10977000010B092A35DCD34538BFD3462CB1B9F1EA
:10978000000F01DB720700D5013CB30702D5BAF127
:10979000000F03D0F00701D44CBB0024B9F1000F37
:1097A0002DDAC9F100092D212846FFF7D6FE06F073
:1097B0000302022A04D1BAF1000F01D11CBB00241C
:1097C000CDE9004653460A2249462846FFF7DCFE0B
:1097D000A2E73B681A1D19783A602846FFF7BDFEDC
:1097E0009AE70A230BF1010BB2FBF3F2C1E7A345A1
:1097F000D4D220212846013CFFF7AFFECCE7710709
:10980000D5D52B21D0E7A345DAD230212846013C1B
:10981000FFF7A3FED2E73968CDE900460A1D3A609A
:1098200053460A220968D0E739680A1D3A60CDE933
:10983000004653461022F5E73B681A1D3A6016F0C1
:109840000106D3F8009024D1B9F1000F03D04846A7
:1098500009F0DCFA0646B4421DD809F1FF3919F8BF
:10986000011F00293FF458AF2846FFF776FEF6E7C0
:1098700028460136FFF771FE19F806100029F7D1C6
:10988000A642BFF449AF20212846013CFFF765FE00
:10989000F6E70026F0E720212846013CFFF75DFEB1
:1098A000D9E73B681A1D3A60302128461C68FFF74B
:1098B00054FE78212846FFF750FE00220823CDE908
:1098C00000322146102280E703B0BDE8F08F00BFD0
:1098D00013B50B46114680B9104B1148114AC01AF6
:1098E0000E23C0080093104B0004104940F0010003
:1098F00002F031FA0E2002B010BD4BB9074B0848F8
:109900000B4AC01AC0080E2300930004064BECE774
:1099100003601B6802B0BDE810401847889403003C
:10992000F894030085960300419803008A9603008B
:10993000B99603002DE9F743DDF8288088B93E4B3E
:109940003E483F4AC01AC0080E243E4B0094000413
:109950003D4940F0010002F0FEF9204603B0BDE8A9
:10996000F0834AB9344B3548384AC01AC0080E242F
:10997000344B00940004EBE7D0F800E0BEF1000F98
:1099800009D12D4B2D48324AC01AC00808242D4B4E
:1099900000940004DCE74BB9274B28482D4AC01A35
:1099A000C0080924274B00940004D1E74568D5F886
:1099B0000490B3FBF9F509FB15354DB11E4B1F485B
:1099C000254AC01AC00809241E4B00940004BFE7B2
:1099D0008D0709D0184B1948204AC01AC008102416
:1099E000184B00940004B3E712F0030F09D0124B98
:1099F00012481B4AC01AC0081024124B00940004DD
:109A0000A6E7C568A9420DD34D1EEC180569AC4206
:109A100008D8CDF82880DEF80C40A44603B0BDE895
:109A2000F0436047044B05480E4AC01AC008102492
:109A3000044B009400048BE788940300F89403001F
:109A4000859603002E9803008A960300079703006B
:109A5000B3960300C69603000D97030037970300E3
:109A60004F97030072970300F7B580B92A4B2B4834
:109A70002B4AC01AC0080E242A4B009400042A491D
:109A800040F0010002F067F9204603B0F0BDD0F8C5
:109A900000C0BCF1000F09D11F4B2048234AC01A57
:109AA000C00808241F4B00940004E8E74AB91A4B89
:109AB0001A481F4AC01AC00809241A4B009400040F
:109AC000DDE74568D5F800E00EF1FF350D4209D01D
:109AD000114B1248174AC01AC0081024114B0094A9
:109AE0000004CCE7C568A9420CD34D1E0EFB0254FE
:109AF0000569AC4206D8DCF81040A44603B0BDE8C6
:109B0000F0406047044B05480B4AC01AC0081024B7
:109B1000044B00940004B2E788940300F894030017
:109B2000859603001B9803008A960300B3960300F2
:109B3000C696030099970300BF97030029DF70477B
:109B400028DF704770B503689E6886B004460D46EE
:109B50006EB114220021684609F025F9A368059327
:109B6000237901952BB1012B0DD06846B04706B083
:109B700070BD01238DF8003023690293E3680393DD
:109B800063690493F1E702238DF80030E3681B0357
:109B90000293F5E70846704700207047024B187A99
:109BA000003818BF01207047982F0020034B187A07
:109BB0000122B0FA80F05A7440097047982F0020B3
:109BC00008B510461A4609F0C5F8002008BD000087
:109BD00008B514220021044809F0E5F80348FFF70E
:109BE000F8FA002008BD00BF982F0020882F002021
:109BF00010B5094C094B43602046FFF737FC40B9CC
:109C000008F016FE064920741C2306488C22FFF734
:109C1000CDFA002010BD00BF982F002054980300FB
:109C2000FC2E0020882F002038B5234D234C2B7AA2
:109C30003BB923492348FFF728FB206008B9686037
:109C400038BD022324682B72237973B1012B24D0F1
:109C500020460321FFF776FF00232B726B60184923
:109C60001848BDE83840FFF73BBBD4E90523D21ABA
:109C7000B2F5805FD4E9031028BF4FF480529208F8
:109C8000012A38BF012219441844FFF757FF50B189
:109C90001128DDD101232B72D2E7D4E90303184444
:109CA000FFF74EFFF3E72B7C002BC9D1BDE838400E
:109CB000022000F009B800BF982F0020B02F00202C
:109CC000AC2F0020882F002038B5234C237A002B9E
:109CD00041D0022B09D1032830D0204B00221B6831
:109CE000E2601A793AB1012A22D0637C7BBBBDE8DD
:109CF0003840FFF799BFD3E905128D1AB5F5805F9B
:109D000094BF521902F580529A619142EDD1022816
:109D10004FF0000308BF19462372104B18BF0D21E6
:109D20001868FFF70FFF0E490E48FFF7D9FADCE776
:109D30001A6901321A615B699A42E7E7E368013305
:109D4000082B01D8E360D0E70023E360DFE7BDE83C
:109D5000384008F05DBD38BD982F0020B02F00209E
:109D6000AC2F0020882F0020831E012B01D8FFF785
:109D7000ABBF704700F0FD03012B08D1044B00225C
:109D80005A74421E504250411874FFF74DBF70473D
:109D9000982F002010B5064C201DFFF767FB28B94F
:109DA000637C1BB9BDE81040FFF73EBF10BD00BF8C
:109DB000982F00202DE9F34180460D46104801A957
:109DC00016461F46FFF727FA0446B0B118220021B5
:109DD000043008F0E8FF2D0B0123237101A9084886
:109DE000C4F80080A760E5606661FFF73EFAFFF700
:109DF000D1FF002002B0BDE8F0810420FAE700BFE7
:109E0000882F00202DE9F34180460F460F4801A915
:109E100016461D46FFF7FFF90446A8B11822002197
:109E2000043008F0C0FF089BA36001A9C4E90367E0
:109E30000648C4F800806561FFF717FAFFF7AAFF2C
:109E4000002002B0BDE8F0810420FAE7882F00204E
:109E50002DE9F84FB0F806A04579D2F800B09DF88A
:109E600028900AFB05F5043D88460BEB0301A94247
:109E700003F1040488BFA5EB030BB4FBFAF6074615
:109E80000AFB1644C2F800B04EB9AAEB04055D45C2
:109E900028BF5D46BBF1000F04D1BDE8F88F3F68D5
:109EA000013EF1E7043408EB06003C442A46B9F1D0
:109EB000000F0DD02146ABEB050B08F04BFFDA4548
:109EC0002E443F6855464FF0000428BF5D46E1E749
:109ED00001462046EFE7FFF7D2BAF8B546790146CA
:109EE000721E0546002393422D6803D30024A64228
:109EF00002D8F8BD0133F6E70F682846FFF7FAFAF3
:109F000001343946F3E72DE9F843068ACD1C0746AC
:109F1000FFF7CCFA043E35440446B5FBF6F5F0B144
:109F20004FF48073EDB28380C680013D07608146A7
:109F30004FF00008A84512D23846FFF7B7FA064698
:109F400048B163790133637108F10108C9F8000071
:109F500007608146EEE72046FFF7BFFF3446204604
:109F6000BDE8F88301210430FFF768BA10B501217C
:109F700004460430FFF76EFAC0B220B92046BDE8AF
:109F80001040FFF7AABF10BD1FB503920022009238
:109F900003AAFFF75DFF05B05DF804FB1FB5039250
:109FA0000122009203AAFFF753FF05B05DF804FBFE
:109FB00041DF7047064B10B500241C70054B1C6038
:109FC000BFF35F8F0449054800F0A8F8204610BD94
:109FD000BC2F0020C02F00208C980300B42F00203D
:109FE00007B500230DF107008DF80730FDF7FEFFE0
:109FF000F1EE103A23F09F03E1EE103ABFF35F8FCA
:10A000000A4B4022C3F884219DF80700FEF712F89E
:10A0100008F00EFC20B103B05DF804EBFFF7C8BFF9
:10A0200020BF40BF20BF03B05DF804FB00E100E0AB
:10A03000026813685268934291BFD01A8068013059
:10A04000801888BFC01A7047036881681A685B6807
:10A050008B4234BF01330023D31A58425841704712
:10A0600073B5002304460DF107000D468DF8073047
:10A07000FDF7BCFF2046FFF7E7FF10B1237C002B64
:10A080003BD12368A1685E685A688A4234BF0132B6
:10A0900000225A6028B11A688A4234BF0132002275
:10A0A0001A60E2686368511E072920D8DFE801F0D2
:10A0B00004101F141F1F1F182A789A552046FFF7F7
:10A0C000B7FF23689A68824200D29860002415E0A6
:10A0D0002A8823F81620F1E72A6843F82620EDE7BE
:10A0E000D5E9000103EBC603C3E90001E6E7294611
:10A0F00002FB063008F02EFEE0E704249DF807007E
:10A10000FDF798FF204602B070BD836800225A60B8
:10A11000C3E904229A60DA601A6070470B684A68E3
:10A120004360934208BF0023016008BF436070474B
:10A13000436843B10268916852680B44934243609C
:10A1400004BF00234360704770B5446806460D465F
:10A15000206818B1B3682946984718B923682B605E
:10A16000256070BD2468F3E74368186808B1026889
:10A170001A6070474368186870474368186800B9E8
:10A180007047884203D102681A6001207047034675
:10A190000068F4E710B50D49A1F59472914201D819
:10A1A00000200FE08C1AE30F03EBE4035B1002EBDB
:10A1B000C30452F83330834205D802D204F10802B6
:10A1C000ECE7606810BD2146E8E700BF989D0300FA
:10A1D00008B5FFF7DFFF024B002808BF184608BD8F
:10A1E0005B9C03000B7B23B14B680360002303716E
:10A1F00070470B6803600123F9E703684A688968C0
:10A2000010B5D41A8C428BBF5B1800230360026028
:10A2100098BF037110BD03680A68896810B59C1A5D
:10A220008C428BBF5B1A01230360026098BF0371ED
:10A2300010BD037910B504461BB1FFF7DEFF20689F
:10A2400010BDFFF7E8FFFAE738B5074C051E04F12B
:10A25000080318BF1C4623682BB11A6822605B688C
:10A2600028469847F7E738BDCC2F002020B9054B8A
:10A2700001225A70FFF7E8BF012802D1014A90700D
:10A28000F8E77047C42F002020B9034B01225A7011
:10A29000FFF7DABF704700BFC42F002038B50B4C62
:10A2A000237883B90A486360A3602361E36000F008
:10A2B00019F9054608F0BCFA08B900F01FF90123A6
:10A2C0002370284638BD8525FBE700BFC42F00203A
:10A2D0006DA2020037B50B4C00230DF107008DF87D
:10A2E0000730FDF783FEE368013BE360E56815B9DD
:10A2F00000F016F9A5709DF80700FDF79BFE03B06E
:10A3000030BD00BFC42F0020012813B508D003289A
:10A310001CD018B9114B0122C3F8802002B010BD27
:10A320000F4C00230DF107008DF80730FDF75EFE9E
:10A3300023780BB9FFF7B2FFE3689DF807000133FC
:10A34000E3600123A370FDF775FEE7E700F0D6F8A0
:10A3500002B0BDE81040FFF7BDBF00BF00E100E064
:10A36000C42F00201FB500238DF807000DF10F004A
:10A370008DF80F30FDF73AFE08F05AFA50B9094847
:10A380000DF10701FFF76CFE0648FFF75DFE08B10F
:10A3900000F0B0FB9DF80F00FDF74CFE05B05DF836
:10A3A00004FB00BF2894030007B520B103280DD09B
:10A3B00003B05DF804FB104B1B78012BF8D100F0C3
:10A3C00099FB03B05DF804EB00F09CBB00230DF19A
:10A3D00007008DF80730FDF709FE07480378012BC9
:10A3E00005D10649013000F045FB00F071FB9DF8F6
:10A3F0000700FDF71FFEDBE72830002065A3020001
:10A400001FB503788DF800304368019383688DF899
:10A410000830C368054A0393054B684653F821305A
:10A4200052F82110984705B05DF804FB2C3000204D
:10A43000343000201FB503788DF800304368019355
:10A4400083688DF80830C368054A0393054B684656
:10A4500053F8213052F82110984705B05DF804FBFD
:10A460002C30002034300020F0B5194B90F800C09B
:10A47000DFF86CE043F82C20164B16460A6943F8C7
:10A480002C204B7F0EF80C300C4607460FCC89B0C1
:10A490006D460FC594E80F0085E80F003B78CDF8B6
:10A4A00010C01EF803304BB1002E0B4A694608BF9E
:10A4B0003246381D00F074FE09B0F0BD002E074A88
:10A4C000694608BF324607F10C0000F031FCF3E7A3
:10A4D000343000202C30002001A4020035A40200FA
:10A4E0003C300020044A137923B901211060918087
:10A4F000184670478520704740300020074B1A6887
:10A50000D2075FBFC02283F8002301221A604FF0F8
:10A5100080430122C3F81825704700BF00E100E026
:10A520004FF080430122DA60D3F81824D203FBD421
:10A53000704700004FF0804307B5D3F800217AB18F
:10A540000022C3F80021D3F800210092009A0122D2
:10A55000C3F808230F4B587910B95A711B689847F4
:10A560004FF08043D3F8042182B10022C3F80421C4
:10A57000D3F804210192019A0222C3F80823054B63
:10A580001B68012003B05DF804EB184703B05DF8C9
:10A5900004FB00BF4030002000F1804000F5C040C7
:10A5A000002382B0036003680193019B02B07047EF
:10A5B00003681F2B83BF03F01F03036001484FF0A4
:10A5C000A04070470003005007B5019001A8FFF7B5
:10A5D000EFFF019B00EB8300D0F8003723F44033FA
:10A5E000C0F80037D0F8003743EA0141C0F800173F
:10A5F00003B05DF804FBC208012300F0070003FA72
:10A6000000F08B5C1843885470470000054B4FF0F6
:10A61000FF32072843F8202084BFC01880F8582054
:10A62000704700BF4830002038B5144D95F86A4097
:10A6300014BB3022FF21A81808F0B5FBE0B20134AA
:10A64000FFF7E4FF0C2CF9D10D4B00226A669A80CB
:10A650000C4BC02183F80613402119604FF4BE70E3
:10A66000FFF79AFF084B4FF00041C3F80413012392
:10A6700085F86A30104638BD0820FCE748300020D5
:10A68000AC30002000E100E000600040034B93F894
:10A690006A00003818BF0120704700BF4830002012
:10A6A0002DE9F341DFF8F48008EB0003054693F948
:10A6B0003030002B0F466CDA8B78C3F34003002B4D
:10A6C0000BBF082400240C2108218C4203D1042054
:10A6D00002B0BDE8F08158F82400013041D108EB08
:10A6E000050166B248F8242081F830601BB908EBF8
:10A6F000040383F85850BB785A0712D4D90732D5CF
:10A7000001A80195FFF754FF019B00EB8300D0F8EF
:10A71000003723F00203C0F800371F492846FFF72F
:10A720006AFFBB783A7813F0020328D0A40004F142
:10A73000804404F5C0442D02D4F8103523F44F337F
:10A7400023F44073C4F810351204D4F8103505F41E
:10A750007C5502F4403215431D43C4F810550020C7
:10A76000B6E70134B1E701A87A780195FFF720FF39
:10A77000019B03F5E073920040F82320CDE7083EEB
:10A7800048FA86F898F8605045EA821288F8602006
:10A79000E5E708209CE700BFAC30002048300020EF
:10A7A00073B5244D2E18044696F93020072A1DDD76
:10A7B000083A45FA82F595F860309B09032B10D1D1
:10A7C000019001A8FFF7F4FE019BD0F81015D940C5
:10A7D00001F001010231204602B0BDE87040FFF7F0
:10A7E000F3BE012B0CBF02210321F4E7D3B2072BE8
:10A7F0001DD8930003F1804303F5C043D3F810053F
:10A8000040F00100C3F8100502F1400040B28000A2
:10A8100080B2FFF7C1FE51B196F9303055F82330C0
:10A820002BB1012303FA02F2034BC3F8042302B055
:10A8300070BD00BF483000200060004007B50190A7
:10A8400001A8FFF7B5FE019BD0F81005D84000F035
:10A85000010003B05DF804FB2DE9F04F00248BB03C
:10A86000CDE90444654D4FF48072012102F180432B
:10A8700003F5C04390B21B68012B06D1D5F8043311
:10A880000B4202D0FFF788FE0C430432B2F5907FF2
:10A890004FEA4101EAD1594BD3F87C31012B0ED15B
:10A8A0004FF4BE70FFF778FE4FF0A04344F0004431
:10A8B000D3F810350493524BD3F810350593E3B217
:10A8C000D3B1504F00250126344210D0AB0003F124
:10A8D000804303F5C043D3F81005D3F8101557F89B
:10A8E000253023B1C1F30141C0F30520984701355C
:10A8F000082D4FEA4606E7D1002C7BDA0023CDE98C
:10A9000006334FF0FF33CDE90833DFF8F8A03E4BB4
:10A91000019300263546019B13F9014B0193631CFB
:10A920004FD0C4F3C2070122E3B204F03F0B04F09E
:10A93000070402FA04F407F128020DEB020717F8E6
:10A94000081C21423DD00AEB0B014FEA931991F903
:10A9500030105AF82180B8F1000F07D1B9F1030F78
:10A960002FD106A95846FFF746FE02E0B9F1030FC2
:10A97000F7D003A8CDF80CB0FFF71AFE039901F544
:10A98000E07150F8211017F8180C2042C1F3014172
:10A9900006D0022915D1B9F1030F0CD1494605E0C3
:10A9A00003290ED1B9F1030F05D102215846FFF753
:10A9B0000BFE0135EDB2B8F1000F02D04946584602
:10A9C000C0470136042EA6D1A5B14FF0A04304998B
:10A9D000D3F8102503F540739142D3F8103502D116
:10A9E0000599994206D004920593069A079B08920E
:10A9F00009938CE70BB0BDE8F08F00BF006000400A
:10AA00000003005048300020A8300020014B1B6894
:10AA1000184700BFB43000200E4B984237B50C46A3
:10AA200002D0002003B030BD00230DF107008DF8E7
:10AA30000730FDF7DBFA084B1D7915B901221C60C0
:10AA40001A719DF80700FDF7F5FA002DE9D01120E5
:10AA5000E8E700BF00200040B4300020034B9842DC
:10AA600001BF034B00221A601A717047002000409A
:10AA7000B430002010B5124C2378FBB9114B19608B
:10AA8000037813F0010F104B1EBFD3F8042542F0DA
:10AA90000102C3F80425D3F8002222F00102C3F812
:10AAA00000224378094A5B01DBB282F80D334FF490
:10AAB0000053136001232370002010BD8520FCE7A4
:10AAC000C0300020BC30002000D0004000E100E099
:10AAD000074B0022C3F8002182B0D3F80021019275
:10AAE000019A0122C3F804231A6002B0704700BF24
:10AAF00000D00040024B0122C3F808235A6070477F
:10AB000000D00040064B0122C3F808235A60054BD1
:10AB10004FF40052C3F88020034B00221A70704794
:10AB200000D0004000E100E0C0300020074B0022D0
:10AB3000C3F8002182B0D3F800210192019AD3F822
:10AB40000805034B1B68C0B202B0184700D0004094
:10AB5000BC3000200023435082B043580193019B36
:10AB600002B070470A4610B54FF48E71FFF7F2FF3E
:10AB7000136A9168C95C136A01331362C0F81C152B
:10AB800010BD8B690A4610B54FF4847123B9FFF7E5
:10AB9000E1FFD0F8183510BDFFF7DCFF536AD1682C
:10ABA000D0F81805C854536A01335362F3E7000024
:10ABB0001FB501238DF80030044BCDE90110D3E916
:10ABC00000126846904705B05DF804FBC4300020D1
:10ABD00030B54D4DD5F804339A0585B051D5D5F82B
:10ABE0002431002B4DD04FF492712846FFF7B2FF6D
:10ABF0004FF40173C5F80833444B93F829200AB980
:10AC000001226A60404902228DF80020D1F8802498
:10AC1000C1F8802403929A690292DA6801920022B4
:10AC2000C3E906226846D3E9001290473648D0F8B7
:10AC30001C315BB1354A5169136A99424DD992F87A
:10AC40002830002B49D11146FFF78CFF2E48D0F851
:10AC50004431002B56D04FF4A271FFF77BFF2B4BF2
:10AC600093F829200AB1012202609A69002A49D08A
:10AC7000586AD96800229A6105B0BDE83040FFF7F4
:10AC800097BFD5F804335B07D0D5D5F80831002B32
:10AC9000CCD01E4C1C482146FFF773FF636AA269A3
:10ACA0009A42C3D1E369E1684BB1A3612369E360D0
:10ACB0000023606AE3616362FFF77AFFB6E794F806
:10ACC00029300BB901236B600F4B4FF40172C3F8AD
:10ACD00008230023606AA361EEE70B484FF48E71EE
:10ACE000FFF738FF5369002BB0D051690291002360
:10ACF00091688DF80030019153616846D2E90013E4
:10AD00009847A3E705B030BD00200040C4300020C4
:10AD10001F2886BF00F01F00044B4FF0A04300F532
:10AD2000E070022243F82020704700BF000300506B
:10AD30002DE9F843624D90F804802C2303FB08535F
:10AD4000064693F82A300C469146002B40F0B4801A
:10AD50005C490068FFF760FE0746002840F0AE80BF
:10AD60002268531C10D01F2A87BF574902F01F03C7
:10AD700013464FF0A0410120984003F5E073C1F85D
:10AD80000805032041F823006168481C0DD01F29E5
:10AD90008BBF01F01F030B464B484FF0A04003F55B
:10ADA000E0734FF0000C40F823C03068A369C0F88E
:10ADB000243594F814C0637DBCF1010F4CEA030301
:10ADC000C0F86C35C0F81415C0F80C252BD1A36859
:10ADD000591C0DD01F2B8BBF03F01F021A463A4996
:10ADE0004FF0A04102F5E0724FF0000C41F822C094
:10ADF000E1684A1C13D01F2987BF334A01F01F0C9A
:10AE00008C464FF0A0424FF0010E0EFA0CFE0CF5EE
:10AE1000E07CC2F808E54FF0030E42F82CE0C0F8E1
:10AE20000815C0F810352C2202FB08F2AB18C3F845
:10AE300004902369AB50B9F1000F2AD04FF48E7102
:10AE4000247FFFF787FE30684FF4A271FFF782FE80
:10AE500032681E4BC2F80433130B42F30732002A48
:10AE6000A8BF02F160404FEA4411BABF184803F08E
:10AE70000F0400F56140C9B2B4BF015580F800135A
:10AE800003F01F03012101FA03F35209114941F8AC
:10AE9000223033680422C3F800252C2303FB085317
:10AEA0000022C3E9062283F829205A61012283F88F
:10AEB0002A203846BDE8F8830827FAE71127F8E783
:10AEC000C4300020D1AB020000030050800002001B
:10AED00014ED00E000E100E02DE9F04103680579A0
:10AEE000244C0022C3F800252C2202FB0542014617
:10AEF00052686AB1204AC3F8082343F30732C3F308
:10AF0000043652090120B04020321C4E46F822007F
:10AF1000D3F80C05D3F81485D3F80865D3F8107569
:10AF20004FF0FF329042C3F81425C3F80C25C3F844
:10AF30000825C3F8102501D0FFF7EAFEB8F1FF3F5E
:10AF400002D04046FFF7E4FE7A1C02D03846FFF7F5
:10AF5000DFFE731C02D03046FFF7DAFE0868FFF709
:10AF60007DFD2C2303FB0544002384F82A30636015
:10AF7000BDE8F081C43000208402020000E100E05E
:10AF80000279044B2C2101FB02335869003818BFA9
:10AF900001207047C43000202DE9F84F064690F894
:10AFA000048089469246FFF7EBFF044600283CD117
:10AFB000204F2C2508FB057B4FF48E71CBF814A095
:10AFC000CBF80890CBF820008BF828003068FFF70A
:10AFD000C1FD3068012383605946FFF7C3FDDBF8EC
:10AFE00004305D461BBB3068DBF814402B6A9C4282
:10AFF00011D83368D3F81C21002AFBD00122DA6073
:10B0000000202C2303FB087700237B61BDE8F88F29
:10B0100095F828303BB9D0F81C31002BF8D05946B0
:10B02000FFF7A0FDE2E70F20EBE71120EEE7204657
:10B03000ECE700BFC43000200023435082B04358E7
:10B040000193019B02B070471FB501238DF80030BA
:10B05000044BCDE90110D3E900126846904705B0D2
:10B060005DF804FBF03000207FB5434AD2F824613C
:10B07000002E60D010464FF49271FFF7DDFF0223DF
:10B080008DF80030D2F88034C2F880340393D2F8BF
:10B090003C350293394BDA6801920022C3E906225B
:10B0A0006846D3E9001290473348D0F8443173B171
:10B0B0004FF4A271FFF7C0FF304B9A693AB10022FA
:10B0C000C3E90622D968D0F83C05FFF7BDFF2A483E
:10B0D000D0F82031ABB14FF49071FFF7ADFF0123F1
:10B0E000C360264B5A6962B1D0F84C150291002218
:10B0F00099688DF8002001915A616846D3E90012E1
:10B1000090471D48D0F858319BB14FF4AC71FFF710
:10B1100093FF1A4B5A6962B1D0F84C150291002284
:10B1200099688DF8002001915A616846D3E90012B0
:10B13000904704B070BDD2F81031002BB4D04FF45A
:10B1400088711046FFF778FF0C4BD2F83C059969DF
:10B150008842A9D1DC69D96864B1D2F8005225F0DF
:10B160002005C2F800521A699C61DA60DE61FFF7BF
:10B170006BFF99E79C61FAE700200040F030002067
:10B180001F2886BF00F01F00044B4FF0A04300F5BE
:10B19000E070022243F82020704700BF00030050F7
:10B1A0002DE9F843694E90F80480242303FB0863DB
:10B1B000044693F820300D469146002B40F0C180A4
:10B1C00063490068FFF728FC0746002840F0BB8071
:10B1D00029684B1C10D01F2987BF5E4A01F01F034E
:10B1E0000B464FF0A0420120984003F5E073C2F8EF
:10B1F0000805032042F823006A68501C0DD01F2A5E
:10B200008BBF02F01F03134652484FF0A04003F5D6
:10B21000E0734FF0000C40F823C02068AB69C0F821
:10B22000243595F814C06B7DBCF1010F4CEA030383
:10B23000C0F86C35C0F80C15C0F814252BD1AB68DC
:10B24000591C0DD01F2B8BBF03F01F021A4641491A
:10B250004FF0A04102F5E0724FF0000C41F822C01F
:10B26000E9684A1C13D01F2987BF3A4A01F01F0C16
:10B270008C464FF0A0424FF0010E0EFA0CFE0CF57A
:10B28000E07CC2F808E54FF0030E42F82CE0C0F86D
:10B290000815C0F81035242202FB08F2B318C3F8D1
:10B2A00004902B69B350B9F1000F39D04FF4887175
:10B2B0002A7FFFF7C1FE20684FF49071FFF7BCFEB4
:10B2C00020684FF49271FFF7B7FE20684FF4A27127
:10B2D000FFF7B2FE20684FF4AC71FFF7ADFE2368B4
:10B2E0001D49C3F80413190B43F30733002BAEBFFA
:10B2F00003F1604001F00F0518484FEA4212A8BF61
:10B3000000F56140D2B2B4BF425580F8002301F08D
:10B310001F01012202FA01F15B09114A42F82310D0
:10B3200023680822C3F80025242303FB08660023B2
:10B33000C6E906337361012386F820303846BDE83C
:10B34000F8830827FAE71127F8E700BFF03000205C
:10B3500069B00200000300501003420014ED00E049
:10B3600000E100E02DE9F0412E4D0679242303FB96
:10B37000065304465B6800686BB12B4BC0F808337A
:10B3800040F30733C0F304315B0901228A402033C4
:10B39000264941F82320D0F80032012223F020036F
:10B3A000C0F800324FF4AC714260FFF745FE2368ED
:10B3B000DA60D3F85821002AFBD00022C3F8002518
:10B3C000D3F80C05D3F81485D3F80815D3F8107505
:10B3D0004FF0FF329042C3F80C25C3F81425C3F890
:10B3E0000825C3F8102501D0FFF7CAFEB8F1FF3FCA
:10B3F00002D04046FFF7C4FE7A1C02D03846FFF761
:10B40000BFFE4B1C02D00846FFF7BAFE2068FFF7CC
:10B4100025FB242303FB0655002385F820306B60B1
:10B42000BDE8F081F03000201003420000E100E0B0
:10B430000279044B242101FB02335869003818BFFC
:10B4400001207047F030002001F06043B3F1005F4D
:10B450002DE9F0470646884692463BD190F8049085
:10B46000FFF7E6FF0446002836D11D4F306824253B
:10B4700005FB09754FF49071C5F814A0C5F8088054
:10B48000FFF7DAFD4FF4AC713068FFF7D5FD336894
:10B490006A69A968C3F84415C3F8482501229A606F
:10B4A0006A68DAB9D3F82021D3F858011AB900280C
:10B4B000F8D00F2007E00028FBD10122DA60D3F892
:10B4C0005821002AFBD0242303FB097700237B614A
:10B4D000BDE8F0871020FBE71120F9E72046F7E7E9
:10B4E000F0300020074B1B5C1F2B8ABF064A4FF031
:10B4F000A04203F01F03D2F80405D840C04300F077
:10B5000001007047C69D030000030050074B1B5C01
:10B510001F2B86BF064903F01F034FF0A0410122F5
:10B5200002FA03F3C1F80C35704700BFC69D030053
:10B5300000030050074B1B5C1F2B86BF064903F01E
:10B540001F034FF0A041012202FA03F3C1F80835AE
:10B55000704700BFC69D03000003005008B50020DF
:10B56000FFF7E8FF0120FFF7E5FF0220FFF7E2FF0A
:10B57000BDE808400320FFF7DDBF08B50020FFF756
:10B58000C5FF0120FFF7C2FF0220FFF7BFFFBDE8A4
:10B5900008400320FFF7BABF0A4B185C1F288ABF78
:10B5A000094B4FF0A04300F01F00D3F80425012100
:10B5B000814021EA02000A40C3F80805C3F80C25BF
:10B5C000704700BFC69D030000030050074B1B5C83
:10B5D0001F2B8ABF064A4FF0A04203F01F03D2F888
:10B5E0001005D840C04300F001007047C29D030021
:10B5F000000300500B2809D00C2809D0182809D0C6
:10B6000019280CBF03204FF0FF307047002070470F
:10B610000120704702207047014B185C704700BF43
:10B62000C29D0300C20710B504460CD54FF0A043DD
:10B630000322C3F83427C3F83827C3F83C27C3F8DC
:10B640004027FFF78BFFA3070AD54FF0A0430C223A
:10B65000C3F82C27C3F83027C3F86027C3F8642742
:10B6600010BDF0B595B01D46164608460C46FEF7CF
:10B6700079FC1A9B0D93CDE9086500252B4608221D
:10B6800005A920460A958DF82C500C95FEF786FCEE
:10B69000079B0293069B03939DF814308DF811507D
:10B6A00003F00302012A1DD1BDF81420059DC3F348
:10B6B000C203C2F383168DF81030B20008230EA91E
:10B6C0002046FEF76BFCC5F3952508AB0093324688
:10B6D00002AB0EA9284600F0FFFB2046FEF746FC11
:10B6E00015B0F0BD022AF8D1BDF81650C3F3C2035D
:10B6F000C5F389158DF810300827082D2E4628BF70
:10B7000008263B4632460EA92046FEF747FCAD1BF5
:10B7100008AB02AA31460EA8374400F041FC002DC8
:10B72000EBD1DAE7014B01221A7070475531002046
:10B730007047000070B50E4D06460FCD88B06C46C0
:10B740000FC495E80F00002E84E80F00094A0A484C
:10B750004FF0060308BF002269460093FEF784FEFF
:10B7600008B1FCF757FA054B1E7008B070BD00BF5A
:10B77000CC9D030025B70200FC2B002014310020D3
:10B7800007B5044B0093044A4023FFF76AFF03B058
:10B790005DF804FB9DB702001531002038B50D4857
:10B7A0000D4C0E4D002323700378EB5CD2B263B1D5
:10B7B0000430FFF749FE08B1FCF72CFA084B1A7861
:10B7C00012B12378002BFBD038BD0C30FFF7E4FB1F
:10B7D000F1E700BFFC2B0020553100203C30002059
:10B7E0001431002008B50848084A0378D35C3BB1FF
:10B7F0000430FFF7B7FDBDE808400020FFF79ABF0F
:10B800000C30FFF769FBF6E7FC2B00203C300020F2
:10B810000120FFF78FBF000008B5FFF7F9FF0448CC
:10B82000042100F0C3FA034B01225A7108BD00BF86
:10B8300080950300102C0020037813F0040216D02A
:10B8400003F00303012B03D0022B09D00120704722
:10B850000A6800880232C0F3831002440A60F5E7E8
:10B860000B684288023303EB92130B60EEE710463D
:10B87000704700002DE9F04FDFF830A187B00F4688
:10B8800000230446861C0DF1070015468DF807308D
:10B89000FCF7ACFBDAF800103960DAE90132134446
:10B8A00001335B1A0AF21C470AF583690AF214484D
:10B8B000B3421CD30020002D73D004F00F039B0172
:10B8C00043F0050363F30F00DAF80020DAF80830DC
:10B8D0001340033332444AF823009DF80700CAF8A6
:10B8E0000020FCF7A7FB012007B0BDE8F08F012185
:10B8F0003846FDF7A3FD4846FDF7BBFD4046FDF782
:10B90000B8FDDAF80400DAF808B0029000EA0B009B
:10B9100003300AEB800002A9FFF78EFF029B50BBA9
:10B920000BEA03020AEB820203F1020CD2680392D3
:10B93000013303EA0B0B0AEB8B0B02F00302012A23
:10B94000DBF80C10CDF808C023D0022A16D08346AD
:10B950004046FDF791FD10B1029BCAF804305946EC
:10B960003846FDF76BFDDAE901231344DAF80020CD
:10B9700001339B1A9CE70BEA0300C9E7BDF80E30C0
:10B98000C3F3891303334FEA114B0CEB9303029378
:10B99000DEE7BDF80C30C3F383134FEA114B634469
:10B9A000F5E7A40544F006008EE700BF283200202A
:10B9B0000B4B0C48FF2210B59A600022C3F81824E4
:10B9C000C3E90022C3F8142483F82024FEF783FA85
:10B9D000044610B90448FEF798FB204610BD00BF8E
:10B9E000283200206C940300209E030030B50A4CDE
:10B9F00071B10A4A0A49121BD20800239A4201D1A6
:10BA0000002030BD31F82350854202D00133F5E7E4
:10BA1000034654F83300F4E788940300809503004C
:10BA2000F42B0020094B013903EBC000032909D88E
:10BA3000DFE801F00A02040604207047007970472D
:10BA400040797047002070470220704788940300B7
:10BA5000034BD3E90030C31A58425841704700BF26
:10BA6000283200202DE9F04387B0FFF7F1FF0646AA
:10BA7000002840F0FE80804CC4F81804BFF34F8FBC
:10BA80006368A56802932B40033304EB830002A98B
:10BA9000FFF7D2FE029B18B1D4F81824002A62D016
:10BAA00005EA0302991C013304EB82022B4004EBEC
:10BAB0008303D268DB68049302F00303022B039232
:10BAC000029163D1BDF80E306C48C3F38917502F33
:10BAD000B84628BF4FF0500808F1080168F38F13EB
:10BAE000C1F30901ADF80E30FEF70DFA0646002845
:10BAF00000F0AA80FEF736FA0023082203A9304698
:10BB0000FEF742FA029925EA01020132B8EB820FF0
:10BB10004FEA820333D95FFA88F863B32940DDB274
:10BB2000A8EB050803315FFA88F9A846544D04EBE9
:10BB30008101082342463046FEF726FA3DB108F15E
:10BB40000803DBB24A4629463046FEF71DFA029B3F
:10BB5000033703EB97070297D4F81834002B4BD127
:10BB6000D4F810545BE0226893428CD36260304674
:10BB700007B0BDE8F08342491D469946D9E7294000
:10BB800003310823424604EB8101DDE7012B5BD141
:10BB9000BDF80C303948C3F38311062928BF0621AC
:10BBA00061F38913023101F00F018900ADF80C3007
:10BBB000FEF7A9F90646002846D0FEF7D3F9002380
:10BBC000082203A93046FEF7DFF90027BDF80C2054
:10BBD000C2F38312BB00974203F10803BCD202995F
:10BBE0004A1C29400331029204EB810104223046B1
:10BBF000FEF7CAF90137E9E73046FEF7B7F9FFF774
:10BC000027FF80F00100C6B2B1E7EB685B7923B192
:10BC10002B6831461B6828469847EB681D68002D45
:10BC2000F3D13046FEF7A2F90DF107008DF8075069
:10BC3000FCF7DCF9D4F818340BB9029B63609DF86B
:10BC40000700FCF7F7F9DAE7D4F8104454B90D4BC4
:10BC50000D480E49C01AC008000440F0020000F070
:10BC600063F8CCE7236820469B689847E3681C6824
:10BC7000ECE700267BE700BF283200206C9403002D
:10BC80003432002088940300B8940300099E030016
:10BC90002DE9F74F224E04460F46924601A9012294
:10BCA0001846D6F808909B46FFF7E4FD20B3019DA7
:10BCB0004FF00008AA1CD84508EB020126D119480C
:10BCC0000021FDF774FB80F31000000440EA1440EB
:10BCD000E4006B1C04F0380403EA090305EA0905D3
:10BCE00044F0010406EB8303033544EA881444EA74
:10BCF0008724D86046F8254096F820341BB1FFF71A
:10BD0000B1FE0028FBD103B0BDE8F08F09EA0101C4
:10BD100006EB81015AF82830CB6008F10108CAE728
:10BD2000283200204436002000231A46FFF7B0BF17
:10BD300007B50123019201AAFFF7AAFF03B05DF83E
:10BD400004FB07B5CDE9002302236A46FFF7A0FFF5
:10BD500003B05DF804FB1FB5CDE90123069B0393F7
:10BD600001AA0323FFF794FF05B05DF804FB1FB59C
:10BD7000CDE90023069B0293079B03936A460423A5
:10BD8000FFF786FF05B05DF804FB7FB5CDE9012321
:10BD9000089B0393099B04930A9B059301AA05231F
:10BDA000FFF776FF07B05DF804FB000030B50F4CDD
:10BDB000D4F8102403460020114631B9D96808711F
:10BDC0004AB9C4F810340A6030BDC9680D7985429B
:10BDD00006D00968F1E7D26814680C601360F3E7D5
:10BDE00001300A28E8D14FF0FF30EDE7283200207B
:10BDF00038B5084B0125D3F8104483F8205404B912
:10BE000038BDE3685D71236820465B689847E36846
:10BE10001C68F4E72832002030B5C38885B004469A
:10BE20000D4633B1144A00921449154A2846FDF7CD
:10BE300086FB217A05291DD0637A4BB1A088FFF7D4
:10BE4000F1FD104B104953F820202846FDF777FBF1
:10BE5000227A0E4BA08853F8222003920021FFF78C
:10BE6000C5FD039A0A490346284605B0BDE830409F
:10BE7000FDF765BB05B030BD4C9E0300349E03004A
:10BE80002C9E0300B89E03000FB20300DC9E03004B
:10BE9000519E030007B503460846197A052911D0BB
:10BEA0005B7A2BB1094A0A490190FDF748FB0198DA
:10BEB00008490190FDF743FB019803B05DF804EBDE
:10BEC000FDF732BB002AF8D0F2E700BF4C9E03001A
:10BED0000FB20300499E03002DE9F04385B01F46D1
:10BEE0000C9D002395F80C902B7306460C4690464B
:10BEF00029463846FFF790FFB8F1060F09D8DFE86A
:10BF000008F00412181F2833400031462846FDF778
:10BF100016FB002229463846FFF7BCFF85F80C9037
:10BF200005B0BDE8F083226831462846FDF707FBDF
:10BF3000EFE7D4E9002331462846FDF700FBE8E7A8
:10BF4000A36800933146D4E900232846FDF7F7FAA9
:10BF5000DFE7E3680193A36800933146D4E9002347
:10BF60002846FDF7ECFAD4E723690293E3680193CE
:10BF7000A36800933146D4E900232846FDF7DFFA91
:10BF8000C7E76369039323690293E3680193A36896
:10BF900000933146D4E900232846FDF7D0FAB8E7EC
:10BFA00008292DE9F74F80460E4617461C463DD816
:10BFB00000251B7B2573214610460193FFF72CFFBC
:10BFC000DFF88CA0DFF88CB0AE4232D918F805202B
:10BFD00059462046FDF7B3FA0135082DF4D11B4927
:10BFE000DFF874A0DFF874B02046FDF7A8FA4FF030
:10BFF00000094E4524D918F809507E2D1ED8284630
:10C0000006F04CFE002814BF2A462E225946204630
:10C01000FDF795FA09F10109B9F1080FE9D10122FB
:10C0200021463846FFF736FF019B237303B0BDE876
:10C03000F08F51462046FDF782FACDE72E22E5E744
:10C0400051462046FDF77BFAE4E700BF659E0300FA
:10C05000619E03005B9E0300639E0300679E0300D6
:10C0600028B139B10023C1E900301846704748F2C1
:10C070001050704748F21350704730B1036848F2CF
:10C0800040508B4208BF0020704748F21050704764
:10C0900030B119B10B68934205D30A600020704794
:10C0A00048F21350704748F2145070472DE9F041A0
:10C0B0000C4600AF80461146204615461E46FFF747
:10C0C000CFFF00BB31462046FFF7CAFFD8B922791F
:10C0D000104B53F82230CBB1B8F1000F0AD10E4902
:10C0E00031F8124034B107346A46E408A2EBC402C6
:10C0F0009546E846324629464046984718B9074BC8
:10C100002B60063B3360BD46BDE8F08148F203502A
:10C11000F9E700BF0C9F0300F09E03007652464DE6
:10C1200070B505460C461E46FFF79AFF70B9AB790D
:10C130006AB1B3420ED12979094B53F8213063B16A
:10C1400011462046984708B9064B236070BD48F257
:10C150001050FBE748F21150F8E748F20350F5E7BA
:10C16000409F03007052464D2DE9F0410D460D49A8
:10C1700004461646FFF781FF90B967683146BA79E1
:10C180002846FFF785FF58B93A79074B53F8223014
:10C1900023B129462046BDE8F041184748F2035034
:10C1A000BDE8F0817052464D749F0300F0B528B190
:10C1B0004079D9B18AB948F2135315E01846F8E727
:10C1C000441E00254E5D0F5D575516550135013C47
:10C1D000A542F7D91B1A014402448342F0D2002B36
:10C1E00048F2115218BF13461846F0BD48F21053DA
:10C1F000FAE700002DE9F8430D4600AF04461D495B
:10C20000284616469846FFF738FF48BB1A4930467D
:10C21000FFF733FF20BBD5F804907368994522D10E
:10C2200099F80520396A4046FFF732FFC0B999F8FE
:10C230000430124A52F82390B9F1000F16D054B9C5
:10C240000F4A32F8133033B107336A46DB08A2EBEA
:10C25000C3039D466C464346324629462046C8479E
:10C26000BD46BDE8F88348F24150F9E748F2035073
:10C27000F6E700BF7652464D7052464DA89F030028
:10C28000D89F0300F8B50A4F0A4C0B4EE41B01235C
:10C29000E40833700025A54203D102233370002047
:10C2A000F8BD57F8353098470028F9D10135F2E745
:10C2B0008094030088940300E4360020054B1A782C
:10C2C000022A04D01878431E584258417047012072
:10C2D000704700BFE436002070B51B4B6A469A4297
:10C2E00006460D4605D3FFF7E9FF78B94FF4054040
:10C2F00070BD164B16481749C01AC008000440F01C
:10C300000100FFF711FD48F21950F1E7124C2368C4
:10C3100023B1124B1A68124B9A420FD086B97DB9DD
:10C3200010481149206000F0EBFF0028E0D10B4BD2
:10C330000B4A1A6023680D4A1A60D9E70020D7E734
:10C3400048F21750D4E700BF00E0032088940300B0
:10C35000B8940300F09F0300B44F0020D0370020B2
:10C360006572E54BE8360020D43700206169614DE5
:10C3700010B5164B6C469C420FD3DAB9144B1C68AF
:10C38000144B9C421BD1E8B913481346BDE810403A
:10C390000A460068114900F0FDBF114B11481249CF
:10C3A000C01AC008000440F00100FFF7BDFC48F2CD
:10C3B000195010BD0029E1D148F21050F9E748F2B8
:10C3C0000250F6E748F21750F3E700BF00E0032001
:10C3D000D03700206572E54BB44F0020D4370020E1
:10C3E00088940300B8940300F09F030073B51346CC
:10C3F0000D460446F8B111B3144A1168144A91422B
:10C4000020D1144E01932A460146306800F09EFF69
:10C4100048F27152904210D1002211461046FFF7A7
:10C42000A7FF50B9019B30682A46214602B0BDE8FB
:10C43000704000F08BBF48F2135002B070BD48F25C
:10C440001450FAE748F20250F7E700BFD037002057
:10C450006572E54BB44F00200122FFF7C7BF0022F1
:10C46000FFF7C4BF33DF704776DF704778DF704770
:10C470007ADF70477CDF70478FDF7047FBF7CABBFE
:10C4800008B50020FBF73CF908B1FBF7C3FBFBF74D
:10C490001FFA08B1FBF7BEFBFFF7E4FF18B1BDE8D8
:10C4A0000840FBF7B7BB08BD034B0448197881F07F
:10C4B0000101197006F0CFB84855002090540020B3
:10C4C00010B51249124C1348FDF7B3FE236881B230
:10C4D00001331148236006F07AF830F0080209D0E1
:10C4E00020F00202112A05D043F20142904201D00D
:10C4F000FBF790FB094A23685343B3F1553F084AC1
:10C5000094BF00230123137010BD00BF54540020BA
:10C51000B84F00206454002090540020ABAAAAAA6F
:10C52000262C002008B50D490D48FDF782FE4FF678
:10C53000FE72C1B20B4805F001FE30F008020BD0CC
:10C5400020F00202112A07D043F20142904203D0A8
:10C55000BDE80840FBF75EBB08BD00BF04540020E7
:10C5600014540020F053002010B50388212B86B00E
:10C5700004460FD80F2B11D9103B112B0ED8DFE832
:10C5800003F00F2C0D0D0D0D0D4F5C630D0D0D0DFA
:10C590000D0D0D3C3B2B3ED0562B3CD006B010BDB4
:10C5A000354B36483649C01AC008000440F0030035
:10C5B000FFF7BAFB0720FBF7A3F808B1FBF72AFB4C
:10C5C000304BA1883048198003F0F0FA0028E5D0FC
:10C5D00006B0BDE81040FBF71DBB274B2748227A69
:10C5E0002A49C01AC008000440F00300FFF7A0FB6E
:10C5F000244B4FF6FF721A80D0E7002380888DF815
:10C60000143005A98DF81530FFF736FF0028C5D086
:10C61000FBF700FBC2E7A0881321FFF725FFD5E752
:10C620001648154B1A49C01AC008000440F0030010
:10C6300006B0BDE81040FFF777BB10480E4B154918
:10C64000C01AC0080004F1E7437A0B4A0B481249AC
:10C65000801A627B0292227B0192A27AC008C2F306
:10C66000C00200040092C3F38003227A40F003006A
:10C67000FFF78BFB92E700BF88940300B894030098
:10C6800009A00300242C0020E054002014A0030083
:10C690002DA003004AA0030069A003000A8840F609
:10C6A00077239A4210B50C460BD1094B09484A88AA
:10C6B000C01AC00800048B88074940F00300FFF748
:10C6C00040FB21460548BDE8104005F0C7BF00BF4C
:10C6D00088940300B8940300BFA003009054002086
:10C6E00008B503784BB9054B3B211888FFF7BCFE12
:10C6F00018B1BDE80840FBF78DBA08BD242C002016
:10C70000072808B513D00A280DD0042819D10D4BDD
:10C7100013211888FFF7A8FE30F0080311D0BDE8F8
:10C720000840FBF777BABDE80840FFF7A9BE054B04
:10C730001A884FF6FF739A4203D1034801F051FC67
:10C74000EAE708BD242C0020BC4F002008B598B1B2
:10C75000032815D10B4B0C480C49C01AC008000423
:10C7600040F00300FFF7E0FA0220FAF7C9FF38B102
:10C77000BDE80840FBF74EBABDE80840FFF780BEB1
:10C7800008BD00BF88940300B8940300EEA0030026
:10C7900008B51B4B1B78002B31D01A491A48FDF7FE
:10C7A00048FD81B2194805F03EFF16491648FDF7CD
:10C7B00040FD81B2154805F036FF12491248FDF7D9
:10C7C00038FD81B2114805F02EFF0E490E48FDF7E5
:10C7D00030FD81B20D4805F026FF0A490A48FDF7F1
:10C7E00028FD81B2094805F01EFF06490648FDF7FD
:10C7F00020FDBDE8084081B2044805F014BF08BD23
:10C80000262C0020EC540020FC54002090540020E2
:10C8100008B50548032101F0A0FA18B1BDE80840A9
:10C82000FBF7F8B908BD00BFBC4F002010B50446A7
:10C8300004F0DEFC204604F0B9FA23780C2B03D177
:10C84000BDE81040FFF7E4BF10BDFBF7E3B90000FF
:10C8500008B580B10A4B0B480B49C01AC008000448
:10C8600040F00300FFF760FA04F02CF838B1BDE89F
:10C870000840FBF7CFB9BDE80840FFF7C9BF08BDC6
:10C8800088940300B894030000A1030080B54FF41E
:10C890008041B6B00020FFF78BF808B1FBF7BAF97A
:10C8A000FEF7BAFFFBF774FA08B1FBF7B3F9B54A24
:10C8B000B5480121FBF79EFA08B1FBF7ABF9B34A83
:10C8C000B3480121FBF796FA08B1FBF7A3F9B14A87
:10C8D000B1480121FBF78EFA08B1FBF79BF9AF4A8B
:10C8E000AF480121FBF786FA08B1FBF793F9AD4990
:10C8F0000320FAF711FF08B1FBF78CF90BA9002010
:10C90000FAF7F6FF08B1FBF785F99DF82C40A51E54
:10C910006C426C41FDF74EFB08B1FBF77BF905F06B
:10C9200009FF08B1FBF776F900230BA901200B934F
:10C9300005F0D2FF08B1FBF76DF90BA806F08AF8F5
:10C9400008B1FBF767F9112397498DF81C300A22CB
:10C9500007A8FFF78FFD08B1FBF75CF940F2413003
:10C96000FFF784FD08B1FBF755F90023ADF830302F
:10C970004FF4A073ADF82C304FF40273ADF82E30A5
:10C980000BA84FF4C873ADF83230FFF771FD08B152
:10C99000FBF740F98549864802F05EFE08B1FBF7D7
:10C9A00039F90021AC220BA806F0FDF902238DF81D
:10C9B0002C3040F20163ADF82E300323ADF83C304B
:10C9C0007C4B109301234FF496708DF8A83044F2FD
:10C9D0005063CDE92D030BA9774B7848349301F0D0
:10C9E00047F908B1FBF716F97448012101F03DF948
:10C9F000734B7448029302A903F0C6F808B1FBF721
:10CA000009F903230021102203A88DF8073006F04E
:10CA1000CAF901238DF810300DF1070305936A4818
:10CA200040F2011303A9ADF8183005F062FD08B11A
:10CA3000FBF7F0F80023CDE90733099301238DF8C4
:10CA4000203003F10133623360480A9307A905F0EF
:10CA500001FB08B1FBF7DEF8402200210BA806F02D
:10CA6000A2F90BA85A4901F0BAFD01230BA88DF8D1
:10CA7000683005F0F3FB08B1FBF7CCF85549564890
:10CA8000512301266427C1E900378E600E73FDF73C
:10CA9000A9FB524952488C224FF49673C1E90023F6
:10CAA00000250A238B600D73FDF79CFB4D494E4812
:10CAB0000F604FF4FA73C1E901360D73FDF792FB75
:10CAC000294614220BA806F06EF94FF4F0234FF418
:10CAD000A031CDE90C1303238DF838303A4B9B89F4
