:020000022000DC
:10700000000004205D730200457302004773020014
:10701000497302004B7302004D7302000000000030
:107020000000000000000000000000004F7302009C
:1070300051730200000000005373020055730200F8
:1070400019FF020057730200C1FE050057730200CA
:1070500057730200577302003D020300577302008A
:1070600057730200577302005773020057730200F0
:1070700057730200577302005773020057730200E0
:10708000577302003D8802005773020057730200D5
:107090005773020057730200455B0300B1E402001E
:1070A00057730200577302005773020057730200B0
:1070B0005773020057730200000000000000000038
:1070C0005773020057730200577302005773020090
:1070D000CD980600577302005773020057730200E1
:1070E000577302005773020057730200000000003C
:1070F00000000000577302000000000057730200F8
:10710000000000000000000000000000000000007F
:10711000000000000000000000000000000000006F
:10712000000000000000000000000000000000005F
:10713000000000000000000000000000000000004F
:10714000000000000000000000000000000000003F
:10715000000000000000000000000000000000002F
:10716000000000000000000000000000000000001F
:10717000000000000000000000000000000000000F
:1071800000000000000000000000000000000000FF
:1071900000000000000000000000000000000000EF
:1071A00000000000000000000000000000000000DF
:1071B00000000000000000000000000000000000CF
:1071C00000000000000000000000000000000000BF
:1071D00000000000000000000000000000000000AF
:1071E000000000000000000000000000000000009F
:1071F000000000000000000000000000000000008F
:10720000314932480A1A02D0072291438D4630494B
:1072100030480A1A06D00722914381F309880222D6
:1072200082F314882C482D492D4A00F03CF82D4853
:107230002D492E4A00F037F82D482E492E4A00F0ED
:1072400032F82E482E492F4A00F02DF82E482F49AB
:107250002F4A00F028F82F482F49304A00F023F831
:107260002F483049304A00F01EF83048304900229B
:1072700000F024F82F483049002200F01FF82F4A70
:1072800090471F481F49884205D00268043003B464
:10729000904703BCF7E700208646EC46002000211B
:1072A000274A9047FEE7884207D0521A05D0037854
:1072B00001300B700131013AF9D17047884202D098
:1072C00002700130FAE770470000042000E003205C
:1072D0000000042000000420289308001C2B00203C
:1072E000BC2C0020B8730200B8730200DCD9070080
:1072F000289308001C2B00201C2B002074DB0700A7
:1073000074DB070074DB070074DB070074DB070025
:1073100074DB070074DB070074DB070028930800A8
:10732000C8940800BC2C0020BC2C0020BC2C0020E1
:1073300036820120388201203C82012085730200C0
:1073400061090300FEE7FEE7FEE7FEE7FEE7FEE772
:10735000FEE7FEE7FEE7FEE700F002B8FFF7FCBF3E
:107360000F484FF00701884385460E4880470E4876
:10737000016841F470010160BFF34F8FBFF36F8F5D
:10738000FFF73EBF09480A490A4A884207D0521A05
:1073900005D0037801300B700131013AF9D1704703
:1073A000000004207DA7020088ED00E060DB0700FC
:0873B000082B00201C2B00201B
:1073B8000048704730820120FEE7704707B5044B4C
:1073C8000093044A402300F032F803B05DF804FB50
:1073D800E1730200BD2C00202DE9F84388461446CD
:1073E800B2B10F4B0F4E0325002743F00109224687
:1073F80008EB0701002009F067FE0744241A48B982
:1074080033782BB14FF47A40C847013D02D135702B
:10741800BDE8F88301233370002CE8D1F8E700BFFA
:1074280080DB0700BC2C0020704709F09FBEF0B538
:1074380095B01D46164608460C4603F0CBF81A9B35
:107448000D93CDE9086500252B46082205A920469D
:107458000A958DF82C500C9503F0D8F8079B0293E9
:10746800069B03939DF814308DF8115003F0030226
:10747800012A1DD1BDF81420059DC3F3C203C2F330
:1074880083168DF81030B20008230EA9204603F0A9
:10749800BDF8C5F3952508AB0093324602AB0EA99B
:1074A800284600F075FB204603F098F815B0F0BDAB
:1074B800022AF8D1BDF81650C3F3C203C5F38915E3
:1074C8008DF810300827082D2E4628BF08263B4681
:1074D80032460EA9204603F099F8AD1B08AB02AA64
:1074E80031460EA8374400F0B7FB002DEBD1DAE7A0
:1074F80008B5FFF79AFF0448042100F0B3FA034BDC
:1075080001225A7108BD00BF50DB07001C2B002068
:10751800037813F0040216D003F00303012B03D001
:10752800022B09D0012070470A6800880232C0F394
:10753800831002440A60F5E70B684288023303EBC4
:1075480092130B60EEE71046704700002DE9F04FEC
:10755800DFF830A187B00F4600230446861C0DF1E2
:10756800070015468DF8073000F0F4FFDAF8001030
:107578003960DAE90132134401335B1A0AF21C4715
:107588000AF583690AF21448B3421CD30020002D7F
:1075980073D004F00F039B0143F0050363F30F005E
:1075A800DAF80020DAF808301340033332444AF896
:1075B80023009DF80700CAF8002000F0EFFF012023
:1075C80007B0BDE8F08F0121384602F06FFA48464F
:1075D80002F087FA404602F084FADAF80400DAF892
:1075E80008B0029000EA0B0003300AEB800002A901
:1075F800FFF78EFF029B50BB0BEA03020AEB8202E5
:1076080003F1020CD2680392013303EA0B0B0AEB75
:107618008B0B02F00302012ADBF80C10CDF808C02E
:1076280023D0022A16D08346404602F05DFA10B1F4
:10763800029BCAF804305946384602F037FADAE9AC
:1076480001231344DAF8002001339B1A9CE70BEA64
:107658000300C9E7BDF80E30C3F3891303334FEABB
:10766800114B0CEB93030293DEE7BDF80C30C3F328
:1076780083134FEA114B6344F5E7A40544F0060071
:107688008EE700BFD02D00200B4B0C48FF2210B511
:107698009A600022C3F81824C3E90022C3F814240E
:1076A80083F8202402F04FFF044610B9044802F082
:1076B800B7FF204610BD00BFD02D002074DA0700A8
:1076C800BCDB070030B50A4C71B10A4A0A49121BE3
:1076D800D20800239A4201D1002030BD31F823504E
:1076E800854202D00133F5E7034654F83300F4E746
:1076F80088DA070050DB07001C2B0020094B0139F2
:1077080003EBC000032909D8DFE801F00A020406E8
:10771800042070470079704740797047002070470F
:107728000220704788DA0700034BD3E90030C31AF8
:1077380058425841704700BFD02D00202DE9F04332
:1077480087B0FFF7F1FF0646002840F0FE80804C26
:10775800C4F81804BFF34F8F6368A56802932B40E1
:10776800033304EB830002A9FFF7D2FE029B18B192
:10777800D4F81824002A62D005EA0302991C0133C0
:1077880004EB82022B4004EB8303D268DB6804938A
:1077980002F00303022B0392029163D1BDF80E306D
:1077A8006C48C3F38917502FB84628BF4FF05008CC
:1077B80008F1080168F38F13C1F30901ADF80E3021
:1077C80002F0D9FE0646002800F0AA8002F002FF67
:1077D8000023082203A9304602F00EFF029925EA89
:1077E80001020132B8EB820F4FEA820333D95FFA04
:1077F80088F863B32940DDB2A8EB050803315FFAC6
:1078080088F9A846544D04EB8101082342463046C6
:1078180002F0F2FE3DB108F10803DBB24A46294600
:10782800304602F0E9FE029B033703EB9707029705
:10783800D4F81834002B4BD1D4F810545BE02268EC
:1078480093428CD36260304607B0BDE8F08342496A
:107858001D469946D9E7294003310823424604EBDF
:107868008101DDE7012B5BD1BDF80C303948C3F34A
:107878008311062928BF062161F38913023101F01B
:107888000F018900ADF80C3002F075FE064600289D
:1078980046D002F09FFE0023082203A9304602F0DA
:1078A800ABFE0027BDF80C20C2F38312BB00974241
:1078B80003F10803BCD202994A1C29400331029201
:1078C80004EB81010422304602F096FE0137E9E715
:1078D800304602F083FEFFF727FF80F00100C6B2B2
:1078E800B1E7EB685B7923B12B6831461B68284602
:1078F8009847EB681D68002DF3D1304602F06EFE04
:107908000DF107008DF8075000F024FED4F8183464
:107918000BB9029B63609DF8070000F03FFEDAE7B1
:10792800D4F8104454B90D4B0D480E49C01AC0087C
:10793800000440F0020000F063F8CCE7236820461A
:107948009B689847E3681C68ECE700267BE700BF64
:10795800D02D002074DA0700DC2D002088DA07001B
:1079680098DA0700A4DB07002DE9F74F224E0446FA
:107978000F46924601A901221846D6F808909B4660
:10798800FFF7E4FD20B3019D4FF00008AA1CD8457D
:1079980008EB020126D11948002102F040F880F3D3
:1079A8001000000440EA1440E4006B1C04F03804A2
:1079B80003EA090305EA090544F0010406EB830319
:1079C800033544EA881444EA8724D86046F82540F9
:1079D80096F820341BB1FFF7B1FE0028FBD103B0A5
:1079E800BDE8F08F09EA010106EB81015AF8283059
:1079F800CB6008F10108CAE7D02D0020EC31002047
:107A080000231A46FFF7B0BF07B50123019201AA68
:107A1800FFF7AAFF03B05DF804FB07B5CDE9002323
:107A280002236A46FFF7A0FF03B05DF804FB1FB509
:107A3800CDE90123069B039301AA0323FFF794FFD3
:107A480005B05DF804FB1FB5CDE90023069B029342
:107A5800079B03936A460423FFF786FF05B05DF88A
:107A680004FB000030B50F4CD4F810240346002066
:107A7800114631B9D96808714AB9C4F810340A6096
:107A880030BDC9680D79854206D00968F1E7D2682A
:107A980014680C601360F3E701300A28E8D14FF04E
:107AA800FF30EDE7D02D002038B5084B0125D3F87D
:107AB800104483F8205404B938BDE3685D71236825
:107AC80020465B689847E3681C68F4E7D02D0020DF
:107AD80030B5C38885B004460D4633B1144A0092C8
:107AE8001449154A284602F062F8217A05291DD062
:107AF800637A4BB1A088FFF701FE104B104953F889
:107B08002020284602F053F8227A0E4BA08853F81A
:107B1800222003920021FFF7D5FD039A0A49034664
:107B2800284605B0BDE8304002F041B805B030BD88
:107B3800E8DB0700D0DB0700C8DB07004CDC0700E8
:107B48000715080070DC0700EDDB070007B50346E2
:107B58000846197A052911D05B7A2BB1094A0A49D6
:107B6800019002F024F801980849019002F01FF8EA
:107B7800019803B05DF804EB02F00EB8002AF8D0C3
:107B8800F2E700BFE8DB070007150800EF28080048
:107B98002DE9F04385B01F460C9D002395F80C9005
:107BA8002B7306460C46904629463846FFF790FF49
:107BB800B8F1060F09D8DFE808F00412181F2833B7
:107BC80040003146284601F0F2FF00222946384697
:107BD800FFF7BCFF85F80C9005B0BDE8F08322687C
:107BE8003146284601F0E3FFEFE7D4E900233146A8
:107BF800284601F0DCFFE8E7A36800933146D4E9A2
:107C08000023284601F0D3FFDFE7E3680193A36868
:107C180000933146D4E90023284601F0C8FFD4E791
:107C280023690293E3680193A36800933146D4E97A
:107C38000023284601F0BBFFC7E763690393236964
:107C48000293E3680193A36800933146D4E90023C3
:107C5800284601F0ACFFB8E708292DE9F74F804620
:107C68000E4617461C463DD800251B7B257321462A
:107C780010460193FFF72CFFDFF88CA0DFF88CB0DB
:107C8800AE4232D918F805205946204601F08FFF38
:107C98000135082DF4D11B49DFF874A0DFF874B062
:107CA800204601F084FF4FF000094E4524D918F80A
:107CB80009507E2D1ED828460EF022FF002814BF3A
:107CC8002A462E225946204601F071FF09F1010982
:107CD800B9F1080FE9D1012221463846FFF736FFEE
:107CE800019B237303B0BDE8F08F5146204601F095
:107CF8005EFFCDE72E22E5E75146204601F057FF0B
:107D0800E4E700BF01DC0700FDDB0700F7DB070045
:107D1800FFDB0700C5270800C30710B507D4F02309
:107D2800054A4008145C23401943115410BD090149
:107D3800C9B20F23F4E700BFC032002030B5094BA9
:107D48001C78094B196800239C4202DC002210466B
:107D580030BD11F83350854201EBC302F7D001332F
:107D6800F2E700BF8C320020E032002013B5044651
:107D78000191FFF7E3FF38B143682BB10199204621
:107D880002B0BDE81040184702B010BD034B0448CC
:107D980019680022490800F0F0BA00BF90320020AC
:107DA8009832002010B5C0B2FFF7C8FF044600782B
:107DB80008F032FA63785A1E53425341834208D17D
:107DC800044BD3E90023134303D1BDE81040FFF768
:107DD800DDBF10BDB832002037B54308374AD35C41
:107DE800C2074CBF1B0903F00F0304460D46042BC2
:107DF80025D8DFE803F003262F3C4000F9B1012124
:107E0800FFF78AFF00230DF107008DF8073000F017
:107E1800A1FB0120A4F12003C4F12001284A20FA83
:107E280001F100FA03F30B43A040D2E900412043DB
:107E38000B43C2E900039DF8070000F0AFFB03B055
:107E480030BD002918BF0221204603B0BDE83040EC
:107E5800FFF762BF49B10321FFF75EFF012120460A
:107E680003B0BDE83040FFF781BF0121ECE70029EE
:107E7800E5D10421E8E709B10321E5E7FFF74CFF65
:107E880029462046FFF772FF0DF107008DF80750CD
:107E980000F060FB0120A4F12003C4F12001084A8E
:107EA80020FA01F100FA03F30B43A040D2E90041A4
:107EB80024EA000021EA0303BBE700BFC032002028
:107EC800B83200202DE9F041124E134F00243378C8
:107ED800A34208DC114BD3E90023134318D0BDE8B3
:107EE800F041FFF753BF3D6805EBC40815F83400AF
:107EF80008F092F998F801305A1E53425341181A63
:107F08004142414115F83400FFF766FF0134DEE7CE
:107F1800BDE8F0818C320020E0320020B832002029
:107F2800092AF7B505460C4616463ED908F09CF8CE
:107F3800E8B11F4B1F481D601F4B204F1C70204B82
:107F4800002120221E600FF05EF81E4B0020002149
:107F5800C3E90001013CE4B20326FF2C0DD11A4A03
:107F68001A48002103B0BDE8F04000F0FBB908F062
:107F780049F80028DDD003B0F0BD9DF8063015F8AB
:107F880034008DF8046005EBC40223F007038DF874
:107F9800063001A993788DF805303A4608F06EF856
:107FA800013CE4B20028D8D0E5E70720E3E700BFAA
:107FB800E0320020C03200208C320020AD7D02006B
:107FC80090320020B8320020CD7E020090DC0700FD
:107FD80070B5084D084E00242B789C4201D3002030
:107FE80070BD3368012113F8340008F0C7F8013474
:107FF800F2E700BF8C320020E03200201FB50021DC
:10800800039001AA44F20100CDE9011100F004F83F
:1080180005B05DF804FB000038B572B6FFF744FD03
:10802800FFF78CFB0028FBD1104B114C114D124966
:10803800E41AE408240444F00100FFF7E1FCD5F851
:10804800F030DB0700D500BE0C4944F00200FFF712
:10805800D7FCBFF34F8FEA68094B02F4E062134381
:10806800EB60BFF34F8F00BFFDE700BF88DA070062
:1080780098DA070000ED00E094DC0700A0DC0700B8
:108088000400FA054B1C30B5DB00044612F003006F
:108098009BB20DD1074D2A601A44074B1A60074B53
:1080A8001870074B1870074B1C80074B198030BDA0
:1080B8000720FCE7EC320020E8320020E432002000
:1080C800F4320020F0320020F23200202DE9F7438C
:1080D800DFF8BC80B8F800308B4206460D461746DC
:1080E80047D300240DF107008DF8074000F032FA5D
:1080F800224B234A23481B78008892F800C0844505
:108108005FFA8CF138BF4C1CDBB238BFE4B2A34233
:1081180028D014781178CBB2884286BF0133DBB2FD
:10812800002313709DF8070000F038FA4FF6FF732C
:108138009C4220D0144B1B6843F8347003EBC409ED
:108148009EB195B1114BB8F800001B682A4631461C
:1081580004FB00300EF02EFFA9F80450002003B0F5
:10816800BDE8F0834FF6FF74DCE70020A9F80400AF
:10817800F5E70920F3E70420F1E700BFF432002017
:10818800E4320020F2320020EC320020E8320020F5
:10819800F032002070B5104C104D22782B789A429E
:1081A80000D170BD0E480F4A2378126806880E4821
:1081B80002EBC301006852F83320898803FB0600EC
:1081C80090470A4922780988D3B2914286BF013381
:1081D800DBB200232370E0E7F4320020E432002011
:1081E800F0320020EC320020E8320020F232002089
:1081F80010B5D0E90243D1E90202A04272EB0303B1
:108208002CBF0120002010BDD0E900301847000025
:1082180008B50A4800F0F9FA094AD2E90031C0184D
:10822800084BD3E9002341F10001904271EB0303AD
:1082380003D210F1807041F1000108BD242B002009
:10824800003300207833002037B505460C460A482D
:1082580001A901F018FB60B10570446001A9064846
:1082680001F03BFB18B1054800F0D4FA002003B038
:1082780030BD0420FBE700BF64330020242B00201E
:108288001C4B37B51D78044675B380B3037F03F0E4
:10829800FF054BB3FFF7BCFFD4E90223904271EB13
:1082A80003031BD3236903B9237763690093124A35
:1082B800A369019308216846FFF708FF08B1FFF793
:1082C8009DFE22697AB1237F03F0FF0563B1D4E9EB
:1082D80002319B1841F10001C4E9023107482146E7
:1082E80002F0BDF900E01546284603B030BD05464A
:1082F800FAE700BF0833002011820200BCDC070047
:1083080013B5114B114918680190082310485822D9
:1083180001F084FA044698B90E4A0F4801A900F002
:1083280061F9044660B90C48012100F051FA0123B3
:108338000A4A0948194600F0B3F9094B01221A7094
:10834800204602B010BD00BFB8DC07000C33002087
:1083580064330020CD830200242B0020FFFF7F0020
:10836800083300203AB103685A614A1E514251410C
:108378001961002070470720704738B5037F04460D
:108388000D4683B98261FFF743FF2369281841F13D
:108398000001C4E9020103B1256121460020BDE8BE
:1083A8003840FFF751BF002038BD0023014603774E
:1083B8000120FFF749BF0000014800F026BA00BFBE
:1083C800242B00202DE9F347064600F009FA40B1B6
:1083D800584AD2E9003113F1807341F10001C2E932
:1083E80000310021304600F00AFA38B1524C2368B7
:1083F80023B12068FFF744FF0023236001213046A2
:1084080000F0FDF920B1FFF703FF4C4BC3E9000171
:108418004B48494D4B4C4C4F01A901F06EFA0028CE
:1084280042D1DFF82081444CDFF82491404602F025
:108438002CF92368002872D07BB12368D0E9025256
:10844800D3E902138D4272EB03032AD223681B7F00
:108458001BB12168404602F002F9404602F00FF9CC
:10846800D0E9027A0546FFF7D3FE381A6AEB010A0B
:1084780001287AF1000345DBB0F5350F40D3FFF74B
:108488009BFF324A02444FF496030021484600F00D
:1084980027F900283ED1236813B9304600F0F8F8D0
:1084A800256002B0BDE8F0870378012B1DD0022BB0
:1084B80009D14FF00008204602F0E1F8002836D034
:1084C80080F81C80F7E73BB941680B7F23B901238B
:1084D8000B77204602F0C3F801A9194801F038FAD1
:1084E80001A9174801F009FA99E741682B689942F0
:1084F80002D100232B60EFE7204602F0C9F8EBE732
:10850800AA68C0E70021484600F06FF92846FFF73F
:10851800B7FE01E00D28F9D00023236086E7002B81
:10852800BFD1304602B0BDE8F04700F0B5B801232E
:108538003B70D1E7003300208033002078330020DF
:1085480064330020BCDC070008330020FFFFB400C0
:10855800242B002070B5EFF3108672B60C4A94688D
:1085680001239CB993600B4B0B4DD3F88010294025
:108578001160C3F88050D3F8841051604FF0FF3277
:10858800C3F88420047006B962B670BD0370FAE7B8
:108598008433002000E100E0FC06FFBD084B9A6828
:1085A80010B55AB150B9EFF3108172B6054A1C687C
:1085B80014605C685460986001B962B610BD00BF71
:1085C8008433002000E100E0435882B03BB100232F
:1085D800435043580193019B012002B0704718464D
:1085E800FBE70000F8B5224B4579224E43F82520D9
:1085F800214A224B9B1A06EBC502DB0812791B04A1
:10860800EF0032B143F002001D49FFF7F9F90820E5
:10861800F8BD02680C88C2F8084590F90440027950
:108628008978002CADBF04F1604CDFF85CC002F023
:108638000F0E0CF5614C4FEA4111C9B2B4BF0CF8EA
:108648000E108CF8001364090121DFF840C002F015
:108658001F0201FA02F24CF82420F21946F83500FC
:10866800117143F003000749FFF7CAF90020CFE76B
:10867800983300209033002088DA0700A8DA070032
:10868800C8DC0700EADC070014ED00E000E100E0C8
:10869800036801221A607047036801225A60704714
:1086A80073B501F15005AD000068ADB24FF48034E8
:1086B8008C400026C0F80843C0F84843465101F5ED
:1086C800A8714559019522F07F42019D40F821206B
:1086D800C0F844430BB1C0F8044302B070BD0000B9
:1086E8002DE9F74F0D4622F07F4402684FF480379A
:1086F80005F150068F408046B60002EB8500C2F8AF
:108708004873B6B2C2F80873D2F8041599464FF008
:10871800000BD0F84035C0F8401542F806B05B1A97
:108728009259009223F07F43012B009A4FEA850A61
:108738000CD1264B4FF4806043F001039847D8F8DA
:10874800003043F806B09B590193019BD8F80010FC
:10875800D1F80465C1F84473A31B23F07F43012BB0
:108768001CD11A4B05F5A875013443F0010341F8F3
:1087780025404FF480609847D8F80030D3F8043586
:108788009E4209D1D8F800300020C3F84473C3F8DA
:10879800047303B0BDE8F08F0D20FAE78A44C9F1ED
:1087A800FF13CAF84045D1F80405221A013A22F00D
:1087B8007F4203F57F439342EED3002AE2D101348E
:1087C800CAF84045D1F804359842DAE700DD0700D9
:1087D80003680222C3F8442309B1C3F8042370478D
:1087E80000684FF48271FFF7EFBE4FF4803303FA4D
:1087F80001F10368C3F84813C3F8081370475031F0
:108808008900006889B2FFF7DFBE0368D3F8040562
:108818007047000090F9043001215A0903F01F0342
:1088280001FA03F34032024941F82230704700BF91
:1088380000E100E0024B034A1B681068184700BFBC
:10884800983300209033002070B5064D064600246A
:1088580055F8043B0BB1304698470134042CF7D146
:1088680070BD00BFA83300204388033300EB8303A7
:1088780099420BD382884FF6FF739A4208D0038837
:1088880033B18068431C58425841704702207047F2
:10889800012070470B4A0C495388142000FB031130
:1088A800CB6833B90420496810700122074801F0E9
:1088B80013BC07490523137002238B800122096822
:1088C8000023F3E7C0330020D8330020082B002012
:1088D8008C34002007B5002305490093054A096830
:1088E8000548082301F05EFB03B05DF804FB00BFF8
:1088F8008C34002014DD0700082B002007B5002366
:1089080001460093034A0448082301F04BFB03B0D7
:108918005DF804FB0CDD0700082B002013B50023CD
:108928000C4600930146084A0848042301F03AFB24
:1089380038B9074B142101FB043101230B7402B031
:1089480010BD48F20D60FAE708DD0700082B00208B
:10895800D833002037B50A480A4B42689C88196802
:1089680053880325033305709BB2002000909B00B9
:1089780001EB8401044801F015FB03B030BD00BFD2
:10898800C03300208C340020082B002010B501468D
:10899800044800F078FF1C22044600210EF033FB47
:1089A800204610BD7834002068B10268084B9A420E
:1089B80009D14068074B984207D00133984214BF49
:1089C800032001207047032070470020704700BF34
:1089D800DEC0ADDEFE011EF1033083B240F2FE328E
:1089E800934230B50FD80B4C207878B92289658925
:1089F8002A441A4492B2B2F5806F07D80880628977
:108A08001344638130BD48F20860FBE748F2066012
:108A1800F8E700BFD83300202DE9F0410D460223C6
:108A2800154F2B80164600F5805100F108044FF0D1
:108A380001088C420ED2236801330BD02046FFF781
:108A480013FF48B10EB186F80080022809D14FF40F
:108A580080632B80BDE8F081A3683A68934200D90F
:108A68003B602B886288033313442B80638803336D
:108A780004EB8304DDE700BFD033002038B5144B86
:108A880014220D4602FB00302B68446804F580511F
:108A9800A3B15C88033403EB84048C4215D22368A9
:108AA800013312D02046FFF7DFFE012808D0022844
:108AB8000BD00028F1D12C60012038BD0834ECE738
:108AC8006388033304EB8304E7E70020F5E700BF7E
:108AD800D8330020426873B504460D461AB31E4BBE
:108AE800D9688A421FD31B699A421CD812F0030323
:108AF80019D11A4900890989884214D120689168D6
:108B0800884210D1164949688A4209D901F580512D
:108B18008A4205D22B80B3FA83F0400902B070BDB7
:108B280048F20963F7E700262E800196288801A9F4
:108B3800FFF7A4FF30B92B8801339BB22B80002BA1
:108B4800F3D0EBE7019B226899689142EED163600C
:108B5800024B1B892381E1E7082B0020C03300204A
:108B6800D83300202DE9F0411C461B4B1B780646E4
:108B78000F4615464BB35AB354B3DFF86480A38845
:108B880013B148F209601EE098F800302BB9A088AC
:108B98002146FFF773FF20B92060A3880133A38023
:108BA800EDE723681EB1998832889142EFD11FB151
:108BB80019883A889142EAD19A68C5E90023074B97
:108BC8001B892B810020BDE8F08148F20160FAE79B
:108BD80048F20460F7E700BFB8330020C033002034
:108BE800D833002008B5074B5888191DFFF746FFF2
:108BF80018B1BDE80840FFF7ADBEBDE80840FFF773
:108C080049BE00BFC03300202DE9F0479B4FDFF875
:108C1800908288B006463B6823B99948414600F0DF
:108C28006CFE38603D6829784B1E052B07D8DFE8B5
:108C380013F020006B006B00FD00FD00530148F2AB
:108C48000E641422002103A80EF0DDF941F61D532D
:108C58009C4208BF00243B6804941A78023A042A0C
:108C680000F2D681DFE812F0B701C301E501ED019A
:108C7800F4012EB1834B00225A604FF40644E0E71A
:108C88002B79032B0AD8DFE803F0020F1B260123F8
:108C98002B71FFF71FFE002800F0C280794B0022DD
:108CA8005A6048F20D64CCE7774B1A78022A4FF0E5
:108CB800000240F0D18158681A70FFF71FFEEAE7FA
:108CC80072497348002302222B718A8009680122A5
:108CD80001F002FADFE76D4C00262E712068FFF7DD
:108CE8000DFE6C4BDFF8A0C15B8825681422534346
:108CF8000CEB03020CF8036051685560A5881581D8
:108D080002222160A280C6E7B5F814A0AA7DDFF888
:108D18007891AEB1022AEB8806D9142101FB0A9199
:108D2800DA1C088902440A81142202FB0A99C3F555
:108D38007F43B9F80A20FD331344A9F80A309CE7A9
:108D4800142303FB0A9318895C6804EB8004062A41
:108D580069D8DFE802F0274E36441D5A040041F670
:108D68001D54AA7DEB88022A06D9142101FB0A9119
:108D7800DA1C088902440A81142202FB0A99C3F505
:108D88007F43B9F80A20FD331344A9F80A3058E79D
:108D98004148424900234360AB690360FFF79AFEEC
:108DA80000285AD00223AB75002300930423EA1845
:108DB8002146374801F0F6F8002831D048F20D6412
:108DC800CFE72B69002B14BF03230123AB750023C6
:108DD800009305F10C02042304F10801E9E70123DB
:108DE800AB750022EB8800922A699B0004F10C0104
:108DF800DFE703290CBF05230623AB750023009387
:108E0800042305F10802E118D3E70623AB75234BC9
:108E18001988214B5868FFF781FD04460028A0D126
:108E280008B0BDE8F08748F20E649AE7002E7FF498
:108E380024AF2B79012B35D0022B47D0002B7FF4A0
:108E4800FEAE02232B710DF10A01EB68039303A810
:108E5800CDE90466FFF73EFE10B948F20964F0E672
:108E68000498BDF80A108388EB8003882B81FFF7EC
:108E780055FD0446002C7FF4E4AED1E7D43300203E
:108E880078340020B8330020D83300208C340020F8
:108E9800082B0020C03300209C3300209834002089
:108EA800CC330020DFF8E09103AA4B463146A81DD9
:108EB800FFF758FE044660B9B9F804100498FFF7A4
:108EC8002DFD044648F209639C42D3D141F61D5456
:108ED800B7E6C9E90066F5E7002E7FF4CEAE644B2D
:108EE800DA7ABAB1DE721A78013A062A3FF6A7AEE4
:108EF80001A151F822F000BF6B900200B18F02006F
:108F0800B78F0200BD8F0200478C0200C38F02009A
:108F1800D58F02001A78072AE5D801A151F822F066
:108F2800498F0200EF8E0200EF8E0200658F02006B
:108F3800798F0200998F0200998F0200618F0200D9
:108F48001A8901321A8100225A80DA72494A127843
:108F5800B2FA82F252099A72012207E04649586829
:108F68008A884088033202448A8002221A70BAE74B
:108F78005C88404A4049142505FB04220868546867
:108F880050608888108102228A800C600622EDE7F2
:108F98000722EBE7374900229A72CA68002A63D190
:108FA800097C002960D05A80FFF71CFE61E7FFF7B3
:108FB800D1FC5EE7FFF76EFC5BE75A882D4B142166
:108FC80001FB02335868FFF799FC52E700225A6008
:108FD800FFF780FC4DE701228DF80C201A89ADF8C7
:108FE80018209A88DB68ADF81A20059310E0022251
:108FF8008DF80C201A89ADF818209A88ADF81A2037
:10900800DA689B7D05929A1F534253418DF81C30B4
:1090180003A8FFF719FC0026414618483E6000F0F7
:1090280097FC1748012100F04DFD00287FF4F3ADAF
:10903800F6E603228DF80C20DA88ADF818201A8994
:10904800D0E704228DF80C20DB88ADF81830DFE774
:1090580005238DF80C30DBE70A4B012119705A60A3
:1090680034E79A7A002A95D100221A705A80F6E7D6
:10907800C0330020D83300208C34002078340020FE
:1090880088340020B83300209C3400204068FFF763
:10909800BBBD000008B50548012100F0FBFC18B96C
:1090A800BDE80840FFF7B0BD08BD00BF8834002008
:1090B8002DE9F3419846374B1B7806460D46002BA1
:1090C8005CD000295DD009884FF6FF7399425BD0C8
:1090D8006B88002B58D06B689B0758D14AB92F89E9
:1090E8000DF102013846FFF777FC30B102B0BDE858
:1090F800F08113885788ADF8023001A8FFF746FCC5
:10910800044660B9BDF80220234B142101FB023349
:1091180058890338C01B588148F20760E6E780F891
:10912800008000238375BDF8023083826B68036179
:1091380001211A4800F0BAFC2B882381B8F1030FEB
:109148006B88A38004BF0423A3754FF0000508BFF4
:109158003368E06008BFA3611148E780658101A911
:1091680000F0BBFB36B1E36833600E4B75601B89BA
:10917800B5723381FFF78EFF0020B7E748F2016030
:10918800B4E748F20460B1E748F20360AEE748F29A
:109198000260ABE7B8330020D8330020D03300207A
:1091A80078340020C033002008B503460748026819
:1091B800042A08D00168064A42F82130012100F04B
:1091C80075FC002008BD48F20B60FBE794340020D2
:1091D800A83300202DE9F04F89B01422002103A8FC
:1091E8000DF011FF7B4B1B7803F0FF0B3BB103A87D
:1091F800FFF72AFB0027384609B0BDE8F08F754B0A
:10920800181D00F06BFC0028F4D1DBF8F83FDFF8FC
:10921800E4A15C1C08BF4FF010234FF0805208BF38
:109228005B6911695269581C08BF02FB01F3A3F579
:109238008042CAF81020A3F5C0436749CAF80C3029
:109248000022504600F07CFE07460028D3D11C239C
:1092580062496348DFF8A0918C2200F0DFFA02230C
:10926800B8463D4601933C46DAF80C604644304621
:10927800FFF79AFB012862D0032817D000283DD1B8
:1092880058494FF0140C0CFB04FC01EB0C0201F8DC
:109298000C0056600CF110020CF1080C0A44304620
:1092A8006144FFF7B9FB45F0020545E03268531CFD
:1092B80002D04D4B9A4234D1321D06F580511068C8
:1092C80001302ED104329142F9D1D9F800203AB9AF
:1092D8000222C9F80060A9F804204FF0010B0BE046
:1092E800142262433F4B0220991898543F4A4E601B
:1092F800548001340881A4B245F0010508F580586E
:10930800B8F5005FB0D1019B012B98BF0025EDB2E5
:10931800022D03D0062D32D0002D39D148F20A672C
:1093280069E7019B2F495A1E93B214226243881899
:1093380001934660032088540134A4B2DEE7BBF1F0
:10934800000F0DD0274B142262439918022098541D
:10935800D9F800204A60254A088154800134A4B213
:1093680000222349C9F800603046FFF755FBB9F8D9
:109378000420022A0CBF042208221543BEE7154A1E
:109388000123137003A800235360FFF75DFA32E747
:1093980002A8FFF7FBFAC8B10123013D03700A2DAB
:1093A80009D8DFE805F006080608070807080F11BE
:1093B8000F000023037102A9094800F08EFAFFF795
:1093C80069FE18E70323F5E70223F3E748F2076786
:1093D80011E700BFB833002084DF0700EC3300201A
:1093E80078340020D8330020DEC0ADDEC033002042
:1093F80090340020082B00208C34002073B50D46D3
:109408000446C8B1C1B10DF10601FFF763FBB0B165
:10941800BDF806300B486668142202FB03000121E0
:109428000C3000F043FB63682E600C336B60012343
:10943800A372002002B070BD48F20460FAE748F257
:109448000960F7E7D833002013B50446A8B10DF139
:109458000601FFF73FFB98B1BDF806200B4B14211E
:1094680001FB0233DA6872B1A27A62B1DA680020CD
:10947800013ADA60A07202B010BD48F20460FAE75F
:1094880048F20960F7E748F20560F4E7D8330020AE
:1094980002230022FFF70CBE18B103230022FFF7B6
:1094A80007BE48F204607047114B1B7813B5044699
:1094B800ABB14FF6FF73984214D001A8FFF766FAD4
:1094C80098B10523037001230371C48001A90948D9
:1094D80000F003FAFFF7DEFD002002B010BD48F2ED
:1094E8000160FAE748F20360F7E748F20760F4E73B
:1094F800B8330020783400200F4B1B7807B5A3B190
:1095080001A8FFF743FA98B10623037001A90B4895
:1095180000F0E3F90A4B1A780AB10122DA72FFF770
:10952800B9FD002003B05DF804FB48F20160F9E7DB
:1095380048F20760F6E700BFB8330020783400200F
:10954800C033002007B5ADF80600ADF804100DF1E2
:10955800060001A9FFF706FB03B05DF804FB07B599
:109568001346ADF806000A4600200DF10601FFF784
:10957800F9FA03B05DF804FB07B51346ADF8060029
:109588000A460DF106000021FFF7ECFA03B05DF87A
:1095980004FB20B119B103680B600020704748F242
:1095A80004607047F8B52C4B1B780446002B4CD050
:1095B80000284DD0294E122200210DF024FD71689B
:1095C80077893589022323800846FFF7EDF93D4462
:1095D8000328ADB204BF01232380F3686581C5F574
:1095E8008065ADB26380278105B1A58101F10805C9
:1095F80001F58051A94226D92B68013323D028468A
:10960800FFF732F9012807D0022812D00028F1D13B
:10961800A3880133A38007E0E3880133E380E3896B
:109628006A8803331344E3816B88033305EB8305AE
:10963800E0E7E3884D1BE1890133E38001EBA501F5
:109648000123E1812374002001E048F20160F8BDA4
:1096580048F20460FBE700BFB8330020D83300208D
:109668004109064A012300F01F0003FA00F052F8EE
:109678002130184342F82100704700BFA43400206D
:1096880010B5002420460134FFF7EAFF592CF9D120
:10969800024B01221A70002010BD00BFB0930020B9
:1096A800314B1B782DE9F041002B50D0002851D0C8
:1096B80000294FD00C68631EB3F5306F4DD22B4B89
:1096C8002B4DDFF8B0C000229E4653F8046B55F8C6
:1096D800047BB44203D85CF82260BE4205D1592FFE
:1096E80003D80132072AF0D10022224B224C53F82A
:1096F800223054F82240214D582B31D83F2B06D91F
:109708004F2B1FD9542B34BF0422052200E002221C
:109718005F095EF8226055F8272003F01F0C22FA33
:109728000CF818F0010F0FD0012303FA0CF322EA0A
:109738000302134B45F827201C4404600E600020E8
:10974800BDE8F0810322E3E734440133D4E748F26B
:109758000810F5E748F20E10F2E748F20710EFE7B5
:1097680048F20410ECE700BFB093002060DD07006A
:1097780028DD07007CDD070044DD0700A434002055
:10978800B034002013B50024CDE9004001A9684693
:10979800FFF786FF00B10094009802B010BD13B522
:1097A8004843019001A9002468460094FFF778FF18
:1097B800014630B9DDE900020DF025FC009802B041
:1097C80010BD0094FAE70000114B1B7830B4024634
:1097D800ABB1A0B100230F4D0F4C184659198A425E
:1097E8000FD03F2810D94F2810D953288CBF0521F6
:1097F800042154F82110013059280B44EED130BC13
:10980800704730BCFFF72CBF0221F2E70321F0E7D5
:10981800B0930020B034002060DD070010B561B1BE
:10982800B2FBF3F403FB1424A4B244B9C0E9001456
:1098380084608281C381204610BD0E20FCE7092088
:10984800FAE782B050E8022FC188B2EB324F4FF0EE
:10985800000317BF92B241EA014142EA014104E024
:109868004268B2EB324F08BF012340E80212002AD7
:10987800E8D18DF807309DF80730002B0CBF112078
:10988800002002B0704737B550E8013F9DB2C48947
:1098980025448489A54228BF2D1B0489A54202BFFF
:1098A800BFF32F8F002207E0C5EA030540E8015403
:1098B800002CE9D14FF001028DF803200193019AA1
:1098C8000A609DF8031001F0FF0321B1006810FA47
:1098D80082F003B030BD1846FBE70A884B889A42ED
:1098E80009D150E8012FC2EA024240E80123002BC7
:1098F800F7D1012070470020704737B550E8023F84
:109908001FFAA3F5C488A54202BFBFF32F8F002218
:109918000DE0C48925448489A54228BF2D1BC3EACC
:10992800054540E80254002CE8D14FF001028DF8BB
:1099380003200193019A0A609DF8031001F0FF03C8
:1099480021B1006800EB124003B030BD1846FBE7B8
:109958000A884B889A4209D150E8022FC2EA22426B
:1099680040E80223002BF7D1012070470020704700
:1099780001F01F024B090121914000EB830000F028
:1099880065B84B0910B501F01F040121A14000EB97
:10999800830000F04FF8E04000F0010010BD01F036
:1099A8001F0301229A404B0900EB8300D14300F0CA
:1099B80065B84B0901F01F0150F82300C84000F0BA
:1099C800010070472DE9F0474F1E7F0980460E467B
:1099D8000137002558F8254008EB8509E44394FA37
:1099E800A4F4B4FA84F44FEA451A202C06D10135C0
:1099F800AF42EFD834462046BDE8F0875444A6422B
:109A0800F5D921464046FFF7BCFF0028F3D0D9F826
:109A18000040E44394FAA4F4B4FA84F4E5E710B5FA
:109A2800034653E8000F0A4643E8002494F0000F69
:109A3800F7D110BD10B5034653E8000F40EA010204
:109A480043E8002494F0000FF6D110BD10B503468A
:109A580053E8002F42EA010043E8000494F0000FA5
:109A6800F6D110BD10B5034653E8000F00EA010215
:109A780043E8002494F0000FF6D110BD10B503465A
:109A880053E8002F02EA010043E8000494F0000FB5
:109A9800F6D110BD10B5034653E8000F00EB0102E4
:109AA80043E8002494F0000FF6D110BD10B503462A
:109AB80053E8002F02EB010043E8000494F0000F84
:109AC800F6D110BD10B5034653E8002FA2EB0100F4
:109AD80043E8000494F0000FF6D110BD0121FFF710
:109AE800A9BF0121FFF7B2BF0021FFF7BBBF10B527
:109AF80090B1D0E9012301689B1ADBB20A60013BEF
:109B0800DBB2FF2B026802D10020107110BD116872
:109B18004C1C14600B70F2E70E20F7E737B50546CA
:109B280000240DF107008DF80740FEF713FD2A68A1
:109B38006B68116899420ED9481E106011F8013CF3
:109B4800EC68298A01FB0344AB6811791B1ADBB264
:109B5800994238BF13719DF80700FEF71FFD204694
:109B680003B030BD37B5054600230DF107000C469C
:109B78008DF80730FEF7EEFC2A681368591C11604F
:109B8800E968641A298AB4FBF1F41C709DF807008F
:109B9800FEF704FD03B030BD826810B504462AB153
:109BA80043690168006998470023A36010BD0EB49B
:109BB80003B5039921B104AB01AA019300F076F82B
:109BC80002B05DF804EB03B070470A2938B50446C3
:109BD8000D4602D10D21FFF7F8FFA3682268591C32
:109BE800A160D554D4E901329A4204D32046BDE895
:109BF8003840FFF7D1BF38BD2DE9F84F9846DDE969
:109C08000A43154682460F460A464FF00109AA4202
:109C18000FD2C14538BFC14613F0010B01D16CB951
:109C280000240126B8F1010F1BD908F1FF386E4353
:109C3800F8E709F10109B2FBF5F2E8E79B070ED551
:109C4800B8F1000F0CBF30262026A145E9D2013C0F
:109C580031465046FFF7B9FF002CF6D1E0E7202641
:109C6800F3E7B7FBF6F39D42E1D9DFF83C80B7FB99
:109C7800F6F3504618F8031006FB1377FFF7A5FF15
:109C88003346AB42B6FBF5F6F1D2BBF1000F02D07A
:109C98000CB1A14501D3BDE8F88F20215046013C05
:109CA800FFF793FFF4E700BF98DD07002DE9F74FB2
:109CB800054617468846002900F03E8118F8011B22
:109CC80049B92B7B002B00F03781284603B0BDE84B
:109CD800F04FFFF761BF252940F0B780002698F8BC
:109CE80000302D2B424608F1010823D0302B24D018
:109CF8002B2B25D000242A2B02F1010123D13B680C
:109D08001A1D1B683A601C440A4613782E2B26D16C
:109D180001324FF0000A104610F8011BA1F1300C77
:109D2800BCF1090F1DD80A2303FB0A13A3F1300A5B
:109D38000246F0E746F00106D1E746F00206CEE714
:109D480046F00406CBE711F8013CA3F130000928DE
:109D5800DBD80A2202FB0434303C0A46CBE74FF03A
:109D6800000A12F8011B01F0FB0068289046F8D0A1
:109D7800782909D86F290CD8632962D022D82529D7
:109D880063D0582900F0888098F80030002B95D1CE
:109D980097E770390829F7D801A353F821F000BFD5
:109DA8001B9F0200919D0200919D0200B19E02003E
:109DB800919D02008F9E0200919D0200919D0200DC
:109DC800A19E0200642901D06929DDD13A68D2F840
:109DD8000090111D89EAE9723960A2EBE9724FF02F
:109DE800010B092A35DCD34538BFD3462CB1B9F16C
:109DF800000F01DB720700D5013CB30702D5BAF1A9
:109E0800000F03D0F00701D44CBB0024B9F1000FB8
:109E18002DDAC9F100092D212846FFF7D6FE06F0F4
:109E28000302022A04D1BAF1000F01D11CBB00249D
:109E3800CDE9004653460A2249462846FFF7DCFE8C
:109E4800A2E73B681A1D19783A602846FFF7BDFE5D
:109E58009AE70A230BF1010BB2FBF3F2C1E7A34522
:109E6800D4D220212846013CFFF7AFFECCE771078A
:109E7800D5D52B21D0E7A345DAD230212846013C9D
:109E8800FFF7A3FED2E73968CDE900460A1D3A601C
:109E980053460A220968D0E739680A1D3A60CDE9B5
:109EA800004653461022F5E73B681A1D3A6016F043
:109EB8000106D3F8009024D1B9F1000F03D0484629
:109EC8000DF01DF90646B4421DD809F1FF3919F8FD
:109ED800011F00293FF458AF2846FFF776FEF6E742
:109EE80028460136FFF771FE19F806100029F7D148
:109EF800A642BFF449AF20212846013CFFF765FE82
:109F0800F6E70026F0E720212846013CFFF75DFE32
:109F1800D9E73B681A1D3A60302128461C68FFF7CC
:109F280054FE78212846FFF750FE00220823CDE989
:109F380000322146102280E703B0BDE8F08F00BF51
:109F480013B50B46114680B9104B1148114AC01A77
:109F58000E23C0080093104B0004104940F0010084
:109F6800FDF765FD0E2002B010BD4BB9074B084840
:109F78000B4AC01AC0080E2300930004064BECE7F6
:109F880003601B6802B0BDE81040184788DA070074
:109F9800D8DA0700A8DD070064DF0700ADDD070099
:109FA800DCDD07002DE9F743DDF8288088B93E4B52
:109FB8003E483F4AC01AC0080E243E4B0094000495
:109FC8003D4940F00100FDF732FD204603B0BDE8F1
:109FD800F0834AB9344B3548384AC01AC0080E24B1
:109FE800344B00940004EBE7D0F800E0BEF1000F1A
:109FF80009D12D4B2D48324AC01AC00808242D4BD0
:10A0080000940004DCE74BB9274B28482D4AC01AB6
:10A01800C0080924274B00940004D1E74568D5F807
:10A028000490B3FBF9F509FB15354DB11E4B1F48DC
:10A03800254AC01AC00809241E4B00940004BFE733
:10A048008D0709D0184B1948204AC01AC008102497
:10A05800184B00940004B3E712F0030F09D0124B19
:10A0680012481B4AC01AC0081024124B009400045E
:10A07800A6E7C568A9420DD34D1EEC180569AC4288
:10A0880008D8CDF82880DEF80C40A44603B0BDE817
:10A09800F0436047044B05480E4AC01AC008102414
:10A0A800044B009400048BE788DA0700D8DA07002D
:10A0B800A8DD070051DF0700ADDD07002ADE070035
:10A0C800D6DD0700E9DD070030DE07005ADE0700AD
:10A0D80072DE070095DE0700F7B580B92A4B2B48DA
:10A0E8002B4AC01AC0080E242A4B009400042A499F
:10A0F80040F00100FDF79BFC204603B0F0BDD0F80E
:10A1080000C0BCF1000F09D11F4B2048234AC01AD8
:10A11800C00808241F4B00940004E8E74AB91A4B0A
:10A128001A481F4AC01AC00809241A4B0094000490
:10A13800DDE74568D5F800E00EF1FF350D4209D09E
:10A14800114B1248174AC01AC0081024114B00942A
:10A158000004CCE7C568A9420CD34D1E0EFB02547F
:10A168000569AC4206D8DCF81040A44603B0BDE847
:10A17800F0406047044B05480B4AC01AC008102439
:10A18800044B00940004B2E788DA0700D8DA070025
:10A19800A8DD07003EDF0700ADDD0700D6DD0700BC
:10A1A800E9DD0700BCDE0700E2DE070029DF7047B3
:10A1B80028DF704770B503689E6886B004460D4670
:10A1C8006EB11422002168460CF01DFFA3680593A8
:10A1D800237901952BB1012B0DD06846B04706B005
:10A1E80070BD01238DF8003023690293E36803935F
:10A1F80063690493F1E702238DF80030E3681B03D9
:10A208000293F5E70846704700207047024B187A1A
:10A21800003818BF0120704750940020034B187A6B
:10A228000122B0FA80F05A74400970475094002017
:10A2380008B510461A460CF0BDFE002008BD000007
:10A2480008B51422002104480CF0DDFE0348FFF78E
:10A25800F8FA002008BD00BF509400204094002068
:10A2680010B5094C094B43602046FFF737FC40B94D
:10A278000BF022FC064920741C2306488C22FFF7A9
:10A28800CDFA002010BD00BF5094002078DF0700F1
:10A29800B49300204094002038B5234D234C2B7AEA
:10A2A8003BB923492348FFF728FB206008B96860B9
:10A2B80038BD022324682B72237973B1012B24D073
:10A2C80020460321FFF776FF00232B726B601849A5
:10A2D8001848BDE83840FFF73BBBD4E90523D21A3C
:10A2E800B2F5805FD4E9031028BF4FF4805292087A
:10A2F800012A38BF012219441844FFF757FF50B10B
:10A308001128DDD101232B72D2E7D4E903031844C5
:10A31800FFF74EFFF3E72B7C002BC9D1BDE838408F
:10A32800022000F009B800BF509400206894002073
:10A33800649400204094002038B5234C237A002BE5
:10A3480041D0022B09D1032830D0204B00221B68B2
:10A35800E2601A793AB1012A22D0637C7BBBBDE85E
:10A368003840FFF799BFD3E905128D1AB5F5805F1C
:10A3780094BF521902F580529A619142EDD1022898
:10A388004FF0000308BF19462372104B18BF0D2168
:10A398001868FFF70FFF0E490E48FFF7D9FADCE7F8
:10A3A8001A6901321A615B699A42E7E7E368013387
:10A3B800082B01D8E360D0E70023E360DFE7BDE8BE
:10A3C80038400BF069BB38BD5094002068940020D9
:10A3D8006494002040940020831E012B01D8FFF7CD
:10A3E800ABBF704700F0FD03012B08D1044B0022DE
:10A3F8005A74421E504250411874FFF74DBF7047BF
:10A408005094002010B5064C201DFFF767FB28B9B3
:10A41800637C1BB9BDE81040FFF73EBF10BD00BF0D
:10A42800509400202DE9F34180460D46104801A9BB
:10A4380016461F46FFF727FA0446B0B11822002136
:10A4480004300CF0E0FD2D0B0123237101A908480D
:10A45800C4F80080A760E5606661FFF73EFAFFF781
:10A46800D1FF002002B0BDE8F0810420FAE700BF68
:10A47800409400202DE9F34180460F460F4801A97A
:10A4880016461D46FFF7FFF90446A8B11822002119
:10A4980004300CF0B8FD089BA36001A9C4E9036768
:10A4A8000648C4F800806561FFF717FAFFF7AAFFAE
:10A4B800002002B0BDE8F0810420FAE740940020B3
:10A4C8002DE9F84FB0F806A04579D2F800B09DF80C
:10A4D80028900AFB05F5043D88460BEB0301A942C9
:10A4E80003F1040488BFA5EB030BB4FBFAF6074697
:10A4F8000AFB1644C2F800B04EB9AAEB04055D4544
:10A5080028BF5D46BBF1000F04D1BDE8F88F3F6856
:10A51800013EF1E7043408EB06003C442A46B9F151
:10A52800000F0DD02146ABEB050B0CF043FDDA45CF
:10A538002E443F6855464FF0000428BF5D46E1E7CA
:10A5480001462046EFE7FFF7D2BAF8B5467901464B
:10A55800721E0546002393422D6803D30024A642A9
:10A5680002D8F8BD0133F6E70F682846FFF7FAFA74
:10A5780001343946F3E72DE9F843068ACD1C07462E
:10A58800FFF7CCFA043E35440446B5FBF6F5F0B1C6
:10A598004FF48073EDB28380C680013D0760814629
:10A5A8004FF00008A84512D23846FFF7B7FA06461A
:10A5B80048B163790133637108F10108C9F80000F3
:10A5C80007608146EEE72046FFF7BFFF3446204686
:10A5D800BDE8F88301210430FFF768BA10B50121FE
:10A5E80004460430FFF76EFAC0B220B92046BDE831
:10A5F8001040FFF7AABF10BD1FB5039200220092BA
:10A6080003AAFFF75DFF05B05DF804FB1FB50392D1
:10A618000122009203AAFFF753FF05B05DF804FB7F
:10A62800836800225A60C3E904229A60DA601A60DB
:10A6380070470B684A684360934208BF0023016073
:10A6480008BF43607047436843B102689168526825
:10A658000B449342436004BF00234360704770B5C6
:10A66800446806460D46206818B1B36829469847DD
:10A6780018B923682B60256070BD2468F3E7436828
:10A68800186808B102681A6070474368186870470C
:10A698004368186800B97047884203D102681A6095
:10A6A8000120704703460068F4E7000010B50D4923
:10A6B800A1F59472914201D800200FE08C1AE30FA3
:10A6C80003EBE4035B1002EBC30452F8333083421C
:10A6D80005D802D204F10802ECE7606810BD2146F3
:10A6E800E8E700BFA0E4070008B5FFF7DFFF024B6B
:10A6F800002808BF184608BD64E3070010B586B0F7
:10A70800044600F041FA02281ED10021102202A8B6
:10A718000CF079FC4FF4C8530C4901930C4BCDE96C
:10A7280003134FF4FA73ADF814303CB1012C09D07F
:10A7380001A804F04DFF002006B010BD40F6C41378
:10A748000293F5E7034BFBE70820F5E7000E270720
:10A7580005007E00FF1FA1074FF08053D3F830217A
:10A76800082A03BFD3F83401B0FA80F0400900206A
:10A778007047000008B54FF080430022C3F80C2151
:10A78800C3F81021C3F838254FF0805203F5404331
:10A79800D2F80414C3F82015D2F80814C3F8241505
:10A7A800D2F80C14C3F82815D2F81014C3F82C15D5
:10A7B800D2F81414C3F83015D2F81814C3F83415A5
:10A7C800D2F81C14C3F84015D2F82014C3F8441565
:10A7D800D2F82414C3F84815D2F82814C3F84C1535
:10A7E800D2F82C14C3F85015D2F83014C3F8541505
:10A7F800D2F83414C3F86015D2F83814C3F86415C5
:10A80800D2F83C14C3F86815D2F84014C3F86C1594
:10A81800D2F84424C3F87025FFF79EFF18B13B4BCC
:10A828003B4AC3F88C26FFF797FF18B1394BFB2238
:10A83800C3F81825FFF790FF70B14FF080414FF033
:10A848008053D1F8E42ED3F8583222F00F0203F0E7
:10A858000F031343C1F8E43EFFF77EFF20B12E4BF0
:10A868004FF40072C3F840264FF08043D3F8002419
:10A87800D20744BF6FF00102C3F80024274AD2F878
:10A88800883043F47003C2F88830BFF34F8FBFF3AA
:10A898006F8F4FF01023D3F80022002A03DBD3F880
:10A8A8000432002B2EDA1E4B0122C3F80425D3F8FC
:10A8B8000024002AFBD04FF010221221C2F8001207
:10A8C800D3F80024002AFBD04FF010231222C3F83B
:10A8D8000422134BD3F80024002AFBD00022C3F82B
:10A8E8000425D3F80024002AFBD0BFF34F8F0B496F
:10A8F8000C4BCA6802F4E0621343CB60BFF34F8F7E
:10A9080000BFFDE7084B094A1A6008BD0050004027
:10A918004881030000F000400090024000ED00E094
:10A9280000E001400400FA052C2B00200090D00321
:10A93800074B1B5C1F2B8ABF064A4FF0A04203F04F
:10A948001F03D2F80405D840C04300F00100704747
:10A95800A4E4070000030050074B1B5C1F2B86BFB5
:10A96800064903F01F034FF0A041012202FA03F346
:10A97800C1F80C35704700BFA4E40700000300507D
:10A98800074B1B5C1F2B86BF064903F01F034FF0C4
:10A99800A041012202FA03F3C1F80835704700BF4D
:10A9A800A4E407000003005008B50020FFF7E8FF03
:10A9B8000120FFF7E5FF0220FFF7E2FFBDE80840AE
:10A9C8000320FFF7DDBF08B50020FFF7C5FF012012
:10A9D800FFF7C2FF0220FFF7BFFFBDE808400320D2
:10A9E800FFF7BABF0A4B185C1F288ABF094B4FF004
:10A9F800A04300F01F00D3F804250121814021EA7B
:10AA080002000A40C3F80805C3F80C25704700BFC8
:10AA1800A4E4070000030050074B1B5C1F2B8ABFF0
:10AA2800064A4FF0A04203F01F03D2F81005D840A1
:10AA3800C04300F001007047A0E407000003005085
:10AA48000B2809D00C2809D0182809D019280CBFC0
:10AA580003204FF0FF3070470020704701207047F7
:10AA680002207047C20710B504460CD54FF0A0432A
:10AA78000322C3F83427C3F83827C3F83C27C3F8A0
:10AA88004027FFF791FFA3070AD54FF0A0430C22F8
:10AA9800C3F82C27C3F83027C3F86027C3F8642706
:10AAA80010BD07B501A803F06BFE20B9019001980D
:10AAB80003B05DF804FB019B002BF8D1012301933F
:10AAC800F5E738B5044602F087FE0546204602F051
:10AAD80089FEA54203D0BDE8384003F0C3B838BDAD
:10AAE80002F07ABE02F0B2BE08B502F083FE40B2B0
:10AAF80008BD03F0CEB802F0B3BE02F0BDBE02F04E
:10AB0800C7BE80085E3840B270474901C031401A5C
:10AB1800704708B500F024F901F032FA00F0AEFAF7
:10AB280002F054F902F074FB02F0FDFD3EF002FE63
:10AB380002F00CFE02F0B8FF3FF0E5FF02F0D6FF8E
:10AB480003F05CFA03F0C6F903F0DAFA40F076F89D
:10AB580003F0B0FDBDE8084003F08EBF08B503F070
:10AB68009DFF03F0CBFD40F06AF803F0DBF93FF0FE
:10AB7800CBFF3EF0E0FD00F082FABDE8084001F0AE
:10AB880021BA01F03BBC000008B501F03FFA0928E2
:10AB980096BF024B0120185C08BD00BFA8E407005F
:10ABA800012002F0A5BF012300221146184602F039
:10ABB800B8BF13B500240B460246CDE90044214630
:10ABC800204602F0D2FF02B010BD0146002002F07C
:10ABD800FBBF002003F014B808B590F8803033B1FB
:10ABE800074B084A4FF4F8710748FCF7E5FB03F0F8
:10ABF80020F820B9054B034A4FF4FB71F4E708BD70
:10AC0800CDE40700B2E40700E5E4070098E7070091
:10AC180003F056B807B502A8002300F8013D03F079
:10AC280066F810B97F238DF807309DF9070003B047
:10AC38005DF804FB02F0B0BD02F0B6BD00F0AAB8A2
:10AC480007B5002300931A4600F0AAF803B05DF890
:10AC580004FB002200F02CB9002100F07FB908B5F0
:10AC680002F01EFEBDE8084003F013B802F046BE2D
:10AC780002F062BA70B504460D461646FFF711FF9A
:10AC880032460346294620463FF040FE70BD7047D5
:10AC980070477047704700002DE9F843894642B174
:10ACA800012A0ED0294B2A4A2A484FF49C71FCF7F6
:10ACB80083FB294A002B43D1D2F844710224013284
:10ACC80031E0264A53BBD2F880730B242BE0ACEB5F
:10ACD800060506EB6505AF422AD905FB04FE02EB23
:10ACE8000E086BB152F80EE0016871450ED305D815
:10ACF800D8F804E04168714508D30AD96E1C15E0FC
:10AD0800B0F8008032F80EE0F045F5E705F1FF3CB9
:10AD18000CE0C9F800500120BDE8F883D2F884732C
:10AD2800112402F5B0720025BC462E46B445CEDA91
:10AD38006B1CB34208BF3546C9F800500020EBE74A
:10AD4800D2F8487108244132EDE700BFDFE407007C
:10AD580037E507008AE50700F49700206C94002087
:10AD680010B5094C4FF4A672002120460CF04BF99F
:10AD78004FF46272002105480CF045F90123237055
:10AD8800034B00221A7010BDF49700206C94002029
:10AD980040990020014B1870704700BFF4970020BD
:10ADA8002DE9F3470D4602A91F46002341F8043D4B
:10ADB8002B46814690469DF82860FFF76DFF78BBCB
:10ADC800B8F1000F09D0B8F1010F41D0334B344A24
:10ADD80034484FF4F071FCF7EFFA334C002D48D1AA
:10ADE800D4F8443104F1010C022204F5A274202B9A
:10ADF8002BD0019901FB0220A0EB020A5B1AE24466
:10AE08005A43514660440BF031FF002D0CBF02221B
:10AE18000822494650460CF0CDF8236801332360D8
:10AE2800B8F1010F38D1019BDFF880904DB303EBE7
:10AE3800031404F5B4703246394648440CF0BAF8A5
:10AE480009EB0403284683F8706102B0BDE8F08777
:10AE5800164C3DB1D4F8843304F5B07C112204F5C6
:10AE68006174C4E7D4F88033A4460B2204F56074F7
:10AE7800BDE7D4F8483104F1410C082204F5A47464
:10AE8800B5E70B245C43A01C3246394648440CF015
:10AE980091F809EB04039E720120D6E7DFE407006E
:10AEA80047E507008AE50700F49700206C94002026
:10AEB80073B50C4602A9002341F8043D2346164603
:10AEC800FFF7EAFE054600B346B1012E20D01E4B1F
:10AED8001E4A1F484FF40A71FCF76EFA1D4944BB1D
:10AEE800D1F844310222481C01F5A2744BB30199F0
:10AEF80002FB01F6C9430B44911901445A433044FB
:10AF08000BF0B4FE2368013B2360284602B070BDF5
:10AF180011493CB1D1F88433112201F5B07001F523
:10AF28006174E3E7D1F880330B22084601F56074B9
:10AF3800DCE7D1F84831082201F1410001F5A47499
:10AF4800D4E71D46E1E700BFDFE4070050E507004E
:10AF58008AE50700F49700206C94002011B10129BC
:10AF680008D07047084B10B1C3F848117047C3F8B0
:10AF780044017047054B18B10022C3F88423704779
:10AF8800C3F88003704700BFF49700206C9400203A
:10AF980030B5224B1B78012B89B005461AD008D34F
:10AFA800022B1AD01E4B1F4A1F4840F2C221FCF741
:10AFB80003FA01A902F052FB1C4B1B786BB130B1AC
:10AFC8009DF80430002202A9FFF766FE03461846E2
:10AFD80009B030BD154B1B780BB90123F7E702A95F
:10AFE800447802F051FB0028F7D004F00704032C42
:10AFF80012D19DF81E30EB5C042B0DD19DF81D304D
:10B00800022BEAD100231A4601A90598FFF744FE4E
:10B0180080F00100C3B2DAE70023D8E740990020A6
:10B02800DFE407005CE507008AE50700F4970020E5
:10B0380037B503460D46144688B10B46012201A9CF
:10B04800FFF72AFEA8B101980B4B5DB100EB001089
:10B058001A1800F5B47092F870212270034418464B
:10B0680003B030BD0B2250431A180230927A227076
:10B07800F4E720700346F2E76C94002070477047AD
:10B08800014804F075BE00BF302B002004F0AABEB2
:10B09800704708B510B902F0A7FF08BD0128FCD118
:10B0A800FFF7F6FFF9E700F1804000F58050002334
:10B0B80082B0036003680193019B02B070470000EF
:10B0C800034B186808B190F8800000F00100704741
:10B0D8005099002008B5FFF7F3FF08B1014B186835
:10B0E80008BD00BF5099002000BF00BF00BF00BFCF
:10B0F80000BF00BF70470000134B144AC3F848252F
:10B1080000F1804000F58050C3F84C0521B102F5EC
:10B11800FD424832C3F82C290D4AC3F8402502F5F0
:10B12800AF3202F59672C3F8442529B1D3F8002846
:10B1380042F08002C3F80028034B8022C3F804259C
:10B148004022C3F80425704700F001403C710140DB
:10B1580010110040034B1B781BB1034B1022C3F89E
:10B1680008237047499900200010004010B5044694
:10B1780002F026FFC00902280B4A11D9811EE309F3
:10B188008B4233BF0021A4EBC114C31E116028BF3A
:10B198001460064AC3F31403C2F86436012010BDD4
:10B1A80014600020FBE700BF449900200010004015
:10B1B80013B501A802F0A2FB9DF805009DF8044014
:10B1C80002F096FF9DF807309DF806201B0643EA1B
:10B1D8000243234343EA0020024BC3F86C0602B043
:10B1E80010BD00BF0010004008B50021094803F059
:10B1F80097FE094B01221A60084AD2F8003223F45C
:10B208008073C2F80032064B4FF48072C3F80825E9
:10B2180008BD00BF2CE707001090004000900040D8
:10B2280000F0014008B503F08FFA0020BDE808409F
:10B2380002F0EABE08B5054BD3F8480500F07F00D8
:10B2480002F041FF404240B208BD00BF001000407C
:10B2580008B50378184410F8010C02F03BFF00B25F
:10B268008000FF2828BFFF20C0B208BD38B50446BB
:10B27800FFF7E0FF05462046FFF7EAFF29460246AA
:10B288002046BDE8384002F050BA000038B5074BF8
:10B298001C6805460146204601F06EFD28B1294686
:10B2A8002046BDE8384002F046BA38BD549900201F
:10B2B80010B5044601F0AAFE204602F038FABDE8AF
:10B2C800104001F08FBD10B5044601F09FFE2046E6
:10B2D800FFF7CCFFBDE8104001F084BD08B5084B6E
:10B2E800D3F8503513F0FF0F07D1FFF7FDFE054BDC
:10B2F8001868003018BF012008BD0120FCE700BF16
:10B30800001000403C7101400B3808B5C3B20F2B48
:10B3180006D9094B094A0A4840F20521FCF74CF8BE
:10B3280000EB800000F6651080B2064BA0F51660B1
:10B33800C3F8080508BD00BFB6E6070000E6070029
:10B34800D5E607000010004008B500210A4803F0C0
:10B35800ADFD80B9094A0A49D2F8003243F4807336
:10B36800C2F80032074BC3F85015C3F854254FF400
:10B378008072C3F8042508BD2CE707000090004040
:10B388003C71014000F0014038B5144C14490122C9
:10B398002260D1F8002222F44072C1F80022114A3A
:10B3A8001278D2B2042A054608D0052A13D00E4BCB
:10B3B8000E4A0F4840F29E31FBF7FEFF0D490E483A
:10B3C80003F094FD0123236025B10C4B4FF48072E8
:10B3D800C3F8082538BD00210948F1E7109000405E
:10B3E800009000404A990020DFE407000CE60700BF
:10B3F800D5E607004CE707002CE7070000F00140FE
:10B408003CE7070010B5134C4023C4F808358023E7
:10B41800C4F80835FFF7E8FED4F8003823F08003B5
:10B42800C4F8003800220C4BC4F82C291B7883B1CF
:10B438000A4B0A21C3F808130949C3F8002201205E
:10B448000860C3F844264FF4AE70BDE81040FFF71B
:10B458002ABE10BD00F001404999002000100040AC
:10B4680010100040094A1368002BFCD0084AD2F893
:10B47800003223F48073C2F80032064B01221A60AE
:10B48800054B4FF48072C3F808257047409100407F
:10B49800009000401090004000F0014038B51C4C6E
:10B4A8001C484023C4F808358023C4F808354FF4F5
:10B4B8008073C4F80835002103F032FD164A174896
:10B4C80001251560D4F80038002123F08003C4F862
:10B4D8000038C4F82C191560D0F8003223F48073B2
:10B4E800C0F800320E4B1B7883B10E4B4FF450520C
:10B4F800C3F80823C3F80012082203F0A3FD0A4B7F
:10B508001D6018B1BDE83840FFF7ACBF38BD00BFBB
:10B5180000F001402CE70700109000400090004028
:10B5280049990020001000401010004010B5154C3B
:10B538004023C4F808358023C4F808350120FFF7F4
:10B5480023FFD4F8003823F08003C4F80038002122
:10B558000D4BC4F82C191B789BB10C4B0C4AC3F843
:10B5680008230C48C3F80012082203F06BFD0A4AAE
:10B578000123136042F8203C18B1BDE81040FFF7E2
:10B5880071BF10BD00F00140499900200010004033
:10B5980002000408009000403010004038B5164CF6
:10B5A8004023C4F808358023C4F80835FFF71CFE8B
:10B5B800D4F8003823F08003C4F8003800250F4B76
:10B5C800C4F82C591B78ABB1082229460C4803F063
:10B5D80039FD0C4B4FF40042C3F808230A4AC3F85C
:10B5E80000520123136042F8183C18B1BDE83840F6
:10B5F800FFF738BF38BD00BF00F00140499900206F
:10B6080000900040001000402810004038B5164C4B
:10B618004023C4F808358023C4F80835FFF7E4FD53
:10B62800D4F8003823F08003C4F8003800250F4B05
:10B63800C4F82C591B78ABB1082229460C4803F0F2
:10B6480001FD0C4B4FF4C022C3F808230A4AC3F883
:10B6580000520123136042F8203C18B1BDE838407D
:10B66800FFF700BF38BD00BF00F001404999002036
:10B67800009000400010004030100040F8B505462A
:10B688000F46164601F062FB044680B1624B1B78F8
:10B69800092B00F2B880DFE803F0050C0F225B5B92
:10B6A800656A747E022F02D0042002F0ADFC2046A9
:10B6B800F8BDFFF74FFDFAE7584B1B785B070BD532
:10B6C800002D00F0A780FFF7E9FE002EEFD006203E
:10B6D80002F02DF83446EAE7FFF7E0FEE7E7002D31
:10B6E80000F098804E4D4F484023C5F80835802318
:10B6F800C5F808354FF48073C5F80835002103F004
:10B70800F5FB494801230360D5F80028002122F001
:10B718008002C5F80028C5F82C190360D0F8F0217C
:10B7280022F48072C0F8F021404A127832B1404ABF
:10B738004048C2F80803C2F800121361002EB6D0C0
:10B748003D4B1868002380F88030FFF78FFDC1E774
:10B75800002D5FD0FFF7EAFE002EA8D00620FFF7E5
:10B7680095FDA4E7002D55D0FFF74CFEF4E7002D1A
:10B7780050D0FFF713FF002E99D0012001F0DFFF12
:10B78800A8E7002D46D0FFF741FF002E8FD00120FB
:10B7980001F0D9FF9EE7224E2248234F4023C6F8E6
:10B7A80008358023C6F80835002103F09FFB0125E2
:10B7B8004FF480733D602846C6F8083503F0CAFB8D
:10B7C8001A4B1B78002B3FF472AF082200211B484C
:10B7D80003F038FC1A4B1D6000283FF468AF194A83
:10B7E8001368002BFCD0154AD2F8003223F480737A
:10B7F800C2F8003201233B60094B4FF48072C3F852
:10B808000825044653E7104B104A114840F2BC5132
:10B81800FBF7D2FD2C464AE74A99002048990020B8
:10B8280000F001403CE707001090004049990020D3
:10B8380000100040020000085099002000900040CD
:10B848001010004040910040DFE407001DE60700AB
:10B85800D5E60700044B002282B01A601B680193EA
:10B86800019B02B0704700BF3C710140F8B5404BE6
:10B878001B7807460D4616460BB90020F8BD04781C
:10B8880001F059FE630100285CD103F1EE000DB10F
:10B89800A83080B202F06AFB04460028EDD001F01F
:10B8A800A9FF344B344AC3F80C05002D08BF4FF4E8
:10B8B800A012C3F804754FF4B670C3F80022FFF75E
:10B8C800F2FB002D41D04FF4A470FFF7ECFB2B4A9C
:10B8D8004FF48270FFF7E7FB294B19786FF3C30128
:10B8E8001970244B42F00202C3F8042385B325499A
:10B8F800254803F0DBFA00210746224803F0B6FA90
:10B9080000B187B9214A2249D2F8003243F4807342
:10B91800C2F800321F4BC3F85015C3F854254FF432
:10B928008072C3F80425FFF795FF002D14BF04208B
:10B9380000200121FFF7E0FBA6B9174B01221A608E
:10B9480020469BE703F24E40A1E74FF00062BFE7B5
:10B958002946124803F08AFA0028D3D0FFF77AFF65
:10B968002846E6E7FFF7BAFC0028E6D086E700BFDE
:10B978004999002000100040003814000000040815
:10B98800489900204CE707002CE70700009000408A
:10B998003C71014000F00140101000403CE70700F6
:10B9A80010B5154B1B78044603B3AE2002F0DEFA3F
:10B9B800E0B1124A4FF42053C2F800324FF4A47099
:10B9C800FFF771FB4FF4A270FFF76DFB4FF4C02334
:10B9D800C2F80433FFF7B8FCFFF73CFF012104204D
:10B9E800FFF78AFB1CB9064B01221A6010BDFFF74E
:10B9F80075FC0028F7D0F9E74999002000100040AD
:10BA08001010004070B54D4B1B780646002B00F017
:10BA180088804B4A137803F0F8036FF3041313700C
:10BA280001F0E8FE474AC2F80C05FFF749FB054656
:10BA3800002877D0FFF74EFB434BC2F80405C2F845
:10BA480000321823C2F860354FF49A70FFF72BFBC9
:10BA58004FF49470FFF727FB4FF49870FFF723FB20
:10BA68003A4C3B484FF45053C2F80433D4F80032F0
:10BA780043F48073C4F80032002103F017FA002859
:10BA880052D1D4F840358133C4F84435FFF7E2FE8B
:10BA9800304B3148314AC3F84825C3F84C0500F506
:10BAA800F030C3F82C09C3F85025C3F85445D3F82F
:10BAB800002842F08002C3F80028294AC3F840252C
:10BAC80002F5AF3202F59672C3F844258022C3F816
:10BAD80004254FF48072C3F80425A0F5EF30402206
:10BAE800C3F80425D43802F037FE0EBB1D4B0122E3
:10BAF8001A60B5B902F012FB1B4B1860FFF7E0FAA9
:10BB080078B1FFF7E7FA0F4B0F4AC3F80405C3F8FB
:10BB18000022D3F85035DBB2022B02BF134B0122AF
:10BB28001A6070BD52238AE70123C4F84035AAE79A
:10BB3800FFF7D4FB0028D9D0DBE700BF49990020E4
:10BB48004899002000100040520008000090004072
:10BB58002CE7070000F00140041000403C71014050
:10BB680010110040101000405099002008100040AB
:10BB780010B5044601F03EFE144B0021C3F80C0535
:10BB8800134803F073F980B9124A1349D2F8003206
:10BB980043F48073C2F80032104BC3F85015C3F851
:10BBA80054254FF48072C3F80425FFF753FE002193
:10BBB8000846FFF7A1FA1CB9094B01221A6010BD0B
:10BBC800FFF78CFB0028F7D0F9E700BF0010004012
:10BBD8003CE70700009000403C71014000F0014044
:10BBE8001010004010B5134B1B780446DBB1124B04
:10BBF8001868FFF7BBFAB0B1104A4FF40041C2F819
:10BC080000124FF49E70FFF74EFAC2F80413FFF7C4
:10BC18009BFBFFF71FFE01210420FFF76DFA1CB9FB
:10BC2800074B01221A6010BDFFF758FB0028F7D018
:10BC3800F9E700BF4999002044990020001000400E
:10BC48001010004008B5064B1B7833B102F0B8F964
:10BC58003B2894BF0020012008BD0120FCE700BF5D
:10BC68004999002010B501F059F9044628B1FFF7A9
:10BC7800E9FF044608B901F067F9204610BD000045
:10BC88001649402310B5C1F8083518B1144B522293
:10BC9800C3F80022134B144A01241C608023C1F806
:10BCA8000435137803F0FC036FF382034FF49470A8
:10BCB8001370FFF7F8F90A4B1822C3F86025FFF74D
:10BCC800C9FD4023C1F80435084802F045FDFFF7D7
:10BCD80005FB08B9064B1C6010BD00BF00F0014011
:10BCE800001000401090004048990020301100409A
:10BCF800101000402DE9FF410446002800F0BB80E9
:10BD080002F05EF93B2840F295808D4D2B7803F0C8
:10BD1800FF07002B40F08E808A4C01260F23C4F8C1
:10BD2800FC7F0D22C4F8FC6F3946C4F8103568460C
:10BD38000BF069F908238DF800309DF802209DF872
:10BD480003109DF804008DF806607F238DF80830F5
:10BD58009DF80130120442EA032242F0C06343F026
:10BD680008039DF80720002943EA805314BF4FF4C5
:10BD78008011002143EA42730B434FF002088DF80B
:10BD88000580C4F814359DF80A309DF809201B0475
:10BD980043EA02239DF80B20002A14BF4FF080725B
:10BDA800002243F07F0313439DF80C20002A14BFA0
:10BDB8004FF0007200221343C4F8183540F20223F2
:10BDC800C4F85066C4F834355F4BC4F83835FFF70B
:10BDD800EFF95E4BC4F84476C4F8483601F0FCFC31
:10BDE800FFF792FA5A4B83F80173C3F88081D4F8AD
:10BDF800004234B1574B584A40F22C715748FBF770
:10BE0800DBFA2E7002F092FC5549204603F02EF81A
:10BE18005349204603F04AF8524B1B78092B25D882
:10BE2800DFE803F0082405240B122415191D00204F
:10BE3800FFF7E8FD04B0BDE8F081002201214A4B7C
:10BE48001868FFF713FDF5E700221146F7E7002011
:10BE5800FFF7C8FEEEE70020FFF7A2FDEAE72B7820
:10BE6800002BE7D00020FFF783FEE3E73F4B3A4A79
:10BE780040F25371C2E7324B1A78002A3CD018704E
:10BE880002F076F888B1324B0222C3F88020C3F85A
:10BE9800802183F80143BFF34F8FBFF36F8F294B86
:10BEA8000122C3F8FC4FC3F8FC2F2D49002003F0F2
:10BEB8001DF82B49002003F033F8032003F04AF85B
:10BEC80002F042FC002202210120FFF7D7FB20B933
:10BED800274B284A40F2717190E7224B1A78092AB9
:10BEE80029D8DFE802F009050C141E1E1E090909ED
:10BEF80000221A70FFF796F902F036F89AE71E4BFF
:10BF08001B785B07F8D50520FFF7D2F9F4E7022282
:10BF18001A701A4B1868002380F88030FFF7D3F99D
:10BF2800EAE702221A7001F071F80420FFF7AEF96F
:10BF380000F058FFE0E70D4B0E4A4FF4F3615DE760
:10BF4800499900200010004021100100000700FF5F
:10BF580000E100E0EBE7070039E60700D5E6070057
:10BF68005CE707004A99002054990020DFE40700A5
:10BF780098E707004CE607004899002050990020F0
:10BF88000D4A002313700D4A13700D4BD3F8042586
:10BF980022F00302C3F80425D3F8082542F003026F
:10BFA800C3F80825D3F8102522F00F0242F0040246
:10BFB800C3F8102503F066BC4A990020499900206F
:10BFC8000090004008B50E4B1B784BB10D4B00227A
:10BFD800C3F8FC2F0122C3F8FC2F032002F0BAFF9C
:10BFE80002F0E8FF084B0222C3F88020C3F8802142
:10BFF800002283F80123BFF34F8FBFF36F8F08BD73
:10C00800499900200010004000E100E0014B187839
:10C01800704700BF4A990020F8B5044600F07EFF3B
:10C02800064630B1184D2B7823B9344600F08CFF02
:10C038002046F8BD2B78012BF7D001222046114667
:10C04800FFF71CFB04460028F0D001232B700F4B90
:10C058001B7803F0FF071BB92F70FFF7E3F8E5E73C
:10C068004FF48870FFF71FF8094B1022C3F8042318
:10C07800D3F8501511F0FF01D7D1FFF76BF83C4604
:10C088002970FFF7CFF8D1E74A9900204999002095
:10C09800001000402DE9F8430746884615469946A2
:10C0A80000F03CFF044600B3124E3378022B06D052
:10C0B8003378032B03D0FFF7C5FD40B900240DB139
:10C0C8002046A84700F040FF2046BDE8F8834A46CE
:10C0D80041463846FFF7D2FA04460028EED002233C
:10C0E80001203370FFF78EFCE9E7002DECD0A8475C
:10C0F800EAE700BF4A9900202DE9F047099D9DF81D
:10C10800209006468A4690461F46FFF7ABFD044638
:10C1180028B3012251463046FFF7B0FA044640B929
:10C1280000240DB12046A84700F00EFF2046BDE8C8
:10C13800F0870D4E022333700C4B012239464046DE
:10C14800C3F80080FFF792FBB9F1000F01D0002877
:10C15800E6D0002F14BF042305233370E1E7002D38
:10C16800E4D0A847E2E700BF4A990020549900208C
:10C1780070B506460D46FFF775FD044698B10122D5
:10C1880011463046FFF77AFA044650B1074B0722AA
:10C198001A70074B1D60074B002201201A70FFF729
:10C1A80021FD00F0D1FE204670BD00BF4A99002055
:10C1B800449900204199002038B50546FFF752FD03
:10C1C800044670B1012211462846FFF757FA044683
:10C1D80028B1054B082201201A70FFF7E1FB00F097
:10C1E800B3FE204638BD00BF4A99002038B5054641
:10C1F800FFF738FD044688B1012211462846FFF7AB
:10C208003DFA044640B1064B09221A70054B1B78CB
:10C2180013B10120FFF7ACFC00F096FE204638BDB4
:10C228004A9900204999002010B50446FFF71AFDE5
:10C23800012184F8801058B1204B1B7833B1204B72
:10C248001B78DBB2022B05D0062B20D000F07CFE39
:10C25800012010BD1B4AD2F85035DBB2022BF5D1B4
:10C26800D2F80032522B06D0174B184A40F62E410E
:10C278001748FBF7A1F8174B1C60FEF72BFF164B6E
:10C28800C2F80405C2F80032144B1960DEE70D4A03
:10C29800D2F85035DBB2022BD8D1D2F80032122BAB
:10C2A80004D00F4B094A40F63D41E1E7094B1C60B9
:10C2B800FEF710FF0B4BC2F80405E3E7499900208D
:10C2C8004A990020001000409FE7070093E6070006
:10C2D800D5E60700509900205200080008100040D9
:10C2E800C3E707001200080038B5FFF7BBFC054696
:10C2F80078B1124C22781AB101F06EFAFFF704F8FF
:10C308000F4B1B78DBB2022B05D0092B0ED000F0A7
:10C318001BFE284638BD012211460020FFF7AEF962
:10C328000028F4D00120FFF76DFBF0E72378002BFD
:10C33800EDD0044B01221A60E9E700BF49990020BB
:10C348004A9900201010004010B5FFF78BFC0446F6
:10C3580030B1044B1B780BB1FEF72AFF00F0F4FD57
:10C36800204610BD4999002010B5FFF77BFC044614
:10C37800B0B10D4B1B7803F0FF047BB10B4B1B785E
:10C38800022B0FD10A4A13784FF48E7043F0100332
:10C398001370FEF788FE074B01221A6000F0D4FDE7
:10C3A800204610BD0024F9E7499900204A99002049
:10C3B800489900201410004038B50D4B1B78DB0657
:10C3C800054611D5FFF74EFC70B10A4B1B7803F0F8
:10C3D800FF0433B1084A1368002BFCD0FEF72AFF8C
:10C3E800287000F0B1FD00E00024204638BD00BFF1
:10C3F80048990020499900201C1100402DE9F04F70
:10C408008FB000F08FFD924BD3F804339D071DD5F4
:10C41800904B1B68D3B14FF48270FEF744FE8E4BED
:10C428001B78033B032B39D8DFE803F030020235D1
:10C438008A4B1C68204600F0B3FC10B12046FEF77A
:10C4480026FC874A137843F008031370DFF800824C
:10C45800D8F804335C054CD5824B1B68002B48D0B8
:10C468004FF49470FEF71FFE7B4B1B78022B40F0B5
:10C47800D780D8F86055C5F3C705022D8DF8205030
:10C4880013D8794B794A4FF4FA610BE0784B186866
:10C498003EF0CEFADAE700F097FCD7E7754B764A1C
:10C4A80040F685217548FAF787FF754B1B6803BB73
:10C4B8006B4C237813F001067AD00126237898076D
:10C4C80017D4B6B16F4E3068057801F034F86B01B7
:10C4D800002840F09C8003F1C00001F047FD0028CF
:10C4E80000F098802378306843F00203237000F04E
:10C4F80069FC574BD3F80433990412D5604B1B6879
:10C508007BB14FF49A70FEF7CEFD534B1C78E4B222
:10C51800022C40F08A800020FFF7B2FB2046FEF78D
:10C52800C7FE4B4BD3F80433DA0440F12D81564B48
:10C538001B68002B00F02881474E4FF49870FEF7D7
:10C54800B2FD3378022B40F05081454D4D4C2A788E
:10C55800276842F01002D3072A706BD52B78D807CA
:10C5680000F198800120FFF78BFB7B7803F007032D
:10C57800022B00F028812368002283F8802001F034
:10C58800CDFD2060FEF79CFD002800F0E780FEF757
:10C59800A1FD2F4B3D4AC3F80405C3F80022D3F888
:10C5A8005035DBB2022B02BF394B01221A60D5E0AD
:10C5B800344F43F0040308A93868237000F080FE64
:10C5C800814660B99DF820309D4203D0DB00C8F851
:10C5D800603572E7237843F0010323706DE709287B
:10C5E8000FD1FEF75BFF0120FFF70CFA3B685B7881
:10C5F80003F00703022B3FF461AF4846FEF758FEED
:10C608005CE701F0C9F800287FF457AFE9E703F5C4
:10C61800387062E7FEF742FF052001F088F868E706
:10C62800144B154A40F69A213CE7124B124A4FF434
:10C638002B6137E701F0B0F800288FD1FEF72EFF05
:10C648000120FFF7DFF90420FEF732FE9CE000BF6F
:10C6580000100040041100404A990020549900201D
:10C6680048990020281100406CE707005DE60700A4
:10C678004C990020DFE4070087E60700D5E60700AD
:10C688003411004050990020301100405200080039
:10C6980008100040206800F04EFF00283FF462AF09
:10C6A80001F08AF800283FF45DAF206803F0F2F843
:10C6B800AB4B186000283FF455AFAA4DDFF8048350
:10C6C800C5F804054FF4A013C5F800324FF4AA705A
:10C6D800FEF7E9FCA44BA54AC3F858254FF40072AD
:10C6E800C3F85C55C3F80425D8F84495CDF82080E4
:10C6F80000210523CDE90A1108A88DF8283009F191
:10C708002803099302F0B2FB994B01221A60D8F86A
:10C718004C25D8F84035914503D9994522D99A42F4
:10C7280020D8FEF7E1FCD5F85035DBB2092B19D03B
:10C73800904B1B68B3B9226882F880308A4A4FF45C
:10C748000071C2F80815C2F85835C2F85C35C2F84D
:10C758003439FEF7A3FE0120FFF754F93846FEF7F7
:10C76800B2FD11E07F4A032333704FF45053C2F8EF
:10C7780008334FF4B670FEF796FC4FF48270FEF75C
:10C7880092FC7D4BC2F80433764CD4F8043319017B
:10C7980040F1A380794B1B68002B00F09E80784EF7
:10C7A800784F4FF4B670FEF77EFC3378DBB2032B7C
:10C7B800B0461FD002D3052B40F20681724B734A54
:10C7C80040F6DC216EE600F0E7FF00287FF4D3AEE8
:10C7D800644B6F4AC3F80022D3F85035DBB2022B02
:10C7E800D2D16C4B01221A60CEE7674B674A40F6FC
:10C7F800C42157E65C4D684E6848D6F800904FF063
:10C80800400B0021C5F808B502F070FB644B654881
:10C818004FF0010AC3F800A00021019302F046FB83
:10C828005222C4F800221822C4F86025524AC4F8DB
:10C8380008234FF49A70FEF736FC4FF49470FEF715
:10C8480032FC4FF49870FEF72EFC4FF45052C4F8A7
:10C858000423019BC3F800A04FF40073C5F8083502
:10C868000023C5F85835C5F85C35C5F83439802338
:10C87800C5F80435FEF7EEFF4B48C5F804B501F0DE
:10C888006BFFFEF72BFD10B9484BC3F800A03368C7
:10C89800002283F8802001F041FC3060FEF710FC94
:10C8A80078B1FEF717FC2F4B394AC3F80405C3F8D3
:10C8B8000022D3F85035DBB2022B02BF354B0122E0
:10C8C8001A60022388F800303B7803F0FC036FF30A
:10C8D800820348463B70FEF7F6FC224AD2F804333E
:10C8E8001B0740F13581324B1B68002B00F030816B
:10C8F800234D4FF48670FEF7D6FB2B78062B40F0BD
:10C9080085812C4B1B6823B1D2F80034DF0700F176
:10C918007081294B1868837803F03003202B40F08E
:10C92800F6801D4B1C68A37803F03003202B40F0E1
:10C93800EE80637803F00703022B40F0E880094B90
:10C94800D3F80034DE0740F1E28002A900F09CFE33
:10C95800002840F0C980194B194A4FF42061A1E51D
:10C968004C9900200010004000F001404491004024
:10C978004C90004054110040020000086C11004027
:10C988004A99002048990020DFE4070087E607005D
:10C998005200080008100040509900203CE70700AA
:10C9A800109000402CE707003011004010100040A4
:10C9B8000C1100405C1100405499002092E70700D8
:10C9C80072E60700009000403B781A0785D5B94DFC
:10C9D800286800F0B0FD2F46814600286ED0FEF78B
:10C9E8006FFBB54AB54B051E08BF12234FF0400137
:10C9F800C2F80815C4F8003203D0FEF76BFBC4F880
:10CA080004054FF48670FEF74EFBAD4BC4F80833AF
:10CA18004FF48270FEF747FB0A23C4F80433002062
:10CA2800FEF7B2FCFEF790FCA349A64BC1F84835C7
:10CA3800A3F5B033A3F59C73C1F84C3503F5F03377
:10CA4800C1F82C39FEF706FF8023C1F804354023CE
:10CA5800C1F80435062388F80030FEF73FFC10B90A
:10CA6800994B01221A60B5B901F058FB974B186031
:10CA7800FEF726FB78B1FEF72DFB954B8F4AC3F8DE
:10CA88000405C3F80022D3F85035DBB2022B02BFED
:10CA9800904B01221A603A68937803F03003202BF8
:10CAA8003FF41BAF4FF4AE70FEF7FDFAD378884A17
:10CAB8001B0643F40073C2F844360EE7FEF736FD52
:10CAC800022301203370FEF79DFF2C6800F09EFAC8
