:020000022000DC
:1070000000000420757302005D7302005F730200CC
:1070100061730200637302006573020000000000E8
:107020000000000000000000000000006773020084
:1070300069730200000000006B7302006D730200B0
:10704000C99702006F730200A19C02006F730200D7
:107050006F7302006F730200ED9A02006F730200FB
:107060006F7302006F7302006F7302006F73020090
:107070006F7302006F7302006F7302006F73020080
:107080006F730200118902006F7302006F730200B8
:107090006F7302006F73020085C802006F730200F5
:1070A0006F7302006F7302006F7302006F73020050
:1070B0006F7302006F730200000000000000000008
:1070C0006F7302006F7302006F7302006F73020030
:1070D0006F7302006F7302006F7302006F73020020
:1070E0006F7302006F7302006F73020000000000F4
:1070F000000000006F730200000000006F730200C8
:10710000000000000000000000000000000000007F
:10711000000000000000000000000000000000006F
:10712000000000000000000000000000000000005F
:10713000000000000000000000000000000000004F
:10714000000000000000000000000000000000003F
:10715000000000000000000000000000000000002F
:10716000000000000000000000000000000000001F
:10717000000000000000000000000000000000000F
:1071800000000000000000000000000000000000FF
:1071900000000000000000000000000000000000EF
:1071A00000000000000000000000000000000000DF
:1071B00000000000000000000000000000000000CF
:1071C00000000000000000000000000000000000BF
:1071D00000000000000000000000000000000000AF
:1071E000000000000000000000000000000000009F
:1071F000000000000000000000000000000000008F
:10720000354936480A1A02D0072291438D4634493F
:1072100034480A1A06D00722914381F309880222D2
:1072200082F3148830483149314A00F044F831483B
:107230003149324A00F03FF831483249324A00F0D1
:107240003AF832483249334A00F035F83248334987
:10725000334A00F030F833483349344A00F02BF811
:1072600033483449344A00F026F83448344900227F
:1072700000F02CF833483449002200F027F8334856
:107280003349091A082902DB002202604160314AB1
:1072900090471F481F49884205D00268043003B454
:1072A000904703BCF7E700208646EC46002000210B
:1072B000294A9047FEE7884207D0521A05D0037842
:1072C00001300B700131013AF9D17047884202D088
:1072D00002700130FAE770470000042000E003204C
:1072E0000000042000000420E4DD0200E82A002061
:1072F000502B0020D0730200D073020068CE020031
:10730000E4DD0200E82A0020E82A00206CCF020019
:107310006CCF02006CCF02006CCF02006CCF020079
:107320006CCF02006CCF02006CCF0200E2DD0200E5
:107330004CDE0200502B0020502B0020502B002050
:10734000803E0020803E0020803E0020803E0020C5
:10735000805E00209D73020049AF0200FEE7FEE759
:10736000FEE7FEE7FEE7FEE7FEE7FEE7FEE7FEE7F5
:1073700000F002B8FFF7FCBF0F484FF00701884349
:1073800085460E4880470E48016841F4700101604F
:10739000BFF34F8FBFF36F8FFFF732BF09480A4922
:1073A0000A4A884207D0521A05D0037801300B7080
:1073B0000131013AF9D17047000004203D920200EA
:1073C00088ED00E06CCF0200E82A0020E82A0020C7
:1073D0007047000007B5044B0093044A402300F0B7
:1073E00032F803B05DF804FBF1730200512B00206A
:1073F0002DE9F84388461446B2B10F4B0F4E0325D2
:10740000002743F00109224608EB0701002003F0A2
:107410001BFF0744241A48B933782BB14FF47A4044
:10742000C847013D02D13570BDE8F88301233370B0
:10743000002CE8D1F8E700BF70CF0200502B0020ED
:10744000704703F031BFF0B595B01D4616460846AB
:107450000C4601F00BFE1A9B0D93CDE90865002543
:107460002B46082205A920460A958DF82C500C952C
:1074700001F018FE079B0293069B03939DF81430BE
:107480008DF8115003F00302012A1DD1BDF814201C
:10749000059DC3F3C203C2F383168DF81030B2000A
:1074A00008230EA9204601F0FDFDC5F3952508AB84
:1074B0000093324602AB0EA9284600F05BFB204643
:1074C00001F0D8FD15B0F0BD022AF8D1BDF8165074
:1074D000C3F3C203C5F389158DF810300827082DB2
:1074E0002E4628BF08263B4632460EA9204601F00C
:1074F000D9FDAD1B08AB02AA31460EA8374400F0F7
:107500009DFB002DEBD1DAE708B5FFF79AFF0448A1
:10751000042100F099FA034B01225A7108BD00BF03
:107520005CCF0200E82A0020037813F0040216D092
:1075300003F00303012B03D0022B09D00120704775
:107540000A6800880232C0F3831002440A60F5E73B
:107550000B684288023303EB92130B60EEE7104690
:10756000704700002DE9F04FDFF830A187B00F46DB
:1075700000230446861C0DF1070015468DF80730E0
:1075800001F056F8DAF800103960DAE901321344F4
:1075900001335B1A0AF21C470AF583690AF21448A0
:1075A000B3421CD30020002D73D004F00F039B01C5
:1075B00043F0050363F30F00DAF80020DAF808302F
:1075C0001340033332444AF823009DF80700CAF8F9
:1075D000002001F051F8012007B0BDE8F08F012133
:1075E000384601F072FA484601F087FA404601F049
:1075F00084FADAF80400DAF808B0029000EA0B0026
:1076000003300AEB800002A9FFF78EFF029B50BBFC
:107610000BEA03020AEB820203F1020CD268039226
:10762000013303EA0B0B0AEB8B0B02F00302012A76
:10763000DBF80C10CDF808C023D0022A16D0834600
:10764000404601F05DFA10B1029BCAF80430594679
:10765000384601F03AFADAE901231344DAF8002057
:1076600001339B1A9CE70BEA0300C9E7BDF80E3013
:10767000C3F3891303334FEA114B0CEB93030293CB
:10768000DEE7BDF80C30C3F383134FEA114B6344BC
:10769000F5E7A40544F006008EE700BF642C002047
:1076A0000B4B0C48FF2210B59A600022C3F8182437
:1076B000C3E90022C3F8142483F8202401F08FFCCE
:1076C000044610B9044801F037FD204610BD00BF44
:1076D000642C0020C8CE0200ACCF020030B50A4CAA
:1076E00071B10A4A0A49121BD20800239A4201D1F9
:1076F000002030BD31F82350854202D00133F5E738
:10770000034654F83300F4E7DCCE02005CCF0200FD
:10771000E82A0020094B013903EBC000032909D8EE
:10772000DFE801F00A020406042070470079704780
:10773000407970470020704702207047DCCE02007D
:10774000034BD3E90030C31A58425841704700BF79
:10775000642C00202DE9F04387B0FFF7F1FF0646C7
:10776000002840F0FE80804CC4F81804BFF34F8F0F
:107770006368A56802932B40033304EB830002A9DE
:10778000FFF7D2FE029B18B1D4F81824002A62D069
:1077900005EA0302991C013304EB82022B4004EB3F
:1077A0008303D268DB68049302F00303022B039285
:1077B000029163D1BDF80E306C48C3F38917502F86
:1077C000B84628BF4FF0500808F1080168F38F133E
:1077D000C1F30901ADF80E3001F019FC064600288E
:1077E00000F0AA8001F042FC0023082203A93046E1
:1077F00001F04EFC029925EA01020132B8EB820F3A
:107800004FEA820333D95FFA88F863B32940DDB2C7
:10781000A8EB050803315FFA88F9A846544D04EB3C
:10782000810108234246304601F032FC3DB108F1A7
:107830000803DBB24A462946304601F029FC029B88
:10784000033703EB97070297D4F81834002B4BD17A
:10785000D4F810545BE0226893428CD362603046C7
:1078600007B0BDE8F08342491D469946D9E7294053
:1078700003310823424604EB8101DDE7012B5BD194
:10788000BDF80C303948C3F38311062928BF0621FF
:1078900061F38913023101F00F018900ADF80C305A
:1078A00001F0B5FB0646002846D001F0DFFB0023BF
:1078B000082203A9304601F0EBFB0027BDF80C209D
:1078C000C2F38312BB00974203F10803BCD20299B2
:1078D0004A1C29400331029204EB81010422304604
:1078E00001F0D6FB0137E9E7304601F0C3FBFFF7B3
:1078F00027FF80F00100C6B2B1E7EB685B7923B1E6
:107900002B6831461B6828469847EB681D68002D98
:10791000F3D1304601F0AEFB0DF107008DF80750B2
:1079200000F086FED4F818340BB9029B63609DF812
:10793000070000F0A1FEDAE7D4F8104454B90D4B6B
:107940000D480E49C01AC008000440F0020000F0C3
:1079500063F8CCE7236820469B689847E3681C6877
:10796000ECE700267BE700BF642C0020C8CE0200B5
:10797000702C0020DCCE020004CF020094CF020065
:107980002DE9F74F224E04460F46924601A90122E7
:107990001846D6F808909B46FFF7E4FD20B3019DFA
:1079A0004FF00008AA1CD84508EB020126D119485F
:1079B000002101F05BF880F31000000440EA14405D
:1079C000E4006B1C04F0380403EA090305EA090526
:1079D00044F0010406EB8303033544EA881444EAC7
:1079E0008724D86046F8254096F820341BB1FFF76D
:1079F000B1FE0028FBD103B0BDE8F08F09EA010118
:107A000006EB81015AF82830CB6008F10108CAE77B
:107A1000642C00208030002000231A46FFF7B0BFFE
:107A200007B50123019201AAFFF7AAFF03B05DF891
:107A300004FB07B5CDE9002302236A46FFF7A0FF48
:107A400003B05DF804FB000030B50F4CD4F81024EF
:107A500003460020114631B9D96808714AB9C4F803
:107A600010340A6030BDC9680D79854206D00968B6
:107A7000F1E7D26814680C601360F3E701300A285C
:107A8000E8D14FF0FF30EDE7642C002038B5084B0B
:107A90000125D3F8104483F8205404B938BDE368B5
:107AA0005D71236820465B689847E3681C68F4E7CB
:107AB000642C002030B5C38885B004460D4633B130
:107AC000144A00921449154A284601F07CF8217A9C
:107AD00005291DD0637A4BB1A088FFF71BFE104B20
:107AE000104953F82020284601F06DF8227A0E4BF9
:107AF000A08853F8222003920021FFF7EFFD039A9C
:107B00000A490346284605B0BDE8304001F05BB89D
:107B100005B030BDD8CF0200C0CF0200B8CF020000
:107B200044D00200DDCF020068D00200E0CF0200A6
:107B300007B503460846197A052911D05B7A2BB19F
:107B4000094A0A49019001F03EF80198084901905C
:107B500001F039F8019803B05DF804EB01F028B8A2
:107B6000002AF8D0F2E700BFD8CF0200DDCF020034
:107B7000D5CF02002DE9F04385B01F460C9D0023B0
:107B800095F80C902B7306460C46904629463846CD
:107B9000FFF790FFB8F1060F09D8DFE808F00412EC
:107BA000181F283340003146284601F00CF8002207
:107BB00029463846FFF7BCFF85F80C9005B0BDE8B4
:107BC000F08322683146284600F0FDFFEFE7D4E954
:107BD00000233146284600F0F6FFE8E7A36800934B
:107BE0003146D4E90023284600F0EDFFDFE7E368E3
:107BF0000193A36800933146D4E90023284600F09E
:107C0000E2FFD4E723690293E3680193A36800933A
:107C10003146D4E90023284600F0D5FFC7E7636961
:107C2000039323690293E3680193A36800933146A9
:107C3000D4E90023284600F0C6FFB8E708292DE95B
:107C4000F74F80460E4617461C463DD800251B7B45
:107C50002573214610460193FFF72CFFDFF88CA017
:107C6000DFF88CB0AE4232D918F8052059462046CC
:107C700000F0A9FF0135082DF4D11B49DFF874A0ED
:107C8000DFF874B0204600F09EFF4FF000094E452B
:107C900024D918F809507E2D1ED8284605F010F872
:107CA000002814BF2A462E225946204600F08BFF9A
:107CB00009F10109B9F1080FE9D10122214638463D
:107CC000FFF736FF019B237303B0BDE8F08F5146E9
:107CD000204600F078FFCDE72E22E5E7514620460A
:107CE00000F071FFE4E700BFF4CF0200F0CF020024
:107CF000EACF0200F2CF0200F6CF0200C30710B5B0
:107D000007D4F023054A4008145C2340194311545A
:107D100010BD0901C9B20F23F4E700BF50310020A4
:107D200030B5094B1C78094B196800239C4202DCD2
:107D30000022104630BD11F83350854201EBC302DA
:107D4000F7D00133F2E700BF20310020703100206E
:107D500013B504460191FFF7E3FF38B143682BB137
:107D60000199204602B0BDE81040184702B010BD8E
:107D7000034B044819680022490800F05EBA00BFAE
:107D8000243100202831002010B5C0B2FFF7C8FF11
:107D90000446007801F09CFE63785A1E534253411A
:107DA000834208D1044BD3E90023134303D1BDE838
:107DB0001040FFF7DDBF10BD4831002037B5430844
:107DC000374AD35CC2074CBF1B0903F00F030446BC
:107DD0000D46042B25D8DFE803F003262F3C400096
:107DE000F9B10121FFF78AFF00230DF107008DF89B
:107DF000073000F01DFC0120A4F12003C4F1200194
:107E0000284A20FA01F100FA03F30B43A040D2E91B
:107E1000004120430B43C2E900039DF8070000F036
:107E20002BFC03B030BD002918BF0221204603B04F
:107E3000BDE83040FFF762BF49B10321FFF75EFFA5
:107E40000121204603B0BDE83040FFF781BF01218A
:107E5000ECE70029E5D10421E8E709B10321E5E7D2
:107E6000FFF74CFF29462046FFF772FF0DF1070090
:107E70008DF8075000F0DCFB0120A4F12003C4F1D1
:107E80002001084A20FA01F100FA03F30B43A04055
:107E9000D2E9004124EA000021EA0303BBE700BF66
:107EA00050310020483100202DE9F041124E134F8F
:107EB00000243378A34208DC114BD3E90023134399
:107EC00018D0BDE8F041FFF753BF3D6805EBC4088B
:107ED00015F8340001F0FCFD98F801305A1E5342A9
:107EE0005341181A4142414115F83400FFF766FF2B
:107EF0000134DEE7BDE8F081203100207031002040
:107F000048310020092AF7B505460C4616463ED9E9
:107F100001F006FDE8B11F4B1F481D601F4B204FAD
:107F20001C70204B002120221E6004F014FF1E4B09
:107F300000200021C3E90001013CE4B20326FF2C2C
:107F40000DD11A4A1A48002103B0BDE8F04000F0F4
:107F500069B901F0B3FC0028DDD003B0F0BD9DF895
:107F6000063015F834008DF8046005EBC40223F0E8
:107F700007038DF8063001A993788DF805303A464D
:107F800001F0D8FC013CE4B20028D8D0E5E7072096
:107F9000E3E700BF70310020503100202031002085
:107FA000897D02002431002048310020A97E020092
:107FB00088D0020070B5084D084E00242B789C42F2
:107FC00001D3002070BD3368012113F8340001F0A3
:107FD00031FD0134F2E700BF203100207031002074
:107FE0001FB50021039001AA44F20100CDE901115F
:107FF00000F004F805B05DF804FB000038B572B677
:10800000FFF744FDFFF7A6FB0028FBD1104B114CF6
:10801000114D1249E41AE408240444F00100FFF76A
:10802000FBFCD5F8F030DB0700D500BE0C4944F06E
:108030000200FFF7F1FCBFF34F8FEA68094B02F42F
:10804000E0621343EB60BFF34F8F00BFFDE700BF5B
:10805000DCCE020004CF020000ED00E08CD0020074
:1080600098D002000400FA0549B152B1531E1A40DB
:1080700007D1826001608380C260104670470E2085
:1080800070470920704710B58468C2688388121B46
:10809000934208D3C26813400268D154C3680133C5
:1080A000C360002010BD0420FCE78268C3689A42C8
:1080B0000AD08268838813400268D35C0B7083689F
:1080C00001338360002070470520704710B5D0E968
:1080D0000243D1E90202A04272EB03032CBF01204C
:1080E000002010BD08B50A4800F0FDFB094AD2E99E
:1080F0000031C018084BD3E9002341F10001904240
:1081000071EB030303D210F1807041F1000108BD4F
:10811000F02A002078310020F031002037B50546E4
:108120000C460A4801A900F010FC60B105704460DB
:1081300001A9064800F033FC18B1054800F0D8FB4F
:10814000002003B030BD0420FBE700BFDC3100207D
:10815000F02A002038B5184B1B78044613B90025C7
:10816000284638BD0028FAD0037F03F0FF05002B16
:10817000F5D0FFF7B7FFD4E90223904271EB030378
:1081800014D3236903B92377D4E9053098472169CB
:108190000029E4D0237F03F0FF05002BDFD0D4E9D2
:1081A00002325B1842F10002C4E902320348214660
:1081B00000F0E1FFD4E700BF80310020B4D002001E
:1081C00013B5114B11491868019008231048582223
:1081D00000F0A8FB044698B90E4A0F4801A900F028
:1081E0006FFA044660B90C48012100F05FFB0123DF
:1081F0000A4A0948194600F0C1FA094B01221A70CF
:10820000204602B010BD00BFB0D002008431002073
:10821000DC31002085820200F02A0020FFFF7F0071
:10822000803100203AB103685A614A1E51425141DF
:108230001961002070470720704738B5037F044656
:108240000D4683B98261FFF74DFF2369281841F17C
:108250000001C4E9020103B1256121460020BDE807
:108260003840FFF75BBF002038BD0023014603778D
:108270000120FFF753BF0000014800F034BB00BFEE
:10828000F02A00202DE9F347064600F017FB40B125
:10829000584AD2E9003113F1807341F10001C2E97B
:1082A00000310021304600F018FB38B1524C2368F1
:1082B00023B12068FFF74EFF0023236001213046E1
:1082C00000F00BFB20B1FFF70DFF4C4BC3E90001A1
:1082D0004B48494D4B4C4C4F01A900F070FB002816
:1082E00042D1DFF82081444CDFF82491404600F071
:1082F00058FF2368002872D07BB12368D0E902526E
:10830000D3E902138D4272EB03032AD223681B7F49
:108310001BB12168404600F02EFF404600F03BFFB5
:10832000D0E9027A0546FFF7DDFE381A6AEB010A4A
:1083300001287AF1000345DBB0F5350F40D3FFF794
:108340009BFF324A02444FF496030021484600F056
:1083500035FA00283ED1236813B9304600F006FAFA
:10836000256002B0BDE8F0870378012B1DD0022BF9
:1083700009D14FF00008204600F00DFF002836D04C
:1083800080F81C80F7E73BB941680B7F23B90123D4
:108390000B77204600F0EFFE01A9194800F03AFBE8
:1083A00001A9174800F00BFB99E741682B68994237
:1083B00002D100232B60EFE7204600F0F5FEEBE74B
:1083C000AA68C0E70021484600F07DFA2846FFF77A
:1083D000C1FE01E00D28F9D00023236086E7002BC1
:1083E000BFD1304602B0BDE8F04700F0C3B9012369
:1083F0003B70D1E778310020F8310020F0310020C7
:10840000DC310020B4D0020080310020FFFFB40036
:10841000F02A00200648074A03780749D35C012266
:1084200013B1043002F0DCB80C3001F07FBE00BFA5
:10843000F82A002074320020243200200648074A1F
:1084400003780749D35C012213B1043002F07AB8F3
:108450000C3001F01BBE00BFF82A0020743200204F
:108460002532002037B50578012D0DD0022D30D0F2
:1084700075B91F491F48FFF718FE002834D103B013
:10848000BDE83040FFF7DABF037A1BB9FFF7C2FF40
:1084900003B030BD4368184C19782046FFF7F3FD50
:1084A00080B18DF800500190144B68461B689847C6
:1084B000A168E368A2885B1A9A42E7D2104B0122B6
:1084C0001A70E5E7A268E3689A42F1D08DF80000DF
:1084D000EAE7C3688DF800500193FFF79BFF074B55
:1084E00068461B689847D3E703238DF80030F6E70A
:1084F000253200201432002000320020FC31002000
:1085000010320020F0B51F46234B89B004461A6094
:108510000D4600293DD08A8820480968FFF7A4FD50
:10852000002834D1AA89A9681D48FFF79DFD0028BD
:108530002DD11C4E0FCE6D460FC596E80F0085E875
:108540000F0063690693237C174A18488DF81C7046
:10855000003B18BF01238DF81430637C002B14BF3F
:108560000E2300238DF81530E3680293A36803936C
:108570002368019369466368009301F0BFF830B93E
:108580000B4B18702368013301D0FFF743FF09B08C
:10859000F0BD0720FBE700BFFC31002000320020C7
:1085A00014320020C0D0020065840200F82A0020A6
:1085B0001032002070B5084D014608482E78FFF7AC
:1085C00074FD044636B100232B70FFF723FF08B17A
:1085D000FFF706FD204670BD10320020003200205B
:1085E00010B501460E48FFF74EFD0446A8B90D48E8
:1085F0000D4A0378D35C63B1043001F097FF60B992
:108600000A490748FFF751FD38B9BDE81040FFF7A8
:1086100015BF0C3001F02EFDF1E7204610BD00BF64
:1086200014320020F82A0020743200202532002065
:1086300070B5EFF3108672B60C4A946801239CB9AA
:1086400093600B4B0B4DD3F8801029401160C3F899
:108650008050D3F8841051604FF0FF32C3F884206B
:10866000047006B962B670BD0370FAE728320020C4
:1086700000E100E0FC06FFBD084B9A6810B55AB156
:1086800050B9EFF3108172B6054A1C6814605C683B
:108690005460986001B962B610BD00BF2832002056
:1086A00000E100E0435882B03BB1002343504358FF
:1086B0000193019B012002B070471846FBE70000C0
:1086C000F8B5224B4579224E43F82520214A224B0A
:1086D0009B1A06EBC502DB0812791B04EF0032B1CE
:1086E00043F002001D49FFF797F90820F8BD026822
:1086F0000C88C2F8084590F9044002798978002C6A
:10870000ADBF04F1604CDFF85CC002F00F0E0CF559
:10871000614C4FEA4111C9B2B4BF0CF80E108CF88D
:10872000001364090121DFF840C002F01F0201FAC2
:1087300002F24CF82420F21946F83500117143F08A
:1087400003000749FFF768F90020CFE73C3200201B
:1087500034320020DCCE020014CF0200E0D0020050
:1087600002D1020014ED00E000E100E00368012204
:108770001A607047036801225A60704773B501F1AF
:108780005005AD000068ADB24FF480348C40002637
:10879000C0F80843C0F84843465101F5A87145594F
:1087A000019522F07F42019D40F82120C0F844430A
:1087B0000BB1C0F8044302B070BD00002DE9F74FC3
:1087C0000D4622F07F4402684FF4803705F15006D1
:1087D0008F408046B60002EB8500C2F84873B6B2FF
:1087E000C2F80873D2F8041599464FF0000BD0F880
:1087F0004035C0F8401542F806B05B1A9259009215
:1088000023F07F43012B009A4FEA850A0CD1264BB7
:108810004FF4806043F001039847D8F8003043F8E4
:1088200006B09B590193019BD8F80010D1F804655C
:10883000C1F84473A31B23F07F43012B1CD11A4BB7
:1088400005F5A875013443F0010341F825404FF4C4
:1088500080609847D8F80030D3F804359E4209D19B
:10886000D8F800300020C3F84473C3F8047303B091
:10887000BDE8F08F0D20FAE78A44C9F1FF13CAF86A
:108880004045D1F80405221A013A22F07F4203F54F
:108890007F439342EED3002AE2D10134CAF8404527
:1088A000D1F804359842DAE720D1020003680222A9
:1088B000C3F8442309B1C3F80423704700684FF498
:1088C0008271FFF7EFBE4FF4803303FA01F10368C2
:1088D000C3F84813C3F80813704750318900006883
:1088E00089B2FFF7DFBE0368D3F8040570470000C4
:1088F00090F9043001215A0903F01F0301FA03F330
:108900004032024941F82230704700BF00E100E0E8
:10891000024B034A1B681068184700BF3C32002016
:108920003432002010B561B1B2FBF3F403FB142420
:10893000A4B244B9C0E9001484608281C381204696
:1089400010BD0E20FCE70920FAE737B550E8013FDB
:108950009DB2C48925448489A54228BF2D1B048962
:10896000A54202BFBFF32F8F002207E0C5EA03052F
:1089700040E80154002CE9D14FF001028DF80320AA
:108980000193019A0A609DF8031001F0FF0321B1E1
:10899000006810FA82F003B030BD1846FBE70A8881
:1089A0004B889A4209D150E8012FC2EA024240E8BE
:1089B0000123002BF7D1012070470020704737B505
:1089C00050E8023F1FFAA3F5C488A54202BFBFF3D7
:1089D0002F8F00220DE0C48925448489A54228BF39
:1089E0002D1BC3EA054540E80254002CE8D14FF0A6
:1089F00001028DF803200193019A0A609DF803108B
:108A000001F0FF0321B1006800EB124003B030BD5C
:108A10001846FBE70A884B889A4209D150E8022F92
:108A2000C2EA224240E80223002BF7D1012070471E
:108A30000020704701F01F024B090121914000EB1B
:108A4000830000F01EB801F01F0301229A404B0979
:108A500000EB8300D14300F02CB84B0901F01F015B
:108A600050F82300C84000F00100704710B50346DD
:108A700053E8000F0A4643E8002494F0000FF7D1B2
:108A800010BD10B5034653E8002F42EA010043E849
:108A9000000494F0000FF6D110BD10B5034653E862
:108AA000000F00EA010243E8002494F0000FF6D121
:108AB00010BD10B5034653E8002F02EA010043E859
:108AC000000494F0000FF6D110BD10B5034653E832
:108AD000002F02EB010043E8000494F0000FF6D1F0
:108AE00010BD10B5034653E8002FA2EB010043E888
:108AF000000494F0000FF6D110BD0121FFF7C1BFB3
:108B00000021FFF7CABF10B590B1D0E90123016879
:108B10009B1ADBB20A60013BDBB2FF2B026802D179
:108B20000020107110BD11684C1C14600B70F2E72E
:108B30000E20F7E737B5054600240DF107008DF844
:108B40000740FFF775FD2A686B68116899420ED9D6
:108B5000481E106011F8013CEC68298A01FB0344AF
:108B6000AB6811791B1ADBB2994238BF13719DF8BB
:108B70000700FFF781FD204603B030BD37B505463D
:108B800000230DF107000C468DF80730FFF750FD6C
:108B90002A681368591C1160E968641A298AB4FBB1
:108BA000F1F41C709DF80700FFF766FD03B030BDBF
:108BB000826810B504462AB1436901680069984784
:108BC0000023A36010BD0EB403B5039921B104AB1B
:108BD00001AA019300F076F802B05DF804EB03B04F
:108BE00070470A2938B504460D4602D10D21FFF71A
:108BF000F8FFA3682268591CA160D554D4E901325A
:108C00009A4204D32046BDE83840FFF7D1BF38BDB3
:108C10002DE9F84F9846DDE90A43154682460F468E
:108C20000A464FF00109AA420FD2C14538BFC146DA
:108C300013F0010B01D16CB900240126B8F1010F2A
:108C40001BD908F1FF386E43F8E709F10109B2FBBF
:108C5000F5F2E8E79B070ED5B8F1000F0CBF302600
:108C60002026A145E9D2013C31465046FFF7B9FF25
:108C7000002CF6D1E0E72026F3E7B7FBF6F39D42A0
:108C8000E1D9DFF83C80B7FBF6F3504618F8031043
:108C900006FB1377FFF7A5FF3346AB42B6FBF5F6AD
:108CA000F1D2BBF1000F02D00CB1A14501D3BDE858
:108CB000F88F20215046013CFFF793FFF4E700BFF7
:108CC00026D102002DE9F74F0546174688460029B0
:108CD00000F03E8118F8011B49B92B7B002B00F0F6
:108CE0003781284603B0BDE8F04FFFF761BF252963
:108CF00040F0B780002698F800302D2B424608F14E
:108D0000010823D0302B24D02B2B25D000242A2B54
:108D100002F1010123D13B681A1D1B683A601C4413
:108D20000A4613782E2B26D101324FF0000A104646
:108D300010F8011BA1F1300CBCF1090F1DD80A235A
:108D400003FB0A13A3F1300A0246F0E746F00106DE
:108D5000D1E746F00206CEE746F00406CBE711F86D
:108D6000013CA3F130000928DBD80A2202FB0434BD
:108D7000303C0A46CBE74FF0000A12F8011B01F025
:108D8000FB0068289046F8D0782909D86F290CD8BC
:108D9000632962D022D8252963D0582900F0888021
:108DA00098F80030002B95D197E770390829F7D84B
:108DB00001A353F821F000BF2B8F0200A18D020008
:108DC000A18D0200C18E0200A18D02009F8E0200C3
:108DD000A18D0200A18D0200B18E0200642901D094
:108DE0006929DDD13A68D2F80090111D89EAE9724B
:108DF0003960A2EBE9724FF0010B092A35DCD3454B
:108E000038BFD3462CB1B9F1000F01DB720700D592
:108E1000013CB30702D5BAF1000F03D0F00701D42B
:108E20004CBB0024B9F1000F2DDAC9F100092D2146
:108E30002846FFF7D6FE06F00302022A04D1BAF153
:108E4000000F01D11CBB0024CDE9004653460A2285
:108E500049462846FFF7DCFEA2E73B681A1D197851
:108E60003A602846FFF7BDFE9AE70A230BF1010B93
:108E7000B2FBF3F2C1E7A345D4D220212846013C3E
:108E8000FFF7AFFECCE77107D5D52B21D0E7A3457F
:108E9000DAD230212846013CFFF7A3FED2E7396839
:108EA000CDE900460A1D3A6053460A220968D0E718
:108EB00039680A1D3A60CDE9004653461022F5E7AD
:108EC0003B681A1D3A6016F00106D3F8009024D1D1
:108ED000B9F1000F03D0484603F092FF0646B442B2
:108EE0001DD809F1FF3919F8011F00293FF458AFC7
:108EF0002846FFF776FEF6E728460136FFF771FEB3
:108F000019F806100029F7D1A642BFF449AF202175
:108F10002846013CFFF765FEF6E70026F0E7202132
:108F20002846013CFFF75DFED9E73B681A1D3A6011
:108F3000302128461C68FFF754FE78212846FFF7A9
:108F400050FE00220823CDE900322146102280E79E
:108F500003B0BDE8F08F00BF2DE9F84FB0F806A0D0
:108F60004579D2F800B09DF828900AFB05F5043D3C
:108F700088460BEB0301A94203F1040488BFA5EB6B
:108F8000030BB4FBFAF607460AFB1644C2F800B01E
:108F90004EB9AAEB04055D4528BF5D46BBF1000F45
:108FA00004D1BDE8F88F3F68013EF1E7043408EBD7
:108FB00006003C442A46B9F1000F0DD02146ABEB28
:108FC000050B03F09FFEDA452E443F6855464FF0EF
:108FD000000428BF5D46E1E701462046EFE7FFF7C2
:108FE00092BDF8B546790146721E054600239342AC
:108FF0002D6803D30024A64202D8F8BD0133F6E75A
:109000000F682846FFF7BAFD01343946F3E72DE92A
:10901000F843068ACD1C0746FFF78CFD043E354415
:109020000446B5FBF6F5F0B14FF48073EDB28380E2
:10903000C680013D076081464FF00008A84512D266
:109040003846FFF777FD064648B16379013363710F
:1090500008F10108C9F8000007608146EEE72046E4
:10906000FFF7BFFF34462046BDE8F88301210430F6
:10907000FFF72BBD10B5012104460430FFF731FD89
:10908000C0B220B92046BDE81040FFF7AABF10BD0E
:109090001FB503920022009203AAFFF75DFF05B0FF
:1090A0005DF804FB1FB503920122009203AAFFF7AB
:1090B00053FF05B05DF804FB41DF7047064B10B568
:1090C00000241C70054B1C60BFF35F8F04490548EA
:1090D00000F03BF8204610BD483200204C32002002
:1090E00040D102004032002007B500230DF10700F7
:1090F0008DF80730FFF79CFAF1EE103A23F09F034A
:10910000E1EE103ABFF35F8F0A4B4022C3F884218F
:109110009DF80700FFF7B0FA03F09AFB20B103B007
:109120005DF804EBFFF7C8BF20BF40BF20BF03B00E
:109130005DF804FB00E100E0836800225A60C3E9A7
:1091400004229A60DA601A6070470B684A684360CC
:10915000934208BF0023016008BF43607047436823
:1091600043B10268916852680B449342436004BF64
:1091700000234360704770B5446806460D4620687A
:1091800018B1B3682946984718B923682B60256041
:1091900070BD2468F3E74368186808B102681A6074
:1091A00070474368186870474368186800B970478B
:1091B000884203D102681A600120704703460068A4
:1091C000F4E7000010B50D49A1F59472914201D861
:1091D00000200FE08C1AE30F03EBE4035B1002EBBB
:1091E000C30452F83330834205D802D204F1080296
:1091F000ECE7606810BD2146E8E700BF4CD60200EE
:1092000008B5FFF7DFFF024B002808BF184608BD6E
:109210000FD5020010B50446C0B2FFF7E1F92046B1
:1092200010BD4FF08053D3F83021082A03BFD3F884
:109230003401B0FA80F040090020704708B54FF0C3
:1092400080430022C3F80C21C3F81021C3F838254D
:109250004FF0805203F54043D2F80414C3F82015B0
:10926000D2F80814C3F82415D2F80C14C3F8281542
:10927000D2F81014C3F82C15D2F81414C3F8301512
:10928000D2F81814C3F83415D2F81C14C3F84015DA
:10929000D2F82014C3F84415D2F82414C3F84815A2
:1092A000D2F82814C3F84C15D2F82C14C3F8501572
:1092B000D2F83014C3F85415D2F83414C3F860153A
:1092C000D2F83814C3F86415D2F83C14C3F8681502
:1092D000D2F84014C3F86C15D2F84424C3F87025B2
:1092E000FFF79FFF18B13B4B3B4AC3F88C26FFF7B3
:1092F00098FF18B1394BFB22C3F81825FFF791FFEF
:1093000070B14FF080414FF08053D1F8E42ED3F884
:10931000583222F00F0203F00F031343C1F8E43E6A
:10932000FFF77FFF20B12E4B4FF40072C3F84026A9
:109330004FF08043D3F80024D20744BF6FF00102FE
:10934000C3F80024274AD2F8883043F47003C2F8E7
:109350008830BFF34F8FBFF36F8F4FF01023D3F8D8
:109360000022002A03DBD3F80432002B2EDA1E4B36
:109370000122C3F80425D3F80024002AFBD04FF0C3
:1093800010221221C2F80012D3F80024002AFBD0C8
:109390004FF010231222C3F80422134BD3F80024F9
:1093A000002AFBD00022C3F80425D3F80024002AA9
:1093B000FBD0BFF34F8F0B490C4BCA6802F4E0623D
:1093C0001343CB60BFF34F8F00BFFDE7084B094A43
:1093D0001A6008BD005000404881030000F00040C2
:1093E0000090024000ED00E000E001400400FA05BA
:1093F0000C2B00200090D003074B1B5C1F2B8ABF57
:10940000064A4FF0A04203F01F03D2F80405D840EB
:10941000C04300F00100704750D602000003005026
:10942000074B1B5C1F2B86BF064903F01F034FF041
:10943000A041012202FA03F3C1F80C35704700BFC6
:1094400050D6020000030050074B1B5C1F2B86BF49
:10945000064903F01F034FF0A041012202FA03F373
:10946000C1F80835704700BF50D602000003005015
:1094700008B50020FFF7E8FF0120FFF7E5FF022015
:10948000FFF7E2FFBDE808400320FFF7DDBF08B5A6
:109490000020FFF7C5FF0120FFF7C2FF0220FFF702
:1094A000BFFFBDE808400320FFF7BABF0A4B185CB6
:1094B0001F288ABF094B4FF0A04300F01F00D3F8CC
:1094C00004250121814021EA02000A40C3F8080571
:1094D000C3F80C25704700BF50D6020000030050AF
:1094E000074B1B5C1F2B8ABF064A4FF0A04203F0BC
:1094F0001F03D2F81005D840C04300F001007047A8
:109500004CD60200000300500B2809D00C2809D0CB
:10951000182809D019280CBF03204FF0FF307047DE
:10952000002070470120704702207047014B185CF3
:10953000704700BF4CD60200C20710B504460CD5D8
:109540004FF0A0430322C3F83427C3F83827C3F8E9
:109550003C27C3F84027FFF78BFFA3070AD54FF03E
:10956000A0430C22C3F82C27C3F83027C3F8602788
:10957000C3F8642710BD000038B5074C051E04F180
:10958000080318BF1C4623682BB11A6822605B6869
:1095900028469847F7E738BD5832002020B9054BD8
:1095A00001225A70FFF7E8BF012802D1014A9070EA
:1095B000F8E770475032002020B9034B01225A705F
:1095C000FFF7DABF704700BF5032002038B50B4CB0
:1095D000237883B90A486360A3602361E36000F0E5
:1095E000CBF8054603F034F908B900F0D1F80123AF
:1095F0002370284638BD8525FBE700BF5032002088
:109600009D95020037B50B4C00230DF107008DF836
:109610000730FFF70DF8E368013BE360E56815B933
:1096200000F0C8F8A5709DF80700FFF725F803B013
:1096300030BD00BF50320020012813B508D00328E8
:109640001CD018B9114B0122C3F8802002B010BD04
:109650000F4C00230DF107008DF80730FEF7E8FFEF
:1096600023780BB9FFF7B2FFE3689DF807000133D9
:10967000E3600123A370FEF7FFFFE7E700F088F83F
:1096800002B0BDE81040FFF7BDBF00BF00E100E041
:10969000503200201FB503788DF8003043680193E5
:1096A00083688DF80830C368054A0393054B684604
:1096B00053F8213052F82110984705B05DF804FBAB
:1096C000643200206C3200201FB503788DF8003022
:1096D0004368019383688DF80830C368054A039393
:1096E000054B684653F8213052F82110984705B0D1
:1096F0005DF804FB643200206C320020F0B5194B99
:1097000090F800C0DFF86CE043F82C20164B1646AA
:109710000A6943F82C204B7F0EF80C300C460746A4
:109720000FCC89B06D460FC594E80F0085E80F0097
:109730003B78CDF810C01EF803304BB1002E0B4A19
:10974000694608BF3246381D00F00EFE09B0F0BD74
:10975000002E074A694608BF324607F10C0000F0A8
:10976000B5FBF3E76C3200206432002095960200CE
:10977000C996020074320020044A137923B90121EA
:10978000106091801846704785207047783200201D
:10979000074B1A68D2075FBFC02283F8002301225B
:1097A0001A604FF080430122C3F81825704700BFAC
:1097B00000E100E04FF080430122DA60D3F8182482
:1097C000D203FBD4704700004FF0804307B5D3F8B5
:1097D00000217AB10022C3F80021D3F800210092C1
:1097E000009A0122C3F808230F4B587910B95A7117
:1097F0001B6898474FF08043D3F8042182B10022C0
:10980000C3F80421D3F804210192019A0222C3F87B
:109810000823054B1B68012003B05DF804EB1847D3
:1098200003B05DF804FB00BF7832002000F18040F7
:1098300000F5C040002382B0036003680193019BE0
:1098400002B0704703681F2B83BF03F01F03036040
:1098500001484FF0A04070470003005007B5019049
:1098600001A8FFF7EFFF019B00EB8300D0F8003762
:1098700023F44033C0F80037D0F8003743EA014101
:10988000C0F8001703B05DF804FBC208012300F024
:10989000070003FA00F08B5C1843885470470000FF
:1098A000054B4FF0FF32072843F8202084BFC01833
:1098B00080F85820704700BF8032002038B5144D22
:1098C00095F86A4014BB3022FF21A81803F043FA30
:1098D000E0B20134FFF7E4FF0C2CF9D10D4B00226C
:1098E0006A669A800C4BC02183F8061340211960E8
:1098F0004FF4BE70FFF79AFF084B4FF00041C3F8DA
:109900000413012385F86A30104638BD0820FCE7AF
:1099100080320020E432002000E100E000600040DE
:10992000034B93F86A00003818BF0120704700BF4E
:10993000803200202DE9F341DFF8F48008EB0003CA
:10994000054693F93030002B0F466CDA8B78C3F361
:109950004003002B0BBF082400240C2108218C425B
:1099600003D1042002B0BDE8F08158F82400013092
:1099700041D108EB050166B248F8242081F8306037
:109980001BB908EB040383F85850BB785A0712D46C
:10999000D90732D501A80195FFF754FF019B00EBD1
:1099A0008300D0F8003723F00203C0F800371F49C6
:1099B0002846FFF76AFFBB783A7813F0020328D0F5
:1099C000A40004F1804404F5C0442D02D4F81035FD
:1099D00023F44F3323F44073C4F810351204D4F841
:1099E000103505F47C5502F4403215431D43C4F88C
:1099F00010550020B6E70134B1E701A87A78019547
:109A0000FFF720FF019B03F5E073920040F823204D
:109A1000CDE7083E48FA86F898F8605045EA821289
:109A200088F86020E5E708209CE700BFE4320020CA
:109A30008032002073B5244D2E18044696F930204C
:109A4000072A1DDD083A45FA82F595F860309B0932
:109A5000032B10D1019001A8FFF7F4FE019BD0F871
:109A60001015D94001F001010231204602B0BDE8D5
:109A70007040FFF7F3BE012B0CBF02210321F4E776
:109A8000D3B2072B1DD8930003F1804303F5C043E5
:109A9000D3F8100540F00100C3F8100502F14000B2
:109AA00040B2800080B2FFF7C1FE51B196F930306C
:109AB00055F823302BB1012303FA02F2034BC3F80C
:109AC000042302B070BD00BF80320020006000405F
:109AD00007B5019001A8FFF7B5FE019BD0F810056E
:109AE000D84000F0010003B05DF804FB2DE9F04F11
:109AF00000248BB0CDE90444654D4FF48072012100
:109B000002F1804303F5C04390B21B68012B06D1DC
:109B1000D5F804330B4202D0FFF788FE0C43043221
:109B2000B2F5907F4FEA4101EAD1594BD3F87C312D
:109B3000012B0ED14FF4BE70FFF778FE4FF0A0431B
:109B400044F00044D3F810350493524BD3F8103549
:109B50000593E3B2D3B1504F00250126344210D013
:109B6000AB0003F1804303F5C043D3F81005D3F8ED
:109B7000101557F8253023B1C1F30141C0F305207A
:109B800098470135082D4FEA4606E7D1002C7BDACD
:109B90000023CDE906334FF0FF33CDE90833DFF87A
:109BA000F8A03E4B019300263546019B13F9014B6B
:109BB0000193631C4FD0C4F3C2070122E3B204F047
:109BC0003F0B04F0070402FA04F407F128020DEB3E
:109BD000020717F8081C21423DD00AEB0B014FEA9F
:109BE000931991F930105AF82180B8F1000F07D17C
:109BF000B9F1030F2FD106A95846FFF746FE02E040
:109C0000B9F1030FF7D003A8CDF80CB0FFF71AFE97
:109C1000039901F5E07150F8211017F8180C204253
:109C2000C1F3014106D0022915D1B9F1030F0CD1BE
:109C3000494605E003290ED1B9F1030F05D10221F0
:109C40005846FFF70BFE0135EDB2B8F1000F02D018
:109C500049465846C0470136042EA6D1A5B14FF05B
:109C6000A0430499D3F8102503F540739142D3F82B
:109C7000103502D10599994206D004920593069AAF
:109C8000079B089209938CE70BB0BDE8F08F00BFEB
:109C9000006000400003005080320020E0320020CD
:109CA000014B1B68184700BFEC3200200E4B984256
:109CB00037B50C4602D0002003B030BD00230DF1B3
:109CC00007008DF80730FEF7B3FC084B1D7915B976
:109CD00001221C601A719DF80700FEF7CDFC002DD3
:109CE000E9D01120E8E700BF00200040EC3200205E
:109CF0000023435082B043580193019B02B0704748
:109D00000A4610B54FF48E71FFF7F2FF136A91689F
:109D1000C95C136A01331362C0F81C1510BD0246FA
:109D200008B500684FF49271FFF7E2FF10684FF436
:109D30008471FFF7DDFF136801221A6008BD8B698B
:109D40000A4610B54FF4847123B9FFF7D1FFD0F85C
:109D5000183510BDFFF7CCFF536AD168D0F818054D
:109D6000C854536A01335362F3E700001FB501235F
:109D70008DF80030044BCDE90110D3E9001268469C
:109D8000904705B05DF804FBF432002030B54D4D2E
:109D9000D5F804339A0585B051D5D5F82431002B78
:109DA0004DD04FF492712846FFF7A2FF4FF4017394
:109DB000C5F80833444B93F829200AB901226A6098
:109DC000404902228DF80020D1F88024C1F8802477
:109DD00003929A690292DA6801920022C3E906228C
:109DE0006846D3E9001290473648D0F81C315BB181
:109DF000354A5169136A99424DD992F82830002B9F
:109E000049D11146FFF77CFF2E48D0F84431002B92
:109E100056D04FF4A271FFF76BFF2B4B93F829201C
:109E20000AB1012202609A69002A49D0586AD968A9
:109E300000229A6105B0BDE83040FFF797BFD5F822
:109E400004335B07D0D5D5F80831002BCCD01E4C9D
:109E50001C482146FFF773FF636AA2699A42C3D187
:109E6000E369E1684BB1A3612369E3600023606AA1
:109E7000E3616362FFF77AFFB6E794F829300BB924
:109E800001236B600F4B4FF40172C3F808230023CA
:109E9000606AA361EEE70B484FF48E71FFF728FF6D
:109EA0005369002BB0D051690291002391688DF85D
:109EB0000030019153616846D2E900139847A3E747
:109EC00005B030BD00200040F43200202DE9F843F9
:109ED000624D90F804802C2303FB0853064693F848
:109EE0002A300C469146002B40F0B4805C49006853
:109EF000FFF7DCFE0746002840F0AE802268531CC6
:109F000010D01F2A87BF574902F01F0313464FF096
:109F1000A0410120984003F5E073C1F80805032033
:109F200041F823006168481C0DD01F298BBF01F048
:109F30001F030B464B484FF0A04003F5E0734FF072
:109F4000000C40F823C03068A369C0F8243594F8A9
:109F500014C0637DBCF1010F4CEA0303C0F86C35FB
:109F6000C0F81415C0F80C252BD1A368591C0DD0CE
:109F70001F2B8BBF03F01F021A463A494FF0A04136
:109F800002F5E0724FF0000C41F822C0E1684A1C73
:109F900013D01F2987BF334A01F01F0C8C464FF0A6
:109FA000A0424FF0010E0EFA0CFE0CF5E07CC2F858
:109FB00008E54FF0030E42F82CE0C0F80815C0F891
:109FC00010352C2202FB08F2AB18C3F80490236969
:109FD000AB50B9F1000F2AD04FF48E71247FFFF7F8
:109FE00087FE30684FF4A271FFF782FE32681E4B85
:109FF000C2F80433130B42F30732002AA8BF02F160
:10A0000060404FEA4411BABF184803F00F0400F54E
:10A010006140C9B2B4BF015580F8001303F01F03BB
:10A02000012101FA03F35209114941F82230336842
:10A030000422C3F800252C2303FB08530022C3E9A4
:10A04000062283F829205A61012283F82A20384603
:10A05000BDE8F8830827FAE71127F8E7F432002073
:10A060008D9D0200000300508000020014ED00E00E
:10A0700000E100E00279044B2C2101FB0233586916
:10A08000003818BF01207047F43200202DE9F84F46
:10A09000064690F8048089469246FFF7EBFF044697
:10A0A00000283CD1204F2C2508FB057B4FF48E71F6
:10A0B000CBF814A0CBF80890CBF820008BF8280040
:10A0C0003068FFF715FE3068012383605946FFF7BB
:10A0D00017FEDBF804305D461BBB3068DBF814402C
:10A0E0002B6A9C4211D83368D3F81C21002AFBD07C
:10A0F0000122DA6000202C2303FB087700237B6118
:10A10000BDE8F88F95F828303BB9D0F81C31002B0A
:10A11000F8D05946FFF7F4FDE2E70F20EBE71120F6
:10A12000EEE72046ECE700BFF43200202DE9F047CF
:10A130003A4D07792C2303FB075306465C6824B18C
:10A1400003684FF40170C3F808032C2303FB075383
:10A15000986950B1D869002841D024B133684FF4D0
:10A160000172C3F80423112436E09A61D960586261
:10A17000D8612C2303FB075393F829301BB910B97E
:10A180003046FFF7CCFD4FF02C0808FB075A30682B
:10A19000DAF80430002B37D14FF4A271D046FFF724
:10A1A000A7FD3068D0F82491D0F80831D0F84441A8
:10A1B000CBB914B9B9F1000FF3D02C2303FB075529
:10A1C0000023AB61B9F1000F24D12CBB95F8291005
:10A1D00033680122B1B11A602046BDE8F0871961E9
:10A1E000DA610120C5E7B9F1000FE6D1002CE4D116
:10A1F0004146FFF7A4FDDAF82430DAF818209A4235
:10A20000CFD8DAE75A60E7E74FF40173C0F80433B8
:10A210000024E1E70324DFE70F24DDE7F432002028
:10A220000023435082B043580193019B02B0704712
:10A230001FB501238DF80030044BCDE90110D3E99F
:10A2400000126846904705B05DF804FB20330020FB
:10A250007FB5434AD2F82461002E60D010464FF4F7
:10A260009271FFF7DDFF02238DF80030D2F88034C1
:10A27000C2F880340393D2F83C350293394BDA6844
:10A2800001920022C3E906226846D3E900129047F2
:10A290003348D0F8443173B14FF4A271FFF7C0FFD7
:10A2A000304B9A693AB10022C3E90622D968D0F846
:10A2B0003C05FFF7BDFF2A48D0F82031ABB14FF481
:10A2C0009071FFF7ADFF0123C360264B5A6962B15D
:10A2D000D0F84C150291002299688DF80020019168
:10A2E0005A616846D3E9001290471D48D0F85831AA
:10A2F0009BB14FF4AC71FFF793FF1A4B5A6962B1EF
:10A30000D0F84C150291002299688DF80020019137
:10A310005A616846D3E90012904704B070BDD2F884
:10A320001031002BB4D04FF488711046FFF778FF3E
:10A330000C4BD2F83C0599698842A9D1DC69D968EF
:10A3400064B1D2F8005225F02005C2F800521A6913
:10A350009C61DA60DE61FFF76BFF99E79C61FAE7C9
:10A3600000200040203300202DE9F843694E90F88A
:10A370000480242303FB0863044693F820300D4631
:10A380009146002B40F0C18063490068FFF78EFCC6
:10A390000746002840F0BB8029684B1C10D01F29BD
:10A3A00087BF5E4A01F01F030B464FF0A042012019
:10A3B000984003F5E073C2F80805032042F8230033
:10A3C0006A68501C0DD01F2A8BBF02F01F03134672
:10A3D00052484FF0A04003F5E0734FF0000C40F8F6
:10A3E00023C02068AB69C0F8243595F814C06B7D94
:10A3F000BCF1010F4CEA0303C0F86C35C0F80C1532
:10A40000C0F814252BD1AB68591C0DD01F2B8BBF66
:10A4100003F01F021A4641494FF0A04102F5E072D5
:10A420004FF0000C41F822C0E9684A1C13D01F29E4
:10A4300087BF3A4A01F01F0C8C464FF0A0424FF004
:10A44000010E0EFA0CFE0CF5E07CC2F808E54FF0A8
:10A45000030E42F82CE0C0F80815C0F8103524228D
:10A4600002FB08F2B318C3F804902B69B350B9F19A
:10A47000000F39D04FF488712A7FFFF7D1FE206892
:10A480004FF49071FFF7CCFE20684FF49271FFF704
:10A49000C7FE20684FF4A271FFF7C2FE20684FF498
:10A4A000AC71FFF7BDFE23681D49C3F80413190BF7
:10A4B00043F30733002BAEBF03F1604001F00F05FB
:10A4C00018484FEA4212A8BF00F56140D2B2B4BFAB
:10A4D000425580F8002301F01F01012202FA01F128
:10A4E0005B09114A42F8231023680822C3F80025AB
:10A4F000242303FB08660023C6E9063373610123A6
:10A5000086F820303846BDE8F8830827FAE7112797
:10A51000F8E700BF2033002051A2020000030050E2
:10A520001003420014ED00E000E100E00279044B6A
:10A53000242101FB02335869003818BF01207047FD
:10A540002033002001F06043B3F1005F2DE9F047B4
:10A550000646884692463BD190F80490FFF7E6FF06
:10A560000446002836D11D4F3068242505FB0975A7
:10A570004FF49071C5F814A0C5F80880FFF750FE9D
:10A580004FF4AC713068FFF74BFE33686A69A96815
:10A59000C3F84415C3F8482501229A606A68DAB9FD
:10A5A000D3F82021D3F858011AB90028F8D00F2089
:10A5B00007E00028FBD10122DA60D3F85821002AF5
:10A5C000FBD0242303FB097700237B61BDE8F087E0
:10A5D0001020FBE71120F9E72046F7E720330020A1
:10A5E000F8B501F06043B3F1005F04460F465ED159
:10A5F0000379304D242101FB0351496821B10068E2
:10A600004FF40476C0F80863242000FB03539E69CE
:10A6100056B1D869002839D021B123684FF40472AB
:10A62000C3F80423112030E09A61DF60DE61206806
:10A630004FF48871FFF7F4FD20684FF4A271FFF723
:10A64000EFFD2368C3F83475C3F8382516BB012223
:10A650001A602479242202FB045252680ABBD3F800
:10A660001011D3F84421D3F82401114302D100285A
:10A67000F5D00A46242303FB04550023984218BF53
:10A6800003209A42AB6118BF0F20F8BD1F61DA6149
:10A690000126CCE7D3F8002242F02002C3F80022C2
:10A6A000D7E74FF40472C3F804230020EDE710202D
:10A6B000EBE700BF203300201F288ABF094B4FF073
:10A6C000A04300F01F0003EB8000D0F8003723F414
:10A6D0004033C0F80037D0F8003743EA0141C0F8F2
:10A6E00000177047000300500220FEF7DFBE000095
:10A6F0002DE9F04780460D46FEF706FF0328044685
:10A7000010D8012D10D0022D30D05DB91A48FDF7B8
:10A71000ACFD1A4B04EB440213449D78184B1B5DAF
:10A72000AB4219D0BDE8F087144E00EB4003F2189D
:10A73000F55C5378470053B1DFF84C900E484A4619
:10A740004FF48041FDF779FD08B989F8008027446E
:10A750003E440B4BB2781A55002DE3D0094B1B68D1
:10A76000002BDFD02846BDE8F047184700EB400437
:10A77000024804446578EFE768330020A8330020DE
:10A78000C1330020BC330020443300200078022174
:10A79000FFF7AEBF08B5094B1B7853B10020FEF799
:10A7A00053FE0120FEF750FEBDE808400320FEF7EF
:10A7B0004BBEBDE80840FEF75BBE00BF453300203E
:10A7C000F8B57A4C237805461BB100232370FFF7B8
:10A7D000E1FF172D00F28780DFE805F00C17174224
:10A7E0005364757F878C878C949999999999C3C87C
:10A7F000D0D8E3E3FFF7CEFF6D48FDF736FD6D4B94
:10A80000002204461A702046F8BD0020FEF7F4FD31
:10A81000F0B10020FEF718FE022D0CBF4FF4E164EA
:10A820004FF47A64634B1D7000254FF400464FF4DB
:10A830007A7029464FF4FA620023E4FB060102F025
:10A8400089F92A460146BDE8F8405948FDF7F5BCAC
:10A85000FEF7E6FD022D0CBFC8244FF4C874E1E7F3
:10A860000020FEF7C9FD40B10020FEF7EDFD4FF4DA
:10A870004874504B03221A70D6E7FEF7D1FDC82466
:10A88000F7E70020FEF7B8FD38B10020FEF7DCFD49
:10A890004FF47A64474B0422EDE7FEF7C1FD4FF415
:10A8A000C874F7E70020FEF7A7FD48B10020FEF7C7
:10A8B000CBFD404B05221A7040F6CD410022C2E785
:10A8C000FEF7AEFDF5E70020FEF7F0FD394B06225E
:10A8D0001A70002240F26661B5E70020FEF7A0FD85
:10A8E000344B07221A7000248DE701202070FEF7F8
:10A8F000DDFDEEE701202070FEF7D8FD00224FF4C9
:10A900000051A0E7FEF7C3FD2A4B0C22EAE72A48D4
:10A910002A4EFDF7AAFCD5F1110504461CD0D8B982
:10A92000012D13D0C820454321464FF400474FF472
:10A930007A704FF4FA620023C5FB070102F00AF9AE
:10A94000224601461C48FDF778FC04460220FEF72B
:10A9500067FD0123337056E70220FEF775FD0023E3
:10A96000F8E7FFF717FF134B1222BBE7FFF712FFC1
:10A970000020FEF755FD0F4B1322B3E7FFF70AFF48
:10A980000120FEF74DFD0B4B1422ABE7FFF702FF52
:10A990000020FEF745FD0120FEF742FD054B152284
:10A9A000A0E7FEF774FD034B1D709CE7B833002051
:10A9B00088330020C0330020483300204533002076
:10A9C000044B1B68DB0703D5034B1878FFF7F8BE71
:10A9D000704700BFB4330020C0330020032801D8E3
:10A9E000FEF77EBD00207047044B1B6813F0010387
:10A9F00001D0FFF7E5BE1846704700BFB433002012
:10AA000038B51C4B18601C4B10F002040546196049
:10AA10001AD01A4B1A480E221A700F22DA7010221E
:10AA20009A7111225A72042140F23332FDF76AFA08
:10AA3000044648B9FDF7BEFA044628B90146114A52
:10AA40001148FDF7EFFB0446EB0711D50120FEF797
:10AA500073FD6CB921460D4A0D48FDF7E3FB044632
:10AA600030B9BDE838400B4A0B480121FDF7DABB8D
:10AA7000204638BDB4330020BC330020A83300206A
:10AA800074D602008DA7020098D60200C1A9020068
:10AA90009CD60200E9A6020094D60200032811D831
:10AAA000012A0AD101290FD100F10E02D2B20D4BB9
:10AAB00000EB40001A54002070470129F7D002290A
:10AAC00004D049B1072070470022F8E7054B00EB9E
:10AAD000400018444270EEE7024B00EB400018447F
:10AAE0008270E8E7A8330020032808B506D8FEF7EF
:10AAF0001DFD0321FFF7E0FD002008BD0620FCE757
:10AB000008B5012202210020FFF7C8FF08B107287D
:10AB100010D1072202210120FFF7C0FF08B107284A
:10AB200008D100210A220846FFF7B8FF10B1072814
:10AB300008BF002008BD00000388102B10B502D00C
:10AB4000112B1ED010BD1A4C2168B1B90122084644
:10AB5000FFF7A4FF08B1072824D107220221012012
:10AB6000FFF79CFF08B107281CD104220221002016
:10AB7000FFF794FF08B1072814D12368013323603D
:10AB8000E0E70B4A1368013B1360002BDAD1FFF7B3
:10AB9000B7FF0028D6D0074B1B68002BD2D0BDE8EA
:10ABA00010401847034B1B68002BE6D09847E4E79A
:10ABB000CC330020C833002008B50020FFF794FFF5
:10ABC00008B1062806D10120FFF78EFF10B1062834
:10ABD00008BF002008BD00000D4B10B518600C46E2
:10ABE00029B10120FFF7FAFE40B102232370094B7F
:10ABF0001B6853B9BDE81040FFF782BFFFF7EEFEB8
:10AC000008B10B23F2E72070F1E7002010BD00BF70
:10AC1000C8330020CC33002076DF70477ADF7047DE
:10AC20007CDF70477FDF70478FDF7047B1DF704791
:10AC300033DF7047FDF7D4B908B50020FFF7D4FE25
:10AC400008B1FDF7CDF9FFF7B7FF08B1FDF7C8F977
:10AC5000FFF7EEFF18B1BDE80840FDF7C1B908BD28
:10AC60000388212B13B504463FD007D8112B2DD0D4
:10AC7000132B48D0102B0CD002B010BD522B4AD051
:10AC8000562B01D03B2BF7D1A0881321FFF7C4FF2F
:10AC900015E0254B25482649C01AC008000440F09D
:10ACA0000300FCF7B9FE0720FFF79EFE08B1FDF791
:10ACB00097F9204BA1882048198001F0A3FB0028B8
:10ACC000DAD002B0BDE81040FDF78AB9164B17483C
:10ACD0001A49C01AC008000440F00300FCF79CFEAB
:10ACE000144B4FF6FF721A80C6E7002380888DF858
:10ACF000043001A98DF80530FFF796FF0028BBD07E
:10AD0000FDF76EF9B8E70B4800231A468521008845
:10AD1000FFF788FFD3E7074800231A461946008843
:10AD2000FFF784FFCBE700BFDCCE020004CF0200B8
:10AD3000A0D60200162B002014390020AAD602004B
:10AD400008B503784BB9054B3B211888FFF764FF22
:10AD500018B1BDE80840FDF743B908BD162B002027
:10AD6000072808B513D00A280DD0042819D10D4B97
:10AD700013211888FFF750FF30F0080311D0BDE809
:10AD80000840FDF72DB9BDE80840FFF755BF054B5A
:10AD90001A884FF6FF739A4203D1034800F0D3FE9E
:10ADA000EAE708BD162B0020C834002008B548B1DA
:10ADB00003280BD10220FFF717FE38B1BDE8084089
:10ADC000FDF70EB9BDE80840FFF736BF08BD00002B
:10ADD000F7B50378012B33D0022B31D073BB1B4C5A
:10ADE0001B4D20782844FDF7E5FB23780133DBB2C7
:10ADF0001D44237015F8012C0A2A05D00D2A03D012
:10AE0000144A12889A4219D8012B15D9124D104EA6
:10AE1000124F2378ADF806300DF106022B8831462B
:10AE2000384601F05BFC082806D01328F1D005282D
:10AE300002D008B1FDF7D4F80023237003B0F0BDB1
:10AE4000406803B0BDE8F040FDF7CAB8C434002044
:10AE5000D0330020142B0020162B0020182B0020AC
:10AE60002DE9F0410578064645BB154C154BDFF83A
:10AE70005880E41AE408240444F00104B28A95429C
:10AE80000AD33369134413F8013C0D2B16D10A2061
:10AE9000FDF7A6FB1128F9E73369585DFDF7A0FB24
:10AEA000074648B11128F7D0024641462046FCF734
:10AEB000B7FD3846FDF794F80135DFE7BDE8F081CE
:10AEC00004CF0200DCCE0200B7D602000D4B4A8848
:10AED0001B889A4214D10A8840F677239A420FD1F0
:10AEE0008B88094A09480A49033B9BB21380094AE7
:10AEF000801AC00800041A4640F00300FCF799BD10
:10AF0000704700BF162B0020142B002004CF020036
:10AF1000E2D60200DCCE0200FDF762B808B50849AF
:10AF2000084801F04FF908B1FDF75AF80548F72134
:10AF300001F05CF918B1BDE80840FDF751B808BD53
:10AF4000CDAE0200FC38002000B56D4D0FCDB1B084
:10AF500005AC0FC495E803006A4B6B4A01934FF4AC
:10AF6000807384E80300CDE903230293674A072333
:10AF700001A905A8FDF7C6FA08B1FDF731F84FF4AD
:10AF800080410020FCF78CFB08B1FDF729F8FCF7A5
:10AF9000BBFAFDF715F908B1FDF722F85C4903206B
:10AFA000FFF72EFD08B1FDF71BF805A90020FFF7FC
:10AFB00013FE08B1FDF714F8FEF780F808B1FDF7AD
:10AFC0000FF801F007FC08B1FDF70AF8002305A906
:10AFD0000120059301F090FC08B1FDF701F805A8E8
:10AFE00001F04AFD08B1FCF7FBFF112349498DF838
:10AFF00004300B2201A8FFF713FE08B1FCF7F0FFA5
:10B000000023ADF818301023ADF814303C23ADF810
:10B01000163005A84FF4C873ADF81A30FFF7FEFDDF
:10B0200008B1FCF7DDFFFFF779FF3B4B3B48059389
:10B0300005A901F0D5F908B1FCF7D2FF384B394822
:10B04000019301A901F0D0FA08B1FCF7C9FFAC22C5
:10B05000002105A801F07FFE02238DF8143005239E
:10B060008DF8173001234021ADF860308DF8903015
:10B0700044F25063CDE927132B4A2C4B2C481992EC
:10B0800005A92E9300F0A6FB08B1FCF7A9FF2848FC
:10B09000012100F09CFB14220DEB0200002101F0C5
:10B0A0005AFE4FF4F0234FF4A032CDE906230323D8
:10B0B0008DF820301F4B0A9305A81F4B0B9300F00F
:10B0C00061FE08B1FCF78CFF1C4801F001FE1C4B2F
:10B0D0001C481D49C01AC008000440F00300FCF7DA
:10B0E0009BFC1348032100F0EAFB08B1FCF778FF52
:10B0F000FCF730FB0028FBD1FDF7F6FFF8E700BFB7
:10B1000044D7020020390020203A0020D1AD0200AF
:10B1100061AD0200FED6020035AC020014390020F9
:10B1200061AE0200182B0020102B0020ADAD0200F4
:10B13000C834002041AD020019AF02000AD7020056
:10B14000DCCE020004CF02001BD702000369C268F4
:10B1500093429CBF80681B18013B981A70472DE9E9
:10B16000F843D0E902940546A9EB040840689045ED
:10B1700020440F46144404D901F0C4FDEC60BDE83E
:10B18000F8834246A4EB090401F0BCFD686822463E
:10B1900007EB0801F0E72DE9F843C5680646894644
:10B1A00017464FF000083469B3687068A54228BF9D
:10B1B000E418013C621B5C1BBC4228BF3C46944225
:10B1C00028BF144649462844224601F09BFDB36837
:10B1D0002544AB4208BF00253F1BA044A144F560B5
:10B1E000E1D14046BDE8F88310B5114C114AA26187
:10B1F0000223C4E90433104BE361A2644FF40073EB
:10B200000E4A0F492362E26400231022E01DA3626C
:10B210006362E362A3656365E365226501F0CEFDC9
:10B220000849204601F0CAFD2023A37110BD00BFCC
:10B23000203B00205CD70200A83B0020983B002068
:10B2400065D7020069D7020070B5164B182400FBC1
:10B2500004451D4404FB00331646DC6A012C0ED065
:10B26000022C18D0E4B92846FFF770FF864204D8B4
:10B2700032462846FFF773FF3446204670BD284605
:10B28000FFF764FF8642344628BF0446224628461C
:10B29000FFF765FFF1E72846BDE87040FFF77BBF89
:10B2A0000024EAE7203B0020FFF79EBF6DDF7047D8
:10B2B00079DF70477DDF704764DF70472DE9F04F1D
:10B2C00085B000250E9CBDF83CB0B4F800A00191FB
:10B2D000074690461E46A9463A884A450DDC45B1C8
:10B2E0002388013BA3EB0A039BB2FF2B3AD806F855
:10B2F0000A30002005B0BDE8F08F7A6852F82900C6
:10B30000039000220DF10B0103A8FFF7D5FF0028E1
:10B31000F0D19DF80B20424521D12288002D14BF89
:10B320000020022002EB0801014459451ADC3DB916
:10B33000013292B2019B2280B354228801322280D2
:10B3400022880DF10B01324403A8FFF7B5FF002856
:10B35000D0D121889DF80B200A442280012509F1D3
:10B360000109B9E70C20C5E72DE9F341089FBDF8B5
:10B3700024801546CDE90078022204461E46FFF7D8
:10B380009DFF50B93346102229462046CDE9087862
:10B3900002B0BDE8F041FFF791BF02B0BDE8F08117
:10B3A0002DE9F04F00231788138090F82D3085B0D9
:10B3B00006460D4614465BB3082F01D80C2028E141
:10B3C00002A8FFF773FF002840F023812388DDF8EF
:10B3D00009100822EA54238801339BB21B222380E0
:10B3E000EA54238801339BB2EA182380E950BDF860
:10B3F0000D30938023889DF8082006339BB212F00D
:10B40000FE0218BF01222380EA54238801332380DF
:10B41000B378FBB123880433BB42CFD802A8FFF72F
:10B4200047FF002840F0F58023880322EA54238850
:10B4300001339BB219222380EA542388BDF80820E7
:10B4400001339BB2E9182380EA54120A4A70238818
:10B4500002332380F2789AB12388D91CB942ADD83F
:10B460000221E954238801339BB201212380E9544E
:10B4700023880B449BB22380EA5423880B44238007
:10B480007268AAB12388D91CB94297D8022192F9CF
:10B490000020E954238801339BB20A212380E95418
:10B4A000238801339BB22380EA542388013323800D
:10B4B0003389002B40F0A180338A5BB1CDE900478E
:10B4C0002B460722032106F11000FFF74DFF00284D
:10B4D00040F09F80338B5BB1CDE900472B461522AE
:10B4E000142106F11800FFF73FFF002840F091807B
:10B4F000326A002A40F09080D6F82480B8F1000F1C
:10B5000030D0B8F804302188981C8A1C0244BA4212
:10B510003FF654AFFE283FF651AF03336B542388F8
:10B5200001339BB2FF222380EA54238801339BB26C
:10B530002380B8F80020EA54E918120A4A702088DB
:10B54000023080B22080B8F804205AB1D8F8081030
:10B5500000296BD0284401F0D5FB2388B8F80420DB
:10B560001344238096F82C30002B40F098803078DC
:10B5700000284ED03388012B58D0228802F1020CCB
:10B58000BC453FF61BAF012805D173780233134445
:10B590009F42FFF413AF023FBF1ABFB202A905EBEF
:10B5A0000C00ADF80870FFF785FE90BB3178BDF850
:10B5B0000830022900F0B98072789A4202D39F4283
:10B5C00080F0B180012940F0B280974293B2C0F080
:10B5D000AE80ADF808300821BDF80830FE2B3FF6EC
:10B5E000EDAE22880133AB542288013292B2228020
:10B5F000A9542288134423800BE0CDE900472B4651
:10B600000622022106F10800FFF7AEFE00283FF4F3
:10B6100053AF05B0BDE8F08FB4F800C00CF10603DD
:10B62000BB423FF6CBAE1188052901D80720F0E7D1
:10B630006FF4486E01EB0E039BB24FF27D3E7345F3
:10B64000F4D95388052BF1D96FF44860181880B2EB
:10B650007045EBD94FF6FF70814201D09942E5D891
:10B66000052305F80C30238801339BB21221238077
:10B67000E954238801339BB223801188E954E818E8
:10B68000090A4170238802339BB223805288EA540E
:10B69000E918120A4A702388023323802CE7B36A20
:10B6A000002BC3D04FF000084FF00C0A4FF0160BE0
:10B6B000B16A5FFA88F20AFB02F201EB0209B9F8FB
:10B6C0000430981CFE283FF679AE208803332B54B3
:10B6D000238801339BB2238005F803B0238801330C
:10B6E0009BB223808A5AEA54E918120A4A702088C9
:10B6F000023080B22080B9F804205AB1D9F808107D
:10B70000002993D0284401F0FDFA2388B9F80420D9
:10B710001344238096F82C2008F101085FFA88F37F
:10B720009A42C5D823E7092156E79F42FBD2ADF8DC
:10B73000087050E770B5E8B14AB116880024B442E9
:10B7400003D305196D789D4208D0A14201D800208D
:10B7500010E0055D01352C44A4B2F0E7A142F6D912
:10B76000005D0138A31C80B29DB210FA83F38B42B6
:10B77000EDDC158070BD13B513460022ADF8062030
:10B780000DF106020446FFF7D5FF10B1BDF80630F3
:10B79000E01802B010BD72DF704773DF704774DFCE
:10B7A000704738B5012204460D46B0F81414D0F89D
:10B7B0001004FFF7E0FF00B1057004F13C0204F54E
:10B7C000826104F15400BDE83840FFF7E4BF80F81F
:10B7D00030107047F8B504460F4600296BD000289A
:10B7E00069D091F87A301BB191F89830002B64D170
:10B7F0004FF0000C84F802C007F178060FCE251D2B
:10B800000FC50FCE0FC596E8070085E8070084F83E
:10B8100030C0D7F8A4306363D7F8A830A36304F529
:10B8200082624FF6FF73C4F826C4A4F82434C4F827
:10B830002024C4F829C422780AB984F8543094F832
:10B840002430002B14BFEE231F2304F15501C4F84C
:10B850001014A4F8143404F214423846FFF7A0FD83
:10B8600040BB94F82430002B14BFEE231F2304F2B6
:10B870003121C4F81814A4F81C3404F21C4207F156
:10B880003C00FFF78DFDA8B9A369A4F848304FF438
:10B8900080730125A4F8503063692064014684F860
:10B8A0003C50636404F13C0204F15400FFF773FF61
:10B8B00000B92570F8BD0E20FCE70720FAE7F8B5BF
:10B8C000067804460D46002E00F006810023C0F8DD
:10B8D0002634C0F82934C388817000F226470BB1A2
:10B8E000012903D0E37943B1022D06D1636BABB1DB
:10B8F000012284F82D240820984704F2274304F2FB
:10B900002D4113F8012B12B99942FAD116466B1E3C
:10B91000032B53D8DFE803F0050B0F1284F82D3406
:10B92000EBE7A3791BB194F8243003B95EB9E3794E
:10B930000BB1002E44D1237A002B43D1637A002B24
:10B940000CBF00250425636BA570002B3CD0033D84
:10B95000012D39D86279002A36D094F82E249ABB6A
:10B9600084F83024012284F82F240720984704F11A
:10B970003C0518220021284601F0EDF9E26A012376
:10B98000511E994284F83C3001D9042A00D1D3B227
:10B9900084F8513094F8243043B1A26A511E012931
:10B9A00002D9042A18BF012284F85220A278042A5E
:10B9B0001CD8DFE802F0780D23365A000025C2E7D4
:10B9C0000225C0E70325BEE7002384F82F34CEE725
:10B9D000012384F831300023C4E91073C4F8203403
:10B9E000022384F83C308023A4F84830A378002B4D
:10B9F0005DD1636B002B6BD1002068E0002B14BF7E
:10BA00000723032384F83C302369A4F8483000233B
:10BA10000222C4F82034E36884F831202764636488
:10BA2000E4E762696264A269A4F8482013B10623BE
:10BA300084F83C306379B3B194F82E349BB994F810
:10BA4000303483B1022384F8503004212046FFF7BC
:10BA5000A8FE0028CAD1052384F8313004F582639A
:10BA6000C4F82034C2E70323F6E7E2696264226A7D
:10BA7000A4F8482013B1062384F83C30637983B1DD
:10BA800094F82E346BB994F8303453B1022384F80F
:10BA9000503004212046FFF784FE0028A6D106235B
:10BAA000DAE70423D8E7002384F831309EE7D4F89E
:10BAB00020142A4604F15400FFF76DFE38B994F8BB
:10BAC000301094F85400FFF768FE002891D0F8BDBC
:10BAD00094F8310098478FE70820F8E70388112B86
:10BAE00010B50C460AD0262B1FD0102B05D1C37BD6
:10BAF000012B02D18388A1F8243410BD0022838851
:10BB000081F82E24B1F824249A42F6D10B79002B27
:10BB1000F3D101212046FFF7D2FE0028EDD0A36B20
:10BB2000002BEAD0BDE810401847037A013B012BF7
:10BB3000E3D8897805230131B1FBF3F303EB8303E9
:10BB4000C91AC9B2E6E738B5044690F85400FFF7C1
:10BB500026FE012384F82E34002384F8303484F840
:10BB6000503006212046FFF71CFE054638B9A17863
:10BB70002046FFF7A4FE10B1A36B03B198472846F7
:10BB800038BD75DF704776DF70477ADF70477BDF3F
:10BB900070470000034B1A8882420CBF18460020F1
:10BBA000704700BFC43D0020024B9B6903B118479A
:10BBB000704700BFA83D002073B585B22846FFF747
:10BBC000E9FF044638B3174E027A337B9A420CD20F
:10BBD00000F10A012846FFF7D4FFF0B111281AD06E
:10BBE00002B0BDE87040FFF7DFBF00230372337C73
:10BBF00043B13B212846FFF7C6FF30F0080301D0D0
:10BC0000FFF7D2FF736933B100228DF80420ADF83D
:10BC1000065001A8984702B070BD237A0133237201
:10BC2000F9E700BFA83D002037B50B46497A0F4A17
:10BC300079B9D2E901141D7A0246002D18BF2146B8
:10BC40005868FCF7FAFA78B103B0BDE83040FFF766
:10BC5000ABBF00211972536933B10122ADF8060060
:10BC60008DF8042001A8984703B030BDA83D0020FE
:10BC70004B8802889A4212D842889A420FD3808811
:10BC80008B8840F2F311884294BF021A421A9A42FA
:10BC900005D80844984234BF002001207047002096
:10BCA000704700000388122B70B5014659D004D8A4
:10BCB000102B1ED0112B44D070BD502BFCD12F4B1C
:10BCC000C288DB899A42F7D1038A022BF4D1868895
:10BCD0003046FFF75FFF05460028EDD001F1120066
:10BCE00000F07FF938BB6868FCF7BFFA0028E3D0A2
:10BCF00009E0C37B012BDFD14FF6FF70FFF74AFF4E
:10BD0000054620B90420BDE87040FFF74DBF1C4A2E
:10BD10008E880680002303721368C0F80A305368C7
:10BD2000C0F80E3010310A30FFF7A2FF134B6872D3
:10BD3000DB89002BC0D129463046BDE87040FFF7B3
:10BD400073BF8088FFF726FF04460028B4D0406800
:10BD5000FCF78BFA08B1FFF727FF4FF6FF7323803C
:10BD6000AAE786883046FFF715FF05460028A3D0CE
:10BD700008310A30FFF77CFF6872DCE7A83D00203D
:10BD8000D83D0020F8B5064648B305460FCD154FFF
:10BD90003C460FC495E8070084E807003068124C61
:10BDA0003C60B0B1FFF7F1FEC0B9326813682360A0
:10BDB000536863600D480E4A4FF6FF7303800D4BC6
:10BDC00040F8043F0021FCF72DFA002818BF03209B
:10BDD00004E02046FFF7DBFE0028EBD0F8BD0E2084
:10BDE000FCE700BFA83D0020D83D0020C43D002056
:10BDF000B9BB0200E03D00200AB1FCF71BBEFCF716
:10BE000022BE73B50191019C06466CB100252C46FB
:10BE1000294601A8FCF721FE18B106EB44030134C2
:10BE20009D800135142DF3D13046346002B070BDD1
:10BE30002DE9F04703888488103B8CB005460A2B17
:10BE400021D8DFE803F006402020202020202065B4
:10BE50004700DFF8E880D8F80830DB430093D8F8D3
:10BE600004106846FCF725FE009901A8FFF7C9FFFA
:10BE70000DF108090027019B9F4207D3132C12D90B
:10BE80000420FCF7ADF80CB0BDE8F08739F802AB40
:10BE900000260136514608EB8600FCF7D4FD1E2E25
:10BEA000F7D10137E7E71F482146FCF7C3FD1E48DD
:10BEB0002146FCF7BFFDEB7B012BE4D01B4821465C
:10BEC000FCF7B8FDDFE7174821460CB0BDE8F047A6
:10BED000FCF7B9BD027A16483F2A4FEA12152146EF
:10BEE00094BF00220122FFF787FF022D94BF00229A
:10BEF000012210482146FFF77FFF012D0E4894BF15
:10BF00000022012221460CB0BDE8F047FFF774BFC4
:10BF1000037A002BB7D1427A0548C2F3C00221460A
:10BF2000F1E700BF083E0020043E00200C3E002048
:10BF3000183E0020143E0020103E0020003E00204D
:10BF40001328014602D80248FCF787BD002070473D
:10BF5000043E002010B50446FFF7F2FF002814BF8E
:10BF60002046142010BD70B50546164608460AB98D
:10BF70000E2070BD00231360002DF9D02B68002B1C
:10BF8000F6D0EB8813F003040ED1FFF7E3FFC0B245
:10BF900014280BD02B7983420AD9EA882B6800FB3E
:10BFA000023030602046E4E70720E2E70520E0E7C2
:10BFB0000420DEE7AADF7047002301380B70042855
:10BFC00006D8DFE800F00306080A0C0011230B7006
:10BFD00070472123FBE73123F9E71223F7E72223F8
:10BFE000F5E7008800F001007047F0B58B7891B05C
:10BFF0000C46012B38BF012300278DF80E30054673
:10C000000B88607CADF80C306946ADF800708DF897
:10C010000270FFF7D1FFA07C0DF10101FFF7CCFF0B
:10C020001646237BE27B217D43EAC203227C43EA5E
:10C0300002139DF80220B94222F0190203F01903FD
:10C0400014BF02210121134361F342031C2239462C
:10C0500009A88DF8023000F07EFE637B13F0300FEC
:10C0600014D00DF10901E07CADF808708DF80A706C
:10C07000FFF7A2FF11238DF808309DF80A30012147
:10C0800002AA61F342038DF80A300E92637B8DF8A9
:10C090002430A37B8DF825300023CDE906330893A7
:10C0A00003AB0493A388ADF81C30A368CDF814D07B
:10C0B0001BB1E288ADF818200893A36973B301A9F6
:10C0C0000022ADF804208A701A88ADF82C205A8816
:10C0D000ADF82E205A680D91187B0A92FFF76CFF7D
:10C0E000A3690DF10501587BFFF766FFA3699A7AF2
:10C0F000197A41EAC201DA7A9B7B41EA02119DF882
:10C100000620002B01F0190122F0190214BF0223AE
:10C110000123114363F342018DF80610E36903B173
:10C120000C93334604AA09A92846FFF743FF11B030
:10C13000F0BD90DF7047A5DF7047B5DF70470000A6
:10C140007FB50023ADF80810ADF80A106A4602A9C1
:10C150000646ADF80C30ADF80E300093ADF8043063
:10C16000FFF7E7FF054600B3114B124CE41AE40851
:10C17000FDF746F8240444F0010403460E49324614
:10C180002046FBF756FCBDF80020BDF8023052EA0D
:10C19000030103D009492046FBF74BFCBDF80420FE
:10C1A0001AB107492046FBF73BFC284604B070BD96
:10C1B000DCCE02002CCF020070D70200BAD70200FA
:10C1C000F9D7020080B14FF0F7130360FB2303712E
:10C1D000F723C3801723038141F6FB32002301615B
:10C1E00043818281184670470E20704730B1A1F11B
:10C1F0001703E02B04D80180002070470E20704701
:10C200000720704713B5034680880C46B8B91A88D2
:10C21000242A00F09C8014D8112A74D0232A00F01C
:10C22000A780102A3ED0A37A4BB1E1880020FFF707
:10C2300082FF002840F0A2804FF48073638102B037
:10C2400010BD3A2A68D0552AEDD1DB88C988A07282
:10C25000172B38BF17238B4228BF0B462381FFF7CC
:10C260006CFF60B1FCF7CCFF4E4B4F4902464F4884
:10C270001B1ADB081B0443F00100FBF7D1FBE27A39
:10C28000002AD0D12369002BCDD040F67721ADF81C
:10C2900002202289ADF80010ADF80420694620463E
:10C2A0009847C0E7DB7B0A790A73012B13D0022B76
:10C2B00014D0E18823898B4205D20020FFF73BFF91
:10C2C00070B90123E372217B637B8B42ABD20020E8
:10C2D000FFF736FFA7E70B88E380EAE74B88FBE729
:10C2E000112802D10123A372EDE7FCF789FF2D4B42
:10C2F0002F4902462D481B1ADB081B0443F001009E
:10C30000FBF78EFBDFE7F723CB8017230B8141F68A
:10C31000FB3348818B8186E75B89CA88934228BFBB
:10C320001346172B0A6938BF17230B8162B1C97AEC
:10C3300051B140F67721ADF80010ADF80200ADF82C
:10C340000430694620469047002363816BE71A7AE0
:10C350000B694A73002B3FF466AF4DF67A218DF8D6
:10C360000500ADF80010ADF802008DF8042095E747
:10C37000197A237B994228BF1946A9E711283FF46F
:10C380005EAFFCF73DFF074B0949024607481B1A01
:10C39000DB081B0443F0010002B0BDE81040FBF7CE
:10C3A0003FBB00BF2CCF020080D80200DCCE0200D1
:10C3B0004FD80200B0DF704766DF704710B500212C
:10C3C00004464088FFF7F8FF034608B9237210BD02
:10C3D000112801D10123F9E76368BDE8104018472F
:10C3E00060B159B10378DE2B0AD00B684360DE23BD
:10C3F00003704FF6FF734380002070470E20704794
:10C400000820704728B10378DE2B04D1418000203A
:10C4100070470E20704708207047F0B5054685B07C
:10C420000C46002942D0002840D00B78DE2B3DD1AD
:10C4300082884B889A4204D10B7A13B10846FFF7E1
:10C44000BDFF2B88112B33D0512B0FD0012B2DD1B9
:10C450002B7A012B2AD1A9886288914226D12046C5
:10C46000237205B0BDE8F040FFF7A8BFAE8863882F
:10C47000B3421BD1AF79022F18D1AD7B2B1F022BFA
:10C4800014D800211022684600F065FC052D18BF65
:10C490004FF4C0736946304618BFADF804308DF8CC
:10C4A0000070FFF787FF08B16368984705B0F0BDDB
:10C4B0006388AA889A4204BF4FF6FF736380F5E74A
:10C4C000A8DF7047ADDF7047AEDF704762DF7047AF
:10C4D00070B505468AB00C4600295ED000285CD0B5
:10C4E0000388502B33D0572B6BD0102B55D181881C
:10C4F0006069002601AA0196FFF735FD0223218914
:10C50000A888ADF80A6002AACDF80CD0ADF80830C2
:10C51000FFF7D8FF002840D1A369002B3DD0039836
:10C52000FFF75FFD002838D0019E0EB10123337064
:10C530001822002104A800F00EFC02238DF8103010
:10C54000AB88ADF818300594A369079623E081887D
:10C55000606902AAFFF707FD1822002104A800F075
:10C56000FAFBAB882189ADF81830EB88029A059464
:10C570009942079218D12E8A022E15D16AB105F17F
:10C580001200FFF72EFD029B48B101221A708DF8B0
:10C590001060A3690BB104A898470AB070BD187069
:10C5A00003238DF81030F4E7A2899A42F5D1A369EC
:10C5B000002BF2D005F1120208922A8AADF824204D
:10C5C000E9E78188606902AAFFF7CDFC01460028EF
:10C5D000E3D1029E3378002BDFD0182204A800F0AC
:10C5E000BAFB0123AAE70000F0B53A4B8FB002ADC9
:10C5F00004460A4603F1100C2F46186859682E4667
:10C6000003C6083363453546F7D1002C5FD0002AB6
:10C610005DD01368A36121463846FFF757FF002815
:10C6200053D12246012512F8023B8DF8063001A9AC
:10C630002846ADF80450FFF743FF002845D10146D6
:10C64000202206A800F087FB22460223ADF818300E
:10C6500012F80C3B8DF81A30BDF824301E4E60885D
:10C66000079623F44F6323F00F0343F440632B43F7
:10C6700006A9ADF824308DF829508DF82A50FFF71F
:10C68000B4FC10BB0146202206A800F064FB224641
:10C690000323ADF8183012F8043B8DF81A30BDF8BA
:10C6A00024306088079623F4875323F01F0343F454
:10C6B00080532B43ADF8243006A940F201138DF8C6
:10C6C0002950ADF82A30FFF790FC0FB0F0BD0E20D6
:10C6D000FBE700BFC4D80200F4000100F0B50F462C
:10C6E00087B016461C46054610B3406901AA194694
:10C6F000FFF739FCD0B94FF6FF739C421AD0019B6B
:10C70000C3B11B78C3B13388F42B17D8AB88CDF8ED
:10C710000B008DF80F00ADF8083002A90123204668
:10C72000CDE904678DF80A30FFF7CEFE07B0F0BD03
:10C730000E20FBE70520F9E70820F7E70720F5E7DB
:10C7400010DF704713B5044609496846FCF7FDFC45
:10C75000019808B902B010BDD0E9002120469047E9
:10C7600018B16846FCF7FBFCF2E71120F2E700BFC6
:10C77000E0D8020013B5044607496846FCF7E5FC1B
:10C78000019B0BB902B010BD2046D3E900219047B0
:10C790006846FCF7E4FCF3E7F8D802000B4991F88F
:10C7A00016335A09EC231341DB0706D5084B9A6868
:10C7B0003AB94FF480030B60704742F20200FBF776
:10C7C0000FBC1A6842F480021A60704700E100E072
:10C7D00028320020F7B5194F3C7864BB184E01256C
:10C7E00020463570FFF7AEFF112821D02046FFF715
:10C7F000C1FF144B8DF80340186801900DF1030040
:10C80000FBF716FF104901A8FFF79AFF0446B0FA9C
:10C8100080F0400938709DF80300FBF72DFF3CB90C
:10C820000A4B34701C70FFF7B9FF2846FFF7A2FFD0
:10C83000204603B0F0BD0824FAE700BF7D3E00208B
:10C840007C3E0020DCD80200FD7F02007E3E0020FE
:10C85000014B1878704700BF7D3E002007B508499E
:10C860006846FCF772FC019B13B903B05DF804FB4A
:10C87000D3E9002090476846FCF771FCF3E700BF5E
:10C88000ECD80200FFF7EABF60DF704769DF70474E
:10C8900061DF704730B5134DADF5017D4FF4FA748B
:10C8A0000DF1020103A8ADF80240FFF7F1FF70B9E6
:10C8B000294601A8FCF749FC029B002BF0D003A8F5
:10C8C000D3E90021904701A8FCF749FCF4E70528CB
:10C8D00005D00DF5017DBDE83040FBF781BB0DF5BE
:10C8E000017D30BD80DB0200024B1B780BB1FFF7EE
:10C8F000D1BF70477F3E002030B5054685B00C465D
:10C90000002900F0A4800023CDE90133514A0393AC
:10C9100001230A608DF804008DF8063001A9062372
:10C920002020ADF80830FFF7B1FF60B1FCF768FCDC
:10C93000494B4A4902464A481B1ADB081B0443F08C
:10C940000100FBF76DF80023CDE901330393226862
:10C95000012301A940208DF80530FFF797FF60B152
:10C96000FCF74EFC3C4B3F4902463D481B1ADB0896
:10C970001B0443F00100FBF753F80023CDE901331A
:10C98000039322688DF80450F72301A92320ADF802
:10C990000630FFF77BFF60B1FCF732FC2E4B3249CB
:10C9A00002462F481B1ADB081B0443F00100FBF76B
:10C9B00037F8002301202268039301A9CDE9013350
:10C9C0008DF80400FFF762FF60B1FCF719FC224B01
:10C9D0002649024622481B1ADB081B0443F00100CB
:10C9E000FBF71EF80023CDE9023322684FF4B06351
:10C9F00001A9A1200193FFF749FF60B1FCF700FCFA
:10CA0000154B1B49024616481B1ADB081B0443F052
:10CA10000100FBF705F800252268039501A9A02075
:10CA2000CDE90155FFF732FF034668B1FCF7E8FB9B
:10CA3000094B104902460A481B1ADB081B0443F045
:10CA40000100FAF7EDFF2B46184605B030BD0E2366
:10CA5000FAE700BFE82A00203CCF020004D9020018
:10CA6000DCCE02004AD9020096D90200DDD90200CC
:10CA700029DA02007ADA020073B505460668FFF784
:10CA800003FF2B68B34204461DD91A481A4B1B49B1
:10CA90001B1ADB081B0443F002000190FAF7BCFFED
:10CAA0002B68174901983246FAF7C3FF4FF08053BD
:10CAB0002A68D3F80C31134901989B0203F1005303
:10CAC0009A1AFAF7ADFF2CB90F4B01221A702046C3
:10CAD00002B070BD2046FCF793FB074B0B490246A2
