:020000040002F8
:10700000B88D0020C5730200CD730200CF7302005B
:10701000D1730200D3730200D57302000000000098
:10702000000000000000000000000000D773020014
:10703000D973020000000000DB730200DD73020060
:1070400079DE0200DF730200E9E00200DF73020074
:10705000DF730200DF730200C5DC0200DF73020091
:10706000DF730200DF730200DF730200DF730200D0
:10707000DF730200D1DE0200DF730200DF73020063
:10708000DF730200F9DE0200DF730200DF7302002B
:10709000DF730200DF73020009DF0200DF7302000A
:1070A000DF730200DF730200DF730200DF73020090
:1070B000DF730200DF730200000000000000000028
:1070C000DF730200DF730200DF730200DF73020070
:1070D000DF730200DF730200DF730200DF73020060
:1070E000DF730200DF730200B975020000000000C8
:1070F00000000000DF73020000000000DF730200E8
:10710000000000000000000000000000000000007F
:10711000000000000000000000000000000000006F
:10712000000000000000000000000000000000005F
:10713000000000000000000000000000000000004F
:10714000000000000000000000000000000000003F
:10715000000000000000000000000000000000002F
:10716000000000000000000000000000000000001F
:10717000000000000000000000000000000000000F
:1071800000000000000000000000000000000000FF
:1071900000000000000000000000000000000000EF
:1071A00000000000000000000000000000000000DF
:1071B00000000000000000000000000000000000CF
:1071C00000000000000000000000000000000000BF
:1071D00000000000000000000000000000000000AF
:1071E000000000000000000000000000000000009F
:1071F000000000000000000000000000000000008F
:10720000DFF810D000F09AF9004800474524030049
:10721000AFF30080B88D002030B450E8012F93B256
:10722000C48923448489A34228BF1B1B0489A34229
:1072300002BFBFF32F8F002007E0C3EA020340E83C
:107240000134002CE9D14FF001000A6030BC7047D6
:1072500050E8012FC2EA024240E801210029F7D19B
:10726000704730B450E8022F1FFAA2F3C488A3423B
:1072700002BFBFF32F8F00200DE0C489234484890F
:10728000A34228BF1B1BC2EA034340E80234002C80
:10729000E8D14FF001000A6030BC704750E8022F7F
:1072A000C2EA224240E802210029F7D17047034692
:1072B00053E8022FD988B2EB324F4FF0000017BFCE
:1072C00092B241EA014142EA014104E05A68B2EB5C
:1072D000324F08BF012043E80212002AE8D170476C
:1072E00030B4044654E8000F0D4644E80053002B28
:1072F000F8D1156030BC704730B4044654E8000F34
:1073000040EA010544E80053002BF7D1156030BC7A
:10731000704730B4044654E8000F00EA010544E821
:107320000053002BF7D1156030BC704730B40446D1
:1073300054E8000F80EA010544E80053002BF7D120
:10734000156030BC704730B4044654E8000F00EBC1
:10735000010544E80053002BF7D1156030BC70479D
:1073600030B4044654E8000FA0EB010544E8005394
:10737000002BF7D1156030BC704770B404464FF055
:10738000000054E8006F0D68AE4207BF44E80023D8
:10739000012044E800630E60002B1CBF0020F0E7D2
:1073A00070BC704730B4044654E8000F88422CBFCC
:1073B000451A054644E80053002BF5D1156030BC52
:1073C000704700000648804706480047FEE7FEE792
:1073D000FEE7FEE7FEE7FEE7FEE7FEE7FEE7FEE785
:1073E0000DDF0200017202002DE9F05F054600206A
:1073F00092469B4688460646814640241BE0284626
:1074000041464746224600F088F853465A46C01A7D
:10741000914110D311461846224600F016F82D1A55
:1074200067EB01084F4622460120002100F00DF8CD
:1074300017EB00094E41201EA4F10104DFDC484691
:1074400031462A464346BDE8F09F202A04DB203A15
:1074500000FA02F1002070479140C2F1200320FAA7
:1074600003F31943904070470048704730AE030063
:1074700010B5441A0346944209D28418114403E01B
:1074800011F8013D04F8013D521EF9D210BD40EA49
:107490000104A40703D009E010C9121F10C3042A75
:1074A000FAD203E011F8014B03F8014B521EF9D256
:1074B00010BDD2B201E000F8012B491EFBD270478B
:1074C0000022F6E710B513460A4604461946FFF7B0
:1074D000F0FF204610BD421C10F8011B0029FBD113
:1074E000801A704710B5002200E0521C835C8C5C4F
:1074F000A34201D1002BF8D1D8B2E1B2401A10BD9D
:1075000030B504460020034600E05B1C934203D2E2
:10751000E05CCD5C401BF8D030BD202A04DB203A73
:1075200021FA02F00021704721FA02F3D040C2F1A3
:10753000200291400843194670470000064C074D51
:1075400006E0E06840F0010394E807009847103433
:10755000AC42F6D3FFF758FE08F3030028F303000C
:1075600070B58C1810F8015B15F0070301D110F805
:10757000013B2A1106D110F8012B03E010F8016B32
:1075800001F8016B5B1EF9D12B0705D40023521EB5
:107590000DD401F8013BFAE710F8013BCB1A921C1D
:1075A00003E013F8015B01F8015B521EF9D5A1421B
:1075B000D8D3002070BD00000B490C4B0C4A4FF093
:1075C000FF3008601B68BFF35B8F52E8001F42E882
:1075D00000300028F9D1BFF35B8F9942F3D1BFF39C
:1075E0005F8F044A1360704704BA025000BA025019
:1075F000B46D002008BA025099422DE9F04F0ED820
:1076000001EB03044FEA54046BD3002C00F082809A
:107610004FF0000C2146151F041F664632E003F1AF
:107620008045013D041F00EB850504EB810E4FF002
:10763000000A4FF0000B55F804CFAE454AEA0C0A99
:10764000F9D11AF1FF384BF1FF396FEA090C994271
:107650000CF0010C40D201F18044151F013C02EBFB
:10766000840205EB830352F8044F93424AEA040A6A
:10767000F9D11AF1FF364BF1FF37FE4306F0010650
:10768000C1B3041F2046002400EB8101224655F8B7
:10769000043F50F8047F9F420CBF0123002302EAFD
:1076A000030203EA040388BF42F001022CBF1C4618
:1076B00043F001048142EAD1D2B186F00100BCF16D
:1076C000000F00D110408CF0010C0EB904EA0C0C34
:1076D00000EB4C00BDE8F08FC3B11946151F002622
:1076E000D0E74FF0000A4FF0000B4FF0000CB2E76C
:1076F000002CE2D1BCF1000F04D176B160464FF00E
:10770000010CE5E786F001000024DCE760461C463A
:107710009C46DBE72046A446D8E730463446B446CC
:10772000D4E700BFF0B4002957D04C1E0519065D00
:1077300076B9294634B111F8015D661E4DB934465B
:10774000002CF8D1B3B15D1E515D39B11D4617E073
:107750000C46002B39D05D1E515D71B9531935B1FE
:1077600013F8011D6E1E49B93546002DF8D1231CB2
:1077700018BF01231846F0BC70471D46AC4224D800
:10778000A54226D8611E6B1E994228BF19460029C2
:107790002CDB01310A440023014404E0002B08BF24
:1077A000012388420BD011F8017D12F8016DB74218
:1077B000F4D8F6D2002B08BF02238842F3D1A542A9
:1077C00018BF00231846F0BC704701231846F0BCD0
:1077D000704702231846F0BC7047002BCAD05D1ECC
:1077E000545D002CBAD01D460C46C9E70023E6E7DD
:1077F00088420CD030B413466FF04045033305EB9C
:107800009303002540F8235030BC05F08FBF70472C
:10781000814202D0920005F089BF7047B2B1A8B191
:1078200093B113F0030F0FD18B420DD361B190428E
:107830000ED002D91344984204D3904208D2431880
:107840009A4205D80748704707487047074870476D
:107850001144013811F8013D00F8013F8A42F9D185
:1078600000207047060DF000050DF000040DF0003B
:107870001AB310B3F8B55C1E05341CD811F003051B
:1078800019D18B4217D8CE1C26F003078F4216D889
:10789000FF1A114604461A46384405F047FF394698
:1078A0002046B70805F046FF012F0AD123681BBA0E
:1078B00023602846F8BD1148F8BD114870471148AB
:1078C000F8BDF60804EB8605043D221F04EB870390
:1078D00052F8041F53F8040D09BA00BAAA42106006
:1078E0001960F5D117F0010306D054F826301BBA01
:1078F00044F826300020F8BD1846F8BD050DF0000C
:10790000040DF000090DF00091B310B44B1EC41823
:10791000C25C62B9214633B111F8012D581E3AB943
:107920000346002BF8D118465DF8044B70470B4610
:1079300014064FEAC300F7D4510600F1FF33F2D426
:107940009406A0F10203EED4D106A0F10303EAD419
:107950001407A0F10403E6D45107A0F10503E2D413
:107960009207A0F10603DED407385DF8044B704798
:107970000846704749B301F18042013A00EB8203A7
:1079800050F8222022BB1A464B1E1FD010B452F8CA
:10799000044D34B91946013B13D052F8044D002C64
:1079A000F8D001F1804102395B0150F82120A3F1A8
:1079B000200102E0013B8B4203D0002A4FEA420241
:1079C000F8DA18465DF8044B70470B4618467047C6
:1079D0004B01A3F1200102E0013B8B42F6D0002ACB
:1079E0004FEA4202F8DAF1E73AB10A44013812F8F4
:1079F000013D00F8013F8A42F9D10020704700BFE5
:107A00002DE9F843002941D02D4C0D68A54235D110
:107A100000283FD00568013CA54233D1002A3FD061
:107A2000002B43D0089C002C3CD00C460546164643
:107A300000F194014FF4377204F150001F460435F1
:107A400004F1040905F06EFE70BBD4F808333A68FF
:107A500003F107084FEAD80842451DD34946284696
:107A6000089B324601F0E6FD044608BBC7F80080DB
:107A70004FF45371089805F05DFE00E0114C20466C
:107A8000BDE8F883104C2046BDE8F8830F4C204633
:107A9000BDE8F8830E4CF2E7C7F800800D4CEEE726
:107AA0000D4CECE70D4CEAE70D4CE8E70D4CE6E732
:107AB0003046396805F03EFE00233B60D8E700BF42
:107AC000020000EC3408F0003208F0003308F00047
:107AD0003108F0003808F0003508F0003708F000F1
:107AE0003A08F0003608F0002DE9F04F83B058B3A3
:107AF00051B34AB343B30E9C34B30C9C24B30D9CD6
:107B00004CB3984617460D46064601F0EFF9426A17
:107B10002B684FEAC20A534583464FEA820918D3BD
:107B2000D8F800304B4514D31FFA89F10E9ADDE9DD
:107B30000C039847044680B10E98494605F0FAFDBB
:107B4000204603B0BDE8F08F0D4C204603B0BDE8E1
:107B5000F08F0C4CF9E70C4CF7E70E9B03F1200279
:107B600000925B46314638460E9A01F0C3F904464E
:107B70000028E1D1C5F800A0C8F80090DCE700BFFC
:107B80000023F0000123F0000523F00060B35AB396
:107B900053B370B582B0069C04B3079CF4B1089C43
:107BA000E4B11C683F2C1CD9079C24681F2C18D9F1
:107BB000202916D1164605461C4601F097F9089B68
:107BC00000932A4603463146069801F093F930B9EE
:107BD00040222260079A2023136000E0034802B08D
:107BE00070BD034802B070BD004870470023F0002C
:107BF0000123F0002DE9F04782B0AAB3A3B398B3F4
:107C000091B30A9C84B30C9C74B30B9C9CB3154633
:107C10001E468846074601F0BFFAD0F88C2033682C
:107C20004FEA82094B4524D3D8F800304B4520D386
:107C3000436A0A981FFA89F12A464FEA830A0B9B86
:107C400098470446C8B10C984FF4B07105F072FD26
:107C50005146384605F06EFD2846494605F06AFD56
:107C6000204602B0BDE8F0870E4C204602B0BDE8C9
:107C7000F0870D4CF9E70D4CF7E70C9BC8F800A016
:107C8000414600932A464B46384600F0A1F8044688
:107C90000028D8D1C6F800904FF4B0710C9805F0C8
:107CA00049FDE2E73023F0003123F0000523F00026
:107CB00030B329B322B32DE9F04F85B00E9CD4B177
:107CC000109CC4B199460C460546164601F064FA6C
:107CD000476A2368BF00BB42804607D30F9B9F4281
:107CE00004D1D0F88C2092004A450CD0354B184670
:107CF00005B0BDE8F08F344B184605B0BDE8F08FF5
:107D0000314B18467047109B314603F14009184625
:107D1000A2F1040BFFF76CFD3A460E994846FFF7B7
:107D200067FD109B109A53F80B3012680293019272
:107D300023F04043109A109943F0804342F80B30EF
:107D4000136802F1200A23F00703136050464A46E5
:107D5000434601F03DFC20B31C4B109A964205D0DF
:107D600039461046019305F0E5FC019B554505D0C9
:107D700050463946019305F0DDFC019B0E9A4A45B9
:107D800005D039464846019305F0D4FC019B019388
:107D9000109B4FF4807103F1600005F0CBFC019B58
:107DA000A5E7109B03901A46019B1360029B42F8C3
:107DB0000B305146D8F824202846FFF729FD2760CC
:107DC000039BCAE73123F0003023F0003423F00096
:107DD0002DE9F04F85B00E9FC8B1C1B1BAB1B7B1AE
:107DE0009A4616460C46054601F0D6F9426A2368C3
:107DF0004FEA82089845814604D8D0F88C30BAEB17
:107E0000830F09D0254B184605B0BDE8F08F244BF1
:107E1000184605B0BDE8F08FAAF1040B5246314672
:107E20003846FFF7E5FC57F80B30029323F0404348
:107E300043F080433A6847F80B303B68019223F0E7
:107E4000070307F1200A3B6050464B4609F1280220
:107E5000394601F0BDFB88B1124BBE4205D0384611
:107E60004146019305F066FC019B5545D0D0414643
:107E70005046019305F05EFC019BC9E7019B3B6006
:107E8000029B47F80B3003905146D9F8242028462E
:107E9000FFF7BEFCC4F80080039BDEE73123F0004F
:107EA0003023F0003423F0002DE9F047002950D0B2
:107EB000002B52D0002854D0D0F8B842B4F5107F2F
:107EC0002BD8D0F8BC620134A64226D84AB3073674
:107ED000F608B24225D8174603F104090A461D46A2
:107EE00082463B4648464C21FFF7C2FC044648BB4D
:107EF00007F10308B7424FEA980816D041464846B2
:107F0000FFF738FDF0B151464FF4377205F15000DC
:107F100005F00AFC154B2B6000E0154C2046BDE82F
:107F2000F087144C2046BDE8F087DAF8BC321F33E6
:107F3000C3F34F130AF1D80241464846FFF75CFBF2
:107F40000228DBD028464FF44C7105F0F3FB0A4CB5
:107F5000E4E70A4C2046BDE8F087094C2046BDE81E
:107F6000F087084C2046BDE8F08700BF020000EC17
:107F70009508F0000B08F0000C08F0000908F0006C
:107F80000A08F0000208F000F0B1F9B110B5114B89
:107F900004689C4214D1DAB1D0F80C33146807336A
:107FA000B4EBD30F0ED30246043208464C232146CD
:107FB000FFF734FC084B002814BF1846002010BD02
:107FC000064810BD064810BD064870470648704771
:107FD000064810BD020000ECC508F000C208F00021
:107FE000C408F000C008F000C108F000C308F000A9
:107FF00030B33AB32DE9F843334C0568A5421CD1A0
:1080000013B3052916D0072914D81E46D0F84C33CF
:108010001546C26CDF1D042903F11F0304464FEA15
:10802000D7074FEA531302F0010227D0062925D0C3
:1080300002290BD02548BDE8F8832548BDE8F88320
:1080400024487047244870472448F7E7316807F10F
:108050000108414536D3284642F0020200F8012BC0
:108060009B00221D3946FFF7D9FB40B328463168F3
:1080700005F060FB002333601948DFE74FEA47084B
:10808000306808F1010840451CD30429284618BF70
:1080900042F006014FEA830900F8011B4B46221DFE
:1080A0003946FFF7BBFB0028E0D1781C4B4604F1B2
:1080B0004C0228443946FFF7B1FB0028D6D1C6F858
:1080C0000080BBE70748B9E7010000EC1508F000A5
:1080D0001A08F0001408F0001608F0001708F00065
:1080E0001B08F0001808F0002DE9F04182B0002ACA
:1080F00059D0002B5CD0089C002C63D0099C002C2C
:108100004FD0002863D0002957D015460F4680462F
:108110004FF44C7118461E4605F00CFB4FF45D7190
:10812000089805F007FBD5F8BC4209981F3464098C
:10813000A200013C05F1D80106EB840405F0F4FA35
:1081400000236360331DD5F8BC22009339464046B6
:10815000099B00F0E3FA0446C8B130464FF44C7175
:1081600005F0E8FA4FF45D71089805F0E3FA0A9B10
:1081700023B140F66811184605F0DCFA4FF453714C
:10818000099805F0D7FA204602B0BDE8F0812846EC
:10819000DDE90823314601F0BDFA04460028DCD1B0
:1081A000E5E70C4CEFE70C4C204602B0BDE8F0814F
:1081B0000A4C204602B0BDE8F081094C204602B0CE
:1081C000BDE8F081074C204602B0BDE8F081064CC6
:1081D000D9E700BF0508F0000208F0000308F0002E
:1081E0009008F0000408F0009108F0000B2804D873
:1081F000034B53F8203003B118470020704700BFED
:1082000044D30300F0B5BDB004460F466846F021E4
:108210001D46164605F08EFA042C3DD8DFE804F022
:108220003732213C030003220092802240491792FA
:10823000404A414B3993CDE93A1268469847B0F528
:10824000720F1DD036D93D4B984225D0013398424C
:108250002DD13B4C6846F02105F06CFA20463DB02C
:10826000F0BD384B384939930122009240221792D1
:10827000364A6846CDE93A129847B0F5720FE1D117
:10828000334CE7E72F4B304939930222EDE72D4B72
:108290002D4939930022E8E72E4CDBE7274B984223
:1082A000FAD001339842D4D0B0F5720FE8D04FF431
:1082B0007504CFE70028FAD16EB147B3019B13BB19
:1082C00032463946684605F0B7FCB0F5720FD7D094
:1082D000B9D80028EBD14DB3189AB2B91146012391
:1082E000019368463A9B98470028D7D13B9B684644
:1082F00098470028D2D1009B1890032BCCD8DFE8F8
:1083000003F01311080F144CA4E719A9E7E7134C65
:10831000A0E71C22284602A905F006FA002499E7E6
:108320004022F7E72022F5E71422F3E70C4C91E70F
:10833000D5D10200119F02003DA102000100F20010
:108340000202F000E9A0020001D002008D9E0200AE
:108350000002F0000102F0000C02F0000302F00045
:108360000502F0002DE9F84360B3054614460E46B9
:1083700039B1302A01D8930728D0254F3846BDE8B7
:10838000F883EAB9DFF89C804FF0FF31D8F800009D
:1083900005F0F0F9074678BB402105F1840005F0AF
:1083A000C9F9A408C5F8C440D8F8000005F004FADB
:1083B0000028E3D0174805F061F93846BDE8F88396
:1083C000154FDBE7154F3846BDE8F883DFF85480DA
:1083D0004FF0FF31D8F8000005F0CCF9074658B946
:1083E00005F184094846402105F0A4F93146484684
:1083F000224605F099F9D4E7094805F1840905F00A
:108400003DF94846402105F095F9002EEED1C8E728
:10841000040CF00064C80300030CF000250CF0000D
:108420004CC80300B88D00202DE9F04F9BB0002808
:108430003FD0002A43D021B98B4658461BB0BDE837
:10844000F08FA94F04460D4638684FF0FF311646AD
:1084500005F090F948BBA54BD4F8DC209A4212D124
:10846000D4F8D430DA0739D5D4F8CC30113338D831
:10847000D4F8D080B8F1040F36D0B8F1080F33D05B
:10848000DFF878B201E0DFF878B22946304605F02F
:1084900051F9D4F8C430C3B9386805F08DF9002813
:1084A000CBD0934805F0EAF8C7E7924805F0E6F824
:1084B000D1E7DFF850B258461BB0BDE8F08FDFF8C7
:1084C00048B258461BB0BDE8F08F0023C4F8C43052
:1084D00004F18400402105F02DF9DDE7DFF82CB22E
:1084E000D3E7DFF82CB2D0E7D4F8C4200C2A60D848
:1084F00004F14003029304F1840A002A5CD0920044
:10850000514604F1480005F00FF9D4F8C42002994F
:1085100008F104039B00009392005346204605F0A7
:108520008DF983460028B0D10346224651462046A5
:1085300005F07CFA83460028A7D14FEA880B04EBAC
:108540000B090122D9F80C301BBA9B184FF000011F
:108550001BBA28BF1146C9F80C3001B3D9F808304E
:1085600001221BBA9B184FF000011BBA28BF11460D
:10857000C9F8083099B1D9F8043001221BBA9B1808
:108580004FF000011BBA28BF1146C9F8043031B1C1
:1085900054F828301BBA01331BBA44F828300023A2
:1085A00007A81946032204F043FF50B1DFF864B175
:1085B0006BE7DFF864B168E74021504605F0BAF890
:1085C000BBE70146082305AA07A8CDE9054B04F03F
:1085D00087FF0028EAD1494607A804F069FF002870
:1085E000E4D1454AD4F8D4301A4266D015F00F0BC6
:1085F0004FEA151303930EBF4FF0100B0133039393
:108600005D450DD0A5EB0B084146304605F092F8CC
:1086100033464246314607A804F050FE0028C5D133
:1086200004F1300810224146029805F07DF84046DA
:10863000102105F07FF81AAA102342F8583D07A828
:108640000192CDF800801946424604F07DFE0028D4
:10865000ACD1A5EB0B0030445A46414605F064F816
:10866000D4F8D430DB0509D44246DDE902033146B3
:1086700002F0DAF9834600287FF407AF09F110020F
:10868000039901E0914508D052F8043D1BBA5B18EC
:108690001BBA4FF001011360F4D251460123224668
:1086A000204605F0C3F9834600287FF4EEAED4F8E7
:1086B000CC300133C4F8CC30EBE604F1300840464E
:1086C000102105F037F843464146102207A804F070
:1086D000F5FD00287FF46AAFD4F8D43043F480333A
:1086E000C4F8D43082E700BFB88D0020CDAB2301A1
:1086F00064C803004CC8030000010100210CF00015
:108700000E0CF000270CF000000CF000080CF0003C
:10871000070CF000360CF000040CF0002DE9F04FCF
:1087200087B0109C002C00F08C806F4EA2F1020CE0
:10873000B4457FD80746002800F08180002900F06A
:108740008E8002F107081D4691460E464FEAD80872
:10875000B3B922461FFA88F1B047034600285FD11B
:1087600008F1FF3819F0070F14F8082042F08001D3
:108770006CD104F808100023184607B0BDE8F08F4C
:108780001FFA88F11846FFF7BFF80228814668D91A
:10879000032802D12B78032B63D909F107034FEA91
:1087A000D30BA8EB0B0104EB0B00C9F1000904F09B
:1087B000C1FF09F00709FF2343FA09F90BF1FF3361
:1087C0005FFA89F204EB03091FFA8BF30393ABF111
:1087D000100304934FF6FF73CDF814800193904675
:1087E0000295224603993846B047002877D199F878
:1087F0000030BBF10F0F08EA030389F8003032D8CC
:108800001FFA8BF31946029A2046FEF78BFF0228C7
:1088100060D0019B013B0193E3D1DDF81480334B21
:1088200001934146204604F085FF019B184607B09E
:10883000BDE8F08F2E4B184607B0BDE8F08F2D4BEA
:10884000F4E72D4B184607B0BDE8F08FC9F10002E0
:1088500002F0070241FA02F204F80820E6E7274B8B
:10886000E4E7274BDCE7049B029AE51802EB030AD6
:1088700009E0002BC4D0B04788BB99F8003008EA63
:10888000030389F800301023194652462846FEF7A4
:1088900049FF0346022B2A464FF010013846E8D123
:1088A000029D013C04EB0B01012314F8012F13443A
:1088B000A14223704FEA2323F7D1013D05EB0B03BF
:1088C000022215F8011F0A449D422A704FEA222213
:1088D000F7D150E7029DBBF1000FE2D14BE7DDF885
:1088E000148003469CE700BFFDFF0700010CF00069
:1088F000310CF000250CF000300CF000140CF000EE
:10890000320CF0002DE9F0418EB0002900F091808A
:1089100000287ED04E4F0D4604464FF0FF31386898
:1089200004F028FF002879D14A4BD4F8DC209A4281
:1089300063D1D4F8D430DB0779D507A9204604F0F9
:108940008BFC0646002859D1D4F8D060042E01D003
:10895000082E73D1D4F8C4300C2B71D80EAB720131
:1089600043F8242D06A804AACDE90020029507A902
:108970000022204601F0DCFE002863D1069B04980B
:10898000D4F8C42023F00303083304F18408184406
:108990009200414604F0C8FED4F8C420069B049916
:1089A000043603EB820CB60000966246434620462E
:1089B000CDF818C004F042FF0646002843D1034614
:1089C00022464146204605F031F8064600283AD1B5
:1089D000D4F8D430C4F8C40043F001030122404667
:1089E000C4F8D430C4F8CC20402104F0A3FE2846BB
:1089F0004FF4BF5104F09EFE00E0174E386804F0BB
:108A0000DBFE10B1154804F039FE30460EB0BDE86B
:108A1000F081134E30460EB0BDE8F081114804F0ED
:108A20002DFE0C4BD4F8DC209A4282D0E5E70E4EA6
:108A3000E4E70E4E30460EB0BDE8F0810C4EDDE7A7
:108A40000C4EDBE70C4E2046E42104F073FECEE72B
:108A5000BC8D0020CDAB23010E0CF00064C80300D8
:108A6000250CF0004CC80300080CF000200CF000AE
:108A7000210CF000040CF000260CF0002DE9F0476A
:108A80008EB0002800F0C680002900F0B6800446B1
:108A90000D46E42104F04EFE07A9204604F0DCFB5D
:108AA00020B1614E30460EB0BDE8F0875F4F4FF009
:108AB000FF31386804F05EFE002840F0A7802A46A7
:108AC00007A9204601F0DCFF0646386804F074FE72
:108AD000002840F09780002EE3D1E421204604F0E6
:108AE00029FE4FF0FF31386804F044FE002840F0C2
:108AF000968007A9204604F0AFFB002874D1D4F873
:108B0000D030042B01D0082B6ED1D4F8C4200C2A0D
:108B10006AD803F1040A0EAB4FEA4A1243F8242D37
:108B200006A804AACDE90020029507A90022204644
:108B300001F0FEFD00284ED1069B0498D4F8C42015
:108B400023F00303083304F18408184492004146DB
:108B500004F0EAFDD4F8C420069B049903EB8206D6
:108B60004FEA8A0ACDF800A03246434620460696D0
:108B700004F064FE814670BB5146204604F0DAFDE5
:108B80004B4622464146204604F050FF064610BBA5
:108B9000D4F8D430C4F8C40023F4803343F0010384
:108BA0000122C4F8D430224BC4F8CC204046C4F88B
:108BB000DC30402104F0BEFD28464FF4BF5104F0E4
:108BC000B9FD386804F0F8FD00283FF46BAF194890
:108BD00004F054FD66E72046E42104F0ABFD28468E
:108BE0004FF4BF5104F0A6FD386804F0E5FD10B164
:108BF000104804F043FD104E54E7104E30460EB0BE
:108C0000BDE8F0870B4804F039FD64E70C4804F038
:108C100035FD54E70B4E30460EB0BDE8F0870848EE
:108C200004F02CFD65E700BF110CF000BC8D0020A6
:108C3000CDAB230164C80300120CF000200CF0003F
:108C40004CC80300250CF0002DE9F04F97B0DDE98A
:108C500020679C014FEA073848EA874744F0045EE2
:108C60009D4D90464EEA070E2A680092009AD20760
:108C7000FAD59A4DDFF860C2C5F800E04FEA8812D5
:108C8000229D42F0104242EA05354FEA834945EA07
:108C90000905DCF800200192019AD207F9D58F4A24
:108CA000DFF834C215604FEA811848F010421743CC
:108CB000DCF800200292029AD207F9D5320342EA88
:108CC0008646864A844D176046F0045C4CEA040CE4
:108CD0002A680392039AD707FAD5804A7E4FC2F8D2
:108CE00000C044EA090545F004554FEA033C45EA53
:108CF0000C053A680492049AD207FAD58A0442F025
:108D0000104EDFF8D8A1744FCAF800504EEA040E96
:108D10004EEA0C0E3D680595059DED07FAD56F4DA1
:108D20006D4FC5F800E046F0104646F480763D6889
:108D30000695069DED07FAD5DFF8A0E1664FCEF85F
:108D40000060850145F0045E4EF4821E3E68079681
:108D5000079EF607FAD5614EDFF888B15E4FC6F878
:108D600000E04FEA003A4AEA0B0B3E680896089E7C
:108D7000F607FAD5594FDFF870E1C7F800B0239E27
:108D800030374EEA864E3E680996099EF607FAD5B8
:108D900044EA0C06DFF844B14F4FCBF800E046F050
:108DA000245646F400169E463B680A930A9BDB074E
:108DB000FAD57346DFF824B1474FCBF8006045F091
:108DC000484E4EF4821E4EEA03033E680B960B9EFD
:108DD000F607FAD545EA0A05404F3F4E3B6045F09D
:108DE000045545EA090533680C930C9BDB07FAD55B
:108DF00044EA8040394B384E1D6040F0045040EA50
:108E00000C0033680D930D9BDF07FAD5334B344DBF
:108E1000186031484CEA050503680E930E9BDE0787
:108E2000FAD5080302432D4B2B4E1D6048EA02077A
:108E300047F0045533680F930F9BDB07FAD5274B98
:108E4000254E1D6047F0104733681093109BDB07D9
:108E5000FAD5224B204E1F6033681193119BDB071C
:108E6000FAD51E4B1C4E1D6042F00452224333685B
:108E70001293129BDF07FAD5239B174D44EA033464
:108E8000164B44F010441A6044EA09042B6813930B
:108E9000139BDE07FAD548EA0000104B0E4A1C600F
:108EA00040F0245040F4101013681493149BDC0716
:108EB000FAD541F04841094B074A186041F4A21124
:108EC00041EA080113681593159BDB07FAD5034B9C
:108ED000196017B0BDE8F08FB0B0025080B00250FA
:108EE000400128290001102100410021004870475D
:108EF00094C803002DE9F04F87B05E6A109D1746B5
:108F0000B4004FF0000C9A46814688462246394606
:108F10002B460420CDF814C0FFF774F9834658B1EE
:108F200004EB4401284604F005FC059802F028FFF4
:108F3000584607B0BDE8F08F4FF0FF31244804F0E9
:108F400019FC002840D106AA1E2342F8043D002146
:108F5000DAF8200002F0DCFF98BB2B68CDF800A007
:108F6000221F23F007032B60AB58039223F04043EA
:108F700043F0804305EB040AAB5051460AEB040072
:108F800033462A4600F02AF883460028C8D1039BBE
:108F90005AF826105AF8032042EAC1724AF8032010
:108FA00039462246404604F0BFFB32465146484609
:108FB000FEF72EFC2246494608EB040004F0B4FB01
:108FC000AEE7DFF814B0ABE7024804F057FBBAE7AE
:108FD000C08D00209CCD03003323F0002DE9F04725
:108FE00084B09A460C9C814688461046194616461F
:108FF000656AFEF7BFFCBAF1000F00F0AC802B46AB
:10900000224607210746002002F0BEF9052304F29C
:10901000D4420721012002F0B7F92B4604F5EA7289
:1090200007210C2002F0B0F92B4604F5FA72072153
:109030000D2002F0A9F92B4604F5057207210E2038
:1090400002F0A2F92B4604F50D7207210F2002F061
:109050009BF92B4604F515720721102002F094F9B4
:109060002B4604F51D720721112002F08DF92B46C5
:1090700004F525720721122002F086F92B4604F52B
:109080002D720721132002F07FF92B4604F535726B
:109090000721142002F078F92B4604F53D720721D0
:1090A000152002F071F92B4604F5457207211620B0
:1090B00002F06AF92B4604F54D720721172002F0E1
:1090C00063F92B4604F214420721082002F05CF9F0
:1090D0002B4604F234420721092002F055F904F22C
:1090E00054422B4607210B2002F04EF9234A136805
:1090F0000093009BDB07FAD5214B22491F4A1960D8
:1091000013680193019BD807FAD51D4B1E491B4AD2
:10911000196013680293029BD907FAD5184B1B49B3
:10912000164A196013680393039BDB07FAD5144BA7
:10913000174A1A60072104F2744208462B4602F0CF
:1091400023F93946304602F085FC044640B12046FA
:1091500004B0BDE8F0870F4C204604B0BDE8F087AE
:1091600048462946102202F0E3F8404629461122DB
:1091700002F0DEF8204604B0BDE8F087B0B002503F
:1091800080B0025080022A4780122A4F80010021BD
:10919000806118210223F00000487047B4CD03001D
:1091A0002DE9F041069C0E4615461F462246636A8D
:1091B00001218046002002F0E7F8012104F1B40209
:1091C0000846052302F0E0F8636A04F194020121E5
:1091D000062002F0D9F8636A3A460121082002F01D
:1091E000D3F82946304600F00DF8044630B905F1B1
:1091F0001F0149094046072202F09AF82046BDE8BF
:10920000F08100BF2DE9F04FA9B009230B220C46D5
:109210000A2105900793184608920C230122099110
:1092200004210A9301F0DEFF079BA1499A0142EA5B
:10923000834242F0924242F404320B680B930B9B40
:10924000DE07FAD59B4B9C481A60089B984A40EA77
:10925000831013680C930C9BDD07FAD5954B94494A
:1092600018600A9B9A0142EA834242F0924242F419
:1092700004320B680D930D9BD807FAD58D4B8C49A2
:109280001A600B680E930E9BDA07FAD5894B8B494F
:10929000874A196013680F930F9BDB07FAD5854B3C
:1092A000874A1A6014F11E0248BF04F13D026FF0B4
:1092B000404303EB621304F1FF38059AB8F1000F45
:1092C00052F823B0C0F26F8108AB029307AB019351
:1092D0000AAB0493DFF80092754C764DDFF8FCA1E1
:1092E00009AB0027039308F01F061F2E04D14FEA95
:1092F0006812059B53F822B02BFA06F606F0010619
:1093000077403A46DDE9010103F03AFA3A46DDE9F1
:10931000030103F035FA0A9A49EA023123681093EF
:10932000109BDF07FAD52960089A664941EA824115
:1093300023681193119BD807FAD52960099A49EA45
:10934000023123681293129BDA07FAD52960079A33
:109350005D4B43EA824123681393139BDB07FAD5E5
:109360002960079A0998110341EA804141F00451AC
:1093700041EA821123681493149BDF07FAD5296010
:10938000DDE908100A9A120342EA814141F00451D2
:1093900041EA801123681593159BD807FAD52960F7
:1093A0000A9A0798910141EA003141F0104141F4D5
:1093B000002123681693169BDA07FAD52960099ACB
:1093C000910141EA023141F0104141F4402123680A
:1093D0001793179BDB07FAD5296023681893189B0E
:1093E000DF07FAD5394B2B60079A110341EA824116
:1093F00041F0104141F0C00123681993199BD8072F
:10940000FAD52960DDE909211203089842EA814171
:1094100041F0045141EA801123681A931A9BDA073C
:10942000FAD52960099A49EA023123681B931B9BEC
:10943000DB07FAD52960DDE90920910141EA804185
:1094400041F0045141F4804123681C931C9BDF07C9
:10945000FAD52960079A4AEA821123681D931D9B59
:10946000D807FAD5296023681E931E9BDA07FAD520
:10947000174A2A6023681F931F9BDB07FAD5154AFA
:109480002A60099A110341EA824141F0104141EA00
:10949000821123682093209BDF07FAD52960089A60
:1094A000110341EA824141F0104141EA821117E083
:1094B000B0B0025080B002500000224940010021AB
:1094C0004051142180400021C040002180300C9088
:1094D00000211429C0400C210001142900200C9007
:1094E00023682193219BD807FAD52960236822930A
:1094F000229BDA07FAD5314A2A60DDE90902910197
:1095000041EA003141F0104141F4001123682393F6
:10951000239BDB07FAD52960099A4AEA821123685E
:109520002493249BDF07FAD508F1FF38B8F1FF3FF9
:10953000296037467FF4D7AEDDE90101324603F0FA
:109540001FF93246DDE9030103F01AF9089B1C48B4
:109550001C4A40EA831013682593259BDC07FAD543
:10956000194B18491860DDE908301A0342EA8042B5
:1095700042F0184242F080020B682693269BD807DF
:10958000FAD5114B11491A60079B0E4A41EA8341F3
:1095900013682793279BDB07FAD50B4B0020196034
:1095A00029B0BDE8F08F08AB029307AB01930AAB7B
:1095B000049309AB00260393BEE700BF823018C8AE
:1095C00000200229B0B0025080B00250C0210088B3
:1095D0002DE9F04184B007460E460D244FF0FF31CF
:1095E0001248039490461D4604F0C4F8D0B903AA6B
:1095F0000021286A02F08CFC044660B9D5F88C1072
:109600003046FEF7B7F900950246434631463846E4
:10961000FFF7C6FD0446039802F0B2FB204604B0F3
:10962000BDE8F081024804F029F8E0E7C08D002091
:10963000ACCE03002DE9F043D0F848431F34640951
:109640001D464FEA8408D0F84C3385B005EB080678
:1096500000F1480706EB080C1F330097019591466F
:10966000CDE9026C5A090346903002F0F5FA07463C
:1096700040B128464FF4537104F05CF8384605B009
:10968000BDE8F08330462146FEF774F950B121461B
:109690002846FEF76FF928B1424648462946FEF7AC
:1096A000A3F9E6E7004FE4E72008F100F0B5D0F8B1
:1096B0004843D0F84C2385B01F340346640901EBBE
:1096C000C40001EB84070D4601911F3203F14801EC
:1096D000CDE902700091520903F5B47103F19000D5
:1096E00002F0BAFA70B9064621463846FEF742F94A
:1096F00020B921462846FEF73DF900B1034E304619
:1097000005B0F0BD024E304605B0F0BD1008F000C7
:109710003008F0002DE9F04385B0002839D0002949
:109720003CD0002A51D07BB31646D0F8BC2203931C
:1097300006F14C0400F5B6731F3201F1040906F17D
:109740000408CDE9018400930D465209494600F50D
:109750009273074602F080FA044620BB394605F1B1
:1097600050004FF4377203F0DFFF1A4B2B6006F105
:10977000940039464FF4377203F0D6FF164B33602E
:10978000204605B0BDE8F083144C204605B0BDE886
:10979000F083134C204605B0BDE8F083114C204601
:1097A00005B0BDE8F08300242C60484621463460B3
:1097B0004C2203F0BDFF21464046902203F0B8FF43
:1097C000094C204605B0BDE8F083084C204605B0A2
:1097D000BDE8F083020000EC010000EC0508F00099
:1097E0000208F0000308F0003008F0000408F00060
:1097F000F0B5D0F8483303F11F048DB0640920227E
:10980000122C00920AD80E4605466946184602F008
:1098100059FB074630B138460DB0F0BD524F3846BF
:109820000DB0F0BD234605F19002012101F0ACFD21
:1098300001210846052305F5127201F0A5FD234616
:109840002A460121022001F09FFD234605F1D8029E
:109850000121042001F098FD05F5907223460121B5
:10986000052001F091FD414A13680193019BDB073C
:10987000FAD53F4B3F493D4A196013680293029B5A
:10988000D807FAD53A4B3C49384A19601368039314
:10989000039BD907FAD5364B3849344A1960136807
:1098A0000493049BDB07FAD5314B354A1A6006F066
:1098B0000603022B2BD005F1480223460121032089
:1098C00001F062FD294A13680593059BDC07FAD570
:1098D000274B2C49254A196013680693069BD80725
:1098E000FAD5234B2849294A196013680793079B27
:1098F000D907FAD5264A274B126812F4805F08BFB1
:109900001F46009802F03CFA38460DB0F0BD02F058
:109910005FFF002826D01D4A13680893089BDB07C9
:10992000FAD51D4B194A196813680A930A9BD80780
:10993000FAD51A4A1A4B11601B680993099B5E40BD
:10994000F10708D5343A13680B930B9BDB07FAD564
:10995000074B144A1A60214605F14800032201F022
:10996000E7FCCEE7104FCCE70F08F000B0B0025094
:1099700080B00250802108888041183180610888B9
:109980000051183180310C8800681051B4B0025079
:1099900088B002501008F0000CB00250E4B0025041
:1099A000DCB00250C03000294021F000F0B583B097
:1099B000002800F037811D46036A072B0E46044637
:1099C0000AD01746002D40F08780032B00F09480CA
:1099D0000024204603B0F0BD436B002B00F08780CD
:1099E000012B02D1B5F5803F7DD215B9236B002B39
:1099F00079D14FF0FF319C4803F0BCFE002840F0C5
:109A0000CE819A4B01221A60236A072B00F217813C
:109A100002FA03F313F08F0F00F01181636A93428F
:109A200000F21F81636B934200F2E381A36B9342C8
:109A300000F2FD818E4B8F491A600B68002BFCD120
:109A40008D4A1368002BFCD18C4A1368002BFCD183
:109A50008B4A1368002BFCD18A4B1F68002FFCD166
:109A60004FF0FF3003F08EFD236A23F00403032B35
:109A700014BF4020802003F091FD834B1F60236AB8
:109A800023F00402032A18BF676A804A4FEA83035F
:109A900018BF07F0010703F01C031F431760236A78
:109AA000072B02D17A4B01221A60A36A012B00F026
:109AB000A881C0F0A081022B00F09D81236A013BA8
:109AC000062B00F23F81DFE813F034015601340128
:109AD0003D013D013D013401436B002B40F0A78067
:109AE000B5F5805F13D36B4C204603B0F0BDB5F5E0
:109AF000805FFFF47AAFF6E7036B002B7FF468AF6B
:109B0000C0E90F55C0E9115500F13C0610254FF092
:109B1000FF31554803F02EFE002840F09E80534B45
:109B200001221A60236A072B6AD802FA03F313F0A2
:109B30008F0F65D0636A934262D8636B93425FD89C
:109B4000A36B93425CD84A4B4A491A600B68002BBE
:109B5000FCD1494A1368002BFCD1484A1368002BFA
:109B6000FCD1474A1368002BFCD1464A1368002BEE
:109B7000FCD14FF0FF30019303F004FD226A22F084
:109B80000402032A14BF4020802003F007FD3E4A50
:109B9000019B1360226A22F00401032918BF636A43
:109BA0003A494FEA820218BF03F0010302F01C0297
:109BB00013430B60236A072B02D1354B01221A6035
:109BC000A36A012B00F00B81C0F00381022B00F08F
:109BD0000081236A5A1E062A76D8DFE802F06BA5B8
:109BE0006B7575756B002C4A2C4B126822601A68D5
:109BF00062605A68A26008331B68E3600123236334
:109C0000274B1C68002CFCD1184B17481C6003F034
:109C1000D3FD00283FF4DCAE224803F02FFD2046A0
:109C200003B0F0BD4FF47104204603B0F0BD012B2A
:109C30007FF46DAFB5F5803FBFF455AF67E71A4CC1
:109C4000174A1368002BFCD1084A0748136003F039
:109C5000B3FD00283FF4BDAEDEE7144803F00EFD6F
:109C60005DE7134CECE700BFC88D002010B8025030
:109C700000B9025070B4025020BD025020BC025006
:109C800038BD025038BC0250BCB40250C0B40250BF
:109C90007CB402500500F10060B4025064B402507C
:109CA00010B90250E0D103000100F100C8D1030057
:109CB0000200F1005F4B22681A6062685A60A26875
:109CC0009A60E268DA60236A23F00403032B6AD007
:109CD000A36B012B00F0A580574A584B176020203A
:109CE0001D60636B012B6FD0554A564B16601D608B
:109CF00003F05CFC544A1368002BFCD1236A013B3F
:109D0000062B3FF67BAF01A252F823F02D9D0200F7
:109D1000E79B02002D9D0200FD9B0200FD9B0200BF
:109D2000FD9B02002D9D0200484BC4E7414A484B71
:109D30005BE7404B22681A6062685A60A2689A60CA
:109D4000E268DA604349444A01230B601560002D44
:109D50002ED1226B0AB9414A13603B4A1368002B8B
:109D6000FCD1236A013B062B07D8DFE803F0150876
:109D7000150606061500354BDCE7002460E7334A7C
:109D8000374B126822601A6862605A68A260083312
:109D90001B68E360002453E7264A2D4BF1E7314866
:109DA00003F06CFC2DE6636B012B0CD010209BE7BD
:109DB000636B012B2FD0224A224B166010201D60AE
:109DC00003F0F4FBC9E74020274A284B16601D60CA
:109DD0008EE72749274A0B6001231360F9E6264BDB
:109DE00022691A6062695A60A2699A60E269DA605F
:109DF000EFE6224C24E71E491E4A0B600123136044
:109E00005CE61D4B22691A6062695A60A2699A6019
:109E1000E269DA6052E6144A144B166040201D6075
:109E2000CEE7174A174B176080201D6059E7164C84
:109E300006E700BF40B4025030BD025034BD0250AE
:109E400030BC025034BC025010B9025060B4025011
:109E500044B402507CB40250BCB4025024B5025049
:109E600064B40250C8D1030028BC02502CBC02507C
:109E700038BA025078B4025000B402500300F10026
:109E800028BD02502CBD02500400F10000283BD038
:109E9000F0B482B0436A0193836893FA83FC019B18
:109EA000D0E90712D0E90376D0E905541BBA436222
:109EB000436C019309BA836AC16112BA02623FBA64
:109EC000D0E90F1236BA2DBA24BAC0E902C7C0E9E8
:109ED0000465C76A8461066B456B846B93FA83FCE7
:109EE000019B3FBA36BA2DBA24BA09BA12BA1BBAC4
:109EF000C0E90AC7C0E90C65C0E90E41C0E91023FA
:109F0000002002B0F0BC70474FF47200704700BFF1
:109F1000002800F08A804C4B826D9A4201D04B4859
:109F200070472DE9F041016E804600F14805E0B030
:109F30002846C900042200F08BF8D8F8543020A835
:109F40004FF4807200211CBA03F0F2FBD8F85C20B9
:109F5000E308B3FBF2F402FB1434141B102C98BF7B
:109F6000A41820ABA4F11000184429461022802523
:109F70008DF8805003F0D8FB2A46684608F164014A
:109F800003F0D2FBD8E917230DEB05010DEB03001D
:109F9000D21A03F0C9FBD8E91753ED1AADB26946DE
:109FA000404600F0E5F8A54242D3D8E90641D8E999
:109FB0000823D8E90207D8E9046500BA3FBA24BAF1
:109FC00009BA12BAC8E9027036BAD8F83400C8F82B
:109FD0001C402DBAD8F83040C8F818101BBAC8F881
:109FE0002420D8E90F12D8F83870C8F81460C8F8DF
:109FF0001050D8F82860D8F82C50C8F82030D8F87D
:10A00000443024BA00BA36BA2DBA3FBA09BA12BAE5
:10A010001BBAC8E90C040020C8E90A56C8E90E17A3
:10A02000C8E9103260B0BDE8F0814FF472007047AB
:10A0300020AB59196846D8F85C2003F075FB6946D7
:10A04000404600F095F8B0E7785634120200F2006E
:10A05000F0B40AB3031F1C4603EB820654F8045FF6
:10A060002DBAA6422560F9D102F18044013CA60038
:10A0700050F82440871909194FF0000528BF012521
:10A080003960ADB9311D194453F8042F12BA8B420F
:10A090001A60F9D1F0BC704750F8043C59181446C6
:10A0A00028BF012440F8041C6FF00306002CF1D0F7
:10A0B000911E50F821305C1C9C4240F821400FD882
:10A0C00081B102F18043023B00EB830300E039B130
:10A0D00053F8044D651CA54201F1FF311D60F6D90E
:10A0E000002AD7D0031FCDE7E8B110B50468012CD2
:10A0F00012D0022C02D044B10C4810BD08302022EE
:10A100000B4903F011FB002010BD0830142209494F
:10A1100003F00AFB204610BD08302022064903F058
:10A1200003FB002010BD4FF4720070470100F200E5
:10A13000D8CE0300C4CE0300F8CE030078B1036884
:10A14000032B01D00748704710B54022044606494A
:10A15000083003F0E9FA054BA365002010BD4FF469
:10A16000720070470100F2000CC8030078563412E8
:10A170002DE9F04F00F10803ADF55D7D1D460C465D
:10A18000402200212CA82393FDF79CF929462CA8F6
:10A19000402203F0C9FADDE93256CDE91E56DDE969
:10A1A0003467CDE91867DDE93678DDE91E56DDE96B
:10A1B0002C23CDE91A78CDE90056DDE93889DDE9AF
:10A1C00018679346DDE92E12CDE91C893D46DDE98D
:10A1D0003A9ADDE91A78CDE91412DDE93001CDE9CA
:10A1E000209ACDE90478DDE91C89CDE916019C4669
:10A1F000201DDDE91412DDE91634CDE90C89DDE915
:10A20000209ACDE90634CDE90812DFF8D881CDF8DF
:10A210003C803CA95CABCDE924BCCDE902BC344612
:10A22000CDE90A9A129386468C4611E0DDE90423B3
:10A23000CDE90C23DDE90823CDE90445CDE906236A
:10A24000DDE90234CDE902ABCDE908340D46044620
:10A250004FEA844A4FEA854BA803A603DDE90C23A5
:10A260004BEA943B4AEA953746EA954640EA9440E1
:10A27000E1054FEAC55887EA060A8BEA000048EA7A
:10A280005428049F059E41EA552141408AEA08006E
:10A29000CDE9281057405E4027402E4057405E4091
:10A2A000DDE928ABCDE928765EE90110DDE9028918
:10A2B000DDE9286700BACCF8000048463B4609BAF9
:10A2C00007014046CCF80410810741EA990147EAAA
:10A2D00018774F40414632460E01494646EA19700A
:10A2E0008E0746EA980180EA0106114611EB0A0141
:10A2F00043EB0B020F9B8A46F3E902010F93039B8A
:10A300004FEA486848EAD31887EA0807DDE9028976
:10A310004B4628975F0647EAD817DDE9068993463A
:10A32000089A029B7E4048EA0207099A299610EB98
:10A330000A0849EA020641EB0B09DDE90601089A21
:10A340001F40039BCDE9108900EA0208099A47EAF9
:10A3500008071E400B46269703EA02073E43FCE827
:10A3600002AB2796DDE9108918EB0A0849EB0B09C7
:10A37000DDE90AABDDE92667DDE9281218EB0A08FA
:10A3800049EB0B0989190E46DDE900017A411746B0
:10A3900018EB000249EB010310461946DDE90623DC
:10A3A000CDE90023DDE90C23CDE90A23129B18EB4C
:10A3B000060A49EB070B63450EF1080ECDE9266747
:10A3C0007FF434AF064B0F93BAABCDE90A450DF1DC
:10A3D000E80C2293CDE9000104460D4618E000BFC9
:10A3E00090CF030010CF0300DDE90A45CDE9044515
:10A3F000DDE90245CDE90845DDE90045CDE900018B
:10A40000CDE90A45CDE902AB044692469B460D468E
:10A41000DCE91EE04FEACE08460348EA507846EAF7
:10A42000DE464FEA4E3186EA08064FEAC00848EA9F
:10A430005E7841EAD041820642EA9E1281EA080132
:10A44000564081EA9011CDE92A61AA04A90341EAA4
:10A45000944142EA94324A400099DDE92A898E0407
:10A46000019946EA9136009944464D46DCE9148943
:10A470004FEA813E019914EB08004EEA914186EAC9
:10A48000010E45EB0901DDE900894446DCE904736E
:10A49000E60546EA59264C467240E60546EA582645
:10A4A0002892DA078EEA060642EA570E1A0629961D
:10A4B00042EA1722FE078EEA020246EA530E3E06E1
:10A4C00046EA13268EEA0606DDE90A4586EAD31631
:10A4D0005B0643EAD717059B109283EA0508019BA8
:10A4E000049A2B9608EA0308059B964688EA030817
:10A4F000009A109B8EEA0409CCE922015F4009EA28
:10A500000209FCE9022389EA0E0914182A974FEA86
:10A510000B1E4FEA8A7643EB010546EA9B06DDE90E
:10A520002A234EEA1A7E8EEA060E4FEA4A614FEA65
:10A530000A1646EA1B77CDE9104541EADB11DDE951
:10A5400008454FEA8B76CDE912238EEA010E029A76
:10A5500046EA9A064FEA4B617E4041EADA114E40E4
:10A5600044EA0207DDE91223DDE9100180185941B0
:10A5700002460B46DDE92801CDE92898CCE92023E5
:10A58000DDE92823A0461418A94643EB01050F9BDB
:10A59000F3E9020122180F9345EB0103DDE90245BF
:10A5A00041462140CDE928E607EA0A07039E0F430A
:10A5B0004946294049EA0606DCE9204506EA0B0639
:10A5C0000E43A418CDE926765D4122462B46DDE9EF
:10A5D0000C45DDE92667DDE92801A4185D41224626
:10A5E00034182B4647EB0105DDE90601161843EB4D
:10A5F000010730463946DDE90467CDE90C67229E44
:10A6000012196B416645CDE92645CDE906897FF4EF
:10A61000EBAEDDE92456AD185E41DDE9143413EBF1
:10A620000A0344EB0B04CDE906569A46DDE90267BE
:10A63000A346DDE916349B197C41DDE91E6716EB64
:10A64000080647EB0907CDE90267DDE918783F18EE
:10A6500048EB0108CDE90878DDE91A12DDE9008947
:10A6600011EB080142EB0902CDE93612DDE90A8956
:10A67000DDE91C1211EB080142EB0902DDE9065687
:10A68000DDE92089CDE93812DDE90412CDE92C5647
:10A69000CDE93034DDE90267DDE9083418EB010863
:10A6A00049EB02093CA84FF420720021CDE9343473
:10A6B000CDE92EABCDE93267CDE93A8903F038F820
:10A6C0002CA92398402203F02FF80DF55D7DBDE8FD
:10A6D000F08F00BF0B6802E0082B0B6006D84268C1
:10A6E00013424FEA4303F7D00020704700487047F9
:10A6F000310CF1000138072815D8DFE800F0100C04
:10A700001408141414048B698B60002070474B6983
:10A710008B60002070470B698B6000207047CB680E
:10A720008B60002070470148704700BF310CF1007A
:10A730002DE9F04F93B080460C46164606A830220D
:10A740000021DDE91C59FCF7BDFE1E9B03F5C1622B
:10A7500000232A60C9F80030D8F8D43013F4407FC1
:10A7600013D02B681B68C9F80030002B00F0AE80B6
:10A77000D8F8D40010F4007040F08880039000F006
:10A7800007FA039813B0BDE8F08F002E00F0888020
:10A790009349944A0868A1681268914240F09A80EF
:10A7A000002840F0978098F8DB3004938E4E8F4D50
:10A7B000DFF848B24FF0040A0023059301270CE0AC
:10A7C0009A0700F18980DB0600F19A80A36803EB09
:10A7D00043031B049B0933602F6005A800F0F4F9C4
:10A7E000059BD907ECD54FF0FF33CBF80030804BF9
:10A7F0001B6806937F4B1A6807925A6808920833C1
:10A800007D4A1B680993A36811680A9103EB43030F
:10A8100051680B91203A1B049B0912683360012791
:10A8200000232F6005930AE0990755D4DA0667D410
:10A83000A36803EB43031B049B0933602F6005A847
:10A8400000F0C2F9059BD807EED56C4A684B4FF073
:10A85000FF3111601A680C925A680D929A680E9234
:10A86000DA680F921A6910925A691192103B1B68AC
:10A870001E9B06A903F5C260302202F055FF30236B
:10A88000C9F80030D8F8D430002019E02B685C48B3
:10A890005A685C4B002A08BF184613B0BDE8F08F19
:10A8A00023F00F03C8F8D4300122009604AB2146F0
:10A8B000404600F0E7F800283FF478AFD8F8D430ED
:10A8C0009B057FF55BAF13B0BDE8F08F4D4813B02B
:10A8D000BDE8F08F4C48F3E74FF0FF33CBF8003082
:10A8E000049B082B72D05B000493E4B183B9D8F8C1
:10A8F000D43061684548464A002918BF1046DFE752
:10A9000010224FF0FF33CBF80020CBF80030E7E700
:10A9100004A92046FFF7DEFE48B13C4AD8F8D430FF
:10A920009042CDD1E5E7D8F8D4303A48C8E721467F
:10A930000498FFF7DFFE0028EFD1049B082B49D0D5
:10A94000042B4AD0A3F1020EBEFA8EFE4FEA5E1E21
:10A950003148324F234A0123036019463B60844645
:10A960001F46CCF80070A36813601368A068834288
:10A97000F7D100231A4A2A4F2A482B604FF0FF3C98
:10A98000CBF800C06FF0130CC7F800C0C0F800E0AF
:10A990001360A36803EB43031B049B093360296026
:10A9A000049AD8F8D810130243EA026321F07F42D8
:10A9B0001A43130A03F47F03134323F07F43BAF1CE
:10A9C000010AC8F8D8307FF4F7AE51E7D8F8D43090
:10A9D0000F4875E74FF0030EBAE74FF0020EB7E7E6
:10A9E00038B1025030B10250D8B102502CB10250EF
:10A9F00014B1025018B1025024B1025008B10250F3
:10AA0000340CF000330CF000300CF100310CF1008C
:10AA1000320CF100350CF100C4B1025040B10250CB
:10AA200000B102500CB10250012BF8B517461CD0F2
:10AA300010221D460C4602F075FEE0B1AE1E3946EE
:10AA400004EB0610102202F06DFEA0B1022D0ADD0B
:10AA500000252046103421461022013502F062FE06
:10AA600048B1B542F5D10020F8BD1146102202F0E0
:10AA700059FE0028F7D10148F8BD00BF020CF000D4
:10AA800000207047002867D0002965D0002B63D0D4
:10AA90002DE9F04722B1012400221C60C0F8D82023
:10AAA0001A68002A55D00D460646194628461C4607
:10AAB000FFF710FE00284DD129462068FFF71AFE47
:10AAC000002847D12368082B48D0042B49D0A3F194
:10AAD0000208B8FA88F84FEA5818234F2349244B44
:10AAE00001223A6094460A609646C7F800E0A968D9
:10AAF00019601968AA689142F7D11E4ADFF8889058
:10AB00001D49DFF888E01D4F00234FF0FF3A136026
:10AB1000C9F800A06FF01309CEF80090C7F80080C4
:10AB20000B60AB6803EB43031B049B09C1F8A03027
:10AB3000C2F800C0D6F8D830226823F07F4343EA39
:10AB40000263C6F8D830226843EA0223C6F8D83038
:10AB500000E00B48BDE8F0870A4870474FF0030853
:10AB6000BBE74FF00208B8E7C4B1025040B1025051
:10AB700030B102502CB1025038B102500CB1025029
:10AB8000310CF100350CF10008B1025000B1025057
:10AB9000084B094A002119601368002BFCD10748B3
:10ABA0000749084A03604FF480604FF0FF330860A4
:10ABB000136070472CB1025010B90250C4B102505A
:10ABC00008BA025008B1025038B504464FF480600C
:10ABD00002F0ECFC054D06480649074A00232B60AD
:10ABE00003600B682360136038BD00BFC8B102501A
:10ABF0002CB1025004B1025008B102502DE9F04FBF
:10AC000099B0974C269F239D4FEA874C4FEA073E09
:10AC10004CEA0E0747F0104747F080072668019678
:10AC2000019EF607FAD54FEA801949F0104A8D4C7B
:10AC30008B4E27604AF4005A4AEA834334680294F0
:10AC4000029CE407FAD5874C854E236049EA003719
:10AC500047F0245444F4001433680393039BDB0748
:10AC6000FAD5804BDFF8F8811C604CF0104646F4B2
:10AC70000256D8F800300493049BDB07F9D5794CD1
:10AC8000774B26604FEA811848F0104A229C4AF41C
:10AC9000005A4AEA84461C680594059CE407FAD5E4
:10ACA000704B6F4C1E6048EA013C4CF0245646F451
:10ACB000001623680693069BDB07FAD54FEA854A00
:10ACC0004AEA0535674B664C1E6045F0104545F075
:10ACD000800523680793079BDB07FAD5624B249C0A
:10ACE000DFF880B143EA84445D4BCBF80050044365
:10ACF0001D680895089DED07FAD55A4B584D1C6004
:10AD00004AF0104444F402542B680993099BDB0772
:10AD1000FAD5259B554D45EA834B524B504D1C604F
:10AD20004BEA01042B680A930A9BDB07FAD59501CD
:10AD300045F0104B4B4B4BEA0A0ADFF824B11C607C
:10AD40004AEA0E04DBF800300B930B9BDB07F9D5C6
:10AD500045EA8242434B424D1C6042F0104242F4AD
:10AD600040522B680C930C9BDB07FAD53D4B3C4CB7
:10AD70001A6023680D930D9BDD07FAD5394B3C4CC7
:10AD8000374A1C6013680E930E9BDC07FAD5354BCF
:10AD9000384C334A1C6013680F930F9BDB07FAD5BE
:10ADA000304B354C1C602E4A4CF0104444F4402487
:10ADB00013681093109BDD07FAD58004294B284AAD
:10ADC0001C6040F0104545F4824513681193119BB7
:10ADD000DB07FAD5234B294C214A1D6049EA0404BC
:10ADE00013681293129BDD07FAD51E4B1C4A1C6098
:10ADF00047F0045747F4801713681393139BDB073E
:10AE0000FAD5184B164A1F6013681493149BDD077C
:10AE1000FAD5144B124A1F6040F0045040F48240AF
:10AE200013681593159BDC07FAD541F048410D4B8B
:10AE30000B4A186041F4042141EA08011368169393
:10AE4000169BD807FAD5074B054A19601368179364
:10AE5000179BDB07FAD5034B1E6019B0BDE8F08FD6
:10AE6000B0B0025080B00250C02000C8802000C89E
:10AE700000310C90C0400C90C0302029032008C83D
:10AE80002DE9F04FA1B09E012F9F0092BD044FEA23
:10AE9000073C46F010470397039ADDF8B0A0B04C8A
:10AEA00045EA0C073A4327680697069FFF07FAD53D
:10AEB000DFF8B0E2AA4F84010194CEF800202A9A6C
:10AEC00044F0104444EA82441A0344EA02083C680D
:10AED0000794079CE407FAD5019CA24FDFF880E2B3
:10AEE00044EA00340494C7F8008044F0245747F43F
:10AEF0000017DEF800400894089CE407F9D5DFF855
:10AF000064E246EA02040294CEF80070029F944C78
:10AF10003D4345F0104527680997099FFF07FAD57B
:10AF20002B9C904F4FEA811848F0104E4EEA844E09
:10AF30008B4C3D604EEA020E25680A950A9DED078E
:10AF4000FAD5884C864DC4F800E048EA013747F04E
:10AF5000245E4EF4001E2C680B940B9CE407FAD57B
:10AF60004FEA8A4949EA0A347E4DDFF8F4A1C5F870
:10AF700000E044F010443443DAF800500C950C9D86
:10AF8000ED07F9D52D9DDFF8E0A1DFF8D8B14AEA49
:10AF9000854A4AEA000ACBF80040714D4AEA0204A9
:10AFA00005942C680D940D9CE407FAD549F01045E2
:10AFB000DFF8B0B1059CDFF8A8A1CBF8004035431D
:10AFC0001543DAF800400E940E9CE407F9D52E9C48
:10AFD000DFF890B1DFF888A1CBF8005041EA844453
:10AFE00044F0484434431443DAF800500F950F9D61
:10AFF000ED07F9D5009DDFF86CB1AD0145F0104AC1
:10B000004AEA0909DFF858A1CBF8004049EA0C09DF
:10B01000DAF800401094109CE407F9D5009CDFF8A2
:10B0200044A1DFF83CC1CAF80090A404254345F0D0
:10B03000104949F44059DCF800501195119DED0775
:10B04000F9D5DFF820C1464DCCF800909C462B681E
:10B050001293129BDB07FAD56346DFF808C1DFF8CD
:10B060000C913F4DCCF800909C462B681393139B9A
:10B07000DB07FAD56346DFF8ECC0DFF8F490384D13
:10B08000CCF800909C462B681493149BDB07FAD5F0
:10B090006346DFF8D0C0DFF8DC90CCF80090304D8C
:10B0A00047F0104C4CF4402C2F681597159FFF0764
:10B0B000FAD52C4D2A4FC5F800C0800440F0104C42
:10B0C0004CF4824C3D681695169DED07FAD5019D0E
:10B0D000DFF89090224FC9F800C09B0445F0484526
:10B0E00042EA030C45F0030545EA0C053A6817925D
:10B0F000179AD207FAD51B4F194A3D60049D45F0B7
:10B10000045747F4801715681895189DED07FAD570
:10B11000144A134D17602A681992199AD207FAD562
:10B12000104A0F4D176040F0045040F482402A68E6
:10B130001A921A9AD207FAD541F0484141F4804157
:10B14000084A074D106041EA08010B432A681B9228
:10B150001B9AD707FAD50349014A0B600CE000BFE0
:10B16000B0B0025080B00250C00000C800310C9056
:10B17000C0400C90C030202913681C931C9BDD0735
:10B18000FAD5009B154A44EA0334154B44F01044A9
:10B19000C3F800E0264313681D931D9BDC07FAD516
:10B1A0000F4B0E491E60039B4CEA03020B681E9373
:10B1B0001E9BD807FAD50A4B08491A60029B43F038
:10B1C000104242F430120B681F931F9BDB07FAD525
:10B1D000034B1A6021B0BDE8F08F00BFB0B0025041
:10B1E00080B002502DE9F0434B4C89B023680193A5
:10B1F000019BDD07FAD5494B13449B000A181C68D4
:10B200001E2A04F11F0488BF1E224FEA541402FBB9
:10B2100004F288BFC0F11E01B2F5806F04D94FF46B
:10B220008061B1FBF4F1091A04F1010E00292EF03E
:10B2300001062BDD00F1A05000F52C404FF0000C72
:10B24000354ADFF8E480364D870060461368029384
:10B25000029BDB07FAD5D7F8009013680393039B92
:10B26000DB07FAD5C8F8009054B1002301339C42A3
:10B270002860FBD1A64203D901339E422860FBD14E
:10B280000CF1010C614507F10407DFD1224A136874
:10B290000493049BDD07FAD5224B1F4A19681368F3
:10B2A0000593059BD807FAD51F4B196074B100238D
:10B2B0001B491A4601339C420A60FBD1A64205D9BC
:10B2C0001749002201339E420A60FBD1124A1368DB
:10B2D0000693069BD907FAD5144B0F4A19681368D1
:10B2E0000793079BDB07FAD50F4B196034B1002396
:10B2F0000B491A4601339C420A60FBD1A64207D98A
:10B30000074A002301E00EF1010E76451360FAD1E1
:10B3100009B0BDE8F08300BFB4B0025024AC001403
:10B32000D8B002507CB00250D4B0025078B0025075
:10B3300010B4124C85B023680193019BDB07FAD54A
:10B3400002F1A05202F52C4292000C4C12682368C4
:10B350000393039BDB07FAD5094B1A6051B10438FC
:10B36000084A00EB810113680293029B40F8043FF6
:10B370008842F8D105B05DF8044B7047B4B0025074
:10B38000E4B00250DCB00250F0B42E4D84B02C6812
:10B390000094009CE607FAD500F1A05000F52C407F
:10B3A0008000284C0668206801900198C507FAD5EE
:10B3B000254C581C266020F001059BB1043ADFF8AB
:10B3C0008CC002EB830752F8044FCCF80040974240
:10B3D000F9D19D4206D91D4A002300E00130854283
:10B3E0001360FBD1174A13680293029BD807FAD562
:10B3F000174B0B449B0019681F3149098D421DD220
:10B40000104A13680393039BDB07FAD50E4B0F4CCE
:10B410002E440022491B1E60104600E01A46531CB1
:10B420008B422060FAD1023222F00102914205D211
:10B4300006480021013393420160FBD104B0F0BC07
:10B44000704700BFB4B00250D4B00250D8B0025020
:10B4500024AC0014F0B595B07B4D1A9E370347EA33
:10B46000864747F0045444F080042E680096009EFE
:10B47000F607FAD5754D764E2C601B9C46EA821273
:10B48000714E42EA043432680192019AD207FAD529
:10B490006E4D6D4E2C608A0142F010442743346893
:10B4A0000294029CE507FAD51C0344EA8343674CE7
:10B4B000654E276043F0045747F0800734680394D3
:10B4C000039CE407FAD5614C5F4E2760346804940E
:10B4D000049CE707FAD55D4E5E4D35608C0444F060
:10B4E0001045594F45F402553E680596059EF607EE
:10B4F000FAD5564F544E3D6043F0104545F48075E3
:10B5000033680693069BDF07FAD5504B4E4F1D60FC
:10B51000860146F0045545F482153B680793079B66
:10B52000DB07FAD5494BDFF83CE1DFF81CC11D60B1
:10B53000070347EA0E0EDCF800300893089BDD078E
:10B54000F9D5424DDFF820C1C5F800E01C9B30352D
:10B550004CEA834E2B680993099BDB07FAD53B4BDA
:10B56000394DC3F800E02B680A930A9BDB07FAD534
:10B57000364B394DDFF8F4C01D60334D46EA0C0CF4
:10B580002B680B930B9BDB07FAD53E432F4B2E4DBD
:10B59000C3F800C046F0045646F400262B680C930E
:10B5A0000C9BDF07FAD5294D2C4B2E6043EA8040D7
:10B5B00030352B680D930D9BDE07FAD5234B224DBA
:10B5C00018602B680E930E9BDB07FAD51443080313
:10B5D0001E4B234D1C4E1D60044344F0045533683C
:10B5E0000F930F9BDF07FAD5184B174E1D6044F0E1
:10B5F000104433681093109BDB07FAD5134B124E9F
:10B600001C6033681193119BDF07FAD510430F4B71
:10B610000D4C1D6040F0245040F41010236812932C
:10B62000129BDD07FAD541F04841084B064C1860E3
:10B6300041F4A211114323681393139BDB07FAD53E
:10B64000024B196015B0F0BDB0B0025080B002508E
:10B6500000000890802008218020202980200021DF
:10B66000402128290001102100410021024010C87A
:10B670002DE9F00392B0684E189C684DDDE91998E9
:10B68000240326432F680197019FFF07FAD5644DD5
:10B69000644F2E6047EA093730352E680296029EC5
:10B6A000F607FAD55E4D604E2F601D9F303546EA95
:10B6B00007362F680397039FFF07FAD55B4D584F56
:10B6C00045EA8949554D3E6049EA04042F680497CC
:10B6D000049FFE07FAD5524F554E3C601C9C3037F4
:10B6E00046EA04363C680594059CE407FAD5DFF881
:10B6F00030C1504C1E9DCCF8006044EA05351B9CBF
:10B70000464F45EA84453C680694069CE607FAD510
:10B710004FEA083646EA8848414C404F256048F0D9
:10B72000045646F0C0063C680794079CE407FAD527
:10B730009D013B4C394F266045F0245C4CF4C21C03
:10B740003C680894089CE607FAD59B041D43344CDA
:10B75000324EC4F800C045F0045747F4A04734689F
:10B760000994099CE407FAD52D4C2C4E27603468C7
:10B770000A940A9CE407FAD5294C2F4F274E2760DC
:10B7800034680B940B9CE707FAD5254C2B4F234EBE
:10B79000276034680C940C9CE407FAD5204C284FA1
:10B7A0001E4E276034680D940D9CE707FAD5254C92
:10B7B0001B4E44EA8010244C3460184C1843236814
:10B7C0000E930E9BDE07FAD5154C204B20601348D4
:10B7D00043EA811103680F930F9BDC07FAD5104CE5
:10B7E0001B4B0E48216043EA821203681093109BA2
:10B7F000D907FAD50A4B09491A6045F0104545F4B6
:10B80000A0450B681193119BDB07FAD5044B1D6013
:10B8100012B0BDE8F003704780001829B0B00250A4
:10B8200080B00250800008210001089080000021B3
:10B830004001089080000090404114210021182907
:10B840000031102100400090C0200C2100500C90CD
:10B8500000301090F0B5DFF8ECC16F4E050395B0E5
:10B8600045EA0C0C34680194019CE707FAD56B4C4F
:10B870006B4F694EC4F800C047EA01373468029440
:10B88000029CE407FAD5654C634E27603468039444
:10B89000039CE707FAD5634F604C634E266047EA86
:10B8A00081475D4E2F4334680494049CE407FAD525
:10B8B0005A4C594D27602C680594059CE607FAD52B
:10B8C0009D0445EA0337554CDFF87CC1524EC4F85D
:10B8D00000C047F0104747F0800734680694069C84
:10B8E000E407FAD54D4C4C4E276034680794079C0A
:10B8F000E707FAD54FEA023E4EEA8247474CDFF8A7
:10B900004CC1454EC4F800C047F0045747F0C0078B
:10B9100034680894089CE407FAD5404CDFF830C13D
:10B920003D4E27604EEA0C0C34680994099CE707E9
:10B93000FAD59B01394C384EC4F800C043F0245767
:10B9400047F4C21734680A940A9CE407FAD5334CCA
:10B95000314E27602B4343F0045747F4A047346827
:10B960000B940B9CE407FAD52C4C2B4E27603468C3
:10B970000C940C9CE407FAD5284C2C4F264E2760DB
:10B9800034680D940D9CE707FAD5244C284F224EBD
:10B99000276034680E940E9CE407FAD51F4C254F9F
:10B9A0001D4E276034680F940F9CE707FAD51B4C97
:10B9B000214E266045F0104545F48045164E45EA77
:10B9C000801534681094109CE407FAD5134C1B487A
:10B9D000256040EA81113034206811901198C00729
:10B9E000FAD50E4D164C0C48296044EA82120168C3
:10B9F00012911299C907FAD508480749026043F025
:10BA0000104343F4A0430A681392139AD207FAD55D
:10BA1000024A136015B0F0BDB0B0025080B00250C1
:10BA2000800008218000002100210890404114215D
:10BA30000021182900311021C0200C2100500C9049
:10BA400000301090800018294021089080700890E4
:10BA5000C0000C90FF290CD12DE9F043C36993B0CD
:10BA6000064609939B0F012B05D0704813B0BDE823
:10BA7000F0836F48704709A9FE2200F08FFE01286D
:10BA8000F3D1FC254FF0FF344FF016094FF01508A5
:10BA900014272A4609A9304600F080FE00EB8400F6
:10BAA00004300728E1D8DFE800F04F4B4743383433
:10BAB0002204CDE905890B230A22092108200497D5
:10BAC000CDE90223CDE90001FFF7D2FD4FF0FF34AD
:10BAD000023D42D00B230A2209210820FFF7BAFEBB
:10BAE0000B230A2209210820FFF7B4FED1E7122117
:10BAF00011201024069105900B230A220921082009
:10BB00000494CDE90223CDE90001FFF7B1FD002443
:10BB1000DEE70E210D200C24ECE70E210D200C2475
:10BB2000069105900B230A22092108200494C7E7F7
:10BB30000F210C200D24DDE7132110201124D9E75B
:10BB4000132110201124EBE717240B230A220921CB
:10BB50000820CDE904870694D3E72A4609A9304690
:10BB600000F01CFE002880D10F220C230B200A219C
:10BB700006920593092208230D25CDE90121CDE97F
:10BB8000030500931622172315211420FFF770FDDB
:10BB9000284A002C24D113680E930E9BDC07FAD59B
:10BBA000254B2649234A196013680F930F9BD8072A
:10BBB000FAD5214B22491F4A196013681093109B34
:10BBC000D907FAD51C4B1F491A4A196013681193FB
:10BBD000119BDB07FAD5184B1B4A1A60002045E77A
:10BBE00013680A930A9BDB07FAD5134B1349114AD2
:10BBF000196013680B930B9BDF07FAD50E4B1349A3
:10BC00000C4A196013680C930C9BDE07FAD50A4B9B
:10BC10000F49084A196013680D930D9BDD07FAD58B
:10BC2000054B0C4A1A60002020E700BF0323F000F8
:10BC30000223F000B0B0025080B0025080210229EF
:10BC4000C06128980074208840742488C061589886
:10BC500000745088407454882DE9F04F04460D4616
:10BC600087B01146284690469A46FBF783FED4F8E3
:10BC7000BC3204F1D8071F33064641465B093A46F9
:10BC80002846FBF7B9FC002E6ED001286CD006A91F
:10BC9000202341F8043D374BD4F8B8B2D4F8BC02A5
:10BCA00093F91A200092584593F91B20019238BF4E
:10BCB000584693F91C2093F91D300292039300F02B
:10BCC00001F98046002851D10BF11F092A494FEA9A
:10BCD00059194B46C1F800B022460121FFF754FB29
:10BCE0000121084604F5DC720523FFF74DFB4B46A6
:10BCF00004F1480201210B20FFF746FBD4F8BC32C7
:10BD00009DF808409DF800001F333A465B099DF8F6
:10BD10000C700121FFF738FB52464B4620460121AB
:10BD2000FFF732FB4B463846109A0121FFF72CFBF8
:10BD300006F11F035B092A469DF804000121FFF765
:10BD400023FB00F0E1F9224649461198FFF7F0FA8B
:10BD50003A4649461298FFF7EBFA059800F010F8BA
:10BD6000404607B0BDE8F08FDFF81080404607B0CE
:10BD7000BDE8F08F74D3030090B002503008F1009A
:10BD800008B560B90B4B0C4800221A6001F014FD95
:10BD900000B908BD0948BDE8084001F06FBC202883
:10BDA00001464FF0070228BF20210020FFF71AFAB2
:10BDB000E8E700BF1CB80250C08D002098D10300F6
:10BDC00070B41C6885B001F01F0644B91E2E06D061
:10BDD0001068F04000F0030005B070BC70470F4DD4
:10BDE0002C680194019CE407FAD500F1A05000F5FD
:10BDF0002C408000094D00682C680394039CE407E4
:10BE0000FAD5074C00EB61110648216001680291E8
:10BE10000299116000211960DAE700BFB4B0025046
:10BE2000E4B00250DCB0025030B4224A84B013684F
:10BE30000093009BDC07FAD500F1A05000F52C40E0
:10BE400080001C4A006813680193019BD907FAD54A
:10BE5000194B1B6813F11F0248BF03F13E02521138
:10BE6000013A10D41349154D154C0B680393039BED
:10BE7000DB07FAD513182B6023680293029B3BB9AA
:10BE800012F1FF32F1D2501C400104B030BC7047B7
:10BE900001325001A0F120014FF0004202E00138D0
:10BEA0008142F2D013424FEA5202F8D004B030BCC3
:10BEB000704700BFB4B00250ACB00250E4B00250C2
:10BEC000DCB0025038B504460D460E484FF0FF3145
:10BED00001F050FC90B9A4F12003B3F5426F0BD8E8
:10BEE00020462A46002100F01FF8044610B10548FC
:10BEF00001F062FC204638BD034CF8E7034801F02E
:10BF0000BDFBE8E7C08D00202221F000B0D1030086
:10BF1000A0F12003B3F5426F01D800F005B8014845
:10BF2000704700BF2221F000F0B58F2883B084460F
:10BF300062D800F166034730C0064FEA53135FD161
:10BF40005B013F339B0903F1010E11B18E4559D8B6
:10BF50008E464FEACE034FF48056B6FBF3F6202E02
:10BF600028BF202602B11660284B294A012100244F
:10BF70001960023E23460EFA01F540F6FC7008E017
:10BF800001331E2B146005EB01070C4602F104027D
:10BF90000AD0B34205EB0401F2DB01331E2B106023
:10BFA0000F4602F10402F4D11A491B4B0C600CF14C
:10BFB0003F021F6022F03F02184F1948C86040320C
:10BFC000C3F814C0174E3A60174D184C1848194A58
:10BFD0004FEA8E1333603C3141F8183C2B602360EC
:10BFE000036013600A680192019AD207FAD5114AD8
:10BFF0000020136003B0F0BD00F11F035B099FE751
:10C0000001339DE70C4803B0F0BD00BF1CB80250DF
:10C0100000B0025078B002507CB0025094B0025090
:10C0200020F80F0098B00250A0B00250A4B0025007
:10C03000A8B00250ACB002502221F00030B42D4C18
:10C0400088B0206800900098C507FAD52A4C2B4884
:10C050002B4D256040EA83433034206801900198DD
:10C06000C007FAD59001244C40EA8242236021485F
:10C0700042F0104444F4C04403680293029BDB077F
:10C08000FAD51D4B1B481C6003680393039BDD0717
:10C09000FAD58B0143EA8141174B1A4D1D601548B3
:10C0A00041F0104545F4C04503680493049BDB0749
:10C0B000FAD5114B0F481D6003680593059BDD07FA
:10C0C000FAD50D4B0B481C6041F0584403680693A9
:10C0D000069BD907FAD5084B06491C6042F0584226
:10C0E0000B680793079BDB07FAD5034B1A6008B070
:10C0F00030BC7047B0B0025080B0025080710098E0
:10C10000C0210229806118902DE9F04F9F4AADB0FF
:10C1100013680B930B9BD907FAD59D4B9D499B4AFE
:10C12000196013680C930C9BDB07FAD5984B9A495E
:10C13000964A196013680D930D9BDF07FAD5944B4F
:10C140009649924A196013680E930E9BDE07FAD542
:10C150008F4B93498D4A196013680F930F9BDD072E
:10C16000FAD58B4B8F49894A196013681093109B3D
:10C17000DC07FAD5864B8C4A1A601B20FFF754FE69
:10C1800004461820FFF750FE8442804A0AD91368FB
:10C190001193119BD807FAD57D4B844A1A6001236D
:10C1A00007930AE013681293129BD907FAD5784BCC
:10C1B0007F4A1A60002304460793744A1368139356
:10C1C000139BDB07FAD5724B7A49704A19601368E2
:10C1D0001493149BDF07FAD56D4B774A1A601C2025
:10C1E0001D2118220B238DE80F000F230E220D2195
:10C1F0000C20FCF729FD0C200D210E220F238DE8C9
:10C200000F000DF1B0091323122211211020FCF7A9
:10C210001BFD0134012349F8883D24F00104023C50
:10C2200021464B4609AA1B20FFF7CAFD022800F051
:10C230004E81032800F02481012800F06F814FF027
:10C240000008524A13682193219BDE07FAD5504B10
:10C250005A494E4A196013682293229BDD07FAD58A
:10C260004B4B5749494A196013682393239BD807BE
:10C27000FAD5474B534A1A60023C41D44FF0170B92
:10C2800016274FF01A0A15251426294630461A2378
:10C290001622CDE9027B01950096FCF7D5FC2946D4
:10C2A0003346304616220095CDE9017AFFF7D2F8E1
:10C2B0004B4609AA21461B20FFF782FD00EB8800B0
:10C2C000043007281AD8DFE810F0D300D700D000D8
:10C2D000C800C400CC00B2000800122511221023AF
:10C2E00015211420CDE9042503930297CDE900011F
:10C2F00017231622FEF7C4FD4FF0FF38023CC2D5CB
:10C3000019201C21162215231824CDE90121CDE97D
:10C31000030400930E2214230D210C20FEF76EFC63
:10C320001A4AB8F1000F59D113682893289BDD07EA
:10C33000FAD5174B2449154A196013682993299B8C
:10C34000DC07FAD51248214C04602149214B07989B
:10C350000E4A002808BF194613682A932A9BD8075B
:10C36000FAD50B4B094A196013682B932B9BDB07FB
:10C37000FAD5074B184A1A6018231D221C210120E8
:10C38000FFF75CFE2DB0BDE8F08F00BFB0B00250EB
:10C3900080B0025000020021008220214082202132
:10C3A0008082242140066E4900966929C0066649AC
:10C3B000C0066249000662410016624940D6212942
:10C3C000C0D32029C0142129C05521290007524972
:10C3D0004007564940075E4900065A4913682493AE
:10C3E000249BD907FAD5614B6149624A19601368E9
:10C3F0002593259BDB07FAD55C485F4C04605F49B9
:10C400005F4B07985B4A002808BF194613682693BC
:10C41000269BDF07FAD5554B564A196013682793B8
:10C42000279BDE07FAD5514B564A1A60A4E70E2522
:10C430000D220C2315211420CDE904250393029726
:10C44000CDE9000117231622FEF71AFD4FF0000870
:10C4500054E718251D221C2342E7182519221C2306
:10C46000E8E718251D221C23E4E70E250F22E0E74C
:10C47000122513221023DDE70E250F220C232FE7B0
:10C480003C4A13681D931D9BD807FAD5374B3E498C
:10C49000384A196013681E931E9BD907FAD5334B8F
:10C4A0003A49344A196013681F931F9BDB07FAD57A
:10C4B0002E4B37492F4A196013682093209BDF07C2
:10C4C000FAD52A4B334A1A604FF0FF38B9E6294AA9
:10C4D00013681993199BDB07FAD5244B2E49254A7B
:10C4E000196013681A931A9BDF07FAD51F4B2B4963
:10C4F000204A196013681B931B9BDE07FAD51B4B60
:10C5000027491C4A196013681C931C9BDD07FAD548
:10C51000164B244A1A604FF0000892E6154A136839
:10C520001593159BDE07FAD5104B1B49114A19606C
:10C5300013681693169BDD07FAD50C4B17490D4A65
:10C54000196013681793179BD807FAD5074B14493E
:10C55000084A196013681893189BD907FAD5034B3A
:10C56000104A1A604FF0FF386BE600BF80B00250EF
:10C57000C0D32029B0B002500007324940073649E5
:10C5800040073E4900063A490005424940054649F0
:10C5900080054A49C0054E490005324940053649E3
:10C5A00080053A49C0053E492DE9F043644A93B0FD
:10C5B00013680093009BD907FAD5624B6249634A1E
:10C5C000196013680193019BDB07FAD5604B1B6868
:10C5D000DF0400F1AF805A4A13680293029BDE0722
:10C5E000FAD5584B5B49594A196013680393039B6A
:10C5F000DD07FAD5564B1B68DC0400F18580534BF0
:10C60000554E4F494F4FDFF86CC14FF00109DFF82D
:10C6100068E1524D00241A680492049AD007FAD5B2
:10C6200030681A680692069AD207FAD5CEF800004A
:10C630002A680592059A12B95DE052080134D007C4
:10C64000FBD514F01F0565D11D680995099DE80704
:10C65000FAD5434DD5F800801D680B950B9DED076D
:10C66000FAD5DFF814E13D4DCEF800802D680A952B
:10C67000E0070A9D05D505F00704032C57D0052CCB
:10C6800055D002F00302032A05D105F00305032D5E
:10C6900008BFC9F100090A680C920C9AD407FAD5B0
:10C6A000304A3A600A680D920D9AD007FAD52E4AA0
:10C6B0003A600A680E920E9AD207FAD52B4A3A606F
:10C6C0000A680F920F9AD507FAD5294A3A600A6884
:10C6D0001092109AD407FAD51B4A3A601A68119240
:10C6E000119AD007FAD51A4A1268D2048FD5484653
:10C6F00013B0BDE8F0830A680792079AD207FAD50B
:10C70000C7F800C0203486E74FF00109484613B04F
:10C71000BDE8F083DFF864E0013D4EEA053E0D68B8
:10C720000895089DED07FAD5C7F800E08CE7C9F138
:10C730000009A6E74FF00009484613B0BDE8F083B2
:10C74000B0B0025080B0025000082A51B4B002507C
:10C7500088B0025000182A5128B00250DCB00250B4
:10C760002CB0025000032A4980022E49C0C228A1E1
:10C77000C002324980F22961E4B00250800228618F
:10C780000B6830B40468554284EA03022A405440DE
:10C79000534004600B6030BC704700BF0B6812F060
:10C7A0001F0F10B404464FEA93700CD1002A6FF0AB
:10C7B0004043B8BF1F3203EB621254F822300B60C3
:10C7C0005DF8044B70479B000B605DF8044B7047AD
:10C7D0002DE9F047434ABAB013680093009BDE0787
:10C7E000FAD5414B4149424A196013680193019BB4
:10C7F000DD07FAD53F4B1B68DC040CD5394A1368BA
:10C800000293029BD807FAD5374B3B4A1A600120A6
:10C810003AB0BDE8F087364A13680393039BD90703
:10C82000FAD5364B324A196813680593059BDB0726
:10C83000FAD5334A334B11601B680493049C04F00F
:10C840000303032B00F0948104F00705052D254A0E
:10C8500000F00E8113681993199BDE07FAD5224B5D
:10C860002949204A196013681A931A9BD807FAD5E8
:10C870001D4B264A1A60FFF797FE013000F0FE813B
:10C88000184A13681B931B9BD907FAD51648204BEF
:10C890000360651E40F043821249DFF87CC0144BF0
:10C8A0001C4F174E174CA8460A681C921C9AD207B8
:10C8B000FAD5C0F800C008F120081A681D921D9A28
:10C8C000D507FAD53D681A681F921F9AD207FAD584
:10C8D000356022681E921E9D002DE5D015F00103E3
:10C8E0001DD02DE0B0B0025080B0025000081251AF
:10C8F000B4B0025088B00250C0000E4100B00250E7
:10C90000E4B00250DCB0025080021249C002024979
:10C91000C01002290CB00250C0F00D6113466D0822
:10C92000EF0703F10102F9D577487849904440EACE
:10C9300003300B682093209BDE07FAD5744B1860F8
:10C94000724A13682193219BDC07FAD5704B714919
:10C950006E4A196013682293229BD807FAD56C4B54
:10C960006D4A6A4CDFF8F8916C4F6D4E1A609A462A
:10C9700023682393239BD907FAD5CAF8009023682C
:10C980002493249BDA07FAD5CAF80070236825930C
:10C99000259BDB07FAD5CAF80060FFF705FE0130DA
:10C9A000E6D15A4A13682693269BDC07FAD5584BE2
:10C9B0005C49564A196013682793279BD807FAD514
:10C9C000534B5949514A196013682893289BD9073A
:10C9D000FAD54F4B4C494D4A196013682993299B4E
:10C9E000DB07FAD54A4B5149484A196013682A9324
:10C9F0002A9BDF07FAD5464B4D49444A1960136814
:10CA00002B932B9BDE07FAD541484A4A3F4BDFF870
:10CA10005491DFF854E1484FDFF850C102601A68C2
:10CA20002C922C9AD407FAD5C0F800901A682D924F
:10CA30002D9AD107FAD54149414EC0F800E00024B3
:10CA40001A682E922E9AD207FAD507600A682F929A
:10CA50002F9AD207FAD53268D20400F1138101343B
:10CA60001A683092309AD207FAD5C0F800C0E7E7CA
:10CA700013680993099BDC07FAD5254B3149234AF2
:10CA8000196013680A930A9BD807FAD5204B2E49E0
:10CA90001E4A196013680B930B9BD907FAD51C4BE0
:10CAA0002A491A4A196013680C930C9BDB07FAD5C4
:10CAB000174B2749214A196013680D930D9BDF0717
:10CAC000FAD51F4B114A1B68DE0440F18E801368B3
:10CAD0000E930E9BDC07FAD50D4B1E490B4A1960CD
